{
  "_format": "hh-sol-artifact-1",
  "contractName": "EurocupLegends",
  "sourceName": "contracts/EurocupLegends.sol",
  "abi": [
    {
      "inputs": [
        {
          "components": [
            {
              "internalType": "address",
              "name": "creator",
              "type": "address"
            },
            {
              "internalType": "uint256",
              "name": "share",
              "type": "uint256"
            }
          ],
          "internalType": "struct IEurocupLegends.Creator[]",
          "name": "_creators",
          "type": "tuple[]"
        },
        {
          "internalType": "address",
          "name": "_owner",
          "type": "address"
        }
      ],
      "stateMutability": "nonpayable",
      "type": "constructor"
    },
    {
      "inputs": [],
      "name": "AlreadyClaimedPrize",
      "type": "error"
    },
    {
      "inputs": [
        {
          "internalType": "address",
          "name": "_creators",
          "type": "address"
        },
        {
          "internalType": "uint256",
          "name": "_amount",
          "type": "uint256"
        }
      ],
      "name": "FeeTransferFailed",
      "type": "error"
    },
    {
      "inputs": [],
      "name": "MintClosed",
      "type": "error"
    },
    {
      "inputs": [],
      "name": "NoPrizeForThisCountry",
      "type": "error"
    },
    {
      "inputs": [],
      "name": "NoShirts",
      "type": "error"
    },
    {
      "inputs": [],
      "name": "NoWinnersYet",
      "type": "error"
    },
    {
      "inputs": [
        {
          "internalType": "address",
          "name": "owner",
          "type": "address"
        }
      ],
      "name": "OwnableInvalidOwner",
      "type": "error"
    },
    {
      "inputs": [
        {
          "internalType": "address",
          "name": "account",
          "type": "address"
        }
      ],
      "name": "OwnableUnauthorizedAccount",
      "type": "error"
    },
    {
      "inputs": [],
      "name": "ReentrancyGuardReentrantCall",
      "type": "error"
    },
    {
      "inputs": [],
      "name": "TransferFailed",
      "type": "error"
    },
    {
      "inputs": [],
      "name": "ZeroAddress",
      "type": "error"
    },
    {
      "anonymous": false,
      "inputs": [
        {
          "indexed": false,
          "internalType": "bool",
          "name": "isMintOpen",
          "type": "bool"
        }
      ],
      "name": "MintStatus",
      "type": "event"
    },
    {
      "anonymous": false,
      "inputs": [
        {
          "indexed": true,
          "internalType": "address",
          "name": "previousOwner",
          "type": "address"
        },
        {
          "indexed": true,
          "internalType": "address",
          "name": "newOwner",
          "type": "address"
        }
      ],
      "name": "OwnershipTransferred",
      "type": "event"
    },
    {
      "anonymous": false,
      "inputs": [
        {
          "indexed": false,
          "internalType": "address",
          "name": "owner",
          "type": "address"
        },
        {
          "indexed": false,
          "internalType": "uint256",
          "name": "prize",
          "type": "uint256"
        }
      ],
      "name": "PrizeClaimed",
      "type": "event"
    },
    {
      "anonymous": false,
      "inputs": [
        {
          "indexed": false,
          "internalType": "address[3]",
          "name": "winners",
          "type": "address[3]"
        }
      ],
      "name": "WinnersSet",
      "type": "event"
    },
    {
      "stateMutability": "payable",
      "type": "fallback"
    },
    {
      "inputs": [],
      "name": "FEE_PERCENTAGE",
      "outputs": [
        {
          "internalType": "uint256",
          "name": "",
          "type": "uint256"
        }
      ],
      "stateMutability": "view",
      "type": "function"
    },
    {
      "inputs": [],
      "name": "MAX_WINNERS",
      "outputs": [
        {
          "internalType": "uint256",
          "name": "",
          "type": "uint256"
        }
      ],
      "stateMutability": "view",
      "type": "function"
    },
    {
      "inputs": [],
      "name": "SHARE_PRECISION",
      "outputs": [
        {
          "internalType": "uint256",
          "name": "",
          "type": "uint256"
        }
      ],
      "stateMutability": "view",
      "type": "function"
    },
    {
      "inputs": [
        {
          "internalType": "address",
          "name": "_recipient",
          "type": "address"
        },
        {
          "internalType": "address",
          "name": "_country",
          "type": "address"
        }
      ],
      "name": "claimPrize",
      "outputs": [],
      "stateMutability": "nonpayable",
      "type": "function"
    },
    {
      "inputs": [
        {
          "internalType": "address",
          "name": "_country",
          "type": "address"
        }
      ],
      "name": "getCountryPrize",
      "outputs": [
        {
          "internalType": "uint256",
          "name": "",
          "type": "uint256"
        }
      ],
      "stateMutability": "view",
      "type": "function"
    },
    {
      "inputs": [],
      "name": "getCreators",
      "outputs": [
        {
          "components": [
            {
              "internalType": "address",
              "name": "creator",
              "type": "address"
            },
            {
              "internalType": "uint256",
              "name": "share",
              "type": "uint256"
            }
          ],
          "internalType": "struct IEurocupLegends.Creator[]",
          "name": "",
          "type": "tuple[]"
        }
      ],
      "stateMutability": "view",
      "type": "function"
    },
    {
      "inputs": [
        {
          "internalType": "address",
          "name": "_user",
          "type": "address"
        },
        {
          "internalType": "address",
          "name": "_country",
          "type": "address"
        }
      ],
      "name": "getPrize",
      "outputs": [
        {
          "internalType": "uint256",
          "name": "",
          "type": "uint256"
        }
      ],
      "stateMutability": "view",
      "type": "function"
    },
    {
      "inputs": [],
      "name": "getWinners",
      "outputs": [
        {
          "internalType": "address[3]",
          "name": "",
          "type": "address[3]"
        }
      ],
      "stateMutability": "view",
      "type": "function"
    },
    {
      "inputs": [
        {
          "internalType": "address",
          "name": "_country",
          "type": "address"
        },
        {
          "internalType": "bytes32",
          "name": "_tokenId",
          "type": "bytes32"
        }
      ],
      "name": "isClaimed",
      "outputs": [
        {
          "internalType": "bool",
          "name": "",
          "type": "bool"
        }
      ],
      "stateMutability": "view",
      "type": "function"
    },
    {
      "inputs": [],
      "name": "owner",
      "outputs": [
        {
          "internalType": "address",
          "name": "",
          "type": "address"
        }
      ],
      "stateMutability": "view",
      "type": "function"
    },
    {
      "inputs": [],
      "name": "renounceOwnership",
      "outputs": [],
      "stateMutability": "nonpayable",
      "type": "function"
    },
    {
      "inputs": [
        {
          "internalType": "bool",
          "name": "_isMintOpen",
          "type": "bool"
        }
      ],
      "name": "setMintStatus",
      "outputs": [],
      "stateMutability": "nonpayable",
      "type": "function"
    },
    {
      "inputs": [
        {
          "internalType": "address[3]",
          "name": "_winners",
          "type": "address[3]"
        },
        {
          "internalType": "uint256[3]",
          "name": "_shares",
          "type": "uint256[3]"
        }
      ],
      "name": "setWinners",
      "outputs": [],
      "stateMutability": "nonpayable",
      "type": "function"
    },
    {
      "inputs": [
        {
          "internalType": "address",
          "name": "newOwner",
          "type": "address"
        }
      ],
      "name": "transferOwnership",
      "outputs": [],
      "stateMutability": "nonpayable",
      "type": "function"
    },
    {
      "stateMutability": "payable",
      "type": "receive"
    }
  ],
  "bytecode": "0x60806040526006805460ff191660011790553480156200001e57600080fd5b50604051620013a4380380620013a48339810160408190526200004191620001ed565b806001600160a01b0381166200007157604051631e4fbdf760e01b81526000600482015260240160405180910390fd5b6200007c816200010c565b506001805560005b825181101562000103576002838281518110620000a557620000a5620002e2565b602090810291909101810151825460018082018555600094855293839020825160029092020180546001600160a01b0319166001600160a01b0390921691909117815591015191015580620000fa81620002f8565b91505062000084565b50505062000320565b600080546001600160a01b038381166001600160a01b0319831681178455604051919092169283917f8be0079c531659141344cd1fd0a4f28419497f9722a3daafe3b4186f6b6457e09190a35050565b634e487b7160e01b600052604160045260246000fd5b604080519081016001600160401b03811182821017156200019757620001976200015c565b60405290565b604051601f8201601f191681016001600160401b0381118282101715620001c857620001c86200015c565b604052919050565b80516001600160a01b0381168114620001e857600080fd5b919050565b60008060408084860312156200020257600080fd5b83516001600160401b03808211156200021a57600080fd5b818601915086601f8301126200022f57600080fd5b81516020828211156200024657620002466200015c565b62000256818360051b016200019d565b828152818101935060069290921b8401810191898311156200027757600080fd5b938101935b82851015620002c55785858b031215620002965760008081fd5b620002a062000172565b620002ab86620001d0565b81528583015183820152845293850193928101926200027c565b9650620002d4888201620001d0565b955050505050509250929050565b634e487b7160e01b600052603260045260246000fd5b6000600182016200031957634e487b7160e01b600052601160045260246000fd5b5060010190565b61107480620003306000396000f3fe6080604052600436106100e05760003560e01c806376602f2f1161007f578063df15c37e11610059578063df15c37e14610238578063e6adc1ee1461025a578063f2fde38b1461027c578063f82f83ff1461029c576100f0565b806376602f2f146101d05780637eef2509146101f05780638da5cb5b14610210576100f0565b80635d55307d116100bb5780635d55307d146101565780635fc5e0201461017657806367457e4c1461018b578063715018a6146101bb576100f0565b80620b46f8146100f95780631f85e3ca1461012157806329a62a7614610141576100f0565b366100f0576100ee346102d2565b005b6100ee346102d2565b34801561010557600080fd5b5061010e601981565b6040519081526020015b60405180910390f35b34801561012d57600080fd5b506100ee61013c366004610cf4565b61042f565b34801561014d57600080fd5b5061010e600381565b34801561016257600080fd5b506100ee610171366004610d39565b61047e565b34801561018257600080fd5b5061010e606481565b34801561019757600080fd5b506101ab6101a6366004610d6c565b610808565b6040519015158152602001610118565b3480156101c757600080fd5b506100ee610836565b3480156101dc57600080fd5b506100ee6101eb366004610da7565b61084a565b3480156101fc57600080fd5b5061010e61020b366004610d39565b61095f565b34801561021c57600080fd5b506000546040516001600160a01b039091168152602001610118565b34801561024457600080fd5b5061024d610b38565b6040516101189190610dd3565b34801561026657600080fd5b5061026f610b7c565b6040516101189190610e0d565b34801561028857600080fd5b506100ee610297366004610e65565b610bf1565b3480156102a857600080fd5b5061010e6102b7366004610e65565b6001600160a01b031660009081526007602052604090205490565b60065460ff166102f55760405163589ed34b60e01b815260040160405180910390fd5b60006064610304601984610e96565b61030e9190610ead565b60025490915060005b818110156104295760006002828154811061033457610334610ecf565b600091825260208083206040805180820190915260029093020180546001600160a01b03168352600101549082018190529092506064906103759087610e96565b61037f9190610ead565b9050600082600001516001600160a01b03168260405160006040518083038185875af1925050503d80600081146103d2576040519150601f19603f3d011682016040523d82523d6000602084013e6103d7565b606091505b505090508061041357825160405163373a7d4360e11b81526001600160a01b039091166004820152602481018390526044015b60405180910390fd5b505050808061042190610ee5565b915050610317565b50505050565b610437610c2f565b6006805460ff19168215159081179091556040519081527faff50328f57c9ced983a9e3c360c67ee11633d860350531f0c11fc435751448c9060200160405180910390a150565b610486610c5c565b6001600160a01b0381166104ad5760405163d92e233d60e01b815260040160405180910390fd5b6001600160a01b038116600090815260076020526040812054908190036104e757604051630215e7c960e21b815260040160405180910390fd5b6040516351d930f960e11b81526001600160a01b0384811660048301526000919084169063a3b261f290602401600060405180830381865afa158015610531573d6000803e3d6000fd5b505050506040513d6000823e601f3d908101601f191682016040526105599190810190610f14565b80519091506000819003610583576040516001625bffd160e01b0319815260040160405180910390fd5b6000805b8281101561065e576001600160a01b038616600090815260086020526040812085519091908690849081106105be576105be610ecf565b60209081029190910181015182528101919091526040016000205460ff1661064c576001600160a01b038616600090815260086020526040812085516001929087908590811061061057610610610ecf565b6020026020010151815260200190815260200160002060006101000a81548160ff021916908315150217905550818061064890610ee5565b9250505b8061065681610ee5565b915050610587565b50806000036106805760405163048798a960e41b815260040160405180910390fd5b6000600954866001600160a01b03166318160ddd6040518163ffffffff1660e01b8152600401602060405180830381865afa1580156106c3573d6000803e3d6000fd5b505050506040513d601f19601f820116820180604052508101906106e79190610fc6565b6106f19190610fdf565b90506000816107008785610e96565b61070a9190610ead565b90506107168187610fdf565b6001600160a01b03881660009081526007602052604090205560095461073d908490610ff2565b6009556040516000906001600160a01b038a169083908381818185875af1925050503d806000811461078b576040519150601f19603f3d011682016040523d82523d6000602084013e610790565b606091505b50509050806107b2576040516312171d8360e31b815260040160405180910390fd5b604080516001600160a01b038b168152602081018490527f95681e512bc0fe659e195e06c283eada494316f3d801213e48e7101af92bf770910160405180910390a15050505050505061080460018055565b5050565b6001600160a01b038216600090815260086020908152604080832084845290915290205460ff165b92915050565b61083e610c2f565b6108486000610c86565b565b610852610c2f565b60065460ff1615610868576006805460ff191690555b60005b600381101561092357600083826003811061088857610888610ecf565b60200201602081019061089b9190610e65565b9050600060648484600381106108b3576108b3610ecf565b6020020135476108c39190610e96565b6108cd9190610ead565b905081600384600381106108e3576108e3610ecf565b0180546001600160a01b0319166001600160a01b03928316179055919091166000908152600760205260409020558061091b81610ee5565b91505061086b565b507f60f4d73182a956a559d177842626b4743585a36652a74d3eb1500e4479ac06ea826040516109539190611005565b60405180910390a15050565b60008060076000846001600160a01b03166001600160a01b031681526020019081526020016000205490506000600954846001600160a01b03166318160ddd6040518163ffffffff1660e01b8152600401602060405180830381865afa1580156109cd573d6000803e3d6000fd5b505050506040513d601f19601f820116820180604052508101906109f19190610fc6565b6109fb9190610fdf565b6040516351d930f960e11b81526001600160a01b03878116600483015291925060009186169063a3b261f290602401600060405180830381865afa158015610a47573d6000803e3d6000fd5b505050506040513d6000823e601f3d908101601f19168201604052610a6f9190810190610f14565b80519091506000819003610a99576040516001625bffd160e01b0319815260040160405180910390fd5b6000805b82811015610b16576001600160a01b03881660009081526008602052604081208551909190869084908110610ad457610ad4610ecf565b60209081029190910181015182528101919091526040016000205460ff16610b045781610b0081610ee5565b9250505b80610b0e81610ee5565b915050610a9d565b5083610b228683610e96565b610b2c9190610ead565b98975050505050505050565b610b40610cd6565b60408051606081019182905290600390819081845b81546001600160a01b03168152600190910190602001808311610b55575050505050905090565b60606002805480602002602001604051908101604052809291908181526020016000905b82821015610be8576000848152602090819020604080518082019091526002850290910180546001600160a01b03168252600190810154828401529083529092019101610ba0565b50505050905090565b610bf9610c2f565b6001600160a01b038116610c2357604051631e4fbdf760e01b81526000600482015260240161040a565b610c2c81610c86565b50565b6000546001600160a01b031633146108485760405163118cdaa760e01b815233600482015260240161040a565b600260015403610c7f57604051633ee5aeb560e01b815260040160405180910390fd5b6002600155565b600080546001600160a01b038381166001600160a01b0319831681178455604051919092169283917f8be0079c531659141344cd1fd0a4f28419497f9722a3daafe3b4186f6b6457e09190a35050565b60405180606001604052806003906020820280368337509192915050565b600060208284031215610d0657600080fd5b81358015158114610d1657600080fd5b9392505050565b80356001600160a01b0381168114610d3457600080fd5b919050565b60008060408385031215610d4c57600080fd5b610d5583610d1d565b9150610d6360208401610d1d565b90509250929050565b60008060408385031215610d7f57600080fd5b610d8883610d1d565b946020939093013593505050565b806060810183101561083057600080fd5b60008060c08385031215610dba57600080fd5b610dc48484610d96565b9150610d638460608501610d96565b60608101818360005b6003811015610e045781516001600160a01b0316835260209283019290910190600101610ddc565b50505092915050565b602080825282518282018190526000919060409081850190868401855b82811015610e5857815180516001600160a01b03168552860151868501529284019290850190600101610e2a565b5091979650505050505050565b600060208284031215610e7757600080fd5b610d1682610d1d565b634e487b7160e01b600052601160045260246000fd5b808202811582820484141761083057610830610e80565b600082610eca57634e487b7160e01b600052601260045260246000fd5b500490565b634e487b7160e01b600052603260045260246000fd5b600060018201610ef757610ef7610e80565b5060010190565b634e487b7160e01b600052604160045260246000fd5b60006020808385031215610f2757600080fd5b825167ffffffffffffffff80821115610f3f57600080fd5b818501915085601f830112610f5357600080fd5b815181811115610f6557610f65610efe565b8060051b604051601f19603f83011681018181108582111715610f8a57610f8a610efe565b604052918252848201925083810185019188831115610fa857600080fd5b938501935b82851015610b2c57845184529385019392850192610fad565b600060208284031215610fd857600080fd5b5051919050565b8181038181111561083057610830610e80565b8082018082111561083057610830610e80565b60608101818360005b6003811015610e04576001600160a01b0361102883610d1d565b168352602092830192919091019060010161100e56fea264697066735822122097faaafcd68cbc9ac39e0e78af010be101e32c5090dc59ff8325245b48604e7f64736f6c63430008140033",
  "linkReferences": {},
  "deployedLinkReferences": {}
}