{
  "_format": "hh-sol-artifact-1",
  "contractName": "EurocupLegends",
  "sourceName": "contracts/EurocupLegends.sol",
  "abi": [
    {
      "inputs": [
        {
          "components": [
            {
              "internalType": "address",
              "name": "creator",
              "type": "address"
            },
            {
              "internalType": "uint256",
              "name": "share",
              "type": "uint256"
            }
          ],
          "internalType": "struct IEurocupLegends.Creator[]",
          "name": "_creators",
          "type": "tuple[]"
        },
        {
          "internalType": "address",
          "name": "_owner",
          "type": "address"
        }
      ],
      "stateMutability": "nonpayable",
      "type": "constructor"
    },
    {
      "inputs": [],
      "name": "AlreadyClaimedPrize",
      "type": "error"
    },
    {
      "inputs": [
        {
          "internalType": "address",
          "name": "_creators",
          "type": "address"
        },
        {
          "internalType": "uint256",
          "name": "_amount",
          "type": "uint256"
        }
      ],
      "name": "FeeTransferFailed",
      "type": "error"
    },
    {
      "inputs": [],
      "name": "MintClosed",
      "type": "error"
    },
    {
      "inputs": [],
      "name": "NoPrizeForThisTicket",
      "type": "error"
    },
    {
      "inputs": [],
      "name": "NoTickets",
      "type": "error"
    },
    {
      "inputs": [],
      "name": "NoWinnersYet",
      "type": "error"
    },
    {
      "inputs": [
        {
          "internalType": "address",
          "name": "owner",
          "type": "address"
        }
      ],
      "name": "OwnableInvalidOwner",
      "type": "error"
    },
    {
      "inputs": [
        {
          "internalType": "address",
          "name": "account",
          "type": "address"
        }
      ],
      "name": "OwnableUnauthorizedAccount",
      "type": "error"
    },
    {
      "inputs": [],
      "name": "TransferFailed",
      "type": "error"
    },
    {
      "inputs": [],
      "name": "ZeroAddress",
      "type": "error"
    },
    {
      "anonymous": false,
      "inputs": [
        {
          "indexed": false,
          "internalType": "bool",
          "name": "isMintOpen",
          "type": "bool"
        }
      ],
      "name": "MintStatus",
      "type": "event"
    },
    {
      "anonymous": false,
      "inputs": [
        {
          "indexed": true,
          "internalType": "address",
          "name": "previousOwner",
          "type": "address"
        },
        {
          "indexed": true,
          "internalType": "address",
          "name": "newOwner",
          "type": "address"
        }
      ],
      "name": "OwnershipTransferred",
      "type": "event"
    },
    {
      "anonymous": false,
      "inputs": [
        {
          "indexed": false,
          "internalType": "address",
          "name": "owner",
          "type": "address"
        },
        {
          "indexed": false,
          "internalType": "uint256",
          "name": "prize",
          "type": "uint256"
        }
      ],
      "name": "PrizeClaimed",
      "type": "event"
    },
    {
      "anonymous": false,
      "inputs": [
        {
          "indexed": false,
          "internalType": "address[3]",
          "name": "winners",
          "type": "address[3]"
        }
      ],
      "name": "WinnersSet",
      "type": "event"
    },
    {
      "stateMutability": "payable",
      "type": "fallback"
    },
    {
      "inputs": [],
      "name": "FEE_PERCENTAGE",
      "outputs": [
        {
          "internalType": "uint256",
          "name": "",
          "type": "uint256"
        }
      ],
      "stateMutability": "view",
      "type": "function"
    },
    {
      "inputs": [],
      "name": "MAX_WINNERS",
      "outputs": [
        {
          "internalType": "uint256",
          "name": "",
          "type": "uint256"
        }
      ],
      "stateMutability": "view",
      "type": "function"
    },
    {
      "inputs": [],
      "name": "SHARE_PRECISION",
      "outputs": [
        {
          "internalType": "uint256",
          "name": "",
          "type": "uint256"
        }
      ],
      "stateMutability": "view",
      "type": "function"
    },
    {
      "inputs": [
        {
          "internalType": "address",
          "name": "_ticket",
          "type": "address"
        }
      ],
      "name": "claimPrize",
      "outputs": [],
      "stateMutability": "nonpayable",
      "type": "function"
    },
    {
      "inputs": [],
      "name": "getCreators",
      "outputs": [
        {
          "components": [
            {
              "internalType": "address",
              "name": "creator",
              "type": "address"
            },
            {
              "internalType": "uint256",
              "name": "share",
              "type": "uint256"
            }
          ],
          "internalType": "struct IEurocupLegends.Creator[]",
          "name": "",
          "type": "tuple[]"
        }
      ],
      "stateMutability": "view",
      "type": "function"
    },
    {
      "inputs": [
        {
          "internalType": "address",
          "name": "_user",
          "type": "address"
        },
        {
          "internalType": "address",
          "name": "_ticket",
          "type": "address"
        }
      ],
      "name": "getPrize",
      "outputs": [
        {
          "internalType": "uint256",
          "name": "",
          "type": "uint256"
        }
      ],
      "stateMutability": "view",
      "type": "function"
    },
    {
      "inputs": [
        {
          "internalType": "address",
          "name": "_ticket",
          "type": "address"
        }
      ],
      "name": "getTicketPrize",
      "outputs": [
        {
          "internalType": "uint256",
          "name": "",
          "type": "uint256"
        }
      ],
      "stateMutability": "view",
      "type": "function"
    },
    {
      "inputs": [],
      "name": "getWinners",
      "outputs": [
        {
          "internalType": "address[3]",
          "name": "",
          "type": "address[3]"
        }
      ],
      "stateMutability": "view",
      "type": "function"
    },
    {
      "inputs": [
        {
          "internalType": "address",
          "name": "_user",
          "type": "address"
        },
        {
          "internalType": "address",
          "name": "_ticket",
          "type": "address"
        }
      ],
      "name": "isClaimed",
      "outputs": [
        {
          "internalType": "bool",
          "name": "",
          "type": "bool"
        }
      ],
      "stateMutability": "view",
      "type": "function"
    },
    {
      "inputs": [],
      "name": "owner",
      "outputs": [
        {
          "internalType": "address",
          "name": "",
          "type": "address"
        }
      ],
      "stateMutability": "view",
      "type": "function"
    },
    {
      "inputs": [],
      "name": "renounceOwnership",
      "outputs": [],
      "stateMutability": "nonpayable",
      "type": "function"
    },
    {
      "inputs": [
        {
          "internalType": "bool",
          "name": "_isMintOpen",
          "type": "bool"
        }
      ],
      "name": "setMintStatus",
      "outputs": [],
      "stateMutability": "nonpayable",
      "type": "function"
    },
    {
      "inputs": [
        {
          "internalType": "address[3]",
          "name": "_winners",
          "type": "address[3]"
        },
        {
          "internalType": "uint256[3]",
          "name": "_shares",
          "type": "uint256[3]"
        }
      ],
      "name": "setWinners",
      "outputs": [],
      "stateMutability": "nonpayable",
      "type": "function"
    },
    {
      "inputs": [
        {
          "internalType": "address",
          "name": "newOwner",
          "type": "address"
        }
      ],
      "name": "transferOwnership",
      "outputs": [],
      "stateMutability": "nonpayable",
      "type": "function"
    },
    {
      "stateMutability": "payable",
      "type": "receive"
    }
  ],
  "bytecode": "0x60806040526005805460ff191660011790553480156200001e57600080fd5b5060405162000fd338038062000fd38339810160408190526200004191620001e9565b806001600160a01b0381166200007157604051631e4fbdf760e01b81526000600482015260240160405180910390fd5b6200007c8162000108565b5060005b8251811015620000ff576001838281518110620000a157620000a1620002de565b602090810291909101810151825460018082018555600094855293839020825160029092020180546001600160a01b0319166001600160a01b0390921691909117815591015191015580620000f681620002f4565b91505062000080565b5050506200031c565b600080546001600160a01b038381166001600160a01b0319831681178455604051919092169283917f8be0079c531659141344cd1fd0a4f28419497f9722a3daafe3b4186f6b6457e09190a35050565b634e487b7160e01b600052604160045260246000fd5b604080519081016001600160401b038111828210171562000193576200019362000158565b60405290565b604051601f8201601f191681016001600160401b0381118282101715620001c457620001c462000158565b604052919050565b80516001600160a01b0381168114620001e457600080fd5b919050565b6000806040808486031215620001fe57600080fd5b83516001600160401b03808211156200021657600080fd5b818601915086601f8301126200022b57600080fd5b815160208282111562000242576200024262000158565b62000252818360051b0162000199565b828152818101935060069290921b8401810191898311156200027357600080fd5b938101935b82851015620002c15785858b031215620002925760008081fd5b6200029c6200016e565b620002a786620001cc565b815285830151838201528452938501939281019262000278565b9650620002d0888201620001cc565b955050505050509250929050565b634e487b7160e01b600052603260045260246000fd5b6000600182016200031557634e487b7160e01b600052601160045260246000fd5b5060010190565b610ca7806200032c6000396000f3fe6080604052600436106100e05760003560e01c80638da5cb5b1161007f578063df15c37e11610059578063df15c37e14610277578063e5e9b66114610299578063e6adc1ee146102b9578063f2fde38b146102db576100f0565b80638da5cb5b146101c05780639966db94146101e8578063a4df07581461021e576100f0565b80635fc5e020116100bb5780635fc5e02014610156578063715018a61461016b57806376602f2f146101805780637eef2509146101a0576100f0565b80620b46f8146100f95780631f85e3ca1461012157806329a62a7614610141576100f0565b366100f0576100ee346102fb565b005b6100ee346102fb565b34801561010557600080fd5b5061010e601981565b6040519081526020015b60405180910390f35b34801561012d57600080fd5b506100ee61013c366004610a2c565b610458565b34801561014d57600080fd5b5061010e600381565b34801561016257600080fd5b5061010e606481565b34801561017757600080fd5b506100ee6104a7565b34801561018c57600080fd5b506100ee61019b366004610a66565b6104bb565b3480156101ac57600080fd5b5061010e6101bb366004610ab7565b6105ba565b3480156101cc57600080fd5b506000546040516001600160a01b039091168152602001610118565b3480156101f457600080fd5b5061010e610203366004610ae1565b6001600160a01b031660009081526006602052604090205490565b34801561022a57600080fd5b50610267610239366004610ab7565b6001600160a01b03918216600090815260076020908152604080832093909416825291909152205460ff1690565b6040519015158152602001610118565b34801561028357600080fd5b5061028c6106e3565b6040516101189190610afc565b3480156102a557600080fd5b506100ee6102b4366004610ae1565b610728565b3480156102c557600080fd5b506102ce6108de565b6040516101189190610b36565b3480156102e757600080fd5b506100ee6102f6366004610ae1565b610953565b60055460ff1661031e5760405163589ed34b60e01b815260040160405180910390fd5b6000606461032d601984610ba4565b6103379190610bbb565b60015490915060005b818110156104525760006001828154811061035d5761035d610bdd565b600091825260208083206040805180820190915260029093020180546001600160a01b031683526001015490820181905290925060649061039e9087610ba4565b6103a89190610bbb565b9050600082600001516001600160a01b03168260405160006040518083038185875af1925050503d80600081146103fb576040519150601f19603f3d011682016040523d82523d6000602084013e610400565b606091505b505090508061043c57825160405163373a7d4360e11b81526001600160a01b039091166004820152602481018390526044015b60405180910390fd5b505050808061044a90610bf3565b915050610340565b50505050565b610460610991565b6005805460ff19168215159081179091556040519081527faff50328f57c9ced983a9e3c360c67ee11633d860350531f0c11fc435751448c9060200160405180910390a150565b6104af610991565b6104b960006109be565b565b6104c3610991565b60005b600381101561057e5760008382600381106104e3576104e3610bdd565b6020020160208101906104f69190610ae1565b90506000606484846003811061050e5761050e610bdd565b60200201354761051e9190610ba4565b6105289190610bbb565b9050816002846003811061053e5761053e610bdd565b0180546001600160a01b0319166001600160a01b03928316179055919091166000908152600660205260409020558061057681610bf3565b9150506104c6565b507f60f4d73182a956a559d177842626b4743585a36652a74d3eb1500e4479ac06ea826040516105ae9190610c0c565b60405180910390a15050565b6001600160a01b038181166000818152600660205260408082205490516370a0823160e01b815293861660048501529092909183916370a0823190602401602060405180830381865afa158015610615573d6000803e3d6000fd5b505050506040513d601f19601f820116820180604052508101906106399190610c45565b90506000846001600160a01b03166318160ddd6040518163ffffffff1660e01b8152600401602060405180830381865afa15801561067b573d6000803e3d6000fd5b505050506040513d601f19601f8201168201806040525081019061069f9190610c45565b9050816000036106c2576040516366f3ef9b60e01b815260040160405180910390fd5b806106cd8484610ba4565b6106d79190610bbb565b93505050505b92915050565b6106eb610a0e565b6040805160608101918290529060029060039082845b81546001600160a01b03168152600190910190602001808311610701575050505050905090565b6001600160a01b03811661074f5760405163d92e233d60e01b815260040160405180910390fd5b6001600160a01b03811660009081526006602052604081205490036107875760405163d937573f60e01b815260040160405180910390fd5b3360009081526007602090815260408083206001600160a01b038516845290915290205460ff16156107cc5760405163048798a960e41b815260040160405180910390fd5b60006107d833836105ba565b6001600160a01b0383166000908152600660205260409020549091506107ff908290610c5e565b6001600160a01b0383166000818152600660209081526040808320949094553380835260078252848320938352929052828120805460ff19166001179055915183908381818185875af1925050503d8060008114610879576040519150601f19603f3d011682016040523d82523d6000602084013e61087e565b606091505b50509050806108a0576040516312171d8360e31b815260040160405180910390fd5b60408051338152602081018490527f95681e512bc0fe659e195e06c283eada494316f3d801213e48e7101af92bf770910160405180910390a1505050565b60606001805480602002602001604051908101604052809291908181526020016000905b8282101561094a576000848152602090819020604080518082019091526002850290910180546001600160a01b03168252600190810154828401529083529092019101610902565b50505050905090565b61095b610991565b6001600160a01b03811661098557604051631e4fbdf760e01b815260006004820152602401610433565b61098e816109be565b50565b6000546001600160a01b031633146104b95760405163118cdaa760e01b8152336004820152602401610433565b600080546001600160a01b038381166001600160a01b0319831681178455604051919092169283917f8be0079c531659141344cd1fd0a4f28419497f9722a3daafe3b4186f6b6457e09190a35050565b60405180606001604052806003906020820280368337509192915050565b600060208284031215610a3e57600080fd5b81358015158114610a4e57600080fd5b9392505050565b80606081018310156106dd57600080fd5b60008060c08385031215610a7957600080fd5b610a838484610a55565b9150610a928460608501610a55565b90509250929050565b80356001600160a01b0381168114610ab257600080fd5b919050565b60008060408385031215610aca57600080fd5b610ad383610a9b565b9150610a9260208401610a9b565b600060208284031215610af357600080fd5b610a4e82610a9b565b60608101818360005b6003811015610b2d5781516001600160a01b0316835260209283019290910190600101610b05565b50505092915050565b602080825282518282018190526000919060409081850190868401855b82811015610b8157815180516001600160a01b03168552860151868501529284019290850190600101610b53565b5091979650505050505050565b634e487b7160e01b600052601160045260246000fd5b80820281158282048414176106dd576106dd610b8e565b600082610bd857634e487b7160e01b600052601260045260246000fd5b500490565b634e487b7160e01b600052603260045260246000fd5b600060018201610c0557610c05610b8e565b5060010190565b60608101818360005b6003811015610b2d576001600160a01b03610c2f83610a9b565b1683526020928301929190910190600101610c15565b600060208284031215610c5757600080fd5b5051919050565b818103818111156106dd576106dd610b8e56fea2646970667358221220ccc51e2e09762679202ada3ddbaaa80ed11a76242b958b5e4f9cf81310dce03764736f6c63430008140033",
  "linkReferences": {},
  "deployedLinkReferences": {}
}