{
  "_format": "hh-sol-artifact-1",
  "contractName": "EurocupLegends",
  "sourceName": "contracts/EurocupLegends.sol",
  "abi": [
    {
      "inputs": [
        {
          "components": [
            {
              "internalType": "address",
              "name": "creator",
              "type": "address"
            },
            {
              "internalType": "uint256",
              "name": "share",
              "type": "uint256"
            }
          ],
          "internalType": "struct IEurocupLegends.Creator[]",
          "name": "_creators",
          "type": "tuple[]"
        },
        {
          "internalType": "address",
          "name": "_owner",
          "type": "address"
        }
      ],
      "stateMutability": "nonpayable",
      "type": "constructor"
    },
    {
      "inputs": [],
      "name": "AlreadyClaimedPrize",
      "type": "error"
    },
    {
      "inputs": [
        {
          "internalType": "address",
          "name": "_creators",
          "type": "address"
        },
        {
          "internalType": "uint256",
          "name": "_amount",
          "type": "uint256"
        }
      ],
      "name": "FeeTransferFailed",
      "type": "error"
    },
    {
      "inputs": [],
      "name": "NoPrizeForThisTicket",
      "type": "error"
    },
    {
      "inputs": [],
      "name": "NoTickets",
      "type": "error"
    },
    {
      "inputs": [],
      "name": "NoWinnersYet",
      "type": "error"
    },
    {
      "inputs": [
        {
          "internalType": "address",
          "name": "owner",
          "type": "address"
        }
      ],
      "name": "OwnableInvalidOwner",
      "type": "error"
    },
    {
      "inputs": [
        {
          "internalType": "address",
          "name": "account",
          "type": "address"
        }
      ],
      "name": "OwnableUnauthorizedAccount",
      "type": "error"
    },
    {
      "inputs": [],
      "name": "TransferFailed",
      "type": "error"
    },
    {
      "inputs": [],
      "name": "ZeroAddress",
      "type": "error"
    },
    {
      "anonymous": false,
      "inputs": [
        {
          "indexed": true,
          "internalType": "address",
          "name": "previousOwner",
          "type": "address"
        },
        {
          "indexed": true,
          "internalType": "address",
          "name": "newOwner",
          "type": "address"
        }
      ],
      "name": "OwnershipTransferred",
      "type": "event"
    },
    {
      "anonymous": false,
      "inputs": [
        {
          "indexed": false,
          "internalType": "address",
          "name": "owner",
          "type": "address"
        },
        {
          "indexed": false,
          "internalType": "uint256",
          "name": "prize",
          "type": "uint256"
        }
      ],
      "name": "PrizeClaimed",
      "type": "event"
    },
    {
      "anonymous": false,
      "inputs": [
        {
          "indexed": false,
          "internalType": "address[3]",
          "name": "winners",
          "type": "address[3]"
        }
      ],
      "name": "WinnersSet",
      "type": "event"
    },
    {
      "stateMutability": "payable",
      "type": "fallback"
    },
    {
      "inputs": [],
      "name": "FEE_PERCENTAGE",
      "outputs": [
        {
          "internalType": "uint256",
          "name": "",
          "type": "uint256"
        }
      ],
      "stateMutability": "view",
      "type": "function"
    },
    {
      "inputs": [],
      "name": "MAX_WINNERS",
      "outputs": [
        {
          "internalType": "uint256",
          "name": "",
          "type": "uint256"
        }
      ],
      "stateMutability": "view",
      "type": "function"
    },
    {
      "inputs": [],
      "name": "SHARE_PRECISION",
      "outputs": [
        {
          "internalType": "uint256",
          "name": "",
          "type": "uint256"
        }
      ],
      "stateMutability": "view",
      "type": "function"
    },
    {
      "inputs": [
        {
          "internalType": "address",
          "name": "_ticket",
          "type": "address"
        }
      ],
      "name": "claimPrize",
      "outputs": [],
      "stateMutability": "nonpayable",
      "type": "function"
    },
    {
      "inputs": [],
      "name": "getCreators",
      "outputs": [
        {
          "components": [
            {
              "internalType": "address",
              "name": "creator",
              "type": "address"
            },
            {
              "internalType": "uint256",
              "name": "share",
              "type": "uint256"
            }
          ],
          "internalType": "struct IEurocupLegends.Creator[]",
          "name": "",
          "type": "tuple[]"
        }
      ],
      "stateMutability": "view",
      "type": "function"
    },
    {
      "inputs": [
        {
          "internalType": "address",
          "name": "_user",
          "type": "address"
        },
        {
          "internalType": "address",
          "name": "_ticket",
          "type": "address"
        }
      ],
      "name": "getPrize",
      "outputs": [
        {
          "internalType": "uint256",
          "name": "",
          "type": "uint256"
        }
      ],
      "stateMutability": "view",
      "type": "function"
    },
    {
      "inputs": [
        {
          "internalType": "address",
          "name": "_ticket",
          "type": "address"
        }
      ],
      "name": "getTicketPrize",
      "outputs": [
        {
          "internalType": "uint256",
          "name": "",
          "type": "uint256"
        }
      ],
      "stateMutability": "view",
      "type": "function"
    },
    {
      "inputs": [],
      "name": "getWinners",
      "outputs": [
        {
          "internalType": "address[3]",
          "name": "",
          "type": "address[3]"
        }
      ],
      "stateMutability": "view",
      "type": "function"
    },
    {
      "inputs": [
        {
          "internalType": "address",
          "name": "_user",
          "type": "address"
        },
        {
          "internalType": "address",
          "name": "_ticket",
          "type": "address"
        }
      ],
      "name": "isClaimed",
      "outputs": [
        {
          "internalType": "bool",
          "name": "",
          "type": "bool"
        }
      ],
      "stateMutability": "view",
      "type": "function"
    },
    {
      "inputs": [],
      "name": "owner",
      "outputs": [
        {
          "internalType": "address",
          "name": "",
          "type": "address"
        }
      ],
      "stateMutability": "view",
      "type": "function"
    },
    {
      "inputs": [],
      "name": "renounceOwnership",
      "outputs": [],
      "stateMutability": "nonpayable",
      "type": "function"
    },
    {
      "inputs": [
        {
          "internalType": "address[3]",
          "name": "_winners",
          "type": "address[3]"
        },
        {
          "internalType": "uint256[3]",
          "name": "_share",
          "type": "uint256[3]"
        }
      ],
      "name": "setWinners",
      "outputs": [],
      "stateMutability": "nonpayable",
      "type": "function"
    },
    {
      "inputs": [
        {
          "internalType": "address",
          "name": "newOwner",
          "type": "address"
        }
      ],
      "name": "transferOwnership",
      "outputs": [],
      "stateMutability": "nonpayable",
      "type": "function"
    },
    {
      "stateMutability": "payable",
      "type": "receive"
    }
  ],
  "bytecode": "0x60806040523480156200001157600080fd5b5060405162000efc38038062000efc8339810160408190526200003491620001dc565b806001600160a01b0381166200006457604051631e4fbdf760e01b81526000600482015260240160405180910390fd5b6200006f81620000fb565b5060005b8251811015620000f2576001838281518110620000945762000094620002d1565b602090810291909101810151825460018082018555600094855293839020825160029092020180546001600160a01b0319166001600160a01b0390921691909117815591015191015580620000e981620002e7565b91505062000073565b5050506200030f565b600080546001600160a01b038381166001600160a01b0319831681178455604051919092169283917f8be0079c531659141344cd1fd0a4f28419497f9722a3daafe3b4186f6b6457e09190a35050565b634e487b7160e01b600052604160045260246000fd5b604080519081016001600160401b03811182821017156200018657620001866200014b565b60405290565b604051601f8201601f191681016001600160401b0381118282101715620001b757620001b76200014b565b604052919050565b80516001600160a01b0381168114620001d757600080fd5b919050565b6000806040808486031215620001f157600080fd5b83516001600160401b03808211156200020957600080fd5b818601915086601f8301126200021e57600080fd5b81516020828211156200023557620002356200014b565b62000245818360051b016200018c565b828152818101935060069290921b8401810191898311156200026657600080fd5b938101935b82851015620002b45785858b031215620002855760008081fd5b6200028f62000161565b6200029a86620001bf565b81528583015183820152845293850193928101926200026b565b9650620002c3888201620001bf565b955050505050509250929050565b634e487b7160e01b600052603260045260246000fd5b6000600182016200030857634e487b7160e01b600052601160045260246000fd5b5060010190565b610bdd806200031f6000396000f3fe6080604052600436106100c55760003560e01c80638da5cb5b1161007f578063df15c37e11610059578063df15c37e1461023c578063e5e9b6611461025e578063e6adc1ee1461027e578063f2fde38b146102a0576100d5565b80638da5cb5b146101855780639966db94146101ad578063a4df0758146101e3576100d5565b80620b46f8146100de57806329a62a76146101065780635fc5e0201461011b578063715018a61461013057806376602f2f146101455780637eef250914610165576100d5565b366100d5576100d3346102c0565b005b6100d3346102c0565b3480156100ea57600080fd5b506100f3601981565b6040519081526020015b60405180910390f35b34801561011257600080fd5b506100f3600381565b34801561012757600080fd5b506100f3606481565b34801561013c57600080fd5b506100d36103fa565b34801561015157600080fd5b506100d3610160366004610995565b61040e565b34801561017157600080fd5b506100f36101803660046109e6565b610512565b34801561019157600080fd5b506000546040516001600160a01b0390911681526020016100fd565b3480156101b957600080fd5b506100f36101c8366004610a10565b6001600160a01b031660009081526005602052604090205490565b3480156101ef57600080fd5b5061022c6101fe3660046109e6565b6001600160a01b03918216600090815260066020908152604080832093909416825291909152205460ff1690565b60405190151581526020016100fd565b34801561024857600080fd5b5061025161063b565b6040516100fd9190610a32565b34801561026a57600080fd5b506100d3610279366004610a10565b610680565b34801561028a57600080fd5b50610293610836565b6040516100fd9190610a6c565b3480156102ac57600080fd5b506100d36102bb366004610a10565b6108ab565b600060646102cf601984610ada565b6102d99190610af1565b60015490915060005b818110156103f4576000600182815481106102ff576102ff610b13565b600091825260208083206040805180820190915260029093020180546001600160a01b03168352600101549082018190529092506064906103409087610ada565b61034a9190610af1565b9050600082600001516001600160a01b03168260405160006040518083038185875af1925050503d806000811461039d576040519150601f19603f3d011682016040523d82523d6000602084013e6103a2565b606091505b50509050806103de57825160405163373a7d4360e11b81526001600160a01b039091166004820152602481018390526044015b60405180910390fd5b50505080806103ec90610b29565b9150506102e2565b50505050565b6104026108e9565b61040c6000610916565b565b6104166108e9565b60034760005b60038110156104d457600085826003811061043957610439610b13565b60200201602081019061044c9190610a10565b90506000606486846003811061046457610464610b13565b6020020135856104749190610ada565b61047e9190610af1565b9050816002846003811061049457610494610b13565b0180546001600160a01b0319166001600160a01b0392831617905591909116600090815260056020526040902055806104cc81610b29565b91505061041c565b507f60f4d73182a956a559d177842626b4743585a36652a74d3eb1500e4479ac06ea846040516105049190610b42565b60405180910390a150505050565b6001600160a01b038181166000818152600560205260408082205490516370a0823160e01b815293861660048501529092909183916370a0823190602401602060405180830381865afa15801561056d573d6000803e3d6000fd5b505050506040513d601f19601f820116820180604052508101906105919190610b7b565b90506000846001600160a01b03166318160ddd6040518163ffffffff1660e01b8152600401602060405180830381865afa1580156105d3573d6000803e3d6000fd5b505050506040513d601f19601f820116820180604052508101906105f79190610b7b565b90508160000361061a576040516366f3ef9b60e01b815260040160405180910390fd5b806106258484610ada565b61062f9190610af1565b93505050505b92915050565b610643610966565b6040805160608101918290529060029060039082845b81546001600160a01b03168152600190910190602001808311610659575050505050905090565b6001600160a01b0381166106a75760405163d92e233d60e01b815260040160405180910390fd5b6001600160a01b03811660009081526005602052604081205490036106df5760405163d937573f60e01b815260040160405180910390fd5b3360009081526006602090815260408083206001600160a01b038516845290915290205460ff16156107245760405163048798a960e41b815260040160405180910390fd5b60006107303383610512565b6001600160a01b038316600090815260056020526040902054909150610757908290610b94565b6001600160a01b0383166000818152600560209081526040808320949094553380835260068252848320938352929052828120805460ff19166001179055915183908381818185875af1925050503d80600081146107d1576040519150601f19603f3d011682016040523d82523d6000602084013e6107d6565b606091505b50509050806107f8576040516312171d8360e31b815260040160405180910390fd5b60408051338152602081018490527f95681e512bc0fe659e195e06c283eada494316f3d801213e48e7101af92bf770910160405180910390a1505050565b60606001805480602002602001604051908101604052809291908181526020016000905b828210156108a2576000848152602090819020604080518082019091526002850290910180546001600160a01b0316825260019081015482840152908352909201910161085a565b50505050905090565b6108b36108e9565b6001600160a01b0381166108dd57604051631e4fbdf760e01b8152600060048201526024016103d5565b6108e681610916565b50565b6000546001600160a01b0316331461040c5760405163118cdaa760e01b81523360048201526024016103d5565b600080546001600160a01b038381166001600160a01b0319831681178455604051919092169283917f8be0079c531659141344cd1fd0a4f28419497f9722a3daafe3b4186f6b6457e09190a35050565b60405180606001604052806003906020820280368337509192915050565b806060810183101561063557600080fd5b60008060c083850312156109a857600080fd5b6109b28484610984565b91506109c18460608501610984565b90509250929050565b80356001600160a01b03811681146109e157600080fd5b919050565b600080604083850312156109f957600080fd5b610a02836109ca565b91506109c1602084016109ca565b600060208284031215610a2257600080fd5b610a2b826109ca565b9392505050565b60608101818360005b6003811015610a635781516001600160a01b0316835260209283019290910190600101610a3b565b50505092915050565b602080825282518282018190526000919060409081850190868401855b82811015610ab757815180516001600160a01b03168552860151868501529284019290850190600101610a89565b5091979650505050505050565b634e487b7160e01b600052601160045260246000fd5b808202811582820484141761063557610635610ac4565b600082610b0e57634e487b7160e01b600052601260045260246000fd5b500490565b634e487b7160e01b600052603260045260246000fd5b600060018201610b3b57610b3b610ac4565b5060010190565b60608101818360005b6003811015610a63576001600160a01b03610b65836109ca565b1683526020928301929190910190600101610b4b565b600060208284031215610b8d57600080fd5b5051919050565b8181038181111561063557610635610ac456fea26469706673582212209cb4fa9e666f02d1a59f99a2dc0981ad05c0b0a897a4d0f29990a9e83f8eb94d64736f6c63430008140033",
  "linkReferences": {},
  "deployedLinkReferences": {}
}