{
  "_format": "hh-sol-artifact-1",
  "contractName": "ECL",
  "sourceName": "contracts/ECL.sol",
  "abi": [
    {
      "inputs": [
        {
          "components": [
            {
              "internalType": "address",
              "name": "creator",
              "type": "address"
            },
            {
              "internalType": "uint256",
              "name": "share",
              "type": "uint256"
            }
          ],
          "internalType": "struct IECL.Creator[]",
          "name": "_creators",
          "type": "tuple[]"
        },
        {
          "internalType": "address",
          "name": "_owner",
          "type": "address"
        }
      ],
      "stateMutability": "nonpayable",
      "type": "constructor"
    },
    {
      "inputs": [],
      "name": "AlreadyClaimedPrize",
      "type": "error"
    },
    {
      "inputs": [
        {
          "internalType": "address",
          "name": "_creators",
          "type": "address"
        },
        {
          "internalType": "uint256",
          "name": "_amount",
          "type": "uint256"
        }
      ],
      "name": "FeeTransferFailed",
      "type": "error"
    },
    {
      "inputs": [],
      "name": "MintClosed",
      "type": "error"
    },
    {
      "inputs": [],
      "name": "NoPrizeForThisCountry",
      "type": "error"
    },
    {
      "inputs": [],
      "name": "NoShirts",
      "type": "error"
    },
    {
      "inputs": [],
      "name": "NoWinnersYet",
      "type": "error"
    },
    {
      "inputs": [
        {
          "internalType": "address",
          "name": "owner",
          "type": "address"
        }
      ],
      "name": "OwnableInvalidOwner",
      "type": "error"
    },
    {
      "inputs": [
        {
          "internalType": "address",
          "name": "account",
          "type": "address"
        }
      ],
      "name": "OwnableUnauthorizedAccount",
      "type": "error"
    },
    {
      "inputs": [],
      "name": "TransferFailed",
      "type": "error"
    },
    {
      "inputs": [],
      "name": "ZeroAddress",
      "type": "error"
    },
    {
      "anonymous": false,
      "inputs": [
        {
          "indexed": false,
          "internalType": "bool",
          "name": "isMintOpen",
          "type": "bool"
        }
      ],
      "name": "MintStatus",
      "type": "event"
    },
    {
      "anonymous": false,
      "inputs": [
        {
          "indexed": true,
          "internalType": "address",
          "name": "previousOwner",
          "type": "address"
        },
        {
          "indexed": true,
          "internalType": "address",
          "name": "newOwner",
          "type": "address"
        }
      ],
      "name": "OwnershipTransferred",
      "type": "event"
    },
    {
      "anonymous": false,
      "inputs": [
        {
          "indexed": false,
          "internalType": "address",
          "name": "owner",
          "type": "address"
        },
        {
          "indexed": false,
          "internalType": "uint256",
          "name": "prize",
          "type": "uint256"
        }
      ],
      "name": "PrizeClaimed",
      "type": "event"
    },
    {
      "anonymous": false,
      "inputs": [
        {
          "indexed": false,
          "internalType": "address[3]",
          "name": "winners",
          "type": "address[3]"
        }
      ],
      "name": "WinnersSet",
      "type": "event"
    },
    {
      "stateMutability": "payable",
      "type": "fallback"
    },
    {
      "inputs": [],
      "name": "FEE_PERCENTAGE",
      "outputs": [
        {
          "internalType": "uint256",
          "name": "",
          "type": "uint256"
        }
      ],
      "stateMutability": "view",
      "type": "function"
    },
    {
      "inputs": [],
      "name": "MAX_WINNERS",
      "outputs": [
        {
          "internalType": "uint256",
          "name": "",
          "type": "uint256"
        }
      ],
      "stateMutability": "view",
      "type": "function"
    },
    {
      "inputs": [],
      "name": "SHARE_PRECISION",
      "outputs": [
        {
          "internalType": "uint256",
          "name": "",
          "type": "uint256"
        }
      ],
      "stateMutability": "view",
      "type": "function"
    },
    {
      "inputs": [
        {
          "internalType": "address",
          "name": "_country",
          "type": "address"
        }
      ],
      "name": "claimPrize",
      "outputs": [],
      "stateMutability": "nonpayable",
      "type": "function"
    },
    {
      "inputs": [
        {
          "internalType": "address",
          "name": "_country",
          "type": "address"
        }
      ],
      "name": "getCountryPrize",
      "outputs": [
        {
          "internalType": "uint256",
          "name": "",
          "type": "uint256"
        }
      ],
      "stateMutability": "view",
      "type": "function"
    },
    {
      "inputs": [],
      "name": "getCreators",
      "outputs": [
        {
          "components": [
            {
              "internalType": "address",
              "name": "creator",
              "type": "address"
            },
            {
              "internalType": "uint256",
              "name": "share",
              "type": "uint256"
            }
          ],
          "internalType": "struct IECL.Creator[]",
          "name": "",
          "type": "tuple[]"
        }
      ],
      "stateMutability": "view",
      "type": "function"
    },
    {
      "inputs": [
        {
          "internalType": "address",
          "name": "_user",
          "type": "address"
        },
        {
          "internalType": "address",
          "name": "_country",
          "type": "address"
        }
      ],
      "name": "getPrize",
      "outputs": [
        {
          "internalType": "uint256",
          "name": "",
          "type": "uint256"
        }
      ],
      "stateMutability": "view",
      "type": "function"
    },
    {
      "inputs": [],
      "name": "getWinners",
      "outputs": [
        {
          "internalType": "address[3]",
          "name": "",
          "type": "address[3]"
        }
      ],
      "stateMutability": "view",
      "type": "function"
    },
    {
      "inputs": [
        {
          "internalType": "address",
          "name": "_country",
          "type": "address"
        },
        {
          "internalType": "bytes32",
          "name": "_tokenId",
          "type": "bytes32"
        }
      ],
      "name": "isClaimed",
      "outputs": [
        {
          "internalType": "bool",
          "name": "",
          "type": "bool"
        }
      ],
      "stateMutability": "view",
      "type": "function"
    },
    {
      "inputs": [],
      "name": "owner",
      "outputs": [
        {
          "internalType": "address",
          "name": "",
          "type": "address"
        }
      ],
      "stateMutability": "view",
      "type": "function"
    },
    {
      "inputs": [],
      "name": "renounceOwnership",
      "outputs": [],
      "stateMutability": "nonpayable",
      "type": "function"
    },
    {
      "inputs": [
        {
          "internalType": "bool",
          "name": "_isMintOpen",
          "type": "bool"
        }
      ],
      "name": "setMintStatus",
      "outputs": [],
      "stateMutability": "nonpayable",
      "type": "function"
    },
    {
      "inputs": [
        {
          "internalType": "address[3]",
          "name": "_winners",
          "type": "address[3]"
        },
        {
          "internalType": "uint256[3]",
          "name": "_shares",
          "type": "uint256[3]"
        }
      ],
      "name": "setWinners",
      "outputs": [],
      "stateMutability": "nonpayable",
      "type": "function"
    },
    {
      "inputs": [
        {
          "internalType": "address",
          "name": "newOwner",
          "type": "address"
        }
      ],
      "name": "transferOwnership",
      "outputs": [],
      "stateMutability": "nonpayable",
      "type": "function"
    },
    {
      "stateMutability": "payable",
      "type": "receive"
    }
  ],
  "bytecode": "0x60806040526005805460ff191660011790553480156200001e57600080fd5b5060405162001217380380620012178339810160408190526200004191620001e9565b806001600160a01b0381166200007157604051631e4fbdf760e01b81526000600482015260240160405180910390fd5b6200007c8162000108565b5060005b8251811015620000ff576001838281518110620000a157620000a1620002de565b602090810291909101810151825460018082018555600094855293839020825160029092020180546001600160a01b0319166001600160a01b0390921691909117815591015191015580620000f681620002f4565b91505062000080565b5050506200031c565b600080546001600160a01b038381166001600160a01b0319831681178455604051919092169283917f8be0079c531659141344cd1fd0a4f28419497f9722a3daafe3b4186f6b6457e09190a35050565b634e487b7160e01b600052604160045260246000fd5b604080519081016001600160401b038111828210171562000193576200019362000158565b60405290565b604051601f8201601f191681016001600160401b0381118282101715620001c457620001c462000158565b604052919050565b80516001600160a01b0381168114620001e457600080fd5b919050565b6000806040808486031215620001fe57600080fd5b83516001600160401b03808211156200021657600080fd5b818601915086601f8301126200022b57600080fd5b815160208282111562000242576200024262000158565b62000252818360051b0162000199565b828152818101935060069290921b8401810191898311156200027357600080fd5b938101935b82851015620002c15785858b031215620002925760008081fd5b6200029c6200016e565b620002a786620001cc565b815285830151838201528452938501939281019262000278565b9650620002d0888201620001cc565b955050505050509250929050565b634e487b7160e01b600052603260045260246000fd5b6000600182016200031557634e487b7160e01b600052601160045260246000fd5b5060010190565b610eeb806200032c6000396000f3fe6080604052600436106100e05760003560e01c80637eef25091161007f578063e5e9b66111610059578063e5e9b6611461023a578063e6adc1ee1461025a578063f2fde38b1461027c578063f82f83ff1461029c576100f0565b80637eef2509146101d05780638da5cb5b146101f0578063df15c37e14610218576100f0565b80635fc5e020116100bb5780635fc5e0201461015657806367457e4c1461016b578063715018a61461019b57806376602f2f146101b0576100f0565b80620b46f8146100f95780631f85e3ca1461012157806329a62a7614610141576100f0565b366100f0576100ee346102d2565b005b6100ee346102d2565b34801561010557600080fd5b5061010e601981565b6040519081526020015b60405180910390f35b34801561012d57600080fd5b506100ee61013c366004610b5f565b61042f565b34801561014d57600080fd5b5061010e600381565b34801561016257600080fd5b5061010e606481565b34801561017757600080fd5b5061018b610186366004610ba4565b61047e565b6040519015158152602001610118565b3480156101a757600080fd5b506100ee6104ac565b3480156101bc57600080fd5b506100ee6101cb366004610bdf565b6104c0565b3480156101dc57600080fd5b5061010e6101eb366004610c14565b6105d5565b3480156101fc57600080fd5b506000546040516001600160a01b039091168152602001610118565b34801561022457600080fd5b5061022d61070c565b6040516101189190610c3e565b34801561024657600080fd5b506100ee610255366004610c78565b610751565b34801561026657600080fd5b5061026f610a11565b6040516101189190610c93565b34801561028857600080fd5b506100ee610297366004610c78565b610a86565b3480156102a857600080fd5b5061010e6102b7366004610c78565b6001600160a01b031660009081526006602052604090205490565b60055460ff166102f55760405163589ed34b60e01b815260040160405180910390fd5b60006064610304601984610d01565b61030e9190610d18565b60015490915060005b818110156104295760006001828154811061033457610334610d3a565b600091825260208083206040805180820190915260029093020180546001600160a01b03168352600101549082018190529092506064906103759087610d01565b61037f9190610d18565b9050600082600001516001600160a01b03168260405160006040518083038185875af1925050503d80600081146103d2576040519150601f19603f3d011682016040523d82523d6000602084013e6103d7565b606091505b505090508061041357825160405163373a7d4360e11b81526001600160a01b039091166004820152602481018390526044015b60405180910390fd5b505050808061042190610d50565b915050610317565b50505050565b610437610ac4565b6005805460ff19168215159081179091556040519081527faff50328f57c9ced983a9e3c360c67ee11633d860350531f0c11fc435751448c9060200160405180910390a150565b6001600160a01b038216600090815260076020908152604080832084845290915290205460ff165b92915050565b6104b4610ac4565b6104be6000610af1565b565b6104c8610ac4565b60055460ff16156104de576005805460ff191690555b60005b60038110156105995760008382600381106104fe576104fe610d3a565b6020020160208101906105119190610c78565b90506000606484846003811061052957610529610d3a565b6020020135476105399190610d01565b6105439190610d18565b9050816002846003811061055957610559610d3a565b0180546001600160a01b0319166001600160a01b03928316179055919091166000908152600660205260409020558061059181610d50565b9150506104e1565b507f60f4d73182a956a559d177842626b4743585a36652a74d3eb1500e4479ac06ea826040516105c99190610d69565b60405180910390a15050565b6001600160a01b038181166000818152600660205260408082205490516370a0823160e01b815293861660048501529092909183916370a0823190602401602060405180830381865afa158015610630573d6000803e3d6000fd5b505050506040513d601f19601f820116820180604052508101906106549190610da2565b90506000600854856001600160a01b03166318160ddd6040518163ffffffff1660e01b8152600401602060405180830381865afa158015610699573d6000803e3d6000fd5b505050506040513d601f19601f820116820180604052508101906106bd9190610da2565b6106c79190610dbb565b9050816000036106ed576040516001625bffd160e01b0319815260040160405180910390fd5b806106f88484610d01565b6107029190610d18565b9695505050505050565b610714610b41565b6040805160608101918290529060029060039082845b81546001600160a01b0316815260019091019060200180831161072a575050505050905090565b6001600160a01b0381166107785760405163d92e233d60e01b815260040160405180910390fd5b6001600160a01b03811660009081526006602052604081205490036107b057604051630215e7c960e21b815260040160405180910390fd5b6040516351d930f960e11b81523360048201526000906001600160a01b0383169063a3b261f290602401600060405180830381865afa1580156107f7573d6000803e3d6000fd5b505050506040513d6000823e601f3d908101601f1916820160405261081f9190810190610de4565b805190915060005b8181101561090a576001600160a01b0384166000908152600760205260408120845190919085908490811061085e5761085e610d3a565b60209081029190910181015182528101919091526040016000205460ff161561089a5760405163048798a960e41b815260040160405180910390fd5b6001600160a01b03841660009081526007602052604081208451600192908690859081106108ca576108ca610d3a565b6020026020010151815260200190815260200160002060006101000a81548160ff021916908315150217905550808061090290610d50565b915050610827565b50600061091733856105d5565b6001600160a01b03851660009081526006602052604090205490915061093e908290610dbb565b6001600160a01b038516600090815260066020526040902055600854610965908390610ea2565b600855604051600090339083908381818185875af1925050503d80600081146109aa576040519150601f19603f3d011682016040523d82523d6000602084013e6109af565b606091505b50509050806109d1576040516312171d8360e31b815260040160405180910390fd5b60408051338152602081018490527f95681e512bc0fe659e195e06c283eada494316f3d801213e48e7101af92bf770910160405180910390a15050505050565b60606001805480602002602001604051908101604052809291908181526020016000905b82821015610a7d576000848152602090819020604080518082019091526002850290910180546001600160a01b03168252600190810154828401529083529092019101610a35565b50505050905090565b610a8e610ac4565b6001600160a01b038116610ab857604051631e4fbdf760e01b81526000600482015260240161040a565b610ac181610af1565b50565b6000546001600160a01b031633146104be5760405163118cdaa760e01b815233600482015260240161040a565b600080546001600160a01b038381166001600160a01b0319831681178455604051919092169283917f8be0079c531659141344cd1fd0a4f28419497f9722a3daafe3b4186f6b6457e09190a35050565b60405180606001604052806003906020820280368337509192915050565b600060208284031215610b7157600080fd5b81358015158114610b8157600080fd5b9392505050565b80356001600160a01b0381168114610b9f57600080fd5b919050565b60008060408385031215610bb757600080fd5b610bc083610b88565b946020939093013593505050565b80606081018310156104a657600080fd5b60008060c08385031215610bf257600080fd5b610bfc8484610bce565b9150610c0b8460608501610bce565b90509250929050565b60008060408385031215610c2757600080fd5b610c3083610b88565b9150610c0b60208401610b88565b60608101818360005b6003811015610c6f5781516001600160a01b0316835260209283019290910190600101610c47565b50505092915050565b600060208284031215610c8a57600080fd5b610b8182610b88565b602080825282518282018190526000919060409081850190868401855b82811015610cde57815180516001600160a01b03168552860151868501529284019290850190600101610cb0565b5091979650505050505050565b634e487b7160e01b600052601160045260246000fd5b80820281158282048414176104a6576104a6610ceb565b600082610d3557634e487b7160e01b600052601260045260246000fd5b500490565b634e487b7160e01b600052603260045260246000fd5b600060018201610d6257610d62610ceb565b5060010190565b60608101818360005b6003811015610c6f576001600160a01b03610d8c83610b88565b1683526020928301929190910190600101610d72565b600060208284031215610db457600080fd5b5051919050565b818103818111156104a6576104a6610ceb565b634e487b7160e01b600052604160045260246000fd5b60006020808385031215610df757600080fd5b825167ffffffffffffffff80821115610e0f57600080fd5b818501915085601f830112610e2357600080fd5b815181811115610e3557610e35610dce565b8060051b604051601f19603f83011681018181108582111715610e5a57610e5a610dce565b604052918252848201925083810185019188831115610e7857600080fd5b938501935b82851015610e9657845184529385019392850192610e7d565b98975050505050505050565b808201808211156104a6576104a6610ceb56fea26469706673582212200a2237ebecabb43a157d1ea1d4de88ccc28f30f9434ed5bd88e2459424b76aee64736f6c63430008140033",
  "linkReferences": {},
  "deployedLinkReferences": {}
}