{
  "address": "0x000a3dFd8fBc3cf63c16876560740646e5992F70",
  "abi": [
    {
      "inputs": [
        {
          "internalType": "string",
          "name": "_name",
          "type": "string"
        },
        {
          "internalType": "string",
          "name": "_symbol",
          "type": "string"
        },
        {
          "internalType": "address",
          "name": "_owner",
          "type": "address"
        },
        {
          "internalType": "address",
          "name": "_prizePool",
          "type": "address"
        },
        {
          "internalType": "uint256",
          "name": "_price",
          "type": "uint256"
        },
        {
          "internalType": "bytes",
          "name": "_metadata",
          "type": "bytes"
        }
      ],
      "stateMutability": "nonpayable",
      "type": "constructor"
    },
    {
      "inputs": [],
      "name": "ERC725Y_DataKeysValuesEmptyArray",
      "type": "error"
    },
    {
      "inputs": [],
      "name": "ERC725Y_DataKeysValuesLengthMismatch",
      "type": "error"
    },
    {
      "inputs": [],
      "name": "ERC725Y_MsgValueDisallowed",
      "type": "error"
    },
    {
      "inputs": [
        {
          "internalType": "bytes",
          "name": "storedData",
          "type": "bytes"
        }
      ],
      "name": "InvalidExtensionAddress",
      "type": "error"
    },
    {
      "inputs": [
        {
          "internalType": "bytes",
          "name": "data",
          "type": "bytes"
        }
      ],
      "name": "InvalidFunctionSelector",
      "type": "error"
    },
    {
      "inputs": [],
      "name": "InvalidMintPrice",
      "type": "error"
    },
    {
      "inputs": [],
      "name": "LSP4TokenNameNotEditable",
      "type": "error"
    },
    {
      "inputs": [],
      "name": "LSP4TokenSymbolNotEditable",
      "type": "error"
    },
    {
      "inputs": [],
      "name": "LSP4TokenTypeNotEditable",
      "type": "error"
    },
    {
      "inputs": [
        {
          "internalType": "uint256",
          "name": "callIndex",
          "type": "uint256"
        }
      ],
      "name": "LSP8BatchCallFailed",
      "type": "error"
    },
    {
      "inputs": [],
      "name": "LSP8CannotSendToAddressZero",
      "type": "error"
    },
    {
      "inputs": [],
      "name": "LSP8CannotUseAddressZeroAsOperator",
      "type": "error"
    },
    {
      "inputs": [],
      "name": "LSP8InvalidTransferBatch",
      "type": "error"
    },
    {
      "inputs": [
        {
          "internalType": "bytes32",
          "name": "tokenId",
          "type": "bytes32"
        }
      ],
      "name": "LSP8NonExistentTokenId",
      "type": "error"
    },
    {
      "inputs": [
        {
          "internalType": "address",
          "name": "operator",
          "type": "address"
        },
        {
          "internalType": "bytes32",
          "name": "tokenId",
          "type": "bytes32"
        }
      ],
      "name": "LSP8NonExistingOperator",
      "type": "error"
    },
    {
      "inputs": [
        {
          "internalType": "bytes32",
          "name": "tokenId",
          "type": "bytes32"
        },
        {
          "internalType": "address",
          "name": "caller",
          "type": "address"
        }
      ],
      "name": "LSP8NotTokenOperator",
      "type": "error"
    },
    {
      "inputs": [
        {
          "internalType": "address",
          "name": "tokenOwner",
          "type": "address"
        },
        {
          "internalType": "bytes32",
          "name": "tokenId",
          "type": "bytes32"
        },
        {
          "internalType": "address",
          "name": "caller",
          "type": "address"
        }
      ],
      "name": "LSP8NotTokenOwner",
      "type": "error"
    },
    {
      "inputs": [
        {
          "internalType": "address",
          "name": "tokenReceiver",
          "type": "address"
        }
      ],
      "name": "LSP8NotifyTokenReceiverContractMissingLSP1Interface",
      "type": "error"
    },
    {
      "inputs": [
        {
          "internalType": "address",
          "name": "tokenReceiver",
          "type": "address"
        }
      ],
      "name": "LSP8NotifyTokenReceiverIsEOA",
      "type": "error"
    },
    {
      "inputs": [
        {
          "internalType": "address",
          "name": "operator",
          "type": "address"
        },
        {
          "internalType": "bytes32",
          "name": "tokenId",
          "type": "bytes32"
        }
      ],
      "name": "LSP8OperatorAlreadyAuthorized",
      "type": "error"
    },
    {
      "inputs": [
        {
          "internalType": "address",
          "name": "caller",
          "type": "address"
        },
        {
          "internalType": "address",
          "name": "tokenOwner",
          "type": "address"
        },
        {
          "internalType": "bytes32",
          "name": "tokenId",
          "type": "bytes32"
        }
      ],
      "name": "LSP8RevokeOperatorNotAuthorized",
      "type": "error"
    },
    {
      "inputs": [],
      "name": "LSP8TokenContractCannotHoldValue",
      "type": "error"
    },
    {
      "inputs": [
        {
          "internalType": "bytes32",
          "name": "tokenId",
          "type": "bytes32"
        }
      ],
      "name": "LSP8TokenIdAlreadyMinted",
      "type": "error"
    },
    {
      "inputs": [],
      "name": "LSP8TokenIdFormatNotEditable",
      "type": "error"
    },
    {
      "inputs": [],
      "name": "LSP8TokenIdsDataEmptyArray",
      "type": "error"
    },
    {
      "inputs": [],
      "name": "LSP8TokenIdsDataLengthMismatch",
      "type": "error"
    },
    {
      "inputs": [],
      "name": "LSP8TokenOwnerCannotBeOperator",
      "type": "error"
    },
    {
      "inputs": [
        {
          "internalType": "bytes32",
          "name": "tokenId",
          "type": "bytes32"
        },
        {
          "internalType": "address",
          "name": "oldOwner",
          "type": "address"
        },
        {
          "internalType": "address",
          "name": "newOwner",
          "type": "address"
        }
      ],
      "name": "LSP8TokenOwnerChanged",
      "type": "error"
    },
    {
      "inputs": [],
      "name": "MintLimitExceeded",
      "type": "error"
    },
    {
      "inputs": [
        {
          "internalType": "bytes4",
          "name": "functionSelector",
          "type": "bytes4"
        }
      ],
      "name": "NoExtensionFoundForFunctionSelector",
      "type": "error"
    },
    {
      "inputs": [
        {
          "internalType": "address",
          "name": "callerAddress",
          "type": "address"
        }
      ],
      "name": "OwnableCallerNotTheOwner",
      "type": "error"
    },
    {
      "inputs": [],
      "name": "OwnableCannotSetZeroAddressAsOwner",
      "type": "error"
    },
    {
      "inputs": [],
      "name": "TransferFailed",
      "type": "error"
    },
    {
      "anonymous": false,
      "inputs": [
        {
          "indexed": true,
          "internalType": "bytes32",
          "name": "dataKey",
          "type": "bytes32"
        },
        {
          "indexed": false,
          "internalType": "bytes",
          "name": "dataValue",
          "type": "bytes"
        }
      ],
      "name": "DataChanged",
      "type": "event"
    },
    {
      "anonymous": false,
      "inputs": [
        {
          "indexed": true,
          "internalType": "address",
          "name": "operator",
          "type": "address"
        },
        {
          "indexed": true,
          "internalType": "address",
          "name": "tokenOwner",
          "type": "address"
        },
        {
          "indexed": true,
          "internalType": "bytes32",
          "name": "tokenId",
          "type": "bytes32"
        },
        {
          "indexed": false,
          "internalType": "bytes",
          "name": "operatorNotificationData",
          "type": "bytes"
        }
      ],
      "name": "OperatorAuthorizationChanged",
      "type": "event"
    },
    {
      "anonymous": false,
      "inputs": [
        {
          "indexed": true,
          "internalType": "address",
          "name": "operator",
          "type": "address"
        },
        {
          "indexed": true,
          "internalType": "address",
          "name": "tokenOwner",
          "type": "address"
        },
        {
          "indexed": true,
          "internalType": "bytes32",
          "name": "tokenId",
          "type": "bytes32"
        },
        {
          "indexed": false,
          "internalType": "bool",
          "name": "notified",
          "type": "bool"
        },
        {
          "indexed": false,
          "internalType": "bytes",
          "name": "operatorNotificationData",
          "type": "bytes"
        }
      ],
      "name": "OperatorRevoked",
      "type": "event"
    },
    {
      "anonymous": false,
      "inputs": [
        {
          "indexed": true,
          "internalType": "address",
          "name": "previousOwner",
          "type": "address"
        },
        {
          "indexed": true,
          "internalType": "address",
          "name": "newOwner",
          "type": "address"
        }
      ],
      "name": "OwnershipTransferred",
      "type": "event"
    },
    {
      "anonymous": false,
      "inputs": [
        {
          "indexed": false,
          "internalType": "address",
          "name": "_recipient",
          "type": "address"
        },
        {
          "indexed": false,
          "internalType": "uint256",
          "name": "_amount",
          "type": "uint256"
        }
      ],
      "name": "ShirtsMinted",
      "type": "event"
    },
    {
      "anonymous": false,
      "inputs": [
        {
          "indexed": true,
          "internalType": "bytes32",
          "name": "tokenId",
          "type": "bytes32"
        },
        {
          "indexed": true,
          "internalType": "bytes32",
          "name": "dataKey",
          "type": "bytes32"
        },
        {
          "indexed": false,
          "internalType": "bytes",
          "name": "dataValue",
          "type": "bytes"
        }
      ],
      "name": "TokenIdDataChanged",
      "type": "event"
    },
    {
      "anonymous": false,
      "inputs": [
        {
          "indexed": false,
          "internalType": "address",
          "name": "operator",
          "type": "address"
        },
        {
          "indexed": true,
          "internalType": "address",
          "name": "from",
          "type": "address"
        },
        {
          "indexed": true,
          "internalType": "address",
          "name": "to",
          "type": "address"
        },
        {
          "indexed": true,
          "internalType": "bytes32",
          "name": "tokenId",
          "type": "bytes32"
        },
        {
          "indexed": false,
          "internalType": "bool",
          "name": "force",
          "type": "bool"
        },
        {
          "indexed": false,
          "internalType": "bytes",
          "name": "data",
          "type": "bytes"
        }
      ],
      "name": "Transfer",
      "type": "event"
    },
    {
      "stateMutability": "payable",
      "type": "fallback"
    },
    {
      "inputs": [],
      "name": "MAX_MINT",
      "outputs": [
        {
          "internalType": "uint256",
          "name": "",
          "type": "uint256"
        }
      ],
      "stateMutability": "view",
      "type": "function"
    },
    {
      "inputs": [],
      "name": "MAX_SUPPLY",
      "outputs": [
        {
          "internalType": "uint256",
          "name": "",
          "type": "uint256"
        }
      ],
      "stateMutability": "view",
      "type": "function"
    },
    {
      "inputs": [
        {
          "internalType": "address",
          "name": "operator",
          "type": "address"
        },
        {
          "internalType": "bytes32",
          "name": "tokenId",
          "type": "bytes32"
        },
        {
          "internalType": "bytes",
          "name": "operatorNotificationData",
          "type": "bytes"
        }
      ],
      "name": "authorizeOperator",
      "outputs": [],
      "stateMutability": "nonpayable",
      "type": "function"
    },
    {
      "inputs": [
        {
          "internalType": "address",
          "name": "tokenOwner",
          "type": "address"
        }
      ],
      "name": "balanceOf",
      "outputs": [
        {
          "internalType": "uint256",
          "name": "",
          "type": "uint256"
        }
      ],
      "stateMutability": "view",
      "type": "function"
    },
    {
      "inputs": [
        {
          "internalType": "bytes[]",
          "name": "data",
          "type": "bytes[]"
        }
      ],
      "name": "batchCalls",
      "outputs": [
        {
          "internalType": "bytes[]",
          "name": "results",
          "type": "bytes[]"
        }
      ],
      "stateMutability": "nonpayable",
      "type": "function"
    },
    {
      "inputs": [
        {
          "internalType": "bytes32",
          "name": "dataKey",
          "type": "bytes32"
        }
      ],
      "name": "getData",
      "outputs": [
        {
          "internalType": "bytes",
          "name": "dataValue",
          "type": "bytes"
        }
      ],
      "stateMutability": "view",
      "type": "function"
    },
    {
      "inputs": [
        {
          "internalType": "bytes32[]",
          "name": "dataKeys",
          "type": "bytes32[]"
        }
      ],
      "name": "getDataBatch",
      "outputs": [
        {
          "internalType": "bytes[]",
          "name": "dataValues",
          "type": "bytes[]"
        }
      ],
      "stateMutability": "view",
      "type": "function"
    },
    {
      "inputs": [
        {
          "internalType": "bytes32[]",
          "name": "tokenIds",
          "type": "bytes32[]"
        },
        {
          "internalType": "bytes32[]",
          "name": "dataKeys",
          "type": "bytes32[]"
        }
      ],
      "name": "getDataBatchForTokenIds",
      "outputs": [
        {
          "internalType": "bytes[]",
          "name": "dataValues",
          "type": "bytes[]"
        }
      ],
      "stateMutability": "view",
      "type": "function"
    },
    {
      "inputs": [
        {
          "internalType": "bytes32",
          "name": "tokenId",
          "type": "bytes32"
        },
        {
          "internalType": "bytes32",
          "name": "dataKey",
          "type": "bytes32"
        }
      ],
      "name": "getDataForTokenId",
      "outputs": [
        {
          "internalType": "bytes",
          "name": "dataValue",
          "type": "bytes"
        }
      ],
      "stateMutability": "view",
      "type": "function"
    },
    {
      "inputs": [
        {
          "internalType": "bytes32",
          "name": "tokenId",
          "type": "bytes32"
        }
      ],
      "name": "getOperatorsOf",
      "outputs": [
        {
          "internalType": "address[]",
          "name": "",
          "type": "address[]"
        }
      ],
      "stateMutability": "view",
      "type": "function"
    },
    {
      "inputs": [],
      "name": "getPrice",
      "outputs": [
        {
          "internalType": "uint256",
          "name": "_price",
          "type": "uint256"
        }
      ],
      "stateMutability": "view",
      "type": "function"
    },
    {
      "inputs": [],
      "name": "getPrizePool",
      "outputs": [
        {
          "internalType": "address",
          "name": "_prizePool",
          "type": "address"
        }
      ],
      "stateMutability": "view",
      "type": "function"
    },
    {
      "inputs": [
        {
          "internalType": "address",
          "name": "operator",
          "type": "address"
        },
        {
          "internalType": "bytes32",
          "name": "tokenId",
          "type": "bytes32"
        }
      ],
      "name": "isOperatorFor",
      "outputs": [
        {
          "internalType": "bool",
          "name": "",
          "type": "bool"
        }
      ],
      "stateMutability": "view",
      "type": "function"
    },
    {
      "inputs": [
        {
          "internalType": "address",
          "name": "_recipient",
          "type": "address"
        },
        {
          "internalType": "uint256",
          "name": "_amount",
          "type": "uint256"
        }
      ],
      "name": "mint",
      "outputs": [],
      "stateMutability": "payable",
      "type": "function"
    },
    {
      "inputs": [],
      "name": "owner",
      "outputs": [
        {
          "internalType": "address",
          "name": "",
          "type": "address"
        }
      ],
      "stateMutability": "view",
      "type": "function"
    },
    {
      "inputs": [],
      "name": "renounceOwnership",
      "outputs": [],
      "stateMutability": "nonpayable",
      "type": "function"
    },
    {
      "inputs": [
        {
          "internalType": "address",
          "name": "operator",
          "type": "address"
        },
        {
          "internalType": "bytes32",
          "name": "tokenId",
          "type": "bytes32"
        },
        {
          "internalType": "bool",
          "name": "notify",
          "type": "bool"
        },
        {
          "internalType": "bytes",
          "name": "operatorNotificationData",
          "type": "bytes"
        }
      ],
      "name": "revokeOperator",
      "outputs": [],
      "stateMutability": "nonpayable",
      "type": "function"
    },
    {
      "inputs": [
        {
          "internalType": "bytes32",
          "name": "dataKey",
          "type": "bytes32"
        },
        {
          "internalType": "bytes",
          "name": "dataValue",
          "type": "bytes"
        }
      ],
      "name": "setData",
      "outputs": [],
      "stateMutability": "payable",
      "type": "function"
    },
    {
      "inputs": [
        {
          "internalType": "bytes32[]",
          "name": "dataKeys",
          "type": "bytes32[]"
        },
        {
          "internalType": "bytes[]",
          "name": "dataValues",
          "type": "bytes[]"
        }
      ],
      "name": "setDataBatch",
      "outputs": [],
      "stateMutability": "payable",
      "type": "function"
    },
    {
      "inputs": [
        {
          "internalType": "bytes32[]",
          "name": "tokenIds",
          "type": "bytes32[]"
        },
        {
          "internalType": "bytes32[]",
          "name": "dataKeys",
          "type": "bytes32[]"
        },
        {
          "internalType": "bytes[]",
          "name": "dataValues",
          "type": "bytes[]"
        }
      ],
      "name": "setDataBatchForTokenIds",
      "outputs": [],
      "stateMutability": "nonpayable",
      "type": "function"
    },
    {
      "inputs": [
        {
          "internalType": "bytes32",
          "name": "tokenId",
          "type": "bytes32"
        },
        {
          "internalType": "bytes32",
          "name": "dataKey",
          "type": "bytes32"
        },
        {
          "internalType": "bytes",
          "name": "dataValue",
          "type": "bytes"
        }
      ],
      "name": "setDataForTokenId",
      "outputs": [],
      "stateMutability": "nonpayable",
      "type": "function"
    },
    {
      "inputs": [
        {
          "internalType": "bytes4",
          "name": "interfaceId",
          "type": "bytes4"
        }
      ],
      "name": "supportsInterface",
      "outputs": [
        {
          "internalType": "bool",
          "name": "",
          "type": "bool"
        }
      ],
      "stateMutability": "view",
      "type": "function"
    },
    {
      "inputs": [
        {
          "internalType": "address",
          "name": "tokenOwner",
          "type": "address"
        }
      ],
      "name": "tokenIdsOf",
      "outputs": [
        {
          "internalType": "bytes32[]",
          "name": "",
          "type": "bytes32[]"
        }
      ],
      "stateMutability": "view",
      "type": "function"
    },
    {
      "inputs": [
        {
          "internalType": "bytes32",
          "name": "tokenId",
          "type": "bytes32"
        }
      ],
      "name": "tokenOwnerOf",
      "outputs": [
        {
          "internalType": "address",
          "name": "",
          "type": "address"
        }
      ],
      "stateMutability": "view",
      "type": "function"
    },
    {
      "inputs": [],
      "name": "totalSupply",
      "outputs": [
        {
          "internalType": "uint256",
          "name": "",
          "type": "uint256"
        }
      ],
      "stateMutability": "view",
      "type": "function"
    },
    {
      "inputs": [
        {
          "internalType": "address",
          "name": "from",
          "type": "address"
        },
        {
          "internalType": "address",
          "name": "to",
          "type": "address"
        },
        {
          "internalType": "bytes32",
          "name": "tokenId",
          "type": "bytes32"
        },
        {
          "internalType": "bool",
          "name": "force",
          "type": "bool"
        },
        {
          "internalType": "bytes",
          "name": "data",
          "type": "bytes"
        }
      ],
      "name": "transfer",
      "outputs": [],
      "stateMutability": "nonpayable",
      "type": "function"
    },
    {
      "inputs": [
        {
          "internalType": "address[]",
          "name": "from",
          "type": "address[]"
        },
        {
          "internalType": "address[]",
          "name": "to",
          "type": "address[]"
        },
        {
          "internalType": "bytes32[]",
          "name": "tokenId",
          "type": "bytes32[]"
        },
        {
          "internalType": "bool[]",
          "name": "force",
          "type": "bool[]"
        },
        {
          "internalType": "bytes[]",
          "name": "data",
          "type": "bytes[]"
        }
      ],
      "name": "transferBatch",
      "outputs": [],
      "stateMutability": "nonpayable",
      "type": "function"
    },
    {
      "inputs": [
        {
          "internalType": "address",
          "name": "newOwner",
          "type": "address"
        }
      ],
      "name": "transferOwnership",
      "outputs": [],
      "stateMutability": "nonpayable",
      "type": "function"
    },
    {
      "stateMutability": "payable",
      "type": "receive"
    }
  ],
  "transactionHash": "0xfccaf3020d718e63c36d3e5e753aec1e19bbb88f1754673d41232150be8d4b1d",
  "args": [
    "England Shirts",
    "ENG",
    "0x413Bc0E7b6D4686C1D55CCFeBC7b5EDb91c31095",
    "0x0cdb6F0B99b3617323a09BB1b8ea38619D55B2a9",
    "15000000000000000000",
    "0x00006f357c6a00203b81eb9683accb19f263165fc334d37ff991c20e497eed48da502eb385fd025d697066733a2f2f516d58514b6d694471644e5a3467714b35794a696f4634577a6a4658385061517a3944574b794d766f4451735234"
  ],
  "numDeployments": 1,
  "solcInputHash": "53691bd88f3569ff630162e0fef08874",
  "bytecode": "0x60c06040523480156200001157600080fd5b50604051620035d7380380620035d7833981016040819052620000349162000460565b8585856001600084848484816001600160a01b03811662000068576040516306b620db60e21b815260040160405180910390fd5b6200007381620001dc565b506040805180820190915260048152632936598960e21b6020820152620000bc907feafec4d89fa9619884b60000a4d96624a38f7ac2d8d9a604ecf07c12c77e480c906200024a565b620000e87fdeba1e292f8ba88238e10ab3c7f88bd4be4fac56cad5194b6ecceaf653468af1856200024a565b620001147f2f0a68ab07768e01943a599e73362a0e17a63a72e94dd2e384d2c1d4db932756846200024a565b60408051602081018390526200015d917fe0261fa95db2eb3b5439bd033cda66d56b96f92f243a8228fd87550ed7bdfdb3910160408051601f198184030181529190526200024a565b50506040805160208101859052620001aa93507ff675e9361af1c1664c1868cfa3eb97672d6b1a513aa5b81dec34c9ee330e818d92500160408051601f19818403018152919052620002a3565b5050506001600160a01b038516608052505060a08290526007620001cf8282620005ae565b50505050505050620006af565b6000546001600160a01b038281169116146200024757600080546040516001600160a01b03808516939216917f8be0079c531659141344cd1fd0a4f28419497f9722a3daafe3b4186f6b6457e091a3600080546001600160a01b0319166001600160a01b0383161790555b50565b6000828152600160205260409020620002648282620005ae565b50817fece574603820d07bc9b91f2a932baadf4628aabcb8afba49776529c14a6104b2826040516200029791906200067a565b60405180910390a25050565b620002af8282620002b3565b5050565b7f2145e1d6d074577dc71ef54c3807742b41b053a9352ae6b491331509acb9750f8201620002f4576040516385c169bd60e01b815260040160405180910390fd5b7fd0f59754f88971fe6bc5a6618cc9d5f1e859c58d16b22d1c7b2d3e2b246cd8aa82016200033557604051630eceab6760e31b815260040160405180910390fd5b7f1fd9e056a24d14c4abc642fcc325992a946906d0dbc57dd70278aaf12842024d82016200024a57604051634ef6d7fb60e01b815260040160405180910390fd5b634e487b7160e01b600052604160045260246000fd5b60005b83811015620003a95781810151838201526020016200038f565b50506000910152565b600082601f830112620003c457600080fd5b81516001600160401b0380821115620003e157620003e162000376565b604051601f8301601f19908116603f011681019082821181831017156200040c576200040c62000376565b816040528381528660208588010111156200042657600080fd5b620004398460208301602089016200038c565b9695505050505050565b80516001600160a01b03811681146200045b57600080fd5b919050565b60008060008060008060c087890312156200047a57600080fd5b86516001600160401b03808211156200049257600080fd5b620004a08a838b01620003b2565b97506020890151915080821115620004b757600080fd5b620004c58a838b01620003b2565b9650620004d560408a0162000443565b9550620004e560608a0162000443565b94506080890151935060a08901519150808211156200050357600080fd5b506200051289828a01620003b2565b9150509295509295509295565b600181811c908216806200053457607f821691505b6020821081036200055557634e487b7160e01b600052602260045260246000fd5b50919050565b601f821115620005a957600081815260208120601f850160051c81016020861015620005845750805b601f850160051c820191505b81811015620005a55782815560010162000590565b5050505b505050565b81516001600160401b03811115620005ca57620005ca62000376565b620005e281620005db84546200051f565b846200055b565b602080601f8311600181146200061a5760008415620006015750858301515b600019600386901b1c1916600185901b178555620005a5565b600085815260208120601f198616915b828110156200064b578886015182559484019460019091019084016200062a565b50858210156200066a5787850151600019600388901b60f8161c191681555b5050505050600190811b01905550565b60208152600082518060208401526200069b8160408501602087016200038c565b601f01601f19169190910160400192915050565b60805160a051612ef4620006e36000396000818161050f01526108e80152600081816104ab0152610a380152612ef46000f3fe6080604052600436106101bb5760003560e01c80637e87632c116100ec578063a3b261f21161008a578063db8c966311610064578063db8c9663146105a0578063dedff9c6146105c0578063f0292a03146105e0578063f2fde38b146105f557610216565b8063a3b261f214610533578063be9f0e6f14610560578063d6c1407c1461058057610216565b8063884bf67c116100c6578063884bf67c1461049c5780638da5cb5b146104cf57806397902421146104ed57806398d5fdca1461050057610216565b80637e87632c146104495780637f23690c1461046957806386a10ddd1461047c57610216565b806340c10f191161015957806354f6127f1161013357806354f6127f146103d45780636963d438146103f457806370a0823114610414578063715018a61461043457610216565b806340c10f191461037257806349a6078d14610387578063511b6952146103b457610216565b80631d26fce6116101955780631d26fce6146102d8578063217b2270146103055780632a3654a41461033d57806332cb6b0c1461035d57610216565b806301ffc9a71461025757806316e023b31461028c57806318160ddd146102b957610216565b3661021657346000036101fd5760405163e5099ee360e01b81526004016101f49060208082526004908201526000604082015260600190565b60405180910390fd5b6040516330fa4a2160e11b815260040160405180910390fd5b6000366060600482101561024157828260405163e5099ee360e01b81526004016101f4929190612177565b61024b8383610615565b80519350602001915050f35b34801561026357600080fd5b506102776102723660046121a6565b61070b565b60405190151581526020015b60405180910390f35b34801561029857600080fd5b506102ac6102a73660046121d0565b61073f565b6040516102839190612242565b3480156102c557600080fd5b506002545b604051908152602001610283565b3480156102e457600080fd5b506102f86102f3366004612329565b610752565b604051610283919061238c565b34801561031157600080fd5b506103256103203660046123ee565b610839565b6040516001600160a01b039091168152602001610283565b34801561034957600080fd5b50610277610358366004612423565b610872565b34801561036957600080fd5b506102ca606481565b610385610380366004612423565b61087e565b005b34801561039357600080fd5b506103a76103a23660046123ee565b610b0f565b604051610283919061244d565b3480156103c057600080fd5b506103856103cf366004612522565b610b31565b3480156103e057600080fd5b506102ac6103ef3660046123ee565b610b75565b34801561040057600080fd5b506102f861040f36600461259a565b610b80565b34801561042057600080fd5b506102ca61042f36600461260e565b610caf565b34801561044057600080fd5b50610385610cd0565b34801561045557600080fd5b5061038561046436600461276c565b610ce4565b610385610477366004612830565b610dd3565b34801561048857600080fd5b5061038561049736600461286c565b610e08565b3480156104a857600080fd5b507f0000000000000000000000000000000000000000000000000000000000000000610325565b3480156104db57600080fd5b506000546001600160a01b0316610325565b6103856104fb3660046128c2565b610f82565b34801561050c57600080fd5b507f00000000000000000000000000000000000000000000000000000000000000006102ca565b34801561053f57600080fd5b5061055361054e36600461260e565b611042565b604051610283919061291b565b34801561056c57600080fd5b5061038561057b366004612953565b611066565b34801561058c57600080fd5b5061038561059b3660046129d0565b611131565b3480156105ac57600080fd5b506103856105bb366004612a09565b611144565b3480156105cc57600080fd5b506102f86105db366004612a70565b611228565b3480156105ec57600080fd5b506102ca600581565b34801561060157600080fd5b5061038561061036600461260e565b6112d2565b6060600061062e6000356001600160e01b03191661130d565b5090506001600160a01b0381166106665760405163bb370b2b60e01b81526001600160e01b03196000351660048201526024016101f4565b600080826001600160a01b0316348787333460405160200161068b9493929190612aa4565b60408051601f19818403018152908290526106a591612acf565b60006040518083038185875af1925050503d80600081146106e2576040519150601f19603f3d011682016040523d82523d6000602084013e6106e7565b606091505b509150915081156106fc579250610705915050565b80518060208301fd5b92915050565b60006001600160e01b03198216631d138b8360e11b148061073057506107308261138b565b806107055750610705826113b0565b606061074b83836113e7565b9392505050565b60608151835114610776576040516317d38eff60e11b815260040160405180910390fd5b82516001600160401b0381111561078f5761078f612255565b6040519080825280602002602001820160405280156107c257816020015b60608152602001906001900390816107ad5790505b50905060005b83518110156108325761080d8482815181106107e6576107e6612aeb565b602002602001015184838151811061080057610800612aeb565b60200260200101516113e7565b82828151811061081f5761081f612aeb565b60209081029190910101526001016107c8565b5092915050565b6000818152600360205260408120546001600160a01b03168061070557604051635747cd1b60e11b8152600481018490526024016101f4565b600061074b8383611495565b60648160025461088e9190612b17565b11156108ad57604051635b21dfd360e11b815260040160405180910390fd5b6005816108b984610caf565b6108c39190612b17565b11156108e257604051635b21dfd360e11b815260040160405180910390fd5b61090c817f0000000000000000000000000000000000000000000000000000000000000000612b2a565b341461092b5760405163020b5e0b60e11b815260040160405180910390fd5b60005b81811015610a3357600060025460016109479190612b17565b60001b905061096884826000604051806020016040528060008152506114d2565b610a20817f9afb95cacc9f95858ec44aa8c3b685511002e30ae54415823f406128b85b238e60001b6007805461099d90612b41565b80601f01602080910402602001604051908101604052809291908181526020018280546109c990612b41565b8015610a165780601f106109eb57610100808354040283529160200191610a16565b820191906000526020600020905b8154815290600101906020018083116109f957829003601f168201915b5050505050611131565b5080610a2b81612b75565b91505061092e565b5060007f00000000000000000000000000000000000000000000000000000000000000006001600160a01b03163460405160006040518083038185875af1925050503d8060008114610aa1576040519150601f19603f3d011682016040523d82523d6000602084013e610aa6565b606091505b5050905080610ac8576040516312171d8360e31b815260040160405180910390fd5b604080516001600160a01b0385168152602081018490527f2d6f147bcef20580d606c930254442a27952b0caec97caaba61b00b5dd67bba9910160405180910390a1505050565b6060610b1a82611642565b60008281526005602052604090206107059061167a565b610b3b3384611495565b610b6157604051631294d2a960e01b8152600481018490523360248201526044016101f4565b610b6e8585858585611687565b5050505050565b606061070582611869565b6060816001600160401b03811115610b9a57610b9a612255565b604051908082528060200260200182016040528015610bcd57816020015b6060815260200190600190039081610bb85790505b50905060005b828110156108325760008030868685818110610bf157610bf1612aeb565b9050602002810190610c039190612b8e565b604051610c11929190612bdb565b600060405180830381855af49150503d8060008114610c4c576040519150601f19603f3d011682016040523d82523d6000602084013e610c51565b606091505b509150915081610c8757805115610c6b5780518082602001fd5b60405163234eb81960e01b8152600481018490526024016101f4565b80848481518110610c9a57610c9a612aeb565b60209081029190910101525050600101610bd3565b6001600160a01b03811660009081526004602052604081206107059061190b565b610cd8611915565b610ce26000611951565b565b8451845181141580610cf7575083518114155b80610d03575082518114155b80610d0f575081518114155b15610d2d576040516393a8311960e01b815260040160405180910390fd5b60005b81811015610dca57610dc2878281518110610d4d57610d4d612aeb565b6020026020010151878381518110610d6757610d67612aeb565b6020026020010151878481518110610d8157610d81612aeb565b6020026020010151878581518110610d9b57610d9b612aeb565b6020026020010151878681518110610db557610db5612aeb565b6020026020010151610b31565b600101610d30565b50505050505050565b610ddb611915565b3415610dfa5760405163f36ba73760e01b815260040160405180910390fd5b610e0482826119bf565b5050565b6000610e1383610839565b90506001600160a01b0381163314610e5657604051632d938f5160e11b81526001600160a01b0382166004820152602481018490523360448201526064016101f4565b6001600160a01b038416610e7d57604051639577b8b360e01b815260040160405180910390fd5b836001600160a01b0316816001600160a01b031603610eaf576040516344fed6b160e11b815260040160405180910390fd5b6000838152600560205260408120610ec79086611a09565b905080610ef9576040516314ec4d6d60e31b81526001600160a01b0386166004820152602481018590526044016101f4565b83826001600160a01b0316866001600160a01b03167f1b1b58aa2ec0cec2228b2d37124556d41f5a1f7b12f089171f896cc23667121586604051610f3d9190612242565b60405180910390a460003385600186604051602001610f5f9493929190612beb565b6040516020818303038152906040529050610f7a8682611a1e565b505050505050565b610f8a611915565b3415610fa95760405163f36ba73760e01b815260040160405180910390fd5b8051825114610fcb57604051633bcc897960e01b815260040160405180910390fd5b8151600003610fed576040516397da5f9560e01b815260040160405180910390fd5b60005b825181101561103d5761103583828151811061100e5761100e612aeb565b602002602001015183838151811061102857611028612aeb565b60200260200101516119bf565b600101610ff0565b505050565b6001600160a01b03811660009081526004602052604090206060906107059061167a565b61106e611915565b8151835114158061108157508051825114155b1561109f576040516317d38eff60e11b815260040160405180910390fd5b82516000036110c1576040516380c9830560e01b815260040160405180910390fd5b60005b835181101561112b576111238482815181106110e2576110e2612aeb565b60200260200101518483815181106110fc576110fc612aeb565b602002602001015184848151811061111657611116612aeb565b6020026020010151611a49565b6001016110c4565b50505050565b611139611915565b61103d838383611a49565b600061114f84610839565b9050336001600160a01b038216146111a2576001600160a01b03851633146111a25760405163760b5acd60e01b81523360048201526001600160a01b0382166024820152604481018590526064016101f4565b6001600160a01b0385166111c957604051639577b8b360e01b815260040160405180910390fd5b846001600160a01b0316816001600160a01b0316036111fb576040516344fed6b160e11b815260040160405180910390fd5b6112088582868686611aab565b8215610b6e5760008185600085604051602001610f5f9493929190612beb565b606081516001600160401b0381111561124357611243612255565b60405190808252806020026020018201604052801561127657816020015b60608152602001906001900390816112615790505b50905060005b82518110156112cc576112a783828151811061129a5761129a612aeb565b6020026020010151611869565b8282815181106112b9576112b9612aeb565b602090810291909101015260010161127c565b50919050565b6112da611915565b6001600160a01b038116611301576040516306b620db60e21b815260040160405180910390fd5b61130a81611951565b50565b60008080611332696773c5a04a6d4300884b60b11b6001600160e01b03198616611b4b565b9050600061133f82611869565b905080516014141580156113535750805115155b1561137357806040516342bfe79f60e01b81526004016101f49190612242565b61137c81612c24565b60601c95600195509350505050565b60006001600160e01b0319821663a918fa6b60e01b1480610705575061070582611b9f565b6000806113c36301ffc9a760e01b61130d565b5090506001600160a01b0381166113dd5750600092915050565b61074b8184611bd4565b6000828152600660209081526040808320848452909152902080546060919061140f90612b41565b80601f016020809104026020016040519081016040528092919081815260200182805461143b90612b41565b80156114885780601f1061145d57610100808354040283529160200191611488565b820191906000526020600020905b81548152906001019060200180831161146b57829003601f168201915b5050505050905092915050565b60006114a082610839565b6001600160a01b0316836001600160a01b0316148061074b5750600082815260056020526040902061074b9084611c5e565b6001600160a01b0384166114f9576040516324ecef4d60e01b815260040160405180910390fd5b6000838152600360205260409020546001600160a01b031615611532576040516334c7b51160e01b8152600481018490526024016101f4565b6000838152600360205260409020546001600160a01b03161561156b576040516334c7b51160e01b8152600481018490526024016101f4565b60026000815461157a90612b75565b909155506001600160a01b03841660009081526004602052604090206115a09084611c80565b5060008381526003602052604080822080546001600160a01b0319166001600160a01b03881690811790915590518592907fb333c813a7426a7a11e2b190cad52c44119421594b47f6f32ace6d8c7207b2bf9061160290339088908890612c5b565b60405180910390a46000336000868685604051602001611626959493929190612c90565b6040516020818303038152906040529050610b6e858483611c8c565b6000818152600360205260409020546001600160a01b031661130a57604051635747cd1b60e11b8152600481018290526024016101f4565b6060600061074b83611d94565b600061169284610839565b9050856001600160a01b0316816001600160a01b0316146116e057604051632d938f5160e11b81526001600160a01b03808316600483015260248201869052871660448201526064016101f4565b6001600160a01b038516611707576040516324ecef4d60e01b815260040160405180910390fd5b600061171285610839565b9050806001600160a01b0316826001600160a01b03161461176057604051635a9c31d360e01b8152600481018690526001600160a01b038084166024830152821660448201526064016101f4565b61176a8786611def565b6001600160a01b038716600090815260046020526040902061178c9086611e47565b506001600160a01b03861660009081526004602052604090206117af9086611c80565b506000858152600360205260409081902080546001600160a01b0319166001600160a01b0389811691821790925591518792918a16907fb333c813a7426a7a11e2b190cad52c44119421594b47f6f32ace6d8c7207b2bf906118169033908a908a90612c5b565b60405180910390a460003388888887604051602001611839959493929190612c90565b60405160208183030381529060405290506118548882611e53565b61185f878683611c8c565b5050505050505050565b600081815260016020526040902080546060919061188690612b41565b80601f01602080910402602001604051908101604052809291908181526020018280546118b290612b41565b80156118ff5780601f106118d4576101008083540402835291602001916118ff565b820191906000526020600020905b8154815290600101906020018083116118e257829003601f168201915b50505050509050919050565b6000610705825490565b336119286000546001600160a01b031690565b6001600160a01b031614610ce25760405163bf1169c560e01b81523360048201526024016101f4565b6000546001600160a01b0382811691161461130a57600080546040516001600160a01b03808516939216917f8be0079c531659141344cd1fd0a4f28419497f9722a3daafe3b4186f6b6457e091a3600080546001600160a01b0383166001600160a01b031990911617905550565b7f098a16c9e50e3e99b3e797305c146898d294e5aec55a47e213cb3611ccf17e7382016119ff57604051631b32400560e11b815260040160405180910390fd5b610e048282611e7e565b600061074b836001600160a01b038416611e88565b610e04827f8a1c15a8799f71b547e08e2bcb2e85257e81b0a07eee2ce6712549eef1f0097083611ed7565b60008381526006602090815260408083208584529091529020611a6c8282612d11565b5081837fa6e4251f855f750545fe414f120db91c76b88def14d120969e5bb2d3f05debbb83604051611a9e9190612242565b60405180910390a3505050565b6000838152600560205260408120611ac39087611f24565b905080611af5576040516312a8c6a360e21b81526001600160a01b0387166004820152602481018590526044016101f4565b83856001600160a01b0316876001600160a01b03167fc78cd419d6136f9f1c1c6aec1d3fae098cffaf8bc86314a8f2685e32fe574e3c8686604051611b3b929190612dd0565b60405180910390a4505050505050565b604080516001600160b01b0319841660208201526000602a82018190526001600160601b03198416602c83015291829101604051602081830303815290604052905080611b9790612deb565b949350505050565b60006001600160e01b031982166318a6a9a560e21b148061070557506301ffc9a760e01b6001600160e01b0319831614610705565b6040516001600160e01b031982166024820152600090819060440160408051601f19818403018152919052602080820180516001600160e01b03166301ffc9a760e01b178152825192935060009283928392909183918a617530fa92503d91506000519050828015611c47575060208210155b8015611c535750600081115b979650505050505050565b6001600160a01b0381166000908152600183016020526040812054151561074b565b600061074b8383611e88565b611c9d83631aed5a8560e21b611bd4565b15611d3757604051631aed5a8560e21b81526001600160a01b03841690636bb56a1490611cf0907f0b084a55ebf70fd3c06fd755269dac2212c4d3f0f4d09079780bfa50c1b2984d908590600401612e0f565b6000604051808303816000875af1158015611d0f573d6000803e3d6000fd5b505050506040513d6000823e601f3d908101601f1916820160405261112b9190810190612e28565b8161103d576001600160a01b0383163b15611d7057604051634349776d60e01b81526001600160a01b03841660048201526024016101f4565b604051630317313760e01b81526001600160a01b03841660048201526024016101f4565b6060816000018054806020026020016040519081016040528092919081815260200182805480156118ff57602002820191906000526020600020905b815481526020019060010190808311611dd05750505050509050919050565b600081815260056020526040812090611e078261190b565b90506000805b82811015610f7a57611e20846000611f39565b9150611e3f828787600060405180602001604052806000815250611aab565b600101611e0d565b600061074b8383611f45565b610e04827fb23eae7e6d1564b295b4c3e3be402d9a2f0776c57bdf365903496f6fa481ab0083611ed7565b610e048282612038565b6000818152600183016020526040812054611ecf57508154600181810184556000848152602080822090930184905584548482528286019093526040902091909155610705565b506000610705565b611ef16001600160a01b038416631aed5a8560e21b611bd4565b1561103d57604051631aed5a8560e21b81526001600160a01b03841690636bb56a1490611cf09085908590600401612e0f565b600061074b836001600160a01b038416611f45565b600061074b838361214d565b6000818152600183016020526040812054801561202e576000611f69600183612e95565b8554909150600090611f7d90600190612e95565b9050808214611fe2576000866000018281548110611f9d57611f9d612aeb565b9060005260206000200154905080876000018481548110611fc057611fc0612aeb565b6000918252602080832090910192909255918252600188019052604090208390555b8554869080611ff357611ff3612ea8565b600190038181906000526020600020016000905590558560010160008681526020019081526020016000206000905560019350505050610705565b6000915050610705565b7f2145e1d6d074577dc71ef54c3807742b41b053a9352ae6b491331509acb9750f8201612078576040516385c169bd60e01b815260040160405180910390fd5b7fd0f59754f88971fe6bc5a6618cc9d5f1e859c58d16b22d1c7b2d3e2b246cd8aa82016120b857604051630eceab6760e31b815260040160405180910390fd5b7f1fd9e056a24d14c4abc642fcc325992a946906d0dbc57dd70278aaf12842024d82016120f857604051634ef6d7fb60e01b815260040160405180910390fd5b60008281526001602052604090206121108282612d11565b50817fece574603820d07bc9b91f2a932baadf4628aabcb8afba49776529c14a6104b2826040516121419190612242565b60405180910390a25050565b600082600001828154811061216457612164612aeb565b9060005260206000200154905092915050565b60208152816020820152818360408301376000818301604090810191909152601f909201601f19160101919050565b6000602082840312156121b857600080fd5b81356001600160e01b03198116811461074b57600080fd5b600080604083850312156121e357600080fd5b50508035926020909101359150565b60005b8381101561220d5781810151838201526020016121f5565b50506000910152565b6000815180845261222e8160208601602086016121f2565b601f01601f19169290920160200192915050565b60208152600061074b6020830184612216565b634e487b7160e01b600052604160045260246000fd5b604051601f8201601f191681016001600160401b038111828210171561229357612293612255565b604052919050565b60006001600160401b038211156122b4576122b4612255565b5060051b60200190565b600082601f8301126122cf57600080fd5b813560206122e46122df8361229b565b61226b565b82815260059290921b8401810191818101908684111561230357600080fd5b8286015b8481101561231e5780358352918301918301612307565b509695505050505050565b6000806040838503121561233c57600080fd5b82356001600160401b038082111561235357600080fd5b61235f868387016122be565b9350602085013591508082111561237557600080fd5b50612382858286016122be565b9150509250929050565b6000602080830181845280855180835260408601915060408160051b870101925083870160005b828110156123e157603f198886030184526123cf858351612216565b945092850192908501906001016123b3565b5092979650505050505050565b60006020828403121561240057600080fd5b5035919050565b80356001600160a01b038116811461241e57600080fd5b919050565b6000806040838503121561243657600080fd5b61243f83612407565b946020939093013593505050565b6020808252825182820181905260009190848201906040850190845b8181101561248e5783516001600160a01b031683529284019291840191600101612469565b50909695505050505050565b8035801515811461241e57600080fd5b60006001600160401b038211156124c3576124c3612255565b50601f01601f191660200190565b600082601f8301126124e257600080fd5b81356124f06122df826124aa565b81815284602083860101111561250557600080fd5b816020850160208301376000918101602001919091529392505050565b600080600080600060a0868803121561253a57600080fd5b61254386612407565b945061255160208701612407565b9350604086013592506125666060870161249a565b915060808601356001600160401b0381111561258157600080fd5b61258d888289016124d1565b9150509295509295909350565b600080602083850312156125ad57600080fd5b82356001600160401b03808211156125c457600080fd5b818501915085601f8301126125d857600080fd5b8135818111156125e757600080fd5b8660208260051b85010111156125fc57600080fd5b60209290920196919550909350505050565b60006020828403121561262057600080fd5b61074b82612407565b600082601f83011261263a57600080fd5b8135602061264a6122df8361229b565b82815260059290921b8401810191818101908684111561266957600080fd5b8286015b8481101561231e5761267e81612407565b835291830191830161266d565b600082601f83011261269c57600080fd5b813560206126ac6122df8361229b565b82815260059290921b840181019181810190868411156126cb57600080fd5b8286015b8481101561231e576126e08161249a565b83529183019183016126cf565b600082601f8301126126fe57600080fd5b8135602061270e6122df8361229b565b82815260059290921b8401810191818101908684111561272d57600080fd5b8286015b8481101561231e5780356001600160401b038111156127505760008081fd5b61275e8986838b01016124d1565b845250918301918301612731565b600080600080600060a0868803121561278457600080fd5b85356001600160401b038082111561279b57600080fd5b6127a789838a01612629565b965060208801359150808211156127bd57600080fd5b6127c989838a01612629565b955060408801359150808211156127df57600080fd5b6127eb89838a016122be565b9450606088013591508082111561280157600080fd5b61280d89838a0161268b565b9350608088013591508082111561282357600080fd5b5061258d888289016126ed565b6000806040838503121561284357600080fd5b8235915060208301356001600160401b0381111561286057600080fd5b612382858286016124d1565b60008060006060848603121561288157600080fd5b61288a84612407565b92506020840135915060408401356001600160401b038111156128ac57600080fd5b6128b8868287016124d1565b9150509250925092565b600080604083850312156128d557600080fd5b82356001600160401b03808211156128ec57600080fd5b6128f8868387016122be565b9350602085013591508082111561290e57600080fd5b50612382858286016126ed565b6020808252825182820181905260009190848201906040850190845b8181101561248e57835183529284019291840191600101612937565b60008060006060848603121561296857600080fd5b83356001600160401b038082111561297f57600080fd5b61298b878388016122be565b945060208601359150808211156129a157600080fd5b6129ad878388016122be565b935060408601359150808211156129c357600080fd5b506128b8868287016126ed565b6000806000606084860312156129e557600080fd5b833592506020840135915060408401356001600160401b038111156128ac57600080fd5b60008060008060808587031215612a1f57600080fd5b612a2885612407565b935060208501359250612a3d6040860161249a565b915060608501356001600160401b03811115612a5857600080fd5b612a64878288016124d1565b91505092959194509250565b600060208284031215612a8257600080fd5b81356001600160401b03811115612a9857600080fd5b611b97848285016122be565b8385823760609290921b6001600160601b031916919092019081526014810191909152603401919050565b60008251612ae18184602087016121f2565b9190910192915050565b634e487b7160e01b600052603260045260246000fd5b634e487b7160e01b600052601160045260246000fd5b8082018082111561070557610705612b01565b808202811582820484141761070557610705612b01565b600181811c90821680612b5557607f821691505b6020821081036112cc57634e487b7160e01b600052602260045260246000fd5b600060018201612b8757612b87612b01565b5060010190565b6000808335601e19843603018112612ba557600080fd5b8301803591506001600160401b03821115612bbf57600080fd5b602001915036819003821315612bd457600080fd5b9250929050565b8183823760009101908152919050565b60018060a01b03851681528360208201528215156040820152608060608201526000612c1a6080830184612216565b9695505050505050565b805160208201516001600160601b03198082169291906014831015612c535780818460140360031b1b83161693505b505050919050565b6001600160a01b03841681528215156020820152606060408201819052600090612c8790830184612216565b95945050505050565b6001600160a01b0386811682528581166020830152841660408201526060810183905260a060808201819052600090611c5390830184612216565b601f82111561103d57600081815260208120601f850160051c81016020861015612cf25750805b601f850160051c820191505b81811015610f7a57828155600101612cfe565b81516001600160401b03811115612d2a57612d2a612255565b612d3e81612d388454612b41565b84612ccb565b602080601f831160018114612d735760008415612d5b5750858301515b600019600386901b1c1916600185901b178555610f7a565b600085815260208120601f198616915b82811015612da257888601518255948401946001909101908401612d83565b5085821015612dc05787850151600019600388901b60f8161c191681555b5050505050600190811b01905550565b8215158152604060208201526000611b976040830184612216565b805160208083015191908110156112cc5760001960209190910360031b1b16919050565b828152604060208201526000611b976040830184612216565b600060208284031215612e3a57600080fd5b81516001600160401b03811115612e5057600080fd5b8201601f81018413612e6157600080fd5b8051612e6f6122df826124aa565b818152856020838501011115612e8457600080fd5b612c878260208301602086016121f2565b8181038181111561070557610705612b01565b634e487b7160e01b600052603160045260246000fdfea26469706673582212204f53e5b0001ffbc9d65e5dc4e2c33b123c19f174af191a67874d86ea79874aac64736f6c63430008140033",
  "devdoc": {
    "author": "Sports Legends",
    "errors": {
      "ERC725Y_DataKeysValuesEmptyArray()": [
        {
          "details": "Reverts when one of the array parameter provided to {setDataBatch} function is an empty array."
        }
      ],
      "ERC725Y_DataKeysValuesLengthMismatch()": [
        {
          "details": "Reverts when there is not the same number of elements in the `datakeys` and `dataValues` array parameters provided when calling the {setDataBatch} function."
        }
      ],
      "ERC725Y_MsgValueDisallowed()": [
        {
          "details": "Reverts when sending value to the {setData} or {setDataBatch} function."
        }
      ],
      "InvalidExtensionAddress(bytes)": [
        {
          "details": "reverts when the bytes retrieved from the LSP17 data key is not a valid address (not 20 bytes)"
        }
      ],
      "InvalidFunctionSelector(bytes)": [
        {
          "details": "reverts when the contract is called with a function selector not valid (less than 4 bytes of data)"
        }
      ],
      "LSP4TokenNameNotEditable()": [
        {
          "details": "Reverts when trying to edit the data key `LSP4TokenName` after the digital asset contract has been deployed / initialized. The `LSP4TokenName` data key is located inside the ERC725Y data key-value store of the digital asset contract. It can be set only once inside the constructor/initializer when the digital asset contract is being deployed / initialized."
        }
      ],
      "LSP4TokenSymbolNotEditable()": [
        {
          "details": "Reverts when trying to edit the data key `LSP4TokenSymbol` after the digital asset contract has been deployed / initialized. The `LSP4TokenSymbol` data key is located inside the ERC725Y data key-value store of the digital asset contract. It can be set only once inside the constructor/initializer when the digital asset contract is being deployed / initialized."
        }
      ],
      "LSP4TokenTypeNotEditable()": [
        {
          "details": "Reverts when trying to edit the data key `LSP4TokenType` after the digital asset contract has been deployed / initialized. The `LSP4TokenType` data key is located inside the ERC725Y data key-value store of the digital asset contract. It can be set only once inside the constructor / initializer when the digital asset contract is being deployed / initialized."
        }
      ],
      "LSP8BatchCallFailed(uint256)": [
        {
          "details": "Reverts when a batch call failed."
        }
      ],
      "LSP8CannotSendToAddressZero()": [
        {
          "details": "Reverts when trying to send token to the zero address."
        }
      ],
      "LSP8CannotUseAddressZeroAsOperator()": [
        {
          "details": "Reverts when trying to set the zero address as an operator."
        }
      ],
      "LSP8InvalidTransferBatch()": [
        {
          "details": "Reverts when the parameters used for `transferBatch` have different lengths."
        }
      ],
      "LSP8NonExistentTokenId(bytes32)": [
        {
          "details": "Reverts when `tokenId` has not been minted."
        }
      ],
      "LSP8NonExistingOperator(address,bytes32)": [
        {
          "details": "Reverts when `operator` is not an operator for the `tokenId`."
        }
      ],
      "LSP8NotTokenOperator(bytes32,address)": [
        {
          "details": "Reverts when `caller` is not an allowed operator for `tokenId`."
        }
      ],
      "LSP8NotTokenOwner(address,bytes32,address)": [
        {
          "details": "Reverts when `caller` is not the `tokenOwner` of the `tokenId`."
        }
      ],
      "LSP8NotifyTokenReceiverContractMissingLSP1Interface(address)": [
        {
          "details": "Reverts if the `tokenReceiver` does not implement LSP1 when minting or transferring tokens with `bool force` set as `false`."
        }
      ],
      "LSP8NotifyTokenReceiverIsEOA(address)": [
        {
          "details": "Reverts if the `tokenReceiver` is an EOA when minting or transferring tokens with `bool force` set as `false`."
        }
      ],
      "LSP8OperatorAlreadyAuthorized(address,bytes32)": [
        {
          "details": "Reverts when `operator` is already authorized for the `tokenId`."
        }
      ],
      "LSP8RevokeOperatorNotAuthorized(address,address,bytes32)": [
        {
          "details": "Reverts when the call to revoke operator is not authorized."
        }
      ],
      "LSP8TokenContractCannotHoldValue()": [
        {
          "details": "Error occurs when sending native tokens to the LSP8 contract without sending any data. E.g. Sending value without passing a bytes4 function selector to call a LSP17 Extension."
        }
      ],
      "LSP8TokenIdAlreadyMinted(bytes32)": [
        {
          "details": "Reverts when `tokenId` has already been minted."
        }
      ],
      "LSP8TokenIdFormatNotEditable()": [
        {
          "details": "Reverts when trying to edit the data key `LSP8TokenIdFormat` after the identifiable digital asset contract has been deployed. The `LSP8TokenIdFormat` data key is located inside the ERC725Y Data key-value store of the identifiable digital asset contract. It can be set only once inside the constructor/initializer when the identifiable digital asset contract is being deployed."
        }
      ],
      "LSP8TokenIdsDataEmptyArray()": [
        {
          "details": "Reverts when empty arrays is passed to the function"
        }
      ],
      "LSP8TokenIdsDataLengthMismatch()": [
        {
          "details": "Reverts when the length of the token IDs data arrays is not equal"
        }
      ],
      "LSP8TokenOwnerCannotBeOperator()": [
        {
          "details": "Reverts when trying to authorize or revoke the token's owner as an operator."
        }
      ],
      "LSP8TokenOwnerChanged(bytes32,address,address)": [
        {
          "details": "Reverts when the token owner changed inside the {_beforeTokenTransfer} hook."
        }
      ],
      "NoExtensionFoundForFunctionSelector(bytes4)": [
        {
          "details": "reverts when there is no extension for the function selector being called with"
        }
      ],
      "OwnableCallerNotTheOwner(address)": [
        {
          "details": "Reverts when only the owner is allowed to call the function.",
          "params": {
            "callerAddress": "The address that tried to make the call."
          }
        }
      ],
      "OwnableCannotSetZeroAddressAsOwner()": [
        {
          "details": "Reverts when trying to set `address(0)` as the contract owner when deploying the contract, initializing it or transferring ownership of the contract."
        }
      ]
    },
    "events": {
      "DataChanged(bytes32,bytes)": {
        "details": "Emitted when data at a specific `dataKey` was changed to a new value `dataValue`.",
        "params": {
          "dataKey": "The data key for which a bytes value is set.",
          "dataValue": "The value to set for the given data key."
        }
      },
      "OperatorAuthorizationChanged(address,address,bytes32,bytes)": {
        "details": "Emitted when `tokenOwner` enables `operator` to transfer or burn the `tokenId`.",
        "params": {
          "operator": "The address authorized as an operator.",
          "operatorNotificationData": "The data to notify the operator about via LSP1.",
          "tokenId": "The tokenId `operator` address has access on behalf of `tokenOwner`.",
          "tokenOwner": "The owner of the `tokenId`."
        }
      },
      "OperatorRevoked(address,address,bytes32,bool,bytes)": {
        "details": "Emitted when `tokenOwner` disables `operator` to transfer or burn `tokenId` on its behalf.",
        "params": {
          "notified": "Bool indicating whether the operator has been notified or not",
          "operator": "The address revoked from the operator array ({getOperatorsOf}).",
          "operatorNotificationData": "The data to notify the operator about via LSP1.",
          "tokenId": "The tokenId `operator` is revoked from operating on.",
          "tokenOwner": "The owner of the `tokenId`."
        }
      },
      "TokenIdDataChanged(bytes32,bytes32,bytes)": {
        "details": "Emitted when setting data for `tokenId`.",
        "params": {
          "dataKey": "The data key for which a bytes value is set.",
          "dataValue": "The value to set for the given data key.",
          "tokenId": "The tokenId which data is set for."
        }
      },
      "Transfer(address,address,address,bytes32,bool,bytes)": {
        "details": "Emitted when `tokenId` token is transferred from the `from` to the `to` address.",
        "params": {
          "data": "Any additional data the caller included by the caller during the transfer, and sent in the hooks to the `from` and `to` addresses.",
          "force": "If the token transfer enforces the `to` recipient address to be a contract that implements the LSP1 standard or not.",
          "from": "The previous owner of the `tokenId`",
          "operator": "The address of operator that sent the `tokenId`",
          "to": "The new owner of `tokenId`",
          "tokenId": "The tokenId that was transferred"
        }
      }
    },
    "kind": "dev",
    "methods": {
      "authorizeOperator(address,bytes32,bytes)": {
        "details": "Allow an `operator` address to transfer or burn a specific `tokenId` on behalf of its token owner. See {isOperatorFor}. Notify the operator based on the LSP1-UniversalReceiver standard",
        "params": {
          "operator": "The address to authorize as an operator.",
          "operatorNotificationData": "The data to notify the operator about via LSP1.",
          "tokenId": "The token ID operator has access to."
        }
      },
      "balanceOf(address)": {
        "details": "Get the number of token IDs owned by `tokenOwner`.",
        "params": {
          "tokenOwner": "The address to query     *"
        },
        "returns": {
          "_0": "The total number of token IDs that `tokenOwner` owns."
        }
      },
      "batchCalls(bytes[])": {
        "custom:info": "It's not possible to send value along the functions call due to the use of `delegatecall`.",
        "details": "Allows a caller to batch different function calls in one call. Perform a `delegatecall` on self, to call different functions with preserving the context.",
        "params": {
          "data": "An array of ABI encoded function calls to be called on the contract."
        },
        "returns": {
          "results": "An array of abi-encoded data returned by the functions executed."
        }
      },
      "getData(bytes32)": {
        "details": "Get in the ERC725Y storage the bytes data stored at a specific data key `dataKey`.",
        "params": {
          "dataKey": "The data key for which to retrieve the value."
        },
        "returns": {
          "dataValue": "The bytes value stored under the specified data key."
        }
      },
      "getDataBatch(bytes32[])": {
        "details": "Get in the ERC725Y storage the bytes data stored at multiple data keys `dataKeys`.",
        "params": {
          "dataKeys": "The array of keys which values to retrieve"
        },
        "returns": {
          "dataValues": "The array of data stored at multiple keys"
        }
      },
      "getDataBatchForTokenIds(bytes32[],bytes32[])": {
        "params": {
          "dataKeys": "An array of data keys corresponding to the token IDs.",
          "tokenIds": "An array of token IDs."
        },
        "returns": {
          "dataValues": "An array of data values for each pair of `tokenId` and `dataKey`."
        }
      },
      "getDataForTokenId(bytes32,bytes32)": {
        "params": {
          "dataKey": "The key for the data to retrieve.",
          "tokenId": "The unique identifier for a token."
        },
        "returns": {
          "dataValue": "The data value associated with the given `tokenId` and `dataKey`."
        }
      },
      "getOperatorsOf(bytes32)": {
        "details": "Returns all `operator` addresses that are allowed to transfer or burn a specific `tokenId` on behalf of its owner.",
        "params": {
          "tokenId": "The token ID to get the operators for."
        },
        "returns": {
          "_0": "An array of operators allowed to transfer or burn a specific `tokenId`. Requirements - `tokenId` must exist."
        }
      },
      "isOperatorFor(address,bytes32)": {
        "details": "Returns whether `operator` address is an operator for a given `tokenId`.",
        "params": {
          "operator": "The address to query operator status for.",
          "tokenId": "The token ID to check if `operator` is allowed to operate on."
        },
        "returns": {
          "_0": "`true` if `operator` is an operator for `tokenId`, `false` otherwise."
        }
      },
      "mint(address,uint256)": {
        "details": "Price is transferred to the prize pool 25% is split between creators",
        "params": {
          "_amount": "Amount of shirts to mint",
          "_recipient": "Address of the recipient"
        }
      },
      "owner()": {
        "details": "Returns the address of the current owner."
      },
      "renounceOwnership()": {
        "details": "Leaves the contract without owner. It will not be possible to call `onlyOwner` functions anymore. Can only be called by the current owner. NOTE: Renouncing ownership will leave the contract without an owner, thereby removing any functionality that is only available to the owner."
      },
      "revokeOperator(address,bytes32,bool,bytes)": {
        "details": "Remove access of `operator` for a given `tokenId`, disallowing it to transfer `tokenId` on behalf of its owner. See also {isOperatorFor}.",
        "params": {
          "notify": "Boolean indicating whether to notify the operator or not",
          "operator": "The address to revoke as an operator.",
          "operatorNotificationData": "The data to notify the operator about via LSP1.",
          "tokenId": "The tokenId `operator` is revoked from operating on."
        }
      },
      "setData(bytes32,bytes)": {
        "custom:events": "{DataChanged} event.",
        "custom:requirements": "- SHOULD only be callable by the {owner}.",
        "custom:warning": "**Note for developers:** despite the fact that this function is set as `payable`, if the function is not intended to receive value (= native tokens), **an additional check should be implemented to ensure that `msg.value` sent was equal to 0**.",
        "details": "Sets a single bytes value `dataValue` in the ERC725Y storage for a specific data key `dataKey`. The function is marked as payable to enable flexibility on child contracts. For instance to implement a fee mechanism for setting specific data.",
        "params": {
          "dataKey": "The data key for which to set a new value.",
          "dataValue": "The new bytes value to set."
        }
      },
      "setDataBatch(bytes32[],bytes[])": {
        "custom:events": "{DataChanged} event **for each data key/value pair set**.",
        "custom:requirements": "- SHOULD only be callable by the {owner} of the contract.",
        "custom:warning": "**Note for developers:** despite the fact that this function is set as `payable`, if the function is not intended to receive value (= native tokens), **an additional check should be implemented to ensure that `msg.value` sent was equal to 0**.",
        "details": "Batch data setting function that behaves the same as {setData} but allowing to set multiple data key/value pairs in the ERC725Y storage in the same transaction.",
        "params": {
          "dataKeys": "An array of data keys to set bytes values for.",
          "dataValues": "An array of bytes values to set for each `dataKeys`."
        }
      },
      "setDataBatchForTokenIds(bytes32[],bytes32[],bytes[])": {
        "params": {
          "dataKeys": "An array of data keys corresponding to the token IDs.",
          "dataValues": "An array of values to set for the given data keys.",
          "tokenIds": "An array of token IDs."
        }
      },
      "setDataForTokenId(bytes32,bytes32,bytes)": {
        "params": {
          "dataKey": "The key for the data to set.",
          "dataValue": "The value to set for the given data key.",
          "tokenId": "The unique identifier for a token."
        }
      },
      "supportsInterface(bytes4)": {
        "details": "Returns true if this contract implements the interface defined by `interfaceId`. See the corresponding https://eips.ethereum.org/EIPS/eip-165#how-interfaces-are-identified[EIP section] to learn more about how these ids are created. This function call must use less than 30 000 gas."
      },
      "tokenIdsOf(address)": {
        "details": "Returns the list of token IDs that the `tokenOwner` address owns.",
        "params": {
          "tokenOwner": "The address that we want to get the list of token IDs for."
        },
        "returns": {
          "_0": "An array of `bytes32[] tokenIds` owned by `tokenOwner`."
        }
      },
      "tokenOwnerOf(bytes32)": {
        "details": "Returns the address that owns a given `tokenId`.",
        "params": {
          "tokenId": "The token ID to query the owner for."
        },
        "returns": {
          "_0": "The owner address of the given `tokenId`."
        }
      },
      "totalSupply()": {
        "details": "Returns the number of existing tokens that have been minted in this contract.",
        "returns": {
          "_0": "The number of existing tokens."
        }
      },
      "transfer(address,address,bytes32,bool,bytes)": {
        "details": "Transfer a given `tokenId` token from the `from` address to the `to` address. If operators are set for a specific `tokenId`, all the operators are revoked after the tokenId have been transferred. The `force` parameter MUST be set to `true` when transferring tokens to Externally Owned Accounts (EOAs) or contracts that do not implement the LSP1 standard.",
        "params": {
          "data": "Any additional data the caller wants included in the emitted event, and sent in the hooks of the `from` and `to` addresses.",
          "force": "When set to `true`, the `to` address CAN be any addres. When set to `false`, the `to` address MUST be a contract that supports the LSP1 UniversalReceiver standard.",
          "from": "The address that owns the given `tokenId`.",
          "to": "The address that will receive the `tokenId`.",
          "tokenId": "The token ID to transfer."
        }
      },
      "transferBatch(address[],address[],bytes32[],bool[],bytes[])": {
        "details": "Transfers multiple tokens at once based on the arrays of `from`, `to` and `tokenId`. If any transfer fails, the whole call will revert.",
        "params": {
          "data": "Any additional data the caller wants included in the emitted event, and sent in the hooks to the `from` and `to` addresses.",
          "force": "When set to `true`, `to` may be any address. When set to `false`, `to` must be a contract that supports the LSP1 standard and not revert.",
          "from": "An array of sending addresses.",
          "to": "An array of recipient addresses.",
          "tokenId": "An array of token IDs to transfer."
        }
      },
      "transferOwnership(address)": {
        "details": "Transfers ownership of the contract to a new account (`newOwner`). Can only be called by the current owner."
      }
    },
    "title": "Shirts NFT",
    "version": 1
  },
  "userdoc": {
    "errors": {
      "LSP8BatchCallFailed(uint256)": [
        {
          "notice": "Batch call failed."
        }
      ],
      "LSP8TokenContractCannotHoldValue()": [
        {
          "notice": "LSP8 contract cannot receive native tokens."
        }
      ]
    },
    "events": {
      "DataChanged(bytes32,bytes)": {
        "notice": "The following data key/value pair has been changed in the ERC725Y storage: Data key: `dataKey`, data value: `dataValue`."
      }
    },
    "kind": "user",
    "methods": {
      "batchCalls(bytes[])": {
        "notice": "Executing the following batch of abi-encoded function calls on the contract: `data`."
      },
      "getData(bytes32)": {
        "notice": "Reading the ERC725Y storage for data key `dataKey` returned the following value: `dataValue`."
      },
      "getDataBatch(bytes32[])": {
        "notice": "Reading the ERC725Y storage for data keys `dataKeys` returned the following values: `dataValues`."
      },
      "getDataBatchForTokenIds(bytes32[],bytes32[])": {
        "notice": "Retrieves data in batch for multiple `tokenId` and `dataKey` pairs."
      },
      "getDataForTokenId(bytes32,bytes32)": {
        "notice": "Retrieves data for a specific `tokenId` and `dataKey`."
      },
      "getPrice()": {
        "notice": "Returns the price of each shirt"
      },
      "getPrizePool()": {
        "notice": "Returns the address of the prize pool"
      },
      "mint(address,uint256)": {
        "notice": "Mints {_amount} shirts to {_recipient} for the right price Users can mint 5 max and 100 in total Anyone can mint a shirt for another"
      },
      "setData(bytes32,bytes)": {
        "notice": "Setting the following data key value pair in the ERC725Y storage. Data key: `dataKey`, data value: `dataValue`."
      },
      "setDataBatch(bytes32[],bytes[])": {
        "notice": "Setting the following data key value pairs in the ERC725Y storage. Data keys: `dataKeys`, data values: `dataValues`."
      },
      "setDataBatchForTokenIds(bytes32[],bytes32[],bytes[])": {
        "notice": "Sets data in batch for multiple `tokenId` and `dataKey` pairs."
      },
      "setDataForTokenId(bytes32,bytes32,bytes)": {
        "notice": "Sets data for a specific `tokenId` and `dataKey`."
      }
    },
    "notice": "An NFT contract for the countries in the European Cup Tournament Users can mint a shirt for the right price",
    "version": 1
  },
  "storageLayout": {
    "storage": [
      {
        "astId": 301,
        "contract": "contracts/tokens/Shirts.sol:Shirts",
        "label": "_owner",
        "offset": 0,
        "slot": "0",
        "type": "t_address"
      },
      {
        "astId": 63,
        "contract": "contracts/tokens/Shirts.sol:Shirts",
        "label": "_store",
        "offset": 0,
        "slot": "1",
        "type": "t_mapping(t_bytes32,t_bytes_storage)"
      },
      {
        "astId": 2437,
        "contract": "contracts/tokens/Shirts.sol:Shirts",
        "label": "_existingTokens",
        "offset": 0,
        "slot": "2",
        "type": "t_uint256"
      },
      {
        "astId": 2441,
        "contract": "contracts/tokens/Shirts.sol:Shirts",
        "label": "_tokenOwners",
        "offset": 0,
        "slot": "3",
        "type": "t_mapping(t_bytes32,t_address)"
      },
      {
        "astId": 2446,
        "contract": "contracts/tokens/Shirts.sol:Shirts",
        "label": "_ownedTokens",
        "offset": 0,
        "slot": "4",
        "type": "t_mapping(t_address,t_struct(Bytes32Set)4420_storage)"
      },
      {
        "astId": 2451,
        "contract": "contracts/tokens/Shirts.sol:Shirts",
        "label": "_operators",
        "offset": 0,
        "slot": "5",
        "type": "t_mapping(t_bytes32,t_struct(AddressSet)4541_storage)"
      },
      {
        "astId": 2457,
        "contract": "contracts/tokens/Shirts.sol:Shirts",
        "label": "_tokenIdData",
        "offset": 0,
        "slot": "6",
        "type": "t_mapping(t_bytes32,t_mapping(t_bytes32,t_bytes_storage))"
      },
      {
        "astId": 5581,
        "contract": "contracts/tokens/Shirts.sol:Shirts",
        "label": "metadata",
        "offset": 0,
        "slot": "7",
        "type": "t_bytes_storage"
      }
    ],
    "types": {
      "t_address": {
        "encoding": "inplace",
        "label": "address",
        "numberOfBytes": "20"
      },
      "t_array(t_bytes32)dyn_storage": {
        "base": "t_bytes32",
        "encoding": "dynamic_array",
        "label": "bytes32[]",
        "numberOfBytes": "32"
      },
      "t_bytes32": {
        "encoding": "inplace",
        "label": "bytes32",
        "numberOfBytes": "32"
      },
      "t_bytes_storage": {
        "encoding": "bytes",
        "label": "bytes",
        "numberOfBytes": "32"
      },
      "t_mapping(t_address,t_struct(Bytes32Set)4420_storage)": {
        "encoding": "mapping",
        "key": "t_address",
        "label": "mapping(address => struct EnumerableSet.Bytes32Set)",
        "numberOfBytes": "32",
        "value": "t_struct(Bytes32Set)4420_storage"
      },
      "t_mapping(t_bytes32,t_address)": {
        "encoding": "mapping",
        "key": "t_bytes32",
        "label": "mapping(bytes32 => address)",
        "numberOfBytes": "32",
        "value": "t_address"
      },
      "t_mapping(t_bytes32,t_bytes_storage)": {
        "encoding": "mapping",
        "key": "t_bytes32",
        "label": "mapping(bytes32 => bytes)",
        "numberOfBytes": "32",
        "value": "t_bytes_storage"
      },
      "t_mapping(t_bytes32,t_mapping(t_bytes32,t_bytes_storage))": {
        "encoding": "mapping",
        "key": "t_bytes32",
        "label": "mapping(bytes32 => mapping(bytes32 => bytes))",
        "numberOfBytes": "32",
        "value": "t_mapping(t_bytes32,t_bytes_storage)"
      },
      "t_mapping(t_bytes32,t_struct(AddressSet)4541_storage)": {
        "encoding": "mapping",
        "key": "t_bytes32",
        "label": "mapping(bytes32 => struct EnumerableSet.AddressSet)",
        "numberOfBytes": "32",
        "value": "t_struct(AddressSet)4541_storage"
      },
      "t_mapping(t_bytes32,t_uint256)": {
        "encoding": "mapping",
        "key": "t_bytes32",
        "label": "mapping(bytes32 => uint256)",
        "numberOfBytes": "32",
        "value": "t_uint256"
      },
      "t_struct(AddressSet)4541_storage": {
        "encoding": "inplace",
        "label": "struct EnumerableSet.AddressSet",
        "members": [
          {
            "astId": 4540,
            "contract": "contracts/tokens/Shirts.sol:Shirts",
            "label": "_inner",
            "offset": 0,
            "slot": "0",
            "type": "t_struct(Set)4226_storage"
          }
        ],
        "numberOfBytes": "64"
      },
      "t_struct(Bytes32Set)4420_storage": {
        "encoding": "inplace",
        "label": "struct EnumerableSet.Bytes32Set",
        "members": [
          {
            "astId": 4419,
            "contract": "contracts/tokens/Shirts.sol:Shirts",
            "label": "_inner",
            "offset": 0,
            "slot": "0",
            "type": "t_struct(Set)4226_storage"
          }
        ],
        "numberOfBytes": "64"
      },
      "t_struct(Set)4226_storage": {
        "encoding": "inplace",
        "label": "struct EnumerableSet.Set",
        "members": [
          {
            "astId": 4221,
            "contract": "contracts/tokens/Shirts.sol:Shirts",
            "label": "_values",
            "offset": 0,
            "slot": "0",
            "type": "t_array(t_bytes32)dyn_storage"
          },
          {
            "astId": 4225,
            "contract": "contracts/tokens/Shirts.sol:Shirts",
            "label": "_positions",
            "offset": 0,
            "slot": "1",
            "type": "t_mapping(t_bytes32,t_uint256)"
          }
        ],
        "numberOfBytes": "64"
      },
      "t_uint256": {
        "encoding": "inplace",
        "label": "uint256",
        "numberOfBytes": "32"
      }
    }
  }
}