{"contracts/tokens/Tickets.sol":{"Tickets":{"abi":[{"inputs":[{"internalType":"string","name":"_name","type":"string"},{"internalType":"string","name":"_symbol","type":"string"},{"internalType":"address","name":"_owner","type":"address"},{"internalType":"address","name":"_prizePool","type":"address"},{"internalType":"uint256","name":"_price","type":"uint256"}],"stateMutability":"nonpayable","type":"constructor"},{"inputs":[],"name":"ERC725Y_DataKeysValuesEmptyArray","type":"error"},{"inputs":[],"name":"ERC725Y_DataKeysValuesLengthMismatch","type":"error"},{"inputs":[],"name":"ERC725Y_MsgValueDisallowed","type":"error"},{"inputs":[{"internalType":"bytes","name":"storedData","type":"bytes"}],"name":"InvalidExtensionAddress","type":"error"},{"inputs":[{"internalType":"bytes","name":"data","type":"bytes"}],"name":"InvalidFunctionSelector","type":"error"},{"inputs":[],"name":"InvalidMintPrice","type":"error"},{"inputs":[],"name":"LSP4TokenNameNotEditable","type":"error"},{"inputs":[],"name":"LSP4TokenSymbolNotEditable","type":"error"},{"inputs":[],"name":"LSP4TokenTypeNotEditable","type":"error"},{"inputs":[{"internalType":"address","name":"tokenOwner","type":"address"},{"internalType":"uint256","name":"authorizedAmount","type":"uint256"},{"internalType":"address","name":"operator","type":"address"},{"internalType":"uint256","name":"amount","type":"uint256"}],"name":"LSP7AmountExceedsAuthorizedAmount","type":"error"},{"inputs":[{"internalType":"uint256","name":"balance","type":"uint256"},{"internalType":"address","name":"tokenOwner","type":"address"},{"internalType":"uint256","name":"amount","type":"uint256"}],"name":"LSP7AmountExceedsBalance","type":"error"},{"inputs":[{"internalType":"uint256","name":"callIndex","type":"uint256"}],"name":"LSP7BatchCallFailed","type":"error"},{"inputs":[],"name":"LSP7CannotSendWithAddressZero","type":"error"},{"inputs":[],"name":"LSP7CannotUseAddressZeroAsOperator","type":"error"},{"inputs":[{"internalType":"address","name":"caller","type":"address"},{"internalType":"address","name":"tokenOwner","type":"address"},{"internalType":"address","name":"operator","type":"address"}],"name":"LSP7DecreaseAllowanceNotAuthorized","type":"error"},{"inputs":[],"name":"LSP7DecreasedAllowanceBelowZero","type":"error"},{"inputs":[],"name":"LSP7InvalidTransferBatch","type":"error"},{"inputs":[{"internalType":"address","name":"tokenReceiver","type":"address"}],"name":"LSP7NotifyTokenReceiverContractMissingLSP1Interface","type":"error"},{"inputs":[{"internalType":"address","name":"tokenReceiver","type":"address"}],"name":"LSP7NotifyTokenReceiverIsEOA","type":"error"},{"inputs":[{"internalType":"address","name":"caller","type":"address"},{"internalType":"address","name":"tokenOwner","type":"address"},{"internalType":"address","name":"operator","type":"address"}],"name":"LSP7RevokeOperatorNotAuthorized","type":"error"},{"inputs":[],"name":"LSP7TokenContractCannotHoldValue","type":"error"},{"inputs":[],"name":"LSP7TokenOwnerCannotBeOperator","type":"error"},{"inputs":[],"name":"MintLimitExceeded","type":"error"},{"inputs":[{"internalType":"bytes4","name":"functionSelector","type":"bytes4"}],"name":"NoExtensionFoundForFunctionSelector","type":"error"},{"inputs":[{"internalType":"address","name":"operator","type":"address"}],"name":"OperatorAllowanceCannotBeIncreasedFromZero","type":"error"},{"inputs":[{"internalType":"address","name":"callerAddress","type":"address"}],"name":"OwnableCallerNotTheOwner","type":"error"},{"inputs":[],"name":"OwnableCannotSetZeroAddressAsOwner","type":"error"},{"inputs":[],"name":"TransferFailed","type":"error"},{"anonymous":false,"inputs":[{"indexed":true,"internalType":"bytes32","name":"dataKey","type":"bytes32"},{"indexed":false,"internalType":"bytes","name":"dataValue","type":"bytes"}],"name":"DataChanged","type":"event"},{"anonymous":false,"inputs":[{"indexed":true,"internalType":"address","name":"operator","type":"address"},{"indexed":true,"internalType":"address","name":"tokenOwner","type":"address"},{"indexed":true,"internalType":"uint256","name":"amount","type":"uint256"},{"indexed":false,"internalType":"bytes","name":"operatorNotificationData","type":"bytes"}],"name":"OperatorAuthorizationChanged","type":"event"},{"anonymous":false,"inputs":[{"indexed":true,"internalType":"address","name":"operator","type":"address"},{"indexed":true,"internalType":"address","name":"tokenOwner","type":"address"},{"indexed":true,"internalType":"bool","name":"notified","type":"bool"},{"indexed":false,"internalType":"bytes","name":"operatorNotificationData","type":"bytes"}],"name":"OperatorRevoked","type":"event"},{"anonymous":false,"inputs":[{"indexed":true,"internalType":"address","name":"previousOwner","type":"address"},{"indexed":true,"internalType":"address","name":"newOwner","type":"address"}],"name":"OwnershipTransferred","type":"event"},{"anonymous":false,"inputs":[{"indexed":false,"internalType":"address","name":"_recipient","type":"address"},{"indexed":false,"internalType":"uint256","name":"_amount","type":"uint256"}],"name":"TicketsMinted","type":"event"},{"anonymous":false,"inputs":[{"indexed":true,"internalType":"address","name":"operator","type":"address"},{"indexed":true,"internalType":"address","name":"from","type":"address"},{"indexed":true,"internalType":"address","name":"to","type":"address"},{"indexed":false,"internalType":"uint256","name":"amount","type":"uint256"},{"indexed":false,"internalType":"bool","name":"force","type":"bool"},{"indexed":false,"internalType":"bytes","name":"data","type":"bytes"}],"name":"Transfer","type":"event"},{"stateMutability":"payable","type":"fallback"},{"inputs":[],"name":"MAX_MINT","outputs":[{"internalType":"uint256","name":"","type":"uint256"}],"stateMutability":"view","type":"function"},{"inputs":[],"name":"MAX_SUPPLY","outputs":[{"internalType":"uint256","name":"","type":"uint256"}],"stateMutability":"view","type":"function"},{"inputs":[{"internalType":"address","name":"operator","type":"address"},{"internalType":"uint256","name":"amount","type":"uint256"},{"internalType":"bytes","name":"operatorNotificationData","type":"bytes"}],"name":"authorizeOperator","outputs":[],"stateMutability":"nonpayable","type":"function"},{"inputs":[{"internalType":"address","name":"operator","type":"address"},{"internalType":"address","name":"tokenOwner","type":"address"}],"name":"authorizedAmountFor","outputs":[{"internalType":"uint256","name":"","type":"uint256"}],"stateMutability":"view","type":"function"},{"inputs":[{"internalType":"address","name":"tokenOwner","type":"address"}],"name":"balanceOf","outputs":[{"internalType":"uint256","name":"","type":"uint256"}],"stateMutability":"view","type":"function"},{"inputs":[{"internalType":"bytes[]","name":"data","type":"bytes[]"}],"name":"batchCalls","outputs":[{"internalType":"bytes[]","name":"results","type":"bytes[]"}],"stateMutability":"nonpayable","type":"function"},{"inputs":[],"name":"decimals","outputs":[{"internalType":"uint8","name":"","type":"uint8"}],"stateMutability":"view","type":"function"},{"inputs":[{"internalType":"address","name":"operator","type":"address"},{"internalType":"address","name":"tokenOwner","type":"address"},{"internalType":"uint256","name":"subtractedAmount","type":"uint256"},{"internalType":"bytes","name":"operatorNotificationData","type":"bytes"}],"name":"decreaseAllowance","outputs":[],"stateMutability":"nonpayable","type":"function"},{"inputs":[{"internalType":"bytes32","name":"dataKey","type":"bytes32"}],"name":"getData","outputs":[{"internalType":"bytes","name":"dataValue","type":"bytes"}],"stateMutability":"view","type":"function"},{"inputs":[{"internalType":"bytes32[]","name":"dataKeys","type":"bytes32[]"}],"name":"getDataBatch","outputs":[{"internalType":"bytes[]","name":"dataValues","type":"bytes[]"}],"stateMutability":"view","type":"function"},{"inputs":[{"internalType":"address","name":"tokenOwner","type":"address"}],"name":"getOperatorsOf","outputs":[{"internalType":"address[]","name":"","type":"address[]"}],"stateMutability":"view","type":"function"},{"inputs":[],"name":"getPrice","outputs":[{"internalType":"uint256","name":"","type":"uint256"}],"stateMutability":"view","type":"function"},{"inputs":[],"name":"getPrizePool","outputs":[{"internalType":"address","name":"","type":"address"}],"stateMutability":"view","type":"function"},{"inputs":[{"internalType":"address","name":"operator","type":"address"},{"internalType":"uint256","name":"addedAmount","type":"uint256"},{"internalType":"bytes","name":"operatorNotificationData","type":"bytes"}],"name":"increaseAllowance","outputs":[],"stateMutability":"nonpayable","type":"function"},{"inputs":[{"internalType":"address","name":"_recipient","type":"address"},{"internalType":"uint256","name":"_amount","type":"uint256"}],"name":"mint","outputs":[],"stateMutability":"payable","type":"function"},{"inputs":[],"name":"owner","outputs":[{"internalType":"address","name":"","type":"address"}],"stateMutability":"view","type":"function"},{"inputs":[],"name":"renounceOwnership","outputs":[],"stateMutability":"nonpayable","type":"function"},{"inputs":[{"internalType":"address","name":"operator","type":"address"},{"internalType":"address","name":"tokenOwner","type":"address"},{"internalType":"bool","name":"notify","type":"bool"},{"internalType":"bytes","name":"operatorNotificationData","type":"bytes"}],"name":"revokeOperator","outputs":[],"stateMutability":"nonpayable","type":"function"},{"inputs":[{"internalType":"bytes32","name":"dataKey","type":"bytes32"},{"internalType":"bytes","name":"dataValue","type":"bytes"}],"name":"setData","outputs":[],"stateMutability":"payable","type":"function"},{"inputs":[{"internalType":"bytes32[]","name":"dataKeys","type":"bytes32[]"},{"internalType":"bytes[]","name":"dataValues","type":"bytes[]"}],"name":"setDataBatch","outputs":[],"stateMutability":"payable","type":"function"},{"inputs":[{"internalType":"bytes4","name":"interfaceId","type":"bytes4"}],"name":"supportsInterface","outputs":[{"internalType":"bool","name":"","type":"bool"}],"stateMutability":"view","type":"function"},{"inputs":[],"name":"totalSupply","outputs":[{"internalType":"uint256","name":"","type":"uint256"}],"stateMutability":"view","type":"function"},{"inputs":[{"internalType":"address","name":"from","type":"address"},{"internalType":"address","name":"to","type":"address"},{"internalType":"uint256","name":"amount","type":"uint256"},{"internalType":"bool","name":"force","type":"bool"},{"internalType":"bytes","name":"data","type":"bytes"}],"name":"transfer","outputs":[],"stateMutability":"nonpayable","type":"function"},{"inputs":[{"internalType":"address[]","name":"from","type":"address[]"},{"internalType":"address[]","name":"to","type":"address[]"},{"internalType":"uint256[]","name":"amount","type":"uint256[]"},{"internalType":"bool[]","name":"force","type":"bool[]"},{"internalType":"bytes[]","name":"data","type":"bytes[]"}],"name":"transferBatch","outputs":[],"stateMutability":"nonpayable","type":"function"},{"inputs":[{"internalType":"address","name":"newOwner","type":"address"}],"name":"transferOwnership","outputs":[],"stateMutability":"nonpayable","type":"function"},{"stateMutability":"payable","type":"receive"}],"devdoc":{"errors":{"ERC725Y_DataKeysValuesEmptyArray()":[{"details":"Reverts when one of the array parameter provided to {setDataBatch} function is an empty array."}],"ERC725Y_DataKeysValuesLengthMismatch()":[{"details":"Reverts when there is not the same number of elements in the `datakeys` and `dataValues` array parameters provided when calling the {setDataBatch} function."}],"ERC725Y_MsgValueDisallowed()":[{"details":"Reverts when sending value to the {setData} or {setDataBatch} function."}],"InvalidExtensionAddress(bytes)":[{"details":"reverts when the bytes retrieved from the LSP17 data key is not a valid address (not 20 bytes)"}],"InvalidFunctionSelector(bytes)":[{"details":"reverts when the contract is called with a function selector not valid (less than 4 bytes of data)"}],"LSP4TokenNameNotEditable()":[{"details":"Reverts when trying to edit the data key `LSP4TokenName` after the digital asset contract has been deployed / initialized. The `LSP4TokenName` data key is located inside the ERC725Y data key-value store of the digital asset contract. It can be set only once inside the constructor/initializer when the digital asset contract is being deployed / initialized."}],"LSP4TokenSymbolNotEditable()":[{"details":"Reverts when trying to edit the data key `LSP4TokenSymbol` after the digital asset contract has been deployed / initialized. The `LSP4TokenSymbol` data key is located inside the ERC725Y data key-value store of the digital asset contract. It can be set only once inside the constructor/initializer when the digital asset contract is being deployed / initialized."}],"LSP4TokenTypeNotEditable()":[{"details":"Reverts when trying to edit the data key `LSP4TokenType` after the digital asset contract has been deployed / initialized. The `LSP4TokenType` data key is located inside the ERC725Y data key-value store of the digital asset contract. It can be set only once inside the constructor / initializer when the digital asset contract is being deployed / initialized."}],"LSP7AmountExceedsAuthorizedAmount(address,uint256,address,uint256)":[{"details":"reverts when `operator` of `tokenOwner` send an `amount` of tokens larger than the `authorizedAmount`."}],"LSP7AmountExceedsBalance(uint256,address,uint256)":[{"details":"reverts when sending an `amount` of tokens larger than the current `balance` of the `tokenOwner`."}],"LSP7BatchCallFailed(uint256)":[{"details":"Reverts when a batch call failed."}],"LSP7CannotSendWithAddressZero()":[{"details":"reverts when trying to: - mint tokens to the zero address. - burn tokens from the zero address. - transfer tokens from or to the zero address."}],"LSP7CannotUseAddressZeroAsOperator()":[{"details":"reverts when trying to set the zero address as an operator."}],"LSP7DecreaseAllowanceNotAuthorized(address,address,address)":[{"details":"Reverts when the call to decrease allowance is not authorized."}],"LSP7DecreasedAllowanceBelowZero()":[{"details":"Reverts when trying to decrease an operator's allowance to more than its current allowance."}],"LSP7InvalidTransferBatch()":[{"details":"reverts when the array parameters used in {transferBatch} have different lengths."}],"LSP7NotifyTokenReceiverContractMissingLSP1Interface(address)":[{"details":"reverts if the `tokenReceiver` does not implement LSP1 when minting or transferring tokens with `bool force` set as `false`."}],"LSP7NotifyTokenReceiverIsEOA(address)":[{"details":"reverts if the `tokenReceiver` is an EOA when minting or transferring tokens with `bool force` set as `false`."}],"LSP7RevokeOperatorNotAuthorized(address,address,address)":[{"details":"Reverts when the call to revoke operator is not authorized."}],"LSP7TokenContractCannotHoldValue()":[{"details":"Error occurs when sending native tokens to the LSP7 contract without sending any data. E.g. Sending value without passing a bytes4 function selector to call a LSP17 Extension."}],"LSP7TokenOwnerCannotBeOperator()":[{"details":"reverts when trying to authorize or revoke the token's owner as an operator."}],"NoExtensionFoundForFunctionSelector(bytes4)":[{"details":"reverts when there is no extension for the function selector being called with"}],"OperatorAllowanceCannotBeIncreasedFromZero(address)":[{"details":"Reverts when token owner call {increaseAllowance} for an operator that does not have any allowance"}],"OwnableCallerNotTheOwner(address)":[{"details":"Reverts when only the owner is allowed to call the function.","params":{"callerAddress":"The address that tried to make the call."}}],"OwnableCannotSetZeroAddressAsOwner()":[{"details":"Reverts when trying to set `address(0)` as the contract owner when deploying the contract, initializing it or transferring ownership of the contract."}]},"events":{"DataChanged(bytes32,bytes)":{"details":"Emitted when data at a specific `dataKey` was changed to a new value `dataValue`.","params":{"dataKey":"The data key for which a bytes value is set.","dataValue":"The value to set for the given data key."}},"OperatorAuthorizationChanged(address,address,uint256,bytes)":{"details":"Emitted when `tokenOwner` enables `operator` for `amount` tokens.","params":{"amount":"The amount of tokens `operator` address has access to from `tokenOwner`","operator":"The address authorized as an operator","operatorNotificationData":"The data to notify the operator about via LSP1.","tokenOwner":"The token owner"}},"OperatorRevoked(address,address,bool,bytes)":{"details":"Emitted when `tokenOwner` disables `operator` for `amount` tokens and set its {`authorizedAmountFor(...)`} to `0`.","params":{"notified":"Bool indicating whether the operator has been notified or not","operator":"The address revoked from operating","operatorNotificationData":"The data to notify the operator about via LSP1.","tokenOwner":"The token owner"}},"Transfer(address,address,address,uint256,bool,bytes)":{"details":"Emitted when the `from` transferred successfully `amount` of tokens to `to`.","params":{"amount":"The amount of tokens transferred.","data":"Any additional data included by the caller during the transfer, and sent in the LSP1 hooks to the `from` and `to` addresses.","force":"if the transferred enforced the `to` recipient address to be a contract that implements the LSP1 standard or not.","from":"The address which tokens were sent from (balance decreased by `-amount`).","operator":"The address of the operator that executed the transfer.","to":"The address that received the tokens (balance increased by `+amount`)."}}},"kind":"dev","methods":{"authorizeOperator(address,uint256,bytes)":{"custom:danger":"To avoid front-running and Allowance Double-Spend Exploit when increasing or decreasing the authorized amount of an operator, it is advised to use the {increaseAllowance} and {decreaseAllowance} functions. For more information, see: https://docs.google.com/document/d/1YLPtQxZu1UAvO9cZ1O2RPXBbT0mooh4DYKjA_jp-RLM/","details":"Sets an `amount` of tokens that an `operator` has access from the caller's balance (allowance). See {authorizedAmountFor}. Notify the operator based on the LSP1-UniversalReceiver standard","params":{"amount":"The allowance amount of tokens operator has access to.","operator":"The address to authorize as an operator.","operatorNotificationData":"The data to notify the operator about via LSP1."}},"authorizedAmountFor(address,address)":{"details":"Get the amount of tokens `operator` address has access to from `tokenOwner`. Operators can send and burn tokens on behalf of their owners.","params":{"operator":"The operator's address to query the authorized amount for.","tokenOwner":"The token owner that `operator` has allowance on."},"returns":{"_0":"The amount of tokens the `operator`'s address has access on the `tokenOwner`'s balance."}},"balanceOf(address)":{"details":"Get the number of tokens owned by `tokenOwner`. If the token is divisible (the {decimals} function returns `18`), the amount returned should be divided by 1e18 to get a better picture of the actual balance of the `tokenOwner`. _Example:_ ``` balanceOf(someAddress) -> 42_000_000_000_000_000_000 / 1e18 = 42 tokens ```","params":{"tokenOwner":"The address of the token holder to query the balance for."},"returns":{"_0":"The amount of tokens owned by `tokenOwner`."}},"batchCalls(bytes[])":{"custom:info":"It's not possible to send value along the functions call due to the use of `delegatecall`.","details":"Allows a caller to batch different function calls in one call. Perform a `delegatecall` on self, to call different functions with preserving the context.","params":{"data":"An array of ABI encoded function calls to be called on the contract."},"returns":{"results":"An array of abi-encoded data returned by the functions executed."}},"decimals()":{"details":"Returns the number of decimals used to get its user representation. If the asset contract has been set to be non-divisible via the `isNonDivisible_` parameter in the `constructor`, the decimals returned wiil be `0`. Otherwise `18` is the common value.","returns":{"_0":"the number of decimals. If `0` is returned, the asset is non-divisible."}},"decreaseAllowance(address,address,uint256,bytes)":{"details":"Atomically decreases the allowance granted to `operator` by the caller. This is an alternative approach to {authorizeOperator} that can be used as a mitigation for the double spending allowance problem. Notify the operator based on the LSP1-UniversalReceiver standard","params":{"operator":"The operator to decrease allowance for `msg.sender`","subtractedAmount":"The amount to decrease by in the operator's allowance.","tokenOwner":"The address of the token owner."}},"getData(bytes32)":{"details":"Get in the ERC725Y storage the bytes data stored at a specific data key `dataKey`.","params":{"dataKey":"The data key for which to retrieve the value."},"returns":{"dataValue":"The bytes value stored under the specified data key."}},"getDataBatch(bytes32[])":{"details":"Get in the ERC725Y storage the bytes data stored at multiple data keys `dataKeys`.","params":{"dataKeys":"The array of keys which values to retrieve"},"returns":{"dataValues":"The array of data stored at multiple keys"}},"getOperatorsOf(address)":{"details":"Returns all `operator` addresses that are allowed to transfer or burn on behalf of `tokenOwner`.","params":{"tokenOwner":"The token owner to get the operators for."},"returns":{"_0":"An array of operators allowed to transfer or burn tokens on behalf of `tokenOwner`."}},"increaseAllowance(address,uint256,bytes)":{"details":"Atomically increases the allowance granted to `operator` by the caller. This is an alternative approach to {authorizeOperator} that can be used as a mitigation for the double spending allowance problem. Notify the operator based on the LSP1-UniversalReceiver standard","params":{"addedAmount":"The additional amount to add on top of the current operator's allowance","operator":"The operator to increase the allowance for `msg.sender`"}},"owner()":{"details":"Returns the address of the current owner."},"renounceOwnership()":{"details":"Leaves the contract without owner. It will not be possible to call `onlyOwner` functions anymore. Can only be called by the current owner. NOTE: Renouncing ownership will leave the contract without an owner, thereby removing any functionality that is only available to the owner."},"revokeOperator(address,address,bool,bytes)":{"details":"Enables `tokenOwner` to remove `operator` for its tokens, disallowing it to send any amount of tokens on its behalf. This function also allows the `operator` to remove itself if it is the caller of this function","params":{"notify":"Boolean indicating whether to notify the operator or not.","operator":"The address to revoke as an operator.","operatorNotificationData":"The data to notify the operator about via LSP1.","tokenOwner":"The address of the token owner."}},"setData(bytes32,bytes)":{"custom:events":"{DataChanged} event.","custom:requirements":"- SHOULD only be callable by the {owner}.","custom:warning":"**Note for developers:** despite the fact that this function is set as `payable`, if the function is not intended to receive value (= native tokens), **an additional check should be implemented to ensure that `msg.value` sent was equal to 0**.","details":"Sets a single bytes value `dataValue` in the ERC725Y storage for a specific data key `dataKey`. The function is marked as payable to enable flexibility on child contracts. For instance to implement a fee mechanism for setting specific data.","params":{"dataKey":"The data key for which to set a new value.","dataValue":"The new bytes value to set."}},"setDataBatch(bytes32[],bytes[])":{"custom:events":"{DataChanged} event **for each data key/value pair set**.","custom:requirements":"- SHOULD only be callable by the {owner} of the contract.","custom:warning":"**Note for developers:** despite the fact that this function is set as `payable`, if the function is not intended to receive value (= native tokens), **an additional check should be implemented to ensure that `msg.value` sent was equal to 0**.","details":"Batch data setting function that behaves the same as {setData} but allowing to set multiple data key/value pairs in the ERC725Y storage in the same transaction.","params":{"dataKeys":"An array of data keys to set bytes values for.","dataValues":"An array of bytes values to set for each `dataKeys`."}},"supportsInterface(bytes4)":{"details":"Returns true if this contract implements the interface defined by `interfaceId`. See the corresponding https://eips.ethereum.org/EIPS/eip-165#how-interfaces-are-identified[EIP section] to learn more about how these ids are created. This function call must use less than 30 000 gas."},"totalSupply()":{"details":"Returns the number of existing tokens that have been minted in this contract.","returns":{"_0":"The number of existing tokens."}},"transfer(address,address,uint256,bool,bytes)":{"details":"Transfers an `amount` of tokens from the `from` address to the `to` address and notify both sender and recipients via the LSP1 {`universalReceiver(...)`} function. If the tokens are transferred by an operator on behalf of a token holder, the allowance for the operator will be decreased by `amount` once the token transfer has been completed (See {authorizedAmountFor}).","params":{"amount":"The amount of tokens to transfer.","data":"Any additional data the caller wants included in the emitted event, and sent in the hooks of the `from` and `to` addresses.","force":"When set to `true`, the `to` address CAN be any address. When set to `false`, the `to` address MUST be a contract that supports the LSP1 UniversalReceiver standard.","from":"The sender address.","to":"The recipient address."}},"transferBatch(address[],address[],uint256[],bool[],bytes[])":{"details":"Same as {`transfer(...)`} but transfer multiple tokens based on the arrays of `from`, `to`, `amount`.","params":{"amount":"An array of amount of tokens to transfer for each `from -> to` transfer.","data":"An array of additional data the caller wants included in the emitted event, and sent in the hooks to `from` and `to` addresses.","force":"For each transfer, when set to `true`, the `to` address CAN be any address. When set to `false`, the `to` address MUST be a contract that supports the LSP1 UniversalReceiver standard.","from":"An array of sending addresses.","to":"An array of receiving addresses."}},"transferOwnership(address)":{"details":"Transfers ownership of the contract to a new account (`newOwner`). Can only be called by the current owner."}},"version":1},"evm":{"bytecode":{"linkReferences":{},"object":"60c06040523480156200001157600080fd5b5060405162002deb38038062002deb833981016040819052620000349162000343565b84848460018084848483816001600160a01b03811662000067576040516306b620db60e21b815260040160405180910390fd5b620000728162000192565b506040805180820190915260048152632936598960e21b6020820152620000bb907feafec4d89fa9619884b60000a4d96624a38f7ac2d8d9a604ecf07c12c77e480c9062000200565b620000e77fdeba1e292f8ba88238e10ab3c7f88bd4be4fac56cad5194b6ecceaf653468af18562000200565b620001137f2f0a68ab07768e01943a599e73362a0e17a63a72e94dd2e384d2c1d4db9327568462000200565b60408051602081018390526200015c917fe0261fa95db2eb3b5439bd033cda66d56b96f92f243a8228fd87550ed7bdfdb3910160408051601f1981840301815291905262000200565b50506002805460ff191693151593909317909255505050506001600160a01b03939093166080525060a052506200056c92505050565b6000546001600160a01b03828116911614620001fd57600080546040516001600160a01b03808516939216917f8be0079c531659141344cd1fd0a4f28419497f9722a3daafe3b4186f6b6457e091a3600080546001600160a01b0319166001600160a01b0383161790555b50565b60008281526001602052604090206200021a82826200046b565b50817fece574603820d07bc9b91f2a932baadf4628aabcb8afba49776529c14a6104b2826040516200024d919062000537565b60405180910390a25050565b634e487b7160e01b600052604160045260246000fd5b60005b838110156200028c57818101518382015260200162000272565b50506000910152565b600082601f830112620002a757600080fd5b81516001600160401b0380821115620002c457620002c462000259565b604051601f8301601f19908116603f01168101908282118183101715620002ef57620002ef62000259565b816040528381528660208588010111156200030957600080fd5b6200031c8460208301602089016200026f565b9695505050505050565b80516001600160a01b03811681146200033e57600080fd5b919050565b600080600080600060a086880312156200035c57600080fd5b85516001600160401b03808211156200037457600080fd5b6200038289838a0162000295565b965060208801519150808211156200039957600080fd5b50620003a88882890162000295565b945050620003b96040870162000326565b9250620003c96060870162000326565b9150608086015190509295509295909350565b600181811c90821680620003f157607f821691505b6020821081036200041257634e487b7160e01b600052602260045260246000fd5b50919050565b601f8211156200046657600081815260208120601f850160051c81016020861015620004415750805b601f850160051c820191505b8181101562000462578281556001016200044d565b5050505b505050565b81516001600160401b0381111562000487576200048762000259565b6200049f81620004988454620003dc565b8462000418565b602080601f831160018114620004d75760008415620004be5750858301515b600019600386901b1c1916600185901b17855562000462565b600085815260208120601f198616915b828110156200050857888601518255948401946001909101908401620004e7565b5085821015620005275787850151600019600388901b60f8161c191681555b5050505050600190811b01905550565b6020815260008251806020840152620005588160408501602087016200026f565b601f01601f19169190910160400192915050565b60805160a05161284b620005a0600039600081816104aa015261095a01526000818161043201526109bd015261284b6000f3fe60806040526004361061016a5760003560e01c8063715018a6116100d1578063979024211161008a578063d72fc29a11610064578063d72fc29a146104ee578063dedff9c61461051b578063f0292a031461053b578063f2fde38b14610550576101c5565b8063979024211461048857806398d5fdca1461049b578063b49506fd146104ce576101c5565b8063715018a6146103bb578063760d9bba146103d057806378381670146103f05780637f23690c14610410578063884bf67c146104235780638da5cb5b1461046a576101c5565b806332cb6b0c1161012357806332cb6b0c146102e357806340c10f19146102f857806354f6127f1461030b57806365aeaa95146103385780636963d4381461035857806370a0823114610385576101c5565b806301ffc9a71461020657806318160ddd1461023b5780632bc1da821461025a5780632d7667c91461027c57806330d0dc371461029c578063313ce567146102bc576101c5565b366101c557346000036101ac5760405163e5099ee360e01b81526004016101a39060208082526004908201526000604082015260600190565b60405180910390fd5b604051630e23d6b760e21b815260040160405180910390fd5b600036606060048210156101f057828260405163e5099ee360e01b81526004016101a3929190611bd2565b6101fa8383610570565b80519350602001915050f35b34801561021257600080fd5b50610226610221366004611c01565b610666565b60405190151581526020015b60405180910390f35b34801561024757600080fd5b506003545b604051908152602001610232565b34801561026657600080fd5b5061027a610275366004611d0a565b61069a565b005b34801561028857600080fd5b5061027a610297366004611f3c565b61072a565b3480156102a857600080fd5b5061027a6102b736600461200d565b610819565b3480156102c857600080fd5b506102d16108c1565b60405160ff9091168152602001610232565b3480156102ef57600080fd5b5061024c606481565b61027a61030636600461207b565b6108da565b34801561031757600080fd5b5061032b6103263660046120a5565b610a94565b604051610232919061210e565b34801561034457600080fd5b5061024c610353366004612121565b610a9f565b34801561036457600080fd5b50610378610373366004612154565b610b05565b60405161023291906121c8565b34801561039157600080fd5b5061024c6103a036600461222a565b6001600160a01b031660009081526004602052604090205490565b3480156103c757600080fd5b5061027a610c3b565b3480156103dc57600080fd5b5061027a6103eb366004612245565b610c4f565b3480156103fc57600080fd5b5061027a61040b3660046122b0565b610c77565b61027a61041e3660046122ff565b610d42565b34801561042f57600080fd5b507f00000000000000000000000000000000000000000000000000000000000000005b6040516001600160a01b039091168152602001610232565b34801561047657600080fd5b506000546001600160a01b0316610452565b61027a610496366004612345565b610d77565b3480156104a757600080fd5b507f000000000000000000000000000000000000000000000000000000000000000061024c565b3480156104da57600080fd5b5061027a6104e9366004611d0a565b610e37565b3480156104fa57600080fd5b5061050e61050936600461222a565b610e77565b604051610232919061239e565b34801561052757600080fd5b506103786105363660046123eb565b610e9b565b34801561054757600080fd5b5061024c600581565b34801561055c57600080fd5b5061027a61056b36600461222a565b610f45565b606060006105896000356001600160e01b031916610f80565b5090506001600160a01b0381166105c15760405163bb370b2b60e01b81526001600160e01b03196000351660048201526024016101a3565b600080826001600160a01b031634878733346040516020016105e6949392919061241f565b60408051601f19818403018152908290526106009161244a565b60006040518083038185875af1925050503d806000811461063d576040519150601f19603f3d011682016040523d82523d6000602084013e610642565b606091505b50915091508115610657579250610660915050565b80518060208301fd5b92915050565b60006001600160e01b031982166318a5ac0160e31b148061068b575061068b82610ffe565b80610660575061066082611023565b60006106a68433610a9f565b9050806000036106d45760405163cba6e97760e01b81526001600160a01b03851660048201526024016101a3565b60006106e0848361247c565b90506106f0338683600187611061565b60003382856040516020016107079392919061248f565b604051602081830303815290604052905061072286826111d4565b505050505050565b845184518114158061073d575083518114155b80610749575082518114155b80610755575081518114155b156107735760405163263eee8d60e01b815260040160405180910390fd5b60005b8181101561081057610808878281518110610793576107936124bf565b60200260200101518783815181106107ad576107ad6124bf565b60200260200101518784815181106107c7576107c76124bf565b60200260200101518785815181106107e1576107e16124bf565b60200260200101518786815181106107fb576107fb6124bf565b6020026020010151610c4f565b600101610776565b50505050505050565b336001600160a01b0384161480159061083b5750336001600160a01b03851614155b1561087257604051630d292d9960e11b81523360048201526001600160a01b038085166024830152851660448201526064016101a3565b610880838560008585611061565b81156108bb5760008360008360405160200161089e939291906124d5565b60405160208183030381529060405290506108b985826111d4565b505b50505050565b60025460009060ff166108d45750601290565b50600090565b6064816003546108ea919061247c565b111561090957604051635b21dfd360e11b815260040160405180910390fd5b60058161092b846001600160a01b031660009081526004602052604090205490565b610935919061247c565b111561095457604051635b21dfd360e11b815260040160405180910390fd5b61097e817f0000000000000000000000000000000000000000000000000000000000000000612502565b341461099d5760405163020b5e0b60e11b815260040160405180910390fd5b6109b982826000604051806020016040528060008152506111ff565b60007f00000000000000000000000000000000000000000000000000000000000000006001600160a01b03163460405160006040518083038185875af1925050503d8060008114610a26576040519150601f19603f3d011682016040523d82523d6000602084013e610a2b565b606091505b5050905080610a4d576040516312171d8360e31b815260040160405180910390fd5b604080516001600160a01b0385168152602081018490527f64f70b72cc0e9e53852e2481e43068b546390216d3d062dbe11d9ecf7580835f910160405180910390a1505050565b6060610660826112ee565b6000826001600160a01b0316826001600160a01b031603610ad957506001600160a01b038116600090815260046020526040902054610660565b506001600160a01b03808216600090815260066020908152604080832093861683529290522054610660565b6060816001600160401b03811115610b1f57610b1f611c47565b604051908082528060200260200182016040528015610b5257816020015b6060815260200190600190039081610b3d5790505b50905060005b82811015610c345760008030868685818110610b7657610b766124bf565b9050602002810190610b889190612519565b604051610b96929190612566565b600060405180830381855af49150503d8060008114610bd1576040519150601f19603f3d011682016040523d82523d6000602084013e610bd6565b606091505b509150915081610c0c57805115610bf05780518082602001fd5b604051632ddd30a160e21b8152600481018490526024016101a3565b80848481518110610c1f57610c1f6124bf565b60209081029190910101525050600101610b58565b5092915050565b610c43611390565b610c4d60006113cc565b565b336001600160a01b03861614610c6a57610c6a33868561143a565b6108b985858585856114c8565b336001600160a01b03841614801590610c995750336001600160a01b03851614155b15610cd0576040516398ce294560e01b81523360048201526001600160a01b038085166024830152851660448201526064016101a3565b6000610cdc8585610a9f565b905082811015610cff57604051630ef76c3560e01b815260040160405180910390fd5b828103610d10858783600187611061565b6000858285604051602001610d279392919061248f565b604051602081830303815290604052905061081087826111d4565b610d4a611390565b3415610d695760405163f36ba73760e01b815260040160405180910390fd5b610d73828261164c565b5050565b610d7f611390565b3415610d9e5760405163f36ba73760e01b815260040160405180910390fd5b8051825114610dc057604051633bcc897960e01b815260040160405180910390fd5b8151600003610de2576040516397da5f9560e01b815260040160405180910390fd5b60005b8251811015610e3257610e2a838281518110610e0357610e036124bf565b6020026020010151838381518110610e1d57610e1d6124bf565b602002602001015161164c565b600101610de5565b505050565b610e45338484600185611061565b6000338383604051602001610e5c9392919061248f565b60405160208183030381529060405290506108bb84826111d4565b6001600160a01b038116600090815260056020526040902060609061066090611656565b606081516001600160401b03811115610eb657610eb6611c47565b604051908082528060200260200182016040528015610ee957816020015b6060815260200190600190039081610ed45790505b50905060005b8251811015610f3f57610f1a838281518110610f0d57610f0d6124bf565b60200260200101516112ee565b828281518110610f2c57610f2c6124bf565b6020908102919091010152600101610eef565b50919050565b610f4d611390565b6001600160a01b038116610f74576040516306b620db60e21b815260040160405180910390fd5b610f7d816113cc565b50565b60008080610fa5696773c5a04a6d4300884b60b11b6001600160e01b03198616611663565b90506000610fb2826112ee565b90508051601414158015610fc65750805115155b15610fe657806040516342bfe79f60e01b81526004016101a3919061210e565b610fef81612576565b60601c95600195509350505050565b60006001600160e01b0319821663a918fa6b60e01b14806106605750610660826116b7565b6000806110366301ffc9a760e01b610f80565b5090506001600160a01b0381166110505750600092915050565b61105a81846116ec565b9392505050565b6001600160a01b038416611088576040516331aaf3b360e11b815260040160405180910390fd5b846001600160a01b0316846001600160a01b0316036110ba5760405163dab7504760e01b815260040160405180910390fd5b6001600160a01b038086166000908152600660209081526040808320938816835292905220839055821561115c576001600160a01b038516600090815260056020526040902061110a9085611776565b5082856001600160a01b0316856001600160a01b03167ff772a43bfdf4729b196e3fb54a818b91a2ca6c49d10b2e16278752f9f515c25d8460405161114f919061210e565b60405180910390a46108b9565b6001600160a01b038516600090815260056020526040902061117e908561178b565b50811515856001600160a01b0316856001600160a01b03167f0ebf5762d8855cbe012d2ca42fb33a81175e17c8a8751f8859931ba453bd4167846040516111c5919061210e565b60405180910390a45050505050565b610d73827f386072cc5a58e61263b434c722725f21031cd06e7c552cfaa06db5de8a320dbc836117a0565b6001600160a01b03841661122657604051630d2d5ec360e41b815260040160405180910390fd5b8260036000828254611238919061247c565b90915550506001600160a01b0384166000908152600460205260408120805485929061126590849061247c565b90915550506040516001600160a01b0385169060009033907f3997e418d2cef0b3b0e907b1e39605c3f7d32dbd061e82ea5b4a770d46a160a6906112ae908890889088906125ad565b60405180910390a460003360008686856040516020016112d29594939291906125ce565b60405160208183030381529060405290506108b9858483611834565b600081815260016020526040902080546060919061130b90612609565b80601f016020809104026020016040519081016040528092919081815260200182805461133790612609565b80156113845780601f1061135957610100808354040283529160200191611384565b820191906000526020600020905b81548152906001019060200180831161136757829003601f168201915b50505050509050919050565b336113a36000546001600160a01b031690565b6001600160a01b031614610c4d5760405163bf1169c560e01b81523360048201526024016101a3565b6000546001600160a01b03828116911614610f7d57600080546040516001600160a01b03808516939216917f8be0079c531659141344cd1fd0a4f28419497f9722a3daafe3b4186f6b6457e091a3600080546001600160a01b0383166001600160a01b031990911617905550565b6001600160a01b03808316600090815260066020908152604080832093871683529290522054808211156114a25760405163f3a6b69160e01b81526001600160a01b0380851660048301526024820183905285166044820152606481018390526084016101a3565b6108bb83856114b1858561263d565b600060405180602001604052806000815250611061565b6001600160a01b03851615806114e557506001600160a01b038416155b1561150357604051630d2d5ec360e41b815260040160405180910390fd5b6001600160a01b03851660009081526004602052604090205480841115611556576040516308d4794960e01b8152600481018290526001600160a01b0387166024820152604481018590526064016101a3565b6001600160a01b0386166000908152600460205260408120805486929061157e90849061263d565b90915550506001600160a01b038516600090815260046020526040812080548692906115ab90849061247c565b92505081905550846001600160a01b0316866001600160a01b0316336001600160a01b03167f3997e418d2cef0b3b0e907b1e39605c3f7d32dbd061e82ea5b4a770d46a160a6878787604051611603939291906125ad565b60405180910390a4600033878787866040516020016116269594939291906125ce565b604051602081830303815290604052905061164187826118f5565b610810868583611834565b610d738282611920565b6060600061105a83611a35565b604080516001600160b01b0319841660208201526000602a82018190526001600160601b03198416602c830152918291016040516020818303038152906040529050806116af90612650565b949350505050565b60006001600160e01b031982166318a6a9a560e21b148061066057506301ffc9a760e01b6001600160e01b0319831614610660565b6040516001600160e01b031982166024820152600090819060440160408051601f19818403018152919052602080820180516001600160e01b03166301ffc9a760e01b178152825192935060009283928392909183918a617530fa92503d9150600051905082801561175f575060208210155b801561176b5750600081115b979650505050505050565b600061105a836001600160a01b038416611a90565b600061105a836001600160a01b038416611adf565b6117ba6001600160a01b038416631aed5a8560e21b6116ec565b15610e3257604051631aed5a8560e21b81526001600160a01b03841690636bb56a14906117ed9085908590600401612674565b6000604051808303816000875af115801561180c573d6000803e3d6000fd5b505050506040513d6000823e601f3d908101601f191682016040526108bb919081019061268d565b61184583631aed5a8560e21b6116ec565b1561189857604051631aed5a8560e21b81526001600160a01b03841690636bb56a14906117ed907f20804611b3e2ea21c480dc465142210acf4a2485947541770ec1fb87dee4a55c908590600401612674565b81610e32576001600160a01b0383163b156118d1576040516353047ddb60e11b81526001600160a01b03841660048201526024016101a3565b6040516309b091fd60e21b81526001600160a01b03841660048201526024016101a3565b610d73827f429ac7a06903dbc9c13dfcb3c9d11df8194581fa047c96d7a4171fc7402958ea836117a0565b7f2145e1d6d074577dc71ef54c3807742b41b053a9352ae6b491331509acb9750f8201611960576040516385c169bd60e01b815260040160405180910390fd5b7fd0f59754f88971fe6bc5a6618cc9d5f1e859c58d16b22d1c7b2d3e2b246cd8aa82016119a057604051630eceab6760e31b815260040160405180910390fd5b7f1fd9e056a24d14c4abc642fcc325992a946906d0dbc57dd70278aaf12842024d82016119e057604051634ef6d7fb60e01b815260040160405180910390fd5b60008281526001602052604090206119f88282612740565b50817fece574603820d07bc9b91f2a932baadf4628aabcb8afba49776529c14a6104b282604051611a29919061210e565b60405180910390a25050565b60608160000180548060200260200160405190810160405280929190818152602001828054801561138457602002820191906000526020600020905b815481526020019060010190808311611a715750505050509050919050565b6000818152600183016020526040812054611ad757508154600181810184556000848152602080822090930184905584548482528286019093526040902091909155610660565b506000610660565b60008181526001830160205260408120548015611bc8576000611b0360018361263d565b8554909150600090611b179060019061263d565b9050808214611b7c576000866000018281548110611b3757611b376124bf565b9060005260206000200154905080876000018481548110611b5a57611b5a6124bf565b6000918252602080832090910192909255918252600188019052604090208390555b8554869080611b8d57611b8d6127ff565b600190038181906000526020600020016000905590558560010160008681526020019081526020016000206000905560019350505050610660565b6000915050610660565b60208152816020820152818360408301376000818301604090810191909152601f909201601f19160101919050565b600060208284031215611c1357600080fd5b81356001600160e01b03198116811461105a57600080fd5b80356001600160a01b0381168114611c4257600080fd5b919050565b634e487b7160e01b600052604160045260246000fd5b604051601f8201601f191681016001600160401b0381118282101715611c8557611c85611c47565b604052919050565b60006001600160401b03821115611ca657611ca6611c47565b50601f01601f191660200190565b600082601f830112611cc557600080fd5b8135611cd8611cd382611c8d565b611c5d565b818152846020838601011115611ced57600080fd5b816020850160208301376000918101602001919091529392505050565b600080600060608486031215611d1f57600080fd5b611d2884611c2b565b92506020840135915060408401356001600160401b03811115611d4a57600080fd5b611d5686828701611cb4565b9150509250925092565b60006001600160401b03821115611d7957611d79611c47565b5060051b60200190565b600082601f830112611d9457600080fd5b81356020611da4611cd383611d60565b82815260059290921b84018101918181019086841115611dc357600080fd5b8286015b84811015611de557611dd881611c2b565b8352918301918301611dc7565b509695505050505050565b600082601f830112611e0157600080fd5b81356020611e11611cd383611d60565b82815260059290921b84018101918181019086841115611e3057600080fd5b8286015b84811015611de55780358352918301918301611e34565b80358015158114611c4257600080fd5b600082601f830112611e6c57600080fd5b81356020611e7c611cd383611d60565b82815260059290921b84018101918181019086841115611e9b57600080fd5b8286015b84811015611de557611eb081611e4b565b8352918301918301611e9f565b600082601f830112611ece57600080fd5b81356020611ede611cd383611d60565b82815260059290921b84018101918181019086841115611efd57600080fd5b8286015b84811015611de55780356001600160401b03811115611f205760008081fd5b611f2e8986838b0101611cb4565b845250918301918301611f01565b600080600080600060a08688031215611f5457600080fd5b85356001600160401b0380821115611f6b57600080fd5b611f7789838a01611d83565b96506020880135915080821115611f8d57600080fd5b611f9989838a01611d83565b95506040880135915080821115611faf57600080fd5b611fbb89838a01611df0565b94506060880135915080821115611fd157600080fd5b611fdd89838a01611e5b565b93506080880135915080821115611ff357600080fd5b5061200088828901611ebd565b9150509295509295909350565b6000806000806080858703121561202357600080fd5b61202c85611c2b565b935061203a60208601611c2b565b925061204860408601611e4b565b915060608501356001600160401b0381111561206357600080fd5b61206f87828801611cb4565b91505092959194509250565b6000806040838503121561208e57600080fd5b61209783611c2b565b946020939093013593505050565b6000602082840312156120b757600080fd5b5035919050565b60005b838110156120d95781810151838201526020016120c1565b50506000910152565b600081518084526120fa8160208601602086016120be565b601f01601f19169290920160200192915050565b60208152600061105a60208301846120e2565b6000806040838503121561213457600080fd5b61213d83611c2b565b915061214b60208401611c2b565b90509250929050565b6000806020838503121561216757600080fd5b82356001600160401b038082111561217e57600080fd5b818501915085601f83011261219257600080fd5b8135818111156121a157600080fd5b8660208260051b85010111156121b657600080fd5b60209290920196919550909350505050565b6000602080830181845280855180835260408601915060408160051b870101925083870160005b8281101561221d57603f1988860301845261220b8583516120e2565b945092850192908501906001016121ef565b5092979650505050505050565b60006020828403121561223c57600080fd5b61105a82611c2b565b600080600080600060a0868803121561225d57600080fd5b61226686611c2b565b945061227460208701611c2b565b93506040860135925061228960608701611e4b565b915060808601356001600160401b038111156122a457600080fd5b61200088828901611cb4565b600080600080608085870312156122c657600080fd5b6122cf85611c2b565b93506122dd60208601611c2b565b92506040850135915060608501356001600160401b0381111561206357600080fd5b6000806040838503121561231257600080fd5b8235915060208301356001600160401b0381111561232f57600080fd5b61233b85828601611cb4565b9150509250929050565b6000806040838503121561235857600080fd5b82356001600160401b038082111561236f57600080fd5b61237b86838701611df0565b9350602085013591508082111561239157600080fd5b5061233b85828601611ebd565b6020808252825182820181905260009190848201906040850190845b818110156123df5783516001600160a01b0316835292840192918401916001016123ba565b50909695505050505050565b6000602082840312156123fd57600080fd5b81356001600160401b0381111561241357600080fd5b6116af84828501611df0565b8385823760609290921b6001600160601b031916919092019081526014810191909152603401919050565b6000825161245c8184602087016120be565b9190910192915050565b634e487b7160e01b600052601160045260246000fd5b8082018082111561066057610660612466565b60018060a01b03841681528260208201526060604082015260006124b660608301846120e2565b95945050505050565b634e487b7160e01b600052603260045260246000fd5b6001600160a01b038416815260ff831660208201526060604082018190526000906124b6908301846120e2565b808202811582820484141761066057610660612466565b6000808335601e1984360301811261253057600080fd5b8301803591506001600160401b0382111561254a57600080fd5b60200191503681900382131561255f57600080fd5b9250929050565b8183823760009101908152919050565b805160208201516001600160601b031980821692919060148310156125a55780818460140360031b1b83161693505b505050919050565b83815282151560208201526060604082015260006124b660608301846120e2565b6001600160a01b0386811682528581166020830152841660408201526060810183905260a06080820181905260009061176b908301846120e2565b600181811c9082168061261d57607f821691505b602082108103610f3f57634e487b7160e01b600052602260045260246000fd5b8181038181111561066057610660612466565b80516020808301519190811015610f3f5760001960209190910360031b1b16919050565b8281526040602082015260006116af60408301846120e2565b60006020828403121561269f57600080fd5b81516001600160401b038111156126b557600080fd5b8201601f810184136126c657600080fd5b80516126d4611cd382611c8d565b8181528560208385010111156126e957600080fd5b6124b68260208301602086016120be565b601f821115610e3257600081815260208120601f850160051c810160208610156127215750805b601f850160051c820191505b818110156107225782815560010161272d565b81516001600160401b0381111561275957612759611c47565b61276d816127678454612609565b846126fa565b602080601f8311600181146127a2576000841561278a5750858301515b600019600386901b1c1916600185901b178555610722565b600085815260208120601f198616915b828110156127d1578886015182559484019460019091019084016127b2565b50858210156127ef5787850151600019600388901b60f8161c191681555b5050505050600190811b01905550565b634e487b7160e01b600052603160045260246000fdfea26469706673582212204a58d7cbbf8f1bc5c5a6e64da030c472713123bd096c5c320600edb139c16d3564736f6c63430008140033","opcodes":"PUSH1 0xC0 PUSH1 0x40 MSTORE CALLVALUE DUP1 ISZERO PUSH3 0x11 JUMPI PUSH1 0x0 DUP1 REVERT JUMPDEST POP PUSH1 0x40 MLOAD PUSH3 0x2DEB CODESIZE SUB DUP1 PUSH3 0x2DEB DUP4 CODECOPY DUP2 ADD PUSH1 0x40 DUP2 SWAP1 MSTORE PUSH3 0x34 SWAP2 PUSH3 0x343 JUMP JUMPDEST DUP5 DUP5 DUP5 PUSH1 0x1 DUP1 DUP5 DUP5 DUP5 DUP4 DUP2 PUSH1 0x1 PUSH1 0x1 PUSH1 0xA0 SHL SUB DUP2 AND PUSH3 0x67 JUMPI PUSH1 0x40 MLOAD PUSH4 0x6B620DB PUSH1 0xE2 SHL DUP2 MSTORE PUSH1 0x4 ADD PUSH1 0x40 MLOAD DUP1 SWAP2 SUB SWAP1 REVERT JUMPDEST PUSH3 0x72 DUP2 PUSH3 0x192 JUMP JUMPDEST POP PUSH1 0x40 DUP1 MLOAD DUP1 DUP3 ADD SWAP1 SWAP2 MSTORE PUSH1 0x4 DUP2 MSTORE PUSH4 0x29365989 PUSH1 0xE2 SHL PUSH1 0x20 DUP3 ADD MSTORE PUSH3 0xBB SWAP1 PUSH32 0xEAFEC4D89FA9619884B60000A4D96624A38F7AC2D8D9A604ECF07C12C77E480C SWAP1 PUSH3 0x200 JUMP JUMPDEST PUSH3 0xE7 PUSH32 0xDEBA1E292F8BA88238E10AB3C7F88BD4BE4FAC56CAD5194B6ECCEAF653468AF1 DUP6 PUSH3 0x200 JUMP JUMPDEST PUSH3 0x113 PUSH32 0x2F0A68AB07768E01943A599E73362A0E17A63A72E94DD2E384D2C1D4DB932756 DUP5 PUSH3 0x200 JUMP JUMPDEST PUSH1 0x40 DUP1 MLOAD PUSH1 0x20 DUP2 ADD DUP4 SWAP1 MSTORE PUSH3 0x15C SWAP2 PUSH32 0xE0261FA95DB2EB3B5439BD033CDA66D56B96F92F243A8228FD87550ED7BDFDB3 SWAP2 ADD PUSH1 0x40 DUP1 MLOAD PUSH1 0x1F NOT DUP2 DUP5 SUB ADD DUP2 MSTORE SWAP2 SWAP1 MSTORE PUSH3 0x200 JUMP JUMPDEST POP POP PUSH1 0x2 DUP1 SLOAD PUSH1 0xFF NOT AND SWAP4 ISZERO ISZERO SWAP4 SWAP1 SWAP4 OR SWAP1 SWAP3 SSTORE POP POP POP POP PUSH1 0x1 PUSH1 0x1 PUSH1 0xA0 SHL SUB SWAP4 SWAP1 SWAP4 AND PUSH1 0x80 MSTORE POP PUSH1 0xA0 MSTORE POP PUSH3 0x56C SWAP3 POP POP POP JUMP JUMPDEST PUSH1 0x0 SLOAD PUSH1 0x1 PUSH1 0x1 PUSH1 0xA0 SHL SUB DUP3 DUP2 AND SWAP2 AND EQ PUSH3 0x1FD JUMPI PUSH1 0x0 DUP1 SLOAD PUSH1 0x40 MLOAD PUSH1 0x1 PUSH1 0x1 PUSH1 0xA0 SHL SUB DUP1 DUP6 AND SWAP4 SWAP3 AND SWAP2 PUSH32 0x8BE0079C531659141344CD1FD0A4F28419497F9722A3DAAFE3B4186F6B6457E0 SWAP2 LOG3 PUSH1 0x0 DUP1 SLOAD PUSH1 0x1 PUSH1 0x1 PUSH1 0xA0 SHL SUB NOT AND PUSH1 0x1 PUSH1 0x1 PUSH1 0xA0 SHL SUB DUP4 AND OR SWAP1 SSTORE JUMPDEST POP JUMP JUMPDEST PUSH1 0x0 DUP3 DUP2 MSTORE PUSH1 0x1 PUSH1 0x20 MSTORE PUSH1 0x40 SWAP1 KECCAK256 PUSH3 0x21A DUP3 DUP3 PUSH3 0x46B JUMP JUMPDEST POP DUP2 PUSH32 0xECE574603820D07BC9B91F2A932BAADF4628AABCB8AFBA49776529C14A6104B2 DUP3 PUSH1 0x40 MLOAD PUSH3 0x24D SWAP2 SWAP1 PUSH3 0x537 JUMP JUMPDEST PUSH1 0x40 MLOAD DUP1 SWAP2 SUB SWAP1 LOG2 POP POP JUMP JUMPDEST PUSH4 0x4E487B71 PUSH1 0xE0 SHL PUSH1 0x0 MSTORE PUSH1 0x41 PUSH1 0x4 MSTORE PUSH1 0x24 PUSH1 0x0 REVERT JUMPDEST PUSH1 0x0 JUMPDEST DUP4 DUP2 LT ISZERO PUSH3 0x28C JUMPI DUP2 DUP2 ADD MLOAD DUP4 DUP3 ADD MSTORE PUSH1 0x20 ADD PUSH3 0x272 JUMP JUMPDEST POP POP PUSH1 0x0 SWAP2 ADD MSTORE JUMP JUMPDEST PUSH1 0x0 DUP3 PUSH1 0x1F DUP4 ADD SLT PUSH3 0x2A7 JUMPI PUSH1 0x0 DUP1 REVERT JUMPDEST DUP2 MLOAD PUSH1 0x1 PUSH1 0x1 PUSH1 0x40 SHL SUB DUP1 DUP3 GT ISZERO PUSH3 0x2C4 JUMPI PUSH3 0x2C4 PUSH3 0x259 JUMP JUMPDEST PUSH1 0x40 MLOAD PUSH1 0x1F DUP4 ADD PUSH1 0x1F NOT SWAP1 DUP2 AND PUSH1 0x3F ADD AND DUP2 ADD SWAP1 DUP3 DUP3 GT DUP2 DUP4 LT OR ISZERO PUSH3 0x2EF JUMPI PUSH3 0x2EF PUSH3 0x259 JUMP JUMPDEST DUP2 PUSH1 0x40 MSTORE DUP4 DUP2 MSTORE DUP7 PUSH1 0x20 DUP6 DUP9 ADD ADD GT ISZERO PUSH3 0x309 JUMPI PUSH1 0x0 DUP1 REVERT JUMPDEST PUSH3 0x31C DUP5 PUSH1 0x20 DUP4 ADD PUSH1 0x20 DUP10 ADD PUSH3 0x26F JUMP JUMPDEST SWAP7 SWAP6 POP POP POP POP POP POP JUMP JUMPDEST DUP1 MLOAD PUSH1 0x1 PUSH1 0x1 PUSH1 0xA0 SHL SUB DUP2 AND DUP2 EQ PUSH3 0x33E JUMPI PUSH1 0x0 DUP1 REVERT JUMPDEST SWAP2 SWAP1 POP JUMP JUMPDEST PUSH1 0x0 DUP1 PUSH1 0x0 DUP1 PUSH1 0x0 PUSH1 0xA0 DUP7 DUP9 SUB SLT ISZERO PUSH3 0x35C JUMPI PUSH1 0x0 DUP1 REVERT JUMPDEST DUP6 MLOAD PUSH1 0x1 PUSH1 0x1 PUSH1 0x40 SHL SUB DUP1 DUP3 GT ISZERO PUSH3 0x374 JUMPI PUSH1 0x0 DUP1 REVERT JUMPDEST PUSH3 0x382 DUP10 DUP4 DUP11 ADD PUSH3 0x295 JUMP JUMPDEST SWAP7 POP PUSH1 0x20 DUP9 ADD MLOAD SWAP2 POP DUP1 DUP3 GT ISZERO PUSH3 0x399 JUMPI PUSH1 0x0 DUP1 REVERT JUMPDEST POP PUSH3 0x3A8 DUP9 DUP3 DUP10 ADD PUSH3 0x295 JUMP JUMPDEST SWAP5 POP POP PUSH3 0x3B9 PUSH1 0x40 DUP8 ADD PUSH3 0x326 JUMP JUMPDEST SWAP3 POP PUSH3 0x3C9 PUSH1 0x60 DUP8 ADD PUSH3 0x326 JUMP JUMPDEST SWAP2 POP PUSH1 0x80 DUP7 ADD MLOAD SWAP1 POP SWAP3 SWAP6 POP SWAP3 SWAP6 SWAP1 SWAP4 POP JUMP JUMPDEST PUSH1 0x1 DUP2 DUP2 SHR SWAP1 DUP3 AND DUP1 PUSH3 0x3F1 JUMPI PUSH1 0x7F DUP3 AND SWAP2 POP JUMPDEST PUSH1 0x20 DUP3 LT DUP2 SUB PUSH3 0x412 JUMPI PUSH4 0x4E487B71 PUSH1 0xE0 SHL PUSH1 0x0 MSTORE PUSH1 0x22 PUSH1 0x4 MSTORE PUSH1 0x24 PUSH1 0x0 REVERT JUMPDEST POP SWAP2 SWAP1 POP JUMP JUMPDEST PUSH1 0x1F DUP3 GT ISZERO PUSH3 0x466 JUMPI PUSH1 0x0 DUP2 DUP2 MSTORE PUSH1 0x20 DUP2 KECCAK256 PUSH1 0x1F DUP6 ADD PUSH1 0x5 SHR DUP2 ADD PUSH1 0x20 DUP7 LT ISZERO PUSH3 0x441 JUMPI POP DUP1 JUMPDEST PUSH1 0x1F DUP6 ADD PUSH1 0x5 SHR DUP3 ADD SWAP2 POP JUMPDEST DUP2 DUP2 LT ISZERO PUSH3 0x462 JUMPI DUP3 DUP2 SSTORE PUSH1 0x1 ADD PUSH3 0x44D JUMP JUMPDEST POP POP POP JUMPDEST POP POP POP JUMP JUMPDEST DUP2 MLOAD PUSH1 0x1 PUSH1 0x1 PUSH1 0x40 SHL SUB DUP2 GT ISZERO PUSH3 0x487 JUMPI PUSH3 0x487 PUSH3 0x259 JUMP JUMPDEST PUSH3 0x49F DUP2 PUSH3 0x498 DUP5 SLOAD PUSH3 0x3DC JUMP JUMPDEST DUP5 PUSH3 0x418 JUMP JUMPDEST PUSH1 0x20 DUP1 PUSH1 0x1F DUP4 GT PUSH1 0x1 DUP2 EQ PUSH3 0x4D7 JUMPI PUSH1 0x0 DUP5 ISZERO PUSH3 0x4BE JUMPI POP DUP6 DUP4 ADD MLOAD JUMPDEST PUSH1 0x0 NOT PUSH1 0x3 DUP7 SWAP1 SHL SHR NOT AND PUSH1 0x1 DUP6 SWAP1 SHL OR DUP6 SSTORE PUSH3 0x462 JUMP JUMPDEST PUSH1 0x0 DUP6 DUP2 MSTORE PUSH1 0x20 DUP2 KECCAK256 PUSH1 0x1F NOT DUP7 AND SWAP2 JUMPDEST DUP3 DUP2 LT ISZERO PUSH3 0x508 JUMPI DUP9 DUP7 ADD MLOAD DUP3 SSTORE SWAP5 DUP5 ADD SWAP5 PUSH1 0x1 SWAP1 SWAP2 ADD SWAP1 DUP5 ADD PUSH3 0x4E7 JUMP JUMPDEST POP DUP6 DUP3 LT ISZERO PUSH3 0x527 JUMPI DUP8 DUP6 ADD MLOAD PUSH1 0x0 NOT PUSH1 0x3 DUP9 SWAP1 SHL PUSH1 0xF8 AND SHR NOT AND DUP2 SSTORE JUMPDEST POP POP POP POP POP PUSH1 0x1 SWAP1 DUP2 SHL ADD SWAP1 SSTORE POP JUMP JUMPDEST PUSH1 0x20 DUP2 MSTORE PUSH1 0x0 DUP3 MLOAD DUP1 PUSH1 0x20 DUP5 ADD MSTORE PUSH3 0x558 DUP2 PUSH1 0x40 DUP6 ADD PUSH1 0x20 DUP8 ADD PUSH3 0x26F JUMP JUMPDEST PUSH1 0x1F ADD PUSH1 0x1F NOT AND SWAP2 SWAP1 SWAP2 ADD PUSH1 0x40 ADD SWAP3 SWAP2 POP POP JUMP JUMPDEST PUSH1 0x80 MLOAD PUSH1 0xA0 MLOAD PUSH2 0x284B PUSH3 0x5A0 PUSH1 0x0 CODECOPY PUSH1 0x0 DUP2 DUP2 PUSH2 0x4AA ADD MSTORE PUSH2 0x95A ADD MSTORE PUSH1 0x0 DUP2 DUP2 PUSH2 0x432 ADD MSTORE PUSH2 0x9BD ADD MSTORE PUSH2 0x284B PUSH1 0x0 RETURN INVALID PUSH1 0x80 PUSH1 0x40 MSTORE PUSH1 0x4 CALLDATASIZE LT PUSH2 0x16A JUMPI PUSH1 0x0 CALLDATALOAD PUSH1 0xE0 SHR DUP1 PUSH4 0x715018A6 GT PUSH2 0xD1 JUMPI DUP1 PUSH4 0x97902421 GT PUSH2 0x8A JUMPI DUP1 PUSH4 0xD72FC29A GT PUSH2 0x64 JUMPI DUP1 PUSH4 0xD72FC29A EQ PUSH2 0x4EE JUMPI DUP1 PUSH4 0xDEDFF9C6 EQ PUSH2 0x51B JUMPI DUP1 PUSH4 0xF0292A03 EQ PUSH2 0x53B JUMPI DUP1 PUSH4 0xF2FDE38B EQ PUSH2 0x550 JUMPI PUSH2 0x1C5 JUMP JUMPDEST DUP1 PUSH4 0x97902421 EQ PUSH2 0x488 JUMPI DUP1 PUSH4 0x98D5FDCA EQ PUSH2 0x49B JUMPI DUP1 PUSH4 0xB49506FD EQ PUSH2 0x4CE JUMPI PUSH2 0x1C5 JUMP JUMPDEST DUP1 PUSH4 0x715018A6 EQ PUSH2 0x3BB JUMPI DUP1 PUSH4 0x760D9BBA EQ PUSH2 0x3D0 JUMPI DUP1 PUSH4 0x78381670 EQ PUSH2 0x3F0 JUMPI DUP1 PUSH4 0x7F23690C EQ PUSH2 0x410 JUMPI DUP1 PUSH4 0x884BF67C EQ PUSH2 0x423 JUMPI DUP1 PUSH4 0x8DA5CB5B EQ PUSH2 0x46A JUMPI PUSH2 0x1C5 JUMP JUMPDEST DUP1 PUSH4 0x32CB6B0C GT PUSH2 0x123 JUMPI DUP1 PUSH4 0x32CB6B0C EQ PUSH2 0x2E3 JUMPI DUP1 PUSH4 0x40C10F19 EQ PUSH2 0x2F8 JUMPI DUP1 PUSH4 0x54F6127F EQ PUSH2 0x30B JUMPI DUP1 PUSH4 0x65AEAA95 EQ PUSH2 0x338 JUMPI DUP1 PUSH4 0x6963D438 EQ PUSH2 0x358 JUMPI DUP1 PUSH4 0x70A08231 EQ PUSH2 0x385 JUMPI PUSH2 0x1C5 JUMP JUMPDEST DUP1 PUSH4 0x1FFC9A7 EQ PUSH2 0x206 JUMPI DUP1 PUSH4 0x18160DDD EQ PUSH2 0x23B JUMPI DUP1 PUSH4 0x2BC1DA82 EQ PUSH2 0x25A JUMPI DUP1 PUSH4 0x2D7667C9 EQ PUSH2 0x27C JUMPI DUP1 PUSH4 0x30D0DC37 EQ PUSH2 0x29C JUMPI DUP1 PUSH4 0x313CE567 EQ PUSH2 0x2BC JUMPI PUSH2 0x1C5 JUMP JUMPDEST CALLDATASIZE PUSH2 0x1C5 JUMPI CALLVALUE PUSH1 0x0 SUB PUSH2 0x1AC JUMPI PUSH1 0x40 MLOAD PUSH4 0xE5099EE3 PUSH1 0xE0 SHL DUP2 MSTORE PUSH1 0x4 ADD PUSH2 0x1A3 SWAP1 PUSH1 0x20 DUP1 DUP3 MSTORE PUSH1 0x4 SWAP1 DUP3 ADD MSTORE PUSH1 0x0 PUSH1 0x40 DUP3 ADD MSTORE PUSH1 0x60 ADD SWAP1 JUMP JUMPDEST PUSH1 0x40 MLOAD DUP1 SWAP2 SUB SWAP1 REVERT JUMPDEST PUSH1 0x40 MLOAD PUSH4 0xE23D6B7 PUSH1 0xE2 SHL DUP2 MSTORE PUSH1 0x4 ADD PUSH1 0x40 MLOAD DUP1 SWAP2 SUB SWAP1 REVERT JUMPDEST PUSH1 0x0 CALLDATASIZE PUSH1 0x60 PUSH1 0x4 DUP3 LT ISZERO PUSH2 0x1F0 JUMPI DUP3 DUP3 PUSH1 0x40 MLOAD PUSH4 0xE5099EE3 PUSH1 0xE0 SHL DUP2 MSTORE PUSH1 0x4 ADD PUSH2 0x1A3 SWAP3 SWAP2 SWAP1 PUSH2 0x1BD2 JUMP JUMPDEST PUSH2 0x1FA DUP4 DUP4 PUSH2 0x570 JUMP JUMPDEST DUP1 MLOAD SWAP4 POP PUSH1 0x20 ADD SWAP2 POP POP RETURN JUMPDEST CALLVALUE DUP1 ISZERO PUSH2 0x212 JUMPI PUSH1 0x0 DUP1 REVERT JUMPDEST POP PUSH2 0x226 PUSH2 0x221 CALLDATASIZE PUSH1 0x4 PUSH2 0x1C01 JUMP JUMPDEST PUSH2 0x666 JUMP JUMPDEST PUSH1 0x40 MLOAD SWAP1 ISZERO ISZERO DUP2 MSTORE PUSH1 0x20 ADD JUMPDEST PUSH1 0x40 MLOAD DUP1 SWAP2 SUB SWAP1 RETURN JUMPDEST CALLVALUE DUP1 ISZERO PUSH2 0x247 JUMPI PUSH1 0x0 DUP1 REVERT JUMPDEST POP PUSH1 0x3 SLOAD JUMPDEST PUSH1 0x40 MLOAD SWAP1 DUP2 MSTORE PUSH1 0x20 ADD PUSH2 0x232 JUMP JUMPDEST CALLVALUE DUP1 ISZERO PUSH2 0x266 JUMPI PUSH1 0x0 DUP1 REVERT JUMPDEST POP PUSH2 0x27A PUSH2 0x275 CALLDATASIZE PUSH1 0x4 PUSH2 0x1D0A JUMP JUMPDEST PUSH2 0x69A JUMP JUMPDEST STOP JUMPDEST CALLVALUE DUP1 ISZERO PUSH2 0x288 JUMPI PUSH1 0x0 DUP1 REVERT JUMPDEST POP PUSH2 0x27A PUSH2 0x297 CALLDATASIZE PUSH1 0x4 PUSH2 0x1F3C JUMP JUMPDEST PUSH2 0x72A JUMP JUMPDEST CALLVALUE DUP1 ISZERO PUSH2 0x2A8 JUMPI PUSH1 0x0 DUP1 REVERT JUMPDEST POP PUSH2 0x27A PUSH2 0x2B7 CALLDATASIZE PUSH1 0x4 PUSH2 0x200D JUMP JUMPDEST PUSH2 0x819 JUMP JUMPDEST CALLVALUE DUP1 ISZERO PUSH2 0x2C8 JUMPI PUSH1 0x0 DUP1 REVERT JUMPDEST POP PUSH2 0x2D1 PUSH2 0x8C1 JUMP JUMPDEST PUSH1 0x40 MLOAD PUSH1 0xFF SWAP1 SWAP2 AND DUP2 MSTORE PUSH1 0x20 ADD PUSH2 0x232 JUMP JUMPDEST CALLVALUE DUP1 ISZERO PUSH2 0x2EF JUMPI PUSH1 0x0 DUP1 REVERT JUMPDEST POP PUSH2 0x24C PUSH1 0x64 DUP2 JUMP JUMPDEST PUSH2 0x27A PUSH2 0x306 CALLDATASIZE PUSH1 0x4 PUSH2 0x207B JUMP JUMPDEST PUSH2 0x8DA JUMP JUMPDEST CALLVALUE DUP1 ISZERO PUSH2 0x317 JUMPI PUSH1 0x0 DUP1 REVERT JUMPDEST POP PUSH2 0x32B PUSH2 0x326 CALLDATASIZE PUSH1 0x4 PUSH2 0x20A5 JUMP JUMPDEST PUSH2 0xA94 JUMP JUMPDEST PUSH1 0x40 MLOAD PUSH2 0x232 SWAP2 SWAP1 PUSH2 0x210E JUMP JUMPDEST CALLVALUE DUP1 ISZERO PUSH2 0x344 JUMPI PUSH1 0x0 DUP1 REVERT JUMPDEST POP PUSH2 0x24C PUSH2 0x353 CALLDATASIZE PUSH1 0x4 PUSH2 0x2121 JUMP JUMPDEST PUSH2 0xA9F JUMP JUMPDEST CALLVALUE DUP1 ISZERO PUSH2 0x364 JUMPI PUSH1 0x0 DUP1 REVERT JUMPDEST POP PUSH2 0x378 PUSH2 0x373 CALLDATASIZE PUSH1 0x4 PUSH2 0x2154 JUMP JUMPDEST PUSH2 0xB05 JUMP JUMPDEST PUSH1 0x40 MLOAD PUSH2 0x232 SWAP2 SWAP1 PUSH2 0x21C8 JUMP JUMPDEST CALLVALUE DUP1 ISZERO PUSH2 0x391 JUMPI PUSH1 0x0 DUP1 REVERT JUMPDEST POP PUSH2 0x24C PUSH2 0x3A0 CALLDATASIZE PUSH1 0x4 PUSH2 0x222A JUMP JUMPDEST PUSH1 0x1 PUSH1 0x1 PUSH1 0xA0 SHL SUB AND PUSH1 0x0 SWAP1 DUP2 MSTORE PUSH1 0x4 PUSH1 0x20 MSTORE PUSH1 0x40 SWAP1 KECCAK256 SLOAD SWAP1 JUMP JUMPDEST CALLVALUE DUP1 ISZERO PUSH2 0x3C7 JUMPI PUSH1 0x0 DUP1 REVERT JUMPDEST POP PUSH2 0x27A PUSH2 0xC3B JUMP JUMPDEST CALLVALUE DUP1 ISZERO PUSH2 0x3DC JUMPI PUSH1 0x0 DUP1 REVERT JUMPDEST POP PUSH2 0x27A PUSH2 0x3EB CALLDATASIZE PUSH1 0x4 PUSH2 0x2245 JUMP JUMPDEST PUSH2 0xC4F JUMP JUMPDEST CALLVALUE DUP1 ISZERO PUSH2 0x3FC JUMPI PUSH1 0x0 DUP1 REVERT JUMPDEST POP PUSH2 0x27A PUSH2 0x40B CALLDATASIZE PUSH1 0x4 PUSH2 0x22B0 JUMP JUMPDEST PUSH2 0xC77 JUMP JUMPDEST PUSH2 0x27A PUSH2 0x41E CALLDATASIZE PUSH1 0x4 PUSH2 0x22FF JUMP JUMPDEST PUSH2 0xD42 JUMP JUMPDEST CALLVALUE DUP1 ISZERO PUSH2 0x42F JUMPI PUSH1 0x0 DUP1 REVERT JUMPDEST POP PUSH32 0x0 JUMPDEST PUSH1 0x40 MLOAD PUSH1 0x1 PUSH1 0x1 PUSH1 0xA0 SHL SUB SWAP1 SWAP2 AND DUP2 MSTORE PUSH1 0x20 ADD PUSH2 0x232 JUMP JUMPDEST CALLVALUE DUP1 ISZERO PUSH2 0x476 JUMPI PUSH1 0x0 DUP1 REVERT JUMPDEST POP PUSH1 0x0 SLOAD PUSH1 0x1 PUSH1 0x1 PUSH1 0xA0 SHL SUB AND PUSH2 0x452 JUMP JUMPDEST PUSH2 0x27A PUSH2 0x496 CALLDATASIZE PUSH1 0x4 PUSH2 0x2345 JUMP JUMPDEST PUSH2 0xD77 JUMP JUMPDEST CALLVALUE DUP1 ISZERO PUSH2 0x4A7 JUMPI PUSH1 0x0 DUP1 REVERT JUMPDEST POP PUSH32 0x0 PUSH2 0x24C JUMP JUMPDEST CALLVALUE DUP1 ISZERO PUSH2 0x4DA JUMPI PUSH1 0x0 DUP1 REVERT JUMPDEST POP PUSH2 0x27A PUSH2 0x4E9 CALLDATASIZE PUSH1 0x4 PUSH2 0x1D0A JUMP JUMPDEST PUSH2 0xE37 JUMP JUMPDEST CALLVALUE DUP1 ISZERO PUSH2 0x4FA JUMPI PUSH1 0x0 DUP1 REVERT JUMPDEST POP PUSH2 0x50E PUSH2 0x509 CALLDATASIZE PUSH1 0x4 PUSH2 0x222A JUMP JUMPDEST PUSH2 0xE77 JUMP JUMPDEST PUSH1 0x40 MLOAD PUSH2 0x232 SWAP2 SWAP1 PUSH2 0x239E JUMP JUMPDEST CALLVALUE DUP1 ISZERO PUSH2 0x527 JUMPI PUSH1 0x0 DUP1 REVERT JUMPDEST POP PUSH2 0x378 PUSH2 0x536 CALLDATASIZE PUSH1 0x4 PUSH2 0x23EB JUMP JUMPDEST PUSH2 0xE9B JUMP JUMPDEST CALLVALUE DUP1 ISZERO PUSH2 0x547 JUMPI PUSH1 0x0 DUP1 REVERT JUMPDEST POP PUSH2 0x24C PUSH1 0x5 DUP2 JUMP JUMPDEST CALLVALUE DUP1 ISZERO PUSH2 0x55C JUMPI PUSH1 0x0 DUP1 REVERT JUMPDEST POP PUSH2 0x27A PUSH2 0x56B CALLDATASIZE PUSH1 0x4 PUSH2 0x222A JUMP JUMPDEST PUSH2 0xF45 JUMP JUMPDEST PUSH1 0x60 PUSH1 0x0 PUSH2 0x589 PUSH1 0x0 CALLDATALOAD PUSH1 0x1 PUSH1 0x1 PUSH1 0xE0 SHL SUB NOT AND PUSH2 0xF80 JUMP JUMPDEST POP SWAP1 POP PUSH1 0x1 PUSH1 0x1 PUSH1 0xA0 SHL SUB DUP2 AND PUSH2 0x5C1 JUMPI PUSH1 0x40 MLOAD PUSH4 0xBB370B2B PUSH1 0xE0 SHL DUP2 MSTORE PUSH1 0x1 PUSH1 0x1 PUSH1 0xE0 SHL SUB NOT PUSH1 0x0 CALLDATALOAD AND PUSH1 0x4 DUP3 ADD MSTORE PUSH1 0x24 ADD PUSH2 0x1A3 JUMP JUMPDEST PUSH1 0x0 DUP1 DUP3 PUSH1 0x1 PUSH1 0x1 PUSH1 0xA0 SHL SUB AND CALLVALUE DUP8 DUP8 CALLER CALLVALUE PUSH1 0x40 MLOAD PUSH1 0x20 ADD PUSH2 0x5E6 SWAP5 SWAP4 SWAP3 SWAP2 SWAP1 PUSH2 0x241F JUMP JUMPDEST PUSH1 0x40 DUP1 MLOAD PUSH1 0x1F NOT DUP2 DUP5 SUB ADD DUP2 MSTORE SWAP1 DUP3 SWAP1 MSTORE PUSH2 0x600 SWAP2 PUSH2 0x244A JUMP JUMPDEST PUSH1 0x0 PUSH1 0x40 MLOAD DUP1 DUP4 SUB DUP2 DUP6 DUP8 GAS CALL SWAP3 POP POP POP RETURNDATASIZE DUP1 PUSH1 0x0 DUP2 EQ PUSH2 0x63D JUMPI PUSH1 0x40 MLOAD SWAP2 POP PUSH1 0x1F NOT PUSH1 0x3F RETURNDATASIZE ADD AND DUP3 ADD PUSH1 0x40 MSTORE RETURNDATASIZE DUP3 MSTORE RETURNDATASIZE PUSH1 0x0 PUSH1 0x20 DUP5 ADD RETURNDATACOPY PUSH2 0x642 JUMP JUMPDEST PUSH1 0x60 SWAP2 POP JUMPDEST POP SWAP2 POP SWAP2 POP DUP2 ISZERO PUSH2 0x657 JUMPI SWAP3 POP PUSH2 0x660 SWAP2 POP POP JUMP JUMPDEST DUP1 MLOAD DUP1 PUSH1 0x20 DUP4 ADD REVERT JUMPDEST SWAP3 SWAP2 POP POP JUMP JUMPDEST PUSH1 0x0 PUSH1 0x1 PUSH1 0x1 PUSH1 0xE0 SHL SUB NOT DUP3 AND PUSH4 0x18A5AC01 PUSH1 0xE3 SHL EQ DUP1 PUSH2 0x68B JUMPI POP PUSH2 0x68B DUP3 PUSH2 0xFFE JUMP JUMPDEST DUP1 PUSH2 0x660 JUMPI POP PUSH2 0x660 DUP3 PUSH2 0x1023 JUMP JUMPDEST PUSH1 0x0 PUSH2 0x6A6 DUP5 CALLER PUSH2 0xA9F JUMP JUMPDEST SWAP1 POP DUP1 PUSH1 0x0 SUB PUSH2 0x6D4 JUMPI PUSH1 0x40 MLOAD PUSH4 0xCBA6E977 PUSH1 0xE0 SHL DUP2 MSTORE PUSH1 0x1 PUSH1 0x1 PUSH1 0xA0 SHL SUB DUP6 AND PUSH1 0x4 DUP3 ADD MSTORE PUSH1 0x24 ADD PUSH2 0x1A3 JUMP JUMPDEST PUSH1 0x0 PUSH2 0x6E0 DUP5 DUP4 PUSH2 0x247C JUMP JUMPDEST SWAP1 POP PUSH2 0x6F0 CALLER DUP7 DUP4 PUSH1 0x1 DUP8 PUSH2 0x1061 JUMP JUMPDEST PUSH1 0x0 CALLER DUP3 DUP6 PUSH1 0x40 MLOAD PUSH1 0x20 ADD PUSH2 0x707 SWAP4 SWAP3 SWAP2 SWAP1 PUSH2 0x248F JUMP JUMPDEST PUSH1 0x40 MLOAD PUSH1 0x20 DUP2 DUP4 SUB SUB DUP2 MSTORE SWAP1 PUSH1 0x40 MSTORE SWAP1 POP PUSH2 0x722 DUP7 DUP3 PUSH2 0x11D4 JUMP JUMPDEST POP POP POP POP POP POP JUMP JUMPDEST DUP5 MLOAD DUP5 MLOAD DUP2 EQ ISZERO DUP1 PUSH2 0x73D JUMPI POP DUP4 MLOAD DUP2 EQ ISZERO JUMPDEST DUP1 PUSH2 0x749 JUMPI POP DUP3 MLOAD DUP2 EQ ISZERO JUMPDEST DUP1 PUSH2 0x755 JUMPI POP DUP2 MLOAD DUP2 EQ ISZERO JUMPDEST ISZERO PUSH2 0x773 JUMPI PUSH1 0x40 MLOAD PUSH4 0x263EEE8D PUSH1 0xE0 SHL DUP2 MSTORE PUSH1 0x4 ADD PUSH1 0x40 MLOAD DUP1 SWAP2 SUB SWAP1 REVERT JUMPDEST PUSH1 0x0 JUMPDEST DUP2 DUP2 LT ISZERO PUSH2 0x810 JUMPI PUSH2 0x808 DUP8 DUP3 DUP2 MLOAD DUP2 LT PUSH2 0x793 JUMPI PUSH2 0x793 PUSH2 0x24BF JUMP JUMPDEST PUSH1 0x20 MUL PUSH1 0x20 ADD ADD MLOAD DUP8 DUP4 DUP2 MLOAD DUP2 LT PUSH2 0x7AD JUMPI PUSH2 0x7AD PUSH2 0x24BF JUMP JUMPDEST PUSH1 0x20 MUL PUSH1 0x20 ADD ADD MLOAD DUP8 DUP5 DUP2 MLOAD DUP2 LT PUSH2 0x7C7 JUMPI PUSH2 0x7C7 PUSH2 0x24BF JUMP JUMPDEST PUSH1 0x20 MUL PUSH1 0x20 ADD ADD MLOAD DUP8 DUP6 DUP2 MLOAD DUP2 LT PUSH2 0x7E1 JUMPI PUSH2 0x7E1 PUSH2 0x24BF JUMP JUMPDEST PUSH1 0x20 MUL PUSH1 0x20 ADD ADD MLOAD DUP8 DUP7 DUP2 MLOAD DUP2 LT PUSH2 0x7FB JUMPI PUSH2 0x7FB PUSH2 0x24BF JUMP JUMPDEST PUSH1 0x20 MUL PUSH1 0x20 ADD ADD MLOAD PUSH2 0xC4F JUMP JUMPDEST PUSH1 0x1 ADD PUSH2 0x776 JUMP JUMPDEST POP POP POP POP POP POP POP JUMP JUMPDEST CALLER PUSH1 0x1 PUSH1 0x1 PUSH1 0xA0 SHL SUB DUP5 AND EQ DUP1 ISZERO SWAP1 PUSH2 0x83B JUMPI POP CALLER PUSH1 0x1 PUSH1 0x1 PUSH1 0xA0 SHL SUB DUP6 AND EQ ISZERO JUMPDEST ISZERO PUSH2 0x872 JUMPI PUSH1 0x40 MLOAD PUSH4 0xD292D99 PUSH1 0xE1 SHL DUP2 MSTORE CALLER PUSH1 0x4 DUP3 ADD MSTORE PUSH1 0x1 PUSH1 0x1 PUSH1 0xA0 SHL SUB DUP1 DUP6 AND PUSH1 0x24 DUP4 ADD MSTORE DUP6 AND PUSH1 0x44 DUP3 ADD MSTORE PUSH1 0x64 ADD PUSH2 0x1A3 JUMP JUMPDEST PUSH2 0x880 DUP4 DUP6 PUSH1 0x0 DUP6 DUP6 PUSH2 0x1061 JUMP JUMPDEST DUP2 ISZERO PUSH2 0x8BB JUMPI PUSH1 0x0 DUP4 PUSH1 0x0 DUP4 PUSH1 0x40 MLOAD PUSH1 0x20 ADD PUSH2 0x89E SWAP4 SWAP3 SWAP2 SWAP1 PUSH2 0x24D5 JUMP JUMPDEST PUSH1 0x40 MLOAD PUSH1 0x20 DUP2 DUP4 SUB SUB DUP2 MSTORE SWAP1 PUSH1 0x40 MSTORE SWAP1 POP PUSH2 0x8B9 DUP6 DUP3 PUSH2 0x11D4 JUMP JUMPDEST POP JUMPDEST POP POP POP POP JUMP JUMPDEST PUSH1 0x2 SLOAD PUSH1 0x0 SWAP1 PUSH1 0xFF AND PUSH2 0x8D4 JUMPI POP PUSH1 0x12 SWAP1 JUMP JUMPDEST POP PUSH1 0x0 SWAP1 JUMP JUMPDEST PUSH1 0x64 DUP2 PUSH1 0x3 SLOAD PUSH2 0x8EA SWAP2 SWAP1 PUSH2 0x247C JUMP JUMPDEST GT ISZERO PUSH2 0x909 JUMPI PUSH1 0x40 MLOAD PUSH4 0x5B21DFD3 PUSH1 0xE1 SHL DUP2 MSTORE PUSH1 0x4 ADD PUSH1 0x40 MLOAD DUP1 SWAP2 SUB SWAP1 REVERT JUMPDEST PUSH1 0x5 DUP2 PUSH2 0x92B DUP5 PUSH1 0x1 PUSH1 0x1 PUSH1 0xA0 SHL SUB AND PUSH1 0x0 SWAP1 DUP2 MSTORE PUSH1 0x4 PUSH1 0x20 MSTORE PUSH1 0x40 SWAP1 KECCAK256 SLOAD SWAP1 JUMP JUMPDEST PUSH2 0x935 SWAP2 SWAP1 PUSH2 0x247C JUMP JUMPDEST GT ISZERO PUSH2 0x954 JUMPI PUSH1 0x40 MLOAD PUSH4 0x5B21DFD3 PUSH1 0xE1 SHL DUP2 MSTORE PUSH1 0x4 ADD PUSH1 0x40 MLOAD DUP1 SWAP2 SUB SWAP1 REVERT JUMPDEST PUSH2 0x97E DUP2 PUSH32 0x0 PUSH2 0x2502 JUMP JUMPDEST CALLVALUE EQ PUSH2 0x99D JUMPI PUSH1 0x40 MLOAD PUSH4 0x20B5E0B PUSH1 0xE1 SHL DUP2 MSTORE PUSH1 0x4 ADD PUSH1 0x40 MLOAD DUP1 SWAP2 SUB SWAP1 REVERT JUMPDEST PUSH2 0x9B9 DUP3 DUP3 PUSH1 0x0 PUSH1 0x40 MLOAD DUP1 PUSH1 0x20 ADD PUSH1 0x40 MSTORE DUP1 PUSH1 0x0 DUP2 MSTORE POP PUSH2 0x11FF JUMP JUMPDEST PUSH1 0x0 PUSH32 0x0 PUSH1 0x1 PUSH1 0x1 PUSH1 0xA0 SHL SUB AND CALLVALUE PUSH1 0x40 MLOAD PUSH1 0x0 PUSH1 0x40 MLOAD DUP1 DUP4 SUB DUP2 DUP6 DUP8 GAS CALL SWAP3 POP POP POP RETURNDATASIZE DUP1 PUSH1 0x0 DUP2 EQ PUSH2 0xA26 JUMPI PUSH1 0x40 MLOAD SWAP2 POP PUSH1 0x1F NOT PUSH1 0x3F RETURNDATASIZE ADD AND DUP3 ADD PUSH1 0x40 MSTORE RETURNDATASIZE DUP3 MSTORE RETURNDATASIZE PUSH1 0x0 PUSH1 0x20 DUP5 ADD RETURNDATACOPY PUSH2 0xA2B JUMP JUMPDEST PUSH1 0x60 SWAP2 POP JUMPDEST POP POP SWAP1 POP DUP1 PUSH2 0xA4D JUMPI PUSH1 0x40 MLOAD PUSH4 0x12171D83 PUSH1 0xE3 SHL DUP2 MSTORE PUSH1 0x4 ADD PUSH1 0x40 MLOAD DUP1 SWAP2 SUB SWAP1 REVERT JUMPDEST PUSH1 0x40 DUP1 MLOAD PUSH1 0x1 PUSH1 0x1 PUSH1 0xA0 SHL SUB DUP6 AND DUP2 MSTORE PUSH1 0x20 DUP2 ADD DUP5 SWAP1 MSTORE PUSH32 0x64F70B72CC0E9E53852E2481E43068B546390216D3D062DBE11D9ECF7580835F SWAP2 ADD PUSH1 0x40 MLOAD DUP1 SWAP2 SUB SWAP1 LOG1 POP POP POP JUMP JUMPDEST PUSH1 0x60 PUSH2 0x660 DUP3 PUSH2 0x12EE JUMP JUMPDEST PUSH1 0x0 DUP3 PUSH1 0x1 PUSH1 0x1 PUSH1 0xA0 SHL SUB AND DUP3 PUSH1 0x1 PUSH1 0x1 PUSH1 0xA0 SHL SUB AND SUB PUSH2 0xAD9 JUMPI POP PUSH1 0x1 PUSH1 0x1 PUSH1 0xA0 SHL SUB DUP2 AND PUSH1 0x0 SWAP1 DUP2 MSTORE PUSH1 0x4 PUSH1 0x20 MSTORE PUSH1 0x40 SWAP1 KECCAK256 SLOAD PUSH2 0x660 JUMP JUMPDEST POP PUSH1 0x1 PUSH1 0x1 PUSH1 0xA0 SHL SUB DUP1 DUP3 AND PUSH1 0x0 SWAP1 DUP2 MSTORE PUSH1 0x6 PUSH1 0x20 SWAP1 DUP2 MSTORE PUSH1 0x40 DUP1 DUP4 KECCAK256 SWAP4 DUP7 AND DUP4 MSTORE SWAP3 SWAP1 MSTORE KECCAK256 SLOAD PUSH2 0x660 JUMP JUMPDEST PUSH1 0x60 DUP2 PUSH1 0x1 PUSH1 0x1 PUSH1 0x40 SHL SUB DUP2 GT ISZERO PUSH2 0xB1F JUMPI PUSH2 0xB1F PUSH2 0x1C47 JUMP JUMPDEST PUSH1 0x40 MLOAD SWAP1 DUP1 DUP3 MSTORE DUP1 PUSH1 0x20 MUL PUSH1 0x20 ADD DUP3 ADD PUSH1 0x40 MSTORE DUP1 ISZERO PUSH2 0xB52 JUMPI DUP2 PUSH1 0x20 ADD JUMPDEST PUSH1 0x60 DUP2 MSTORE PUSH1 0x20 ADD SWAP1 PUSH1 0x1 SWAP1 SUB SWAP1 DUP2 PUSH2 0xB3D JUMPI SWAP1 POP JUMPDEST POP SWAP1 POP PUSH1 0x0 JUMPDEST DUP3 DUP2 LT ISZERO PUSH2 0xC34 JUMPI PUSH1 0x0 DUP1 ADDRESS DUP7 DUP7 DUP6 DUP2 DUP2 LT PUSH2 0xB76 JUMPI PUSH2 0xB76 PUSH2 0x24BF JUMP JUMPDEST SWAP1 POP PUSH1 0x20 MUL DUP2 ADD SWAP1 PUSH2 0xB88 SWAP2 SWAP1 PUSH2 0x2519 JUMP JUMPDEST PUSH1 0x40 MLOAD PUSH2 0xB96 SWAP3 SWAP2 SWAP1 PUSH2 0x2566 JUMP JUMPDEST PUSH1 0x0 PUSH1 0x40 MLOAD DUP1 DUP4 SUB DUP2 DUP6 GAS DELEGATECALL SWAP2 POP POP RETURNDATASIZE DUP1 PUSH1 0x0 DUP2 EQ PUSH2 0xBD1 JUMPI PUSH1 0x40 MLOAD SWAP2 POP PUSH1 0x1F NOT PUSH1 0x3F RETURNDATASIZE ADD AND DUP3 ADD PUSH1 0x40 MSTORE RETURNDATASIZE DUP3 MSTORE RETURNDATASIZE PUSH1 0x0 PUSH1 0x20 DUP5 ADD RETURNDATACOPY PUSH2 0xBD6 JUMP JUMPDEST PUSH1 0x60 SWAP2 POP JUMPDEST POP SWAP2 POP SWAP2 POP DUP2 PUSH2 0xC0C JUMPI DUP1 MLOAD ISZERO PUSH2 0xBF0 JUMPI DUP1 MLOAD DUP1 DUP3 PUSH1 0x20 ADD REVERT JUMPDEST PUSH1 0x40 MLOAD PUSH4 0x2DDD30A1 PUSH1 0xE2 SHL DUP2 MSTORE PUSH1 0x4 DUP2 ADD DUP5 SWAP1 MSTORE PUSH1 0x24 ADD PUSH2 0x1A3 JUMP JUMPDEST DUP1 DUP5 DUP5 DUP2 MLOAD DUP2 LT PUSH2 0xC1F JUMPI PUSH2 0xC1F PUSH2 0x24BF JUMP JUMPDEST PUSH1 0x20 SWAP1 DUP2 MUL SWAP2 SWAP1 SWAP2 ADD ADD MSTORE POP POP PUSH1 0x1 ADD PUSH2 0xB58 JUMP JUMPDEST POP SWAP3 SWAP2 POP POP JUMP JUMPDEST PUSH2 0xC43 PUSH2 0x1390 JUMP JUMPDEST PUSH2 0xC4D PUSH1 0x0 PUSH2 0x13CC JUMP JUMPDEST JUMP JUMPDEST CALLER PUSH1 0x1 PUSH1 0x1 PUSH1 0xA0 SHL SUB DUP7 AND EQ PUSH2 0xC6A JUMPI PUSH2 0xC6A CALLER DUP7 DUP6 PUSH2 0x143A JUMP JUMPDEST PUSH2 0x8B9 DUP6 DUP6 DUP6 DUP6 DUP6 PUSH2 0x14C8 JUMP JUMPDEST CALLER PUSH1 0x1 PUSH1 0x1 PUSH1 0xA0 SHL SUB DUP5 AND EQ DUP1 ISZERO SWAP1 PUSH2 0xC99 JUMPI POP CALLER PUSH1 0x1 PUSH1 0x1 PUSH1 0xA0 SHL SUB DUP6 AND EQ ISZERO JUMPDEST ISZERO PUSH2 0xCD0 JUMPI PUSH1 0x40 MLOAD PUSH4 0x98CE2945 PUSH1 0xE0 SHL DUP2 MSTORE CALLER PUSH1 0x4 DUP3 ADD MSTORE PUSH1 0x1 PUSH1 0x1 PUSH1 0xA0 SHL SUB DUP1 DUP6 AND PUSH1 0x24 DUP4 ADD MSTORE DUP6 AND PUSH1 0x44 DUP3 ADD MSTORE PUSH1 0x64 ADD PUSH2 0x1A3 JUMP JUMPDEST PUSH1 0x0 PUSH2 0xCDC DUP6 DUP6 PUSH2 0xA9F JUMP JUMPDEST SWAP1 POP DUP3 DUP2 LT ISZERO PUSH2 0xCFF JUMPI PUSH1 0x40 MLOAD PUSH4 0xEF76C35 PUSH1 0xE0 SHL DUP2 MSTORE PUSH1 0x4 ADD PUSH1 0x40 MLOAD DUP1 SWAP2 SUB SWAP1 REVERT JUMPDEST DUP3 DUP2 SUB PUSH2 0xD10 DUP6 DUP8 DUP4 PUSH1 0x1 DUP8 PUSH2 0x1061 JUMP JUMPDEST PUSH1 0x0 DUP6 DUP3 DUP6 PUSH1 0x40 MLOAD PUSH1 0x20 ADD PUSH2 0xD27 SWAP4 SWAP3 SWAP2 SWAP1 PUSH2 0x248F JUMP JUMPDEST PUSH1 0x40 MLOAD PUSH1 0x20 DUP2 DUP4 SUB SUB DUP2 MSTORE SWAP1 PUSH1 0x40 MSTORE SWAP1 POP PUSH2 0x810 DUP8 DUP3 PUSH2 0x11D4 JUMP JUMPDEST PUSH2 0xD4A PUSH2 0x1390 JUMP JUMPDEST CALLVALUE ISZERO PUSH2 0xD69 JUMPI PUSH1 0x40 MLOAD PUSH4 0xF36BA737 PUSH1 0xE0 SHL DUP2 MSTORE PUSH1 0x4 ADD PUSH1 0x40 MLOAD DUP1 SWAP2 SUB SWAP1 REVERT JUMPDEST PUSH2 0xD73 DUP3 DUP3 PUSH2 0x164C JUMP JUMPDEST POP POP JUMP JUMPDEST PUSH2 0xD7F PUSH2 0x1390 JUMP JUMPDEST CALLVALUE ISZERO PUSH2 0xD9E JUMPI PUSH1 0x40 MLOAD PUSH4 0xF36BA737 PUSH1 0xE0 SHL DUP2 MSTORE PUSH1 0x4 ADD PUSH1 0x40 MLOAD DUP1 SWAP2 SUB SWAP1 REVERT JUMPDEST DUP1 MLOAD DUP3 MLOAD EQ PUSH2 0xDC0 JUMPI PUSH1 0x40 MLOAD PUSH4 0x3BCC8979 PUSH1 0xE0 SHL DUP2 MSTORE PUSH1 0x4 ADD PUSH1 0x40 MLOAD DUP1 SWAP2 SUB SWAP1 REVERT JUMPDEST DUP2 MLOAD PUSH1 0x0 SUB PUSH2 0xDE2 JUMPI PUSH1 0x40 MLOAD PUSH4 0x97DA5F95 PUSH1 0xE0 SHL DUP2 MSTORE PUSH1 0x4 ADD PUSH1 0x40 MLOAD DUP1 SWAP2 SUB SWAP1 REVERT JUMPDEST PUSH1 0x0 JUMPDEST DUP3 MLOAD DUP2 LT ISZERO PUSH2 0xE32 JUMPI PUSH2 0xE2A DUP4 DUP3 DUP2 MLOAD DUP2 LT PUSH2 0xE03 JUMPI PUSH2 0xE03 PUSH2 0x24BF JUMP JUMPDEST PUSH1 0x20 MUL PUSH1 0x20 ADD ADD MLOAD DUP4 DUP4 DUP2 MLOAD DUP2 LT PUSH2 0xE1D JUMPI PUSH2 0xE1D PUSH2 0x24BF JUMP JUMPDEST PUSH1 0x20 MUL PUSH1 0x20 ADD ADD MLOAD PUSH2 0x164C JUMP JUMPDEST PUSH1 0x1 ADD PUSH2 0xDE5 JUMP JUMPDEST POP POP POP JUMP JUMPDEST PUSH2 0xE45 CALLER DUP5 DUP5 PUSH1 0x1 DUP6 PUSH2 0x1061 JUMP JUMPDEST PUSH1 0x0 CALLER DUP4 DUP4 PUSH1 0x40 MLOAD PUSH1 0x20 ADD PUSH2 0xE5C SWAP4 SWAP3 SWAP2 SWAP1 PUSH2 0x248F JUMP JUMPDEST PUSH1 0x40 MLOAD PUSH1 0x20 DUP2 DUP4 SUB SUB DUP2 MSTORE SWAP1 PUSH1 0x40 MSTORE SWAP1 POP PUSH2 0x8BB DUP5 DUP3 PUSH2 0x11D4 JUMP JUMPDEST PUSH1 0x1 PUSH1 0x1 PUSH1 0xA0 SHL SUB DUP2 AND PUSH1 0x0 SWAP1 DUP2 MSTORE PUSH1 0x5 PUSH1 0x20 MSTORE PUSH1 0x40 SWAP1 KECCAK256 PUSH1 0x60 SWAP1 PUSH2 0x660 SWAP1 PUSH2 0x1656 JUMP JUMPDEST PUSH1 0x60 DUP2 MLOAD PUSH1 0x1 PUSH1 0x1 PUSH1 0x40 SHL SUB DUP2 GT ISZERO PUSH2 0xEB6 JUMPI PUSH2 0xEB6 PUSH2 0x1C47 JUMP JUMPDEST PUSH1 0x40 MLOAD SWAP1 DUP1 DUP3 MSTORE DUP1 PUSH1 0x20 MUL PUSH1 0x20 ADD DUP3 ADD PUSH1 0x40 MSTORE DUP1 ISZERO PUSH2 0xEE9 JUMPI DUP2 PUSH1 0x20 ADD JUMPDEST PUSH1 0x60 DUP2 MSTORE PUSH1 0x20 ADD SWAP1 PUSH1 0x1 SWAP1 SUB SWAP1 DUP2 PUSH2 0xED4 JUMPI SWAP1 POP JUMPDEST POP SWAP1 POP PUSH1 0x0 JUMPDEST DUP3 MLOAD DUP2 LT ISZERO PUSH2 0xF3F JUMPI PUSH2 0xF1A DUP4 DUP3 DUP2 MLOAD DUP2 LT PUSH2 0xF0D JUMPI PUSH2 0xF0D PUSH2 0x24BF JUMP JUMPDEST PUSH1 0x20 MUL PUSH1 0x20 ADD ADD MLOAD PUSH2 0x12EE JUMP JUMPDEST DUP3 DUP3 DUP2 MLOAD DUP2 LT PUSH2 0xF2C JUMPI PUSH2 0xF2C PUSH2 0x24BF JUMP JUMPDEST PUSH1 0x20 SWAP1 DUP2 MUL SWAP2 SWAP1 SWAP2 ADD ADD MSTORE PUSH1 0x1 ADD PUSH2 0xEEF JUMP JUMPDEST POP SWAP2 SWAP1 POP JUMP JUMPDEST PUSH2 0xF4D PUSH2 0x1390 JUMP JUMPDEST PUSH1 0x1 PUSH1 0x1 PUSH1 0xA0 SHL SUB DUP2 AND PUSH2 0xF74 JUMPI PUSH1 0x40 MLOAD PUSH4 0x6B620DB PUSH1 0xE2 SHL DUP2 MSTORE PUSH1 0x4 ADD PUSH1 0x40 MLOAD DUP1 SWAP2 SUB SWAP1 REVERT JUMPDEST PUSH2 0xF7D DUP2 PUSH2 0x13CC JUMP JUMPDEST POP JUMP JUMPDEST PUSH1 0x0 DUP1 DUP1 PUSH2 0xFA5 PUSH10 0x6773C5A04A6D4300884B PUSH1 0xB1 SHL PUSH1 0x1 PUSH1 0x1 PUSH1 0xE0 SHL SUB NOT DUP7 AND PUSH2 0x1663 JUMP JUMPDEST SWAP1 POP PUSH1 0x0 PUSH2 0xFB2 DUP3 PUSH2 0x12EE JUMP JUMPDEST SWAP1 POP DUP1 MLOAD PUSH1 0x14 EQ ISZERO DUP1 ISZERO PUSH2 0xFC6 JUMPI POP DUP1 MLOAD ISZERO ISZERO JUMPDEST ISZERO PUSH2 0xFE6 JUMPI DUP1 PUSH1 0x40 MLOAD PUSH4 0x42BFE79F PUSH1 0xE0 SHL DUP2 MSTORE PUSH1 0x4 ADD PUSH2 0x1A3 SWAP2 SWAP1 PUSH2 0x210E JUMP JUMPDEST PUSH2 0xFEF DUP2 PUSH2 0x2576 JUMP JUMPDEST PUSH1 0x60 SHR SWAP6 PUSH1 0x1 SWAP6 POP SWAP4 POP POP POP POP JUMP JUMPDEST PUSH1 0x0 PUSH1 0x1 PUSH1 0x1 PUSH1 0xE0 SHL SUB NOT DUP3 AND PUSH4 0xA918FA6B PUSH1 0xE0 SHL EQ DUP1 PUSH2 0x660 JUMPI POP PUSH2 0x660 DUP3 PUSH2 0x16B7 JUMP JUMPDEST PUSH1 0x0 DUP1 PUSH2 0x1036 PUSH4 0x1FFC9A7 PUSH1 0xE0 SHL PUSH2 0xF80 JUMP JUMPDEST POP SWAP1 POP PUSH1 0x1 PUSH1 0x1 PUSH1 0xA0 SHL SUB DUP2 AND PUSH2 0x1050 JUMPI POP PUSH1 0x0 SWAP3 SWAP2 POP POP JUMP JUMPDEST PUSH2 0x105A DUP2 DUP5 PUSH2 0x16EC JUMP JUMPDEST SWAP4 SWAP3 POP POP POP JUMP JUMPDEST PUSH1 0x1 PUSH1 0x1 PUSH1 0xA0 SHL SUB DUP5 AND PUSH2 0x1088 JUMPI PUSH1 0x40 MLOAD PUSH4 0x31AAF3B3 PUSH1 0xE1 SHL DUP2 MSTORE PUSH1 0x4 ADD PUSH1 0x40 MLOAD DUP1 SWAP2 SUB SWAP1 REVERT JUMPDEST DUP5 PUSH1 0x1 PUSH1 0x1 PUSH1 0xA0 SHL SUB AND DUP5 PUSH1 0x1 PUSH1 0x1 PUSH1 0xA0 SHL SUB AND SUB PUSH2 0x10BA JUMPI PUSH1 0x40 MLOAD PUSH4 0xDAB75047 PUSH1 0xE0 SHL DUP2 MSTORE PUSH1 0x4 ADD PUSH1 0x40 MLOAD DUP1 SWAP2 SUB SWAP1 REVERT JUMPDEST PUSH1 0x1 PUSH1 0x1 PUSH1 0xA0 SHL SUB DUP1 DUP7 AND PUSH1 0x0 SWAP1 DUP2 MSTORE PUSH1 0x6 PUSH1 0x20 SWAP1 DUP2 MSTORE PUSH1 0x40 DUP1 DUP4 KECCAK256 SWAP4 DUP9 AND DUP4 MSTORE SWAP3 SWAP1 MSTORE KECCAK256 DUP4 SWAP1 SSTORE DUP3 ISZERO PUSH2 0x115C JUMPI PUSH1 0x1 PUSH1 0x1 PUSH1 0xA0 SHL SUB DUP6 AND PUSH1 0x0 SWAP1 DUP2 MSTORE PUSH1 0x5 PUSH1 0x20 MSTORE PUSH1 0x40 SWAP1 KECCAK256 PUSH2 0x110A SWAP1 DUP6 PUSH2 0x1776 JUMP JUMPDEST POP DUP3 DUP6 PUSH1 0x1 PUSH1 0x1 PUSH1 0xA0 SHL SUB AND DUP6 PUSH1 0x1 PUSH1 0x1 PUSH1 0xA0 SHL SUB AND PUSH32 0xF772A43BFDF4729B196E3FB54A818B91A2CA6C49D10B2E16278752F9F515C25D DUP5 PUSH1 0x40 MLOAD PUSH2 0x114F SWAP2 SWAP1 PUSH2 0x210E JUMP JUMPDEST PUSH1 0x40 MLOAD DUP1 SWAP2 SUB SWAP1 LOG4 PUSH2 0x8B9 JUMP JUMPDEST PUSH1 0x1 PUSH1 0x1 PUSH1 0xA0 SHL SUB DUP6 AND PUSH1 0x0 SWAP1 DUP2 MSTORE PUSH1 0x5 PUSH1 0x20 MSTORE PUSH1 0x40 SWAP1 KECCAK256 PUSH2 0x117E SWAP1 DUP6 PUSH2 0x178B JUMP JUMPDEST POP DUP2 ISZERO ISZERO DUP6 PUSH1 0x1 PUSH1 0x1 PUSH1 0xA0 SHL SUB AND DUP6 PUSH1 0x1 PUSH1 0x1 PUSH1 0xA0 SHL SUB AND PUSH32 0xEBF5762D8855CBE012D2CA42FB33A81175E17C8A8751F8859931BA453BD4167 DUP5 PUSH1 0x40 MLOAD PUSH2 0x11C5 SWAP2 SWAP1 PUSH2 0x210E JUMP JUMPDEST PUSH1 0x40 MLOAD DUP1 SWAP2 SUB SWAP1 LOG4 POP POP POP POP POP JUMP JUMPDEST PUSH2 0xD73 DUP3 PUSH32 0x386072CC5A58E61263B434C722725F21031CD06E7C552CFAA06DB5DE8A320DBC DUP4 PUSH2 0x17A0 JUMP JUMPDEST PUSH1 0x1 PUSH1 0x1 PUSH1 0xA0 SHL SUB DUP5 AND PUSH2 0x1226 JUMPI PUSH1 0x40 MLOAD PUSH4 0xD2D5EC3 PUSH1 0xE4 SHL DUP2 MSTORE PUSH1 0x4 ADD PUSH1 0x40 MLOAD DUP1 SWAP2 SUB SWAP1 REVERT JUMPDEST DUP3 PUSH1 0x3 PUSH1 0x0 DUP3 DUP3 SLOAD PUSH2 0x1238 SWAP2 SWAP1 PUSH2 0x247C JUMP JUMPDEST SWAP1 SWAP2 SSTORE POP POP PUSH1 0x1 PUSH1 0x1 PUSH1 0xA0 SHL SUB DUP5 AND PUSH1 0x0 SWAP1 DUP2 MSTORE PUSH1 0x4 PUSH1 0x20 MSTORE PUSH1 0x40 DUP2 KECCAK256 DUP1 SLOAD DUP6 SWAP3 SWAP1 PUSH2 0x1265 SWAP1 DUP5 SWAP1 PUSH2 0x247C JUMP JUMPDEST SWAP1 SWAP2 SSTORE POP POP PUSH1 0x40 MLOAD PUSH1 0x1 PUSH1 0x1 PUSH1 0xA0 SHL SUB DUP6 AND SWAP1 PUSH1 0x0 SWAP1 CALLER SWAP1 PUSH32 0x3997E418D2CEF0B3B0E907B1E39605C3F7D32DBD061E82EA5B4A770D46A160A6 SWAP1 PUSH2 0x12AE SWAP1 DUP9 SWAP1 DUP9 SWAP1 DUP9 SWAP1 PUSH2 0x25AD JUMP JUMPDEST PUSH1 0x40 MLOAD DUP1 SWAP2 SUB SWAP1 LOG4 PUSH1 0x0 CALLER PUSH1 0x0 DUP7 DUP7 DUP6 PUSH1 0x40 MLOAD PUSH1 0x20 ADD PUSH2 0x12D2 SWAP6 SWAP5 SWAP4 SWAP3 SWAP2 SWAP1 PUSH2 0x25CE JUMP JUMPDEST PUSH1 0x40 MLOAD PUSH1 0x20 DUP2 DUP4 SUB SUB DUP2 MSTORE SWAP1 PUSH1 0x40 MSTORE SWAP1 POP PUSH2 0x8B9 DUP6 DUP5 DUP4 PUSH2 0x1834 JUMP JUMPDEST PUSH1 0x0 DUP2 DUP2 MSTORE PUSH1 0x1 PUSH1 0x20 MSTORE PUSH1 0x40 SWAP1 KECCAK256 DUP1 SLOAD PUSH1 0x60 SWAP2 SWAP1 PUSH2 0x130B SWAP1 PUSH2 0x2609 JUMP JUMPDEST DUP1 PUSH1 0x1F ADD PUSH1 0x20 DUP1 SWAP2 DIV MUL PUSH1 0x20 ADD PUSH1 0x40 MLOAD SWAP1 DUP2 ADD PUSH1 0x40 MSTORE DUP1 SWAP3 SWAP2 SWAP1 DUP2 DUP2 MSTORE PUSH1 0x20 ADD DUP3 DUP1 SLOAD PUSH2 0x1337 SWAP1 PUSH2 0x2609 JUMP JUMPDEST DUP1 ISZERO PUSH2 0x1384 JUMPI DUP1 PUSH1 0x1F LT PUSH2 0x1359 JUMPI PUSH2 0x100 DUP1 DUP4 SLOAD DIV MUL DUP4 MSTORE SWAP2 PUSH1 0x20 ADD SWAP2 PUSH2 0x1384 JUMP JUMPDEST DUP3 ADD SWAP2 SWAP1 PUSH1 0x0 MSTORE PUSH1 0x20 PUSH1 0x0 KECCAK256 SWAP1 JUMPDEST DUP2 SLOAD DUP2 MSTORE SWAP1 PUSH1 0x1 ADD SWAP1 PUSH1 0x20 ADD DUP1 DUP4 GT PUSH2 0x1367 JUMPI DUP3 SWAP1 SUB PUSH1 0x1F AND DUP3 ADD SWAP2 JUMPDEST POP POP POP POP POP SWAP1 POP SWAP2 SWAP1 POP JUMP JUMPDEST CALLER PUSH2 0x13A3 PUSH1 0x0 SLOAD PUSH1 0x1 PUSH1 0x1 PUSH1 0xA0 SHL SUB AND SWAP1 JUMP JUMPDEST PUSH1 0x1 PUSH1 0x1 PUSH1 0xA0 SHL SUB AND EQ PUSH2 0xC4D JUMPI PUSH1 0x40 MLOAD PUSH4 0xBF1169C5 PUSH1 0xE0 SHL DUP2 MSTORE CALLER PUSH1 0x4 DUP3 ADD MSTORE PUSH1 0x24 ADD PUSH2 0x1A3 JUMP JUMPDEST PUSH1 0x0 SLOAD PUSH1 0x1 PUSH1 0x1 PUSH1 0xA0 SHL SUB DUP3 DUP2 AND SWAP2 AND EQ PUSH2 0xF7D JUMPI PUSH1 0x0 DUP1 SLOAD PUSH1 0x40 MLOAD PUSH1 0x1 PUSH1 0x1 PUSH1 0xA0 SHL SUB DUP1 DUP6 AND SWAP4 SWAP3 AND SWAP2 PUSH32 0x8BE0079C531659141344CD1FD0A4F28419497F9722A3DAAFE3B4186F6B6457E0 SWAP2 LOG3 PUSH1 0x0 DUP1 SLOAD PUSH1 0x1 PUSH1 0x1 PUSH1 0xA0 SHL SUB DUP4 AND PUSH1 0x1 PUSH1 0x1 PUSH1 0xA0 SHL SUB NOT SWAP1 SWAP2 AND OR SWAP1 SSTORE POP JUMP JUMPDEST PUSH1 0x1 PUSH1 0x1 PUSH1 0xA0 SHL SUB DUP1 DUP4 AND PUSH1 0x0 SWAP1 DUP2 MSTORE PUSH1 0x6 PUSH1 0x20 SWAP1 DUP2 MSTORE PUSH1 0x40 DUP1 DUP4 KECCAK256 SWAP4 DUP8 AND DUP4 MSTORE SWAP3 SWAP1 MSTORE KECCAK256 SLOAD DUP1 DUP3 GT ISZERO PUSH2 0x14A2 JUMPI PUSH1 0x40 MLOAD PUSH4 0xF3A6B691 PUSH1 0xE0 SHL DUP2 MSTORE PUSH1 0x1 PUSH1 0x1 PUSH1 0xA0 SHL SUB DUP1 DUP6 AND PUSH1 0x4 DUP4 ADD MSTORE PUSH1 0x24 DUP3 ADD DUP4 SWAP1 MSTORE DUP6 AND PUSH1 0x44 DUP3 ADD MSTORE PUSH1 0x64 DUP2 ADD DUP4 SWAP1 MSTORE PUSH1 0x84 ADD PUSH2 0x1A3 JUMP JUMPDEST PUSH2 0x8BB DUP4 DUP6 PUSH2 0x14B1 DUP6 DUP6 PUSH2 0x263D JUMP JUMPDEST PUSH1 0x0 PUSH1 0x40 MLOAD DUP1 PUSH1 0x20 ADD PUSH1 0x40 MSTORE DUP1 PUSH1 0x0 DUP2 MSTORE POP PUSH2 0x1061 JUMP JUMPDEST PUSH1 0x1 PUSH1 0x1 PUSH1 0xA0 SHL SUB DUP6 AND ISZERO DUP1 PUSH2 0x14E5 JUMPI POP PUSH1 0x1 PUSH1 0x1 PUSH1 0xA0 SHL SUB DUP5 AND ISZERO JUMPDEST ISZERO PUSH2 0x1503 JUMPI PUSH1 0x40 MLOAD PUSH4 0xD2D5EC3 PUSH1 0xE4 SHL DUP2 MSTORE PUSH1 0x4 ADD PUSH1 0x40 MLOAD DUP1 SWAP2 SUB SWAP1 REVERT JUMPDEST PUSH1 0x1 PUSH1 0x1 PUSH1 0xA0 SHL SUB DUP6 AND PUSH1 0x0 SWAP1 DUP2 MSTORE PUSH1 0x4 PUSH1 0x20 MSTORE PUSH1 0x40 SWAP1 KECCAK256 SLOAD DUP1 DUP5 GT ISZERO PUSH2 0x1556 JUMPI PUSH1 0x40 MLOAD PUSH4 0x8D47949 PUSH1 0xE0 SHL DUP2 MSTORE PUSH1 0x4 DUP2 ADD DUP3 SWAP1 MSTORE PUSH1 0x1 PUSH1 0x1 PUSH1 0xA0 SHL SUB DUP8 AND PUSH1 0x24 DUP3 ADD MSTORE PUSH1 0x44 DUP2 ADD DUP6 SWAP1 MSTORE PUSH1 0x64 ADD PUSH2 0x1A3 JUMP JUMPDEST PUSH1 0x1 PUSH1 0x1 PUSH1 0xA0 SHL SUB DUP7 AND PUSH1 0x0 SWAP1 DUP2 MSTORE PUSH1 0x4 PUSH1 0x20 MSTORE PUSH1 0x40 DUP2 KECCAK256 DUP1 SLOAD DUP7 SWAP3 SWAP1 PUSH2 0x157E SWAP1 DUP5 SWAP1 PUSH2 0x263D JUMP JUMPDEST SWAP1 SWAP2 SSTORE POP POP PUSH1 0x1 PUSH1 0x1 PUSH1 0xA0 SHL SUB DUP6 AND PUSH1 0x0 SWAP1 DUP2 MSTORE PUSH1 0x4 PUSH1 0x20 MSTORE PUSH1 0x40 DUP2 KECCAK256 DUP1 SLOAD DUP7 SWAP3 SWAP1 PUSH2 0x15AB SWAP1 DUP5 SWAP1 PUSH2 0x247C JUMP JUMPDEST SWAP3 POP POP DUP2 SWAP1 SSTORE POP DUP5 PUSH1 0x1 PUSH1 0x1 PUSH1 0xA0 SHL SUB AND DUP7 PUSH1 0x1 PUSH1 0x1 PUSH1 0xA0 SHL SUB AND CALLER PUSH1 0x1 PUSH1 0x1 PUSH1 0xA0 SHL SUB AND PUSH32 0x3997E418D2CEF0B3B0E907B1E39605C3F7D32DBD061E82EA5B4A770D46A160A6 DUP8 DUP8 DUP8 PUSH1 0x40 MLOAD PUSH2 0x1603 SWAP4 SWAP3 SWAP2 SWAP1 PUSH2 0x25AD JUMP JUMPDEST PUSH1 0x40 MLOAD DUP1 SWAP2 SUB SWAP1 LOG4 PUSH1 0x0 CALLER DUP8 DUP8 DUP8 DUP7 PUSH1 0x40 MLOAD PUSH1 0x20 ADD PUSH2 0x1626 SWAP6 SWAP5 SWAP4 SWAP3 SWAP2 SWAP1 PUSH2 0x25CE JUMP JUMPDEST PUSH1 0x40 MLOAD PUSH1 0x20 DUP2 DUP4 SUB SUB DUP2 MSTORE SWAP1 PUSH1 0x40 MSTORE SWAP1 POP PUSH2 0x1641 DUP8 DUP3 PUSH2 0x18F5 JUMP JUMPDEST PUSH2 0x810 DUP7 DUP6 DUP4 PUSH2 0x1834 JUMP JUMPDEST PUSH2 0xD73 DUP3 DUP3 PUSH2 0x1920 JUMP JUMPDEST PUSH1 0x60 PUSH1 0x0 PUSH2 0x105A DUP4 PUSH2 0x1A35 JUMP JUMPDEST PUSH1 0x40 DUP1 MLOAD PUSH1 0x1 PUSH1 0x1 PUSH1 0xB0 SHL SUB NOT DUP5 AND PUSH1 0x20 DUP3 ADD MSTORE PUSH1 0x0 PUSH1 0x2A DUP3 ADD DUP2 SWAP1 MSTORE PUSH1 0x1 PUSH1 0x1 PUSH1 0x60 SHL SUB NOT DUP5 AND PUSH1 0x2C DUP4 ADD MSTORE SWAP2 DUP3 SWAP2 ADD PUSH1 0x40 MLOAD PUSH1 0x20 DUP2 DUP4 SUB SUB DUP2 MSTORE SWAP1 PUSH1 0x40 MSTORE SWAP1 POP DUP1 PUSH2 0x16AF SWAP1 PUSH2 0x2650 JUMP JUMPDEST SWAP5 SWAP4 POP POP POP POP JUMP JUMPDEST PUSH1 0x0 PUSH1 0x1 PUSH1 0x1 PUSH1 0xE0 SHL SUB NOT DUP3 AND PUSH4 0x18A6A9A5 PUSH1 0xE2 SHL EQ DUP1 PUSH2 0x660 JUMPI POP PUSH4 0x1FFC9A7 PUSH1 0xE0 SHL PUSH1 0x1 PUSH1 0x1 PUSH1 0xE0 SHL SUB NOT DUP4 AND EQ PUSH2 0x660 JUMP JUMPDEST PUSH1 0x40 MLOAD PUSH1 0x1 PUSH1 0x1 PUSH1 0xE0 SHL SUB NOT DUP3 AND PUSH1 0x24 DUP3 ADD MSTORE PUSH1 0x0 SWAP1 DUP2 SWAP1 PUSH1 0x44 ADD PUSH1 0x40 DUP1 MLOAD PUSH1 0x1F NOT DUP2 DUP5 SUB ADD DUP2 MSTORE SWAP2 SWAP1 MSTORE PUSH1 0x20 DUP1 DUP3 ADD DUP1 MLOAD PUSH1 0x1 PUSH1 0x1 PUSH1 0xE0 SHL SUB AND PUSH4 0x1FFC9A7 PUSH1 0xE0 SHL OR DUP2 MSTORE DUP3 MLOAD SWAP3 SWAP4 POP PUSH1 0x0 SWAP3 DUP4 SWAP3 DUP4 SWAP3 SWAP1 SWAP2 DUP4 SWAP2 DUP11 PUSH2 0x7530 STATICCALL SWAP3 POP RETURNDATASIZE SWAP2 POP PUSH1 0x0 MLOAD SWAP1 POP DUP3 DUP1 ISZERO PUSH2 0x175F JUMPI POP PUSH1 0x20 DUP3 LT ISZERO JUMPDEST DUP1 ISZERO PUSH2 0x176B JUMPI POP PUSH1 0x0 DUP2 GT JUMPDEST SWAP8 SWAP7 POP POP POP POP POP POP POP JUMP JUMPDEST PUSH1 0x0 PUSH2 0x105A DUP4 PUSH1 0x1 PUSH1 0x1 PUSH1 0xA0 SHL SUB DUP5 AND PUSH2 0x1A90 JUMP JUMPDEST PUSH1 0x0 PUSH2 0x105A DUP4 PUSH1 0x1 PUSH1 0x1 PUSH1 0xA0 SHL SUB DUP5 AND PUSH2 0x1ADF JUMP JUMPDEST PUSH2 0x17BA PUSH1 0x1 PUSH1 0x1 PUSH1 0xA0 SHL SUB DUP5 AND PUSH4 0x1AED5A85 PUSH1 0xE2 SHL PUSH2 0x16EC JUMP JUMPDEST ISZERO PUSH2 0xE32 JUMPI PUSH1 0x40 MLOAD PUSH4 0x1AED5A85 PUSH1 0xE2 SHL DUP2 MSTORE PUSH1 0x1 PUSH1 0x1 PUSH1 0xA0 SHL SUB DUP5 AND SWAP1 PUSH4 0x6BB56A14 SWAP1 PUSH2 0x17ED SWAP1 DUP6 SWAP1 DUP6 SWAP1 PUSH1 0x4 ADD PUSH2 0x2674 JUMP JUMPDEST PUSH1 0x0 PUSH1 0x40 MLOAD DUP1 DUP4 SUB DUP2 PUSH1 0x0 DUP8 GAS CALL ISZERO DUP1 ISZERO PUSH2 0x180C JUMPI RETURNDATASIZE PUSH1 0x0 DUP1 RETURNDATACOPY RETURNDATASIZE PUSH1 0x0 REVERT JUMPDEST POP POP POP POP PUSH1 0x40 MLOAD RETURNDATASIZE PUSH1 0x0 DUP3 RETURNDATACOPY PUSH1 0x1F RETURNDATASIZE SWAP1 DUP2 ADD PUSH1 0x1F NOT AND DUP3 ADD PUSH1 0x40 MSTORE PUSH2 0x8BB SWAP2 SWAP1 DUP2 ADD SWAP1 PUSH2 0x268D JUMP JUMPDEST PUSH2 0x1845 DUP4 PUSH4 0x1AED5A85 PUSH1 0xE2 SHL PUSH2 0x16EC JUMP JUMPDEST ISZERO PUSH2 0x1898 JUMPI PUSH1 0x40 MLOAD PUSH4 0x1AED5A85 PUSH1 0xE2 SHL DUP2 MSTORE PUSH1 0x1 PUSH1 0x1 PUSH1 0xA0 SHL SUB DUP5 AND SWAP1 PUSH4 0x6BB56A14 SWAP1 PUSH2 0x17ED SWAP1 PUSH32 0x20804611B3E2EA21C480DC465142210ACF4A2485947541770EC1FB87DEE4A55C SWAP1 DUP6 SWAP1 PUSH1 0x4 ADD PUSH2 0x2674 JUMP JUMPDEST DUP2 PUSH2 0xE32 JUMPI PUSH1 0x1 PUSH1 0x1 PUSH1 0xA0 SHL SUB DUP4 AND EXTCODESIZE ISZERO PUSH2 0x18D1 JUMPI PUSH1 0x40 MLOAD PUSH4 0x53047DDB PUSH1 0xE1 SHL DUP2 MSTORE PUSH1 0x1 PUSH1 0x1 PUSH1 0xA0 SHL SUB DUP5 AND PUSH1 0x4 DUP3 ADD MSTORE PUSH1 0x24 ADD PUSH2 0x1A3 JUMP JUMPDEST PUSH1 0x40 MLOAD PUSH4 0x9B091FD PUSH1 0xE2 SHL DUP2 MSTORE PUSH1 0x1 PUSH1 0x1 PUSH1 0xA0 SHL SUB DUP5 AND PUSH1 0x4 DUP3 ADD MSTORE PUSH1 0x24 ADD PUSH2 0x1A3 JUMP JUMPDEST PUSH2 0xD73 DUP3 PUSH32 0x429AC7A06903DBC9C13DFCB3C9D11DF8194581FA047C96D7A4171FC7402958EA DUP4 PUSH2 0x17A0 JUMP JUMPDEST PUSH32 0x2145E1D6D074577DC71EF54C3807742B41B053A9352AE6B491331509ACB9750F DUP3 ADD PUSH2 0x1960 JUMPI PUSH1 0x40 MLOAD PUSH4 0x85C169BD PUSH1 0xE0 SHL DUP2 MSTORE PUSH1 0x4 ADD PUSH1 0x40 MLOAD DUP1 SWAP2 SUB SWAP1 REVERT JUMPDEST PUSH32 0xD0F59754F88971FE6BC5A6618CC9D5F1E859C58D16B22D1C7B2D3E2B246CD8AA DUP3 ADD PUSH2 0x19A0 JUMPI PUSH1 0x40 MLOAD PUSH4 0xECEAB67 PUSH1 0xE3 SHL DUP2 MSTORE PUSH1 0x4 ADD PUSH1 0x40 MLOAD DUP1 SWAP2 SUB SWAP1 REVERT JUMPDEST PUSH32 0x1FD9E056A24D14C4ABC642FCC325992A946906D0DBC57DD70278AAF12842024D DUP3 ADD PUSH2 0x19E0 JUMPI PUSH1 0x40 MLOAD PUSH4 0x4EF6D7FB PUSH1 0xE0 SHL DUP2 MSTORE PUSH1 0x4 ADD PUSH1 0x40 MLOAD DUP1 SWAP2 SUB SWAP1 REVERT JUMPDEST PUSH1 0x0 DUP3 DUP2 MSTORE PUSH1 0x1 PUSH1 0x20 MSTORE PUSH1 0x40 SWAP1 KECCAK256 PUSH2 0x19F8 DUP3 DUP3 PUSH2 0x2740 JUMP JUMPDEST POP DUP2 PUSH32 0xECE574603820D07BC9B91F2A932BAADF4628AABCB8AFBA49776529C14A6104B2 DUP3 PUSH1 0x40 MLOAD PUSH2 0x1A29 SWAP2 SWAP1 PUSH2 0x210E JUMP JUMPDEST PUSH1 0x40 MLOAD DUP1 SWAP2 SUB SWAP1 LOG2 POP POP JUMP JUMPDEST PUSH1 0x60 DUP2 PUSH1 0x0 ADD DUP1 SLOAD DUP1 PUSH1 0x20 MUL PUSH1 0x20 ADD PUSH1 0x40 MLOAD SWAP1 DUP2 ADD PUSH1 0x40 MSTORE DUP1 SWAP3 SWAP2 SWAP1 DUP2 DUP2 MSTORE PUSH1 0x20 ADD DUP3 DUP1 SLOAD DUP1 ISZERO PUSH2 0x1384 JUMPI PUSH1 0x20 MUL DUP3 ADD SWAP2 SWAP1 PUSH1 0x0 MSTORE PUSH1 0x20 PUSH1 0x0 KECCAK256 SWAP1 JUMPDEST DUP2 SLOAD DUP2 MSTORE PUSH1 0x20 ADD SWAP1 PUSH1 0x1 ADD SWAP1 DUP1 DUP4 GT PUSH2 0x1A71 JUMPI POP POP POP POP POP SWAP1 POP SWAP2 SWAP1 POP JUMP JUMPDEST PUSH1 0x0 DUP2 DUP2 MSTORE PUSH1 0x1 DUP4 ADD PUSH1 0x20 MSTORE PUSH1 0x40 DUP2 KECCAK256 SLOAD PUSH2 0x1AD7 JUMPI POP DUP2 SLOAD PUSH1 0x1 DUP2 DUP2 ADD DUP5 SSTORE PUSH1 0x0 DUP5 DUP2 MSTORE PUSH1 0x20 DUP1 DUP3 KECCAK256 SWAP1 SWAP4 ADD DUP5 SWAP1 SSTORE DUP5 SLOAD DUP5 DUP3 MSTORE DUP3 DUP7 ADD SWAP1 SWAP4 MSTORE PUSH1 0x40 SWAP1 KECCAK256 SWAP2 SWAP1 SWAP2 SSTORE PUSH2 0x660 JUMP JUMPDEST POP PUSH1 0x0 PUSH2 0x660 JUMP JUMPDEST PUSH1 0x0 DUP2 DUP2 MSTORE PUSH1 0x1 DUP4 ADD PUSH1 0x20 MSTORE PUSH1 0x40 DUP2 KECCAK256 SLOAD DUP1 ISZERO PUSH2 0x1BC8 JUMPI PUSH1 0x0 PUSH2 0x1B03 PUSH1 0x1 DUP4 PUSH2 0x263D JUMP JUMPDEST DUP6 SLOAD SWAP1 SWAP2 POP PUSH1 0x0 SWAP1 PUSH2 0x1B17 SWAP1 PUSH1 0x1 SWAP1 PUSH2 0x263D JUMP JUMPDEST SWAP1 POP DUP1 DUP3 EQ PUSH2 0x1B7C JUMPI PUSH1 0x0 DUP7 PUSH1 0x0 ADD DUP3 DUP2 SLOAD DUP2 LT PUSH2 0x1B37 JUMPI PUSH2 0x1B37 PUSH2 0x24BF JUMP JUMPDEST SWAP1 PUSH1 0x0 MSTORE PUSH1 0x20 PUSH1 0x0 KECCAK256 ADD SLOAD SWAP1 POP DUP1 DUP8 PUSH1 0x0 ADD DUP5 DUP2 SLOAD DUP2 LT PUSH2 0x1B5A JUMPI PUSH2 0x1B5A PUSH2 0x24BF JUMP JUMPDEST PUSH1 0x0 SWAP2 DUP3 MSTORE PUSH1 0x20 DUP1 DUP4 KECCAK256 SWAP1 SWAP2 ADD SWAP3 SWAP1 SWAP3 SSTORE SWAP2 DUP3 MSTORE PUSH1 0x1 DUP9 ADD SWAP1 MSTORE PUSH1 0x40 SWAP1 KECCAK256 DUP4 SWAP1 SSTORE JUMPDEST DUP6 SLOAD DUP7 SWAP1 DUP1 PUSH2 0x1B8D JUMPI PUSH2 0x1B8D PUSH2 0x27FF JUMP JUMPDEST PUSH1 0x1 SWAP1 SUB DUP2 DUP2 SWAP1 PUSH1 0x0 MSTORE PUSH1 0x20 PUSH1 0x0 KECCAK256 ADD PUSH1 0x0 SWAP1 SSTORE SWAP1 SSTORE DUP6 PUSH1 0x1 ADD PUSH1 0x0 DUP7 DUP2 MSTORE PUSH1 0x20 ADD SWAP1 DUP2 MSTORE PUSH1 0x20 ADD PUSH1 0x0 KECCAK256 PUSH1 0x0 SWAP1 SSTORE PUSH1 0x1 SWAP4 POP POP POP POP PUSH2 0x660 JUMP JUMPDEST PUSH1 0x0 SWAP2 POP POP PUSH2 0x660 JUMP JUMPDEST PUSH1 0x20 DUP2 MSTORE DUP2 PUSH1 0x20 DUP3 ADD MSTORE DUP2 DUP4 PUSH1 0x40 DUP4 ADD CALLDATACOPY PUSH1 0x0 DUP2 DUP4 ADD PUSH1 0x40 SWAP1 DUP2 ADD SWAP2 SWAP1 SWAP2 MSTORE PUSH1 0x1F SWAP1 SWAP3 ADD PUSH1 0x1F NOT AND ADD ADD SWAP2 SWAP1 POP JUMP JUMPDEST PUSH1 0x0 PUSH1 0x20 DUP3 DUP5 SUB SLT ISZERO PUSH2 0x1C13 JUMPI PUSH1 0x0 DUP1 REVERT JUMPDEST DUP2 CALLDATALOAD PUSH1 0x1 PUSH1 0x1 PUSH1 0xE0 SHL SUB NOT DUP2 AND DUP2 EQ PUSH2 0x105A JUMPI PUSH1 0x0 DUP1 REVERT JUMPDEST DUP1 CALLDATALOAD PUSH1 0x1 PUSH1 0x1 PUSH1 0xA0 SHL SUB DUP2 AND DUP2 EQ PUSH2 0x1C42 JUMPI PUSH1 0x0 DUP1 REVERT JUMPDEST SWAP2 SWAP1 POP JUMP JUMPDEST PUSH4 0x4E487B71 PUSH1 0xE0 SHL PUSH1 0x0 MSTORE PUSH1 0x41 PUSH1 0x4 MSTORE PUSH1 0x24 PUSH1 0x0 REVERT JUMPDEST PUSH1 0x40 MLOAD PUSH1 0x1F DUP3 ADD PUSH1 0x1F NOT AND DUP2 ADD PUSH1 0x1 PUSH1 0x1 PUSH1 0x40 SHL SUB DUP2 GT DUP3 DUP3 LT OR ISZERO PUSH2 0x1C85 JUMPI PUSH2 0x1C85 PUSH2 0x1C47 JUMP JUMPDEST PUSH1 0x40 MSTORE SWAP2 SWAP1 POP JUMP JUMPDEST PUSH1 0x0 PUSH1 0x1 PUSH1 0x1 PUSH1 0x40 SHL SUB DUP3 GT ISZERO PUSH2 0x1CA6 JUMPI PUSH2 0x1CA6 PUSH2 0x1C47 JUMP JUMPDEST POP PUSH1 0x1F ADD PUSH1 0x1F NOT AND PUSH1 0x20 ADD SWAP1 JUMP JUMPDEST PUSH1 0x0 DUP3 PUSH1 0x1F DUP4 ADD SLT PUSH2 0x1CC5 JUMPI PUSH1 0x0 DUP1 REVERT JUMPDEST DUP2 CALLDATALOAD PUSH2 0x1CD8 PUSH2 0x1CD3 DUP3 PUSH2 0x1C8D JUMP JUMPDEST PUSH2 0x1C5D JUMP JUMPDEST DUP2 DUP2 MSTORE DUP5 PUSH1 0x20 DUP4 DUP7 ADD ADD GT ISZERO PUSH2 0x1CED JUMPI PUSH1 0x0 DUP1 REVERT JUMPDEST DUP2 PUSH1 0x20 DUP6 ADD PUSH1 0x20 DUP4 ADD CALLDATACOPY PUSH1 0x0 SWAP2 DUP2 ADD PUSH1 0x20 ADD SWAP2 SWAP1 SWAP2 MSTORE SWAP4 SWAP3 POP POP POP JUMP JUMPDEST PUSH1 0x0 DUP1 PUSH1 0x0 PUSH1 0x60 DUP5 DUP7 SUB SLT ISZERO PUSH2 0x1D1F JUMPI PUSH1 0x0 DUP1 REVERT JUMPDEST PUSH2 0x1D28 DUP5 PUSH2 0x1C2B JUMP JUMPDEST SWAP3 POP PUSH1 0x20 DUP5 ADD CALLDATALOAD SWAP2 POP PUSH1 0x40 DUP5 ADD CALLDATALOAD PUSH1 0x1 PUSH1 0x1 PUSH1 0x40 SHL SUB DUP2 GT ISZERO PUSH2 0x1D4A JUMPI PUSH1 0x0 DUP1 REVERT JUMPDEST PUSH2 0x1D56 DUP7 DUP3 DUP8 ADD PUSH2 0x1CB4 JUMP JUMPDEST SWAP2 POP POP SWAP3 POP SWAP3 POP SWAP3 JUMP JUMPDEST PUSH1 0x0 PUSH1 0x1 PUSH1 0x1 PUSH1 0x40 SHL SUB DUP3 GT ISZERO PUSH2 0x1D79 JUMPI PUSH2 0x1D79 PUSH2 0x1C47 JUMP JUMPDEST POP PUSH1 0x5 SHL PUSH1 0x20 ADD SWAP1 JUMP JUMPDEST PUSH1 0x0 DUP3 PUSH1 0x1F DUP4 ADD SLT PUSH2 0x1D94 JUMPI PUSH1 0x0 DUP1 REVERT JUMPDEST DUP2 CALLDATALOAD PUSH1 0x20 PUSH2 0x1DA4 PUSH2 0x1CD3 DUP4 PUSH2 0x1D60 JUMP JUMPDEST DUP3 DUP2 MSTORE PUSH1 0x5 SWAP3 SWAP1 SWAP3 SHL DUP5 ADD DUP2 ADD SWAP2 DUP2 DUP2 ADD SWAP1 DUP7 DUP5 GT ISZERO PUSH2 0x1DC3 JUMPI PUSH1 0x0 DUP1 REVERT JUMPDEST DUP3 DUP7 ADD JUMPDEST DUP5 DUP2 LT ISZERO PUSH2 0x1DE5 JUMPI PUSH2 0x1DD8 DUP2 PUSH2 0x1C2B JUMP JUMPDEST DUP4 MSTORE SWAP2 DUP4 ADD SWAP2 DUP4 ADD PUSH2 0x1DC7 JUMP JUMPDEST POP SWAP7 SWAP6 POP POP POP POP POP POP JUMP JUMPDEST PUSH1 0x0 DUP3 PUSH1 0x1F DUP4 ADD SLT PUSH2 0x1E01 JUMPI PUSH1 0x0 DUP1 REVERT JUMPDEST DUP2 CALLDATALOAD PUSH1 0x20 PUSH2 0x1E11 PUSH2 0x1CD3 DUP4 PUSH2 0x1D60 JUMP JUMPDEST DUP3 DUP2 MSTORE PUSH1 0x5 SWAP3 SWAP1 SWAP3 SHL DUP5 ADD DUP2 ADD SWAP2 DUP2 DUP2 ADD SWAP1 DUP7 DUP5 GT ISZERO PUSH2 0x1E30 JUMPI PUSH1 0x0 DUP1 REVERT JUMPDEST DUP3 DUP7 ADD JUMPDEST DUP5 DUP2 LT ISZERO PUSH2 0x1DE5 JUMPI DUP1 CALLDATALOAD DUP4 MSTORE SWAP2 DUP4 ADD SWAP2 DUP4 ADD PUSH2 0x1E34 JUMP JUMPDEST DUP1 CALLDATALOAD DUP1 ISZERO ISZERO DUP2 EQ PUSH2 0x1C42 JUMPI PUSH1 0x0 DUP1 REVERT JUMPDEST PUSH1 0x0 DUP3 PUSH1 0x1F DUP4 ADD SLT PUSH2 0x1E6C JUMPI PUSH1 0x0 DUP1 REVERT JUMPDEST DUP2 CALLDATALOAD PUSH1 0x20 PUSH2 0x1E7C PUSH2 0x1CD3 DUP4 PUSH2 0x1D60 JUMP JUMPDEST DUP3 DUP2 MSTORE PUSH1 0x5 SWAP3 SWAP1 SWAP3 SHL DUP5 ADD DUP2 ADD SWAP2 DUP2 DUP2 ADD SWAP1 DUP7 DUP5 GT ISZERO PUSH2 0x1E9B JUMPI PUSH1 0x0 DUP1 REVERT JUMPDEST DUP3 DUP7 ADD JUMPDEST DUP5 DUP2 LT ISZERO PUSH2 0x1DE5 JUMPI PUSH2 0x1EB0 DUP2 PUSH2 0x1E4B JUMP JUMPDEST DUP4 MSTORE SWAP2 DUP4 ADD SWAP2 DUP4 ADD PUSH2 0x1E9F JUMP JUMPDEST PUSH1 0x0 DUP3 PUSH1 0x1F DUP4 ADD SLT PUSH2 0x1ECE JUMPI PUSH1 0x0 DUP1 REVERT JUMPDEST DUP2 CALLDATALOAD PUSH1 0x20 PUSH2 0x1EDE PUSH2 0x1CD3 DUP4 PUSH2 0x1D60 JUMP JUMPDEST DUP3 DUP2 MSTORE PUSH1 0x5 SWAP3 SWAP1 SWAP3 SHL DUP5 ADD DUP2 ADD SWAP2 DUP2 DUP2 ADD SWAP1 DUP7 DUP5 GT ISZERO PUSH2 0x1EFD JUMPI PUSH1 0x0 DUP1 REVERT JUMPDEST DUP3 DUP7 ADD JUMPDEST DUP5 DUP2 LT ISZERO PUSH2 0x1DE5 JUMPI DUP1 CALLDATALOAD PUSH1 0x1 PUSH1 0x1 PUSH1 0x40 SHL SUB DUP2 GT ISZERO PUSH2 0x1F20 JUMPI PUSH1 0x0 DUP1 DUP2 REVERT JUMPDEST PUSH2 0x1F2E DUP10 DUP7 DUP4 DUP12 ADD ADD PUSH2 0x1CB4 JUMP JUMPDEST DUP5 MSTORE POP SWAP2 DUP4 ADD SWAP2 DUP4 ADD PUSH2 0x1F01 JUMP JUMPDEST PUSH1 0x0 DUP1 PUSH1 0x0 DUP1 PUSH1 0x0 PUSH1 0xA0 DUP7 DUP9 SUB SLT ISZERO PUSH2 0x1F54 JUMPI PUSH1 0x0 DUP1 REVERT JUMPDEST DUP6 CALLDATALOAD PUSH1 0x1 PUSH1 0x1 PUSH1 0x40 SHL SUB DUP1 DUP3 GT ISZERO PUSH2 0x1F6B JUMPI PUSH1 0x0 DUP1 REVERT JUMPDEST PUSH2 0x1F77 DUP10 DUP4 DUP11 ADD PUSH2 0x1D83 JUMP JUMPDEST SWAP7 POP PUSH1 0x20 DUP9 ADD CALLDATALOAD SWAP2 POP DUP1 DUP3 GT ISZERO PUSH2 0x1F8D JUMPI PUSH1 0x0 DUP1 REVERT JUMPDEST PUSH2 0x1F99 DUP10 DUP4 DUP11 ADD PUSH2 0x1D83 JUMP JUMPDEST SWAP6 POP PUSH1 0x40 DUP9 ADD CALLDATALOAD SWAP2 POP DUP1 DUP3 GT ISZERO PUSH2 0x1FAF JUMPI PUSH1 0x0 DUP1 REVERT JUMPDEST PUSH2 0x1FBB DUP10 DUP4 DUP11 ADD PUSH2 0x1DF0 JUMP JUMPDEST SWAP5 POP PUSH1 0x60 DUP9 ADD CALLDATALOAD SWAP2 POP DUP1 DUP3 GT ISZERO PUSH2 0x1FD1 JUMPI PUSH1 0x0 DUP1 REVERT JUMPDEST PUSH2 0x1FDD DUP10 DUP4 DUP11 ADD PUSH2 0x1E5B JUMP JUMPDEST SWAP4 POP PUSH1 0x80 DUP9 ADD CALLDATALOAD SWAP2 POP DUP1 DUP3 GT ISZERO PUSH2 0x1FF3 JUMPI PUSH1 0x0 DUP1 REVERT JUMPDEST POP PUSH2 0x2000 DUP9 DUP3 DUP10 ADD PUSH2 0x1EBD JUMP JUMPDEST SWAP2 POP POP SWAP3 SWAP6 POP SWAP3 SWAP6 SWAP1 SWAP4 POP JUMP JUMPDEST PUSH1 0x0 DUP1 PUSH1 0x0 DUP1 PUSH1 0x80 DUP6 DUP8 SUB SLT ISZERO PUSH2 0x2023 JUMPI PUSH1 0x0 DUP1 REVERT JUMPDEST PUSH2 0x202C DUP6 PUSH2 0x1C2B JUMP JUMPDEST SWAP4 POP PUSH2 0x203A PUSH1 0x20 DUP7 ADD PUSH2 0x1C2B JUMP JUMPDEST SWAP3 POP PUSH2 0x2048 PUSH1 0x40 DUP7 ADD PUSH2 0x1E4B JUMP JUMPDEST SWAP2 POP PUSH1 0x60 DUP6 ADD CALLDATALOAD PUSH1 0x1 PUSH1 0x1 PUSH1 0x40 SHL SUB DUP2 GT ISZERO PUSH2 0x2063 JUMPI PUSH1 0x0 DUP1 REVERT JUMPDEST PUSH2 0x206F DUP8 DUP3 DUP9 ADD PUSH2 0x1CB4 JUMP JUMPDEST SWAP2 POP POP SWAP3 SWAP6 SWAP2 SWAP5 POP SWAP3 POP JUMP JUMPDEST PUSH1 0x0 DUP1 PUSH1 0x40 DUP4 DUP6 SUB SLT ISZERO PUSH2 0x208E JUMPI PUSH1 0x0 DUP1 REVERT JUMPDEST PUSH2 0x2097 DUP4 PUSH2 0x1C2B JUMP JUMPDEST SWAP5 PUSH1 0x20 SWAP4 SWAP1 SWAP4 ADD CALLDATALOAD SWAP4 POP POP POP JUMP JUMPDEST PUSH1 0x0 PUSH1 0x20 DUP3 DUP5 SUB SLT ISZERO PUSH2 0x20B7 JUMPI PUSH1 0x0 DUP1 REVERT JUMPDEST POP CALLDATALOAD SWAP2 SWAP1 POP JUMP JUMPDEST PUSH1 0x0 JUMPDEST DUP4 DUP2 LT ISZERO PUSH2 0x20D9 JUMPI DUP2 DUP2 ADD MLOAD DUP4 DUP3 ADD MSTORE PUSH1 0x20 ADD PUSH2 0x20C1 JUMP JUMPDEST POP POP PUSH1 0x0 SWAP2 ADD MSTORE JUMP JUMPDEST PUSH1 0x0 DUP2 MLOAD DUP1 DUP5 MSTORE PUSH2 0x20FA DUP2 PUSH1 0x20 DUP7 ADD PUSH1 0x20 DUP7 ADD PUSH2 0x20BE JUMP JUMPDEST PUSH1 0x1F ADD PUSH1 0x1F NOT AND SWAP3 SWAP1 SWAP3 ADD PUSH1 0x20 ADD SWAP3 SWAP2 POP POP JUMP JUMPDEST PUSH1 0x20 DUP2 MSTORE PUSH1 0x0 PUSH2 0x105A PUSH1 0x20 DUP4 ADD DUP5 PUSH2 0x20E2 JUMP JUMPDEST PUSH1 0x0 DUP1 PUSH1 0x40 DUP4 DUP6 SUB SLT ISZERO PUSH2 0x2134 JUMPI PUSH1 0x0 DUP1 REVERT JUMPDEST PUSH2 0x213D DUP4 PUSH2 0x1C2B JUMP JUMPDEST SWAP2 POP PUSH2 0x214B PUSH1 0x20 DUP5 ADD PUSH2 0x1C2B JUMP JUMPDEST SWAP1 POP SWAP3 POP SWAP3 SWAP1 POP JUMP JUMPDEST PUSH1 0x0 DUP1 PUSH1 0x20 DUP4 DUP6 SUB SLT ISZERO PUSH2 0x2167 JUMPI PUSH1 0x0 DUP1 REVERT JUMPDEST DUP3 CALLDATALOAD PUSH1 0x1 PUSH1 0x1 PUSH1 0x40 SHL SUB DUP1 DUP3 GT ISZERO PUSH2 0x217E JUMPI PUSH1 0x0 DUP1 REVERT JUMPDEST DUP2 DUP6 ADD SWAP2 POP DUP6 PUSH1 0x1F DUP4 ADD SLT PUSH2 0x2192 JUMPI PUSH1 0x0 DUP1 REVERT JUMPDEST DUP2 CALLDATALOAD DUP2 DUP2 GT ISZERO PUSH2 0x21A1 JUMPI PUSH1 0x0 DUP1 REVERT JUMPDEST DUP7 PUSH1 0x20 DUP3 PUSH1 0x5 SHL DUP6 ADD ADD GT ISZERO PUSH2 0x21B6 JUMPI PUSH1 0x0 DUP1 REVERT JUMPDEST PUSH1 0x20 SWAP3 SWAP1 SWAP3 ADD SWAP7 SWAP2 SWAP6 POP SWAP1 SWAP4 POP POP POP POP JUMP JUMPDEST PUSH1 0x0 PUSH1 0x20 DUP1 DUP4 ADD DUP2 DUP5 MSTORE DUP1 DUP6 MLOAD DUP1 DUP4 MSTORE PUSH1 0x40 DUP7 ADD SWAP2 POP PUSH1 0x40 DUP2 PUSH1 0x5 SHL DUP8 ADD ADD SWAP3 POP DUP4 DUP8 ADD PUSH1 0x0 JUMPDEST DUP3 DUP2 LT ISZERO PUSH2 0x221D JUMPI PUSH1 0x3F NOT DUP9 DUP7 SUB ADD DUP5 MSTORE PUSH2 0x220B DUP6 DUP4 MLOAD PUSH2 0x20E2 JUMP JUMPDEST SWAP5 POP SWAP3 DUP6 ADD SWAP3 SWAP1 DUP6 ADD SWAP1 PUSH1 0x1 ADD PUSH2 0x21EF JUMP JUMPDEST POP SWAP3 SWAP8 SWAP7 POP POP POP POP POP POP POP JUMP JUMPDEST PUSH1 0x0 PUSH1 0x20 DUP3 DUP5 SUB SLT ISZERO PUSH2 0x223C JUMPI PUSH1 0x0 DUP1 REVERT JUMPDEST PUSH2 0x105A DUP3 PUSH2 0x1C2B JUMP JUMPDEST PUSH1 0x0 DUP1 PUSH1 0x0 DUP1 PUSH1 0x0 PUSH1 0xA0 DUP7 DUP9 SUB SLT ISZERO PUSH2 0x225D JUMPI PUSH1 0x0 DUP1 REVERT JUMPDEST PUSH2 0x2266 DUP7 PUSH2 0x1C2B JUMP JUMPDEST SWAP5 POP PUSH2 0x2274 PUSH1 0x20 DUP8 ADD PUSH2 0x1C2B JUMP JUMPDEST SWAP4 POP PUSH1 0x40 DUP7 ADD CALLDATALOAD SWAP3 POP PUSH2 0x2289 PUSH1 0x60 DUP8 ADD PUSH2 0x1E4B JUMP JUMPDEST SWAP2 POP PUSH1 0x80 DUP7 ADD CALLDATALOAD PUSH1 0x1 PUSH1 0x1 PUSH1 0x40 SHL SUB DUP2 GT ISZERO PUSH2 0x22A4 JUMPI PUSH1 0x0 DUP1 REVERT JUMPDEST PUSH2 0x2000 DUP9 DUP3 DUP10 ADD PUSH2 0x1CB4 JUMP JUMPDEST PUSH1 0x0 DUP1 PUSH1 0x0 DUP1 PUSH1 0x80 DUP6 DUP8 SUB SLT ISZERO PUSH2 0x22C6 JUMPI PUSH1 0x0 DUP1 REVERT JUMPDEST PUSH2 0x22CF DUP6 PUSH2 0x1C2B JUMP JUMPDEST SWAP4 POP PUSH2 0x22DD PUSH1 0x20 DUP7 ADD PUSH2 0x1C2B JUMP JUMPDEST SWAP3 POP PUSH1 0x40 DUP6 ADD CALLDATALOAD SWAP2 POP PUSH1 0x60 DUP6 ADD CALLDATALOAD PUSH1 0x1 PUSH1 0x1 PUSH1 0x40 SHL SUB DUP2 GT ISZERO PUSH2 0x2063 JUMPI PUSH1 0x0 DUP1 REVERT JUMPDEST PUSH1 0x0 DUP1 PUSH1 0x40 DUP4 DUP6 SUB SLT ISZERO PUSH2 0x2312 JUMPI PUSH1 0x0 DUP1 REVERT JUMPDEST DUP3 CALLDATALOAD SWAP2 POP PUSH1 0x20 DUP4 ADD CALLDATALOAD PUSH1 0x1 PUSH1 0x1 PUSH1 0x40 SHL SUB DUP2 GT ISZERO PUSH2 0x232F JUMPI PUSH1 0x0 DUP1 REVERT JUMPDEST PUSH2 0x233B DUP6 DUP3 DUP7 ADD PUSH2 0x1CB4 JUMP JUMPDEST SWAP2 POP POP SWAP3 POP SWAP3 SWAP1 POP JUMP JUMPDEST PUSH1 0x0 DUP1 PUSH1 0x40 DUP4 DUP6 SUB SLT ISZERO PUSH2 0x2358 JUMPI PUSH1 0x0 DUP1 REVERT JUMPDEST DUP3 CALLDATALOAD PUSH1 0x1 PUSH1 0x1 PUSH1 0x40 SHL SUB DUP1 DUP3 GT ISZERO PUSH2 0x236F JUMPI PUSH1 0x0 DUP1 REVERT JUMPDEST PUSH2 0x237B DUP7 DUP4 DUP8 ADD PUSH2 0x1DF0 JUMP JUMPDEST SWAP4 POP PUSH1 0x20 DUP6 ADD CALLDATALOAD SWAP2 POP DUP1 DUP3 GT ISZERO PUSH2 0x2391 JUMPI PUSH1 0x0 DUP1 REVERT JUMPDEST POP PUSH2 0x233B DUP6 DUP3 DUP7 ADD PUSH2 0x1EBD JUMP JUMPDEST PUSH1 0x20 DUP1 DUP3 MSTORE DUP3 MLOAD DUP3 DUP3 ADD DUP2 SWAP1 MSTORE PUSH1 0x0 SWAP2 SWAP1 DUP5 DUP3 ADD SWAP1 PUSH1 0x40 DUP6 ADD SWAP1 DUP5 JUMPDEST DUP2 DUP2 LT ISZERO PUSH2 0x23DF JUMPI DUP4 MLOAD PUSH1 0x1 PUSH1 0x1 PUSH1 0xA0 SHL SUB AND DUP4 MSTORE SWAP3 DUP5 ADD SWAP3 SWAP2 DUP5 ADD SWAP2 PUSH1 0x1 ADD PUSH2 0x23BA JUMP JUMPDEST POP SWAP1 SWAP7 SWAP6 POP POP POP POP POP POP JUMP JUMPDEST PUSH1 0x0 PUSH1 0x20 DUP3 DUP5 SUB SLT ISZERO PUSH2 0x23FD JUMPI PUSH1 0x0 DUP1 REVERT JUMPDEST DUP2 CALLDATALOAD PUSH1 0x1 PUSH1 0x1 PUSH1 0x40 SHL SUB DUP2 GT ISZERO PUSH2 0x2413 JUMPI PUSH1 0x0 DUP1 REVERT JUMPDEST PUSH2 0x16AF DUP5 DUP3 DUP6 ADD PUSH2 0x1DF0 JUMP JUMPDEST DUP4 DUP6 DUP3 CALLDATACOPY PUSH1 0x60 SWAP3 SWAP1 SWAP3 SHL PUSH1 0x1 PUSH1 0x1 PUSH1 0x60 SHL SUB NOT AND SWAP2 SWAP1 SWAP3 ADD SWAP1 DUP2 MSTORE PUSH1 0x14 DUP2 ADD SWAP2 SWAP1 SWAP2 MSTORE PUSH1 0x34 ADD SWAP2 SWAP1 POP JUMP JUMPDEST PUSH1 0x0 DUP3 MLOAD PUSH2 0x245C DUP2 DUP5 PUSH1 0x20 DUP8 ADD PUSH2 0x20BE JUMP JUMPDEST SWAP2 SWAP1 SWAP2 ADD SWAP3 SWAP2 POP POP JUMP JUMPDEST PUSH4 0x4E487B71 PUSH1 0xE0 SHL PUSH1 0x0 MSTORE PUSH1 0x11 PUSH1 0x4 MSTORE PUSH1 0x24 PUSH1 0x0 REVERT JUMPDEST DUP1 DUP3 ADD DUP1 DUP3 GT ISZERO PUSH2 0x660 JUMPI PUSH2 0x660 PUSH2 0x2466 JUMP JUMPDEST PUSH1 0x1 DUP1 PUSH1 0xA0 SHL SUB DUP5 AND DUP2 MSTORE DUP3 PUSH1 0x20 DUP3 ADD MSTORE PUSH1 0x60 PUSH1 0x40 DUP3 ADD MSTORE PUSH1 0x0 PUSH2 0x24B6 PUSH1 0x60 DUP4 ADD DUP5 PUSH2 0x20E2 JUMP JUMPDEST SWAP6 SWAP5 POP POP POP POP POP JUMP JUMPDEST PUSH4 0x4E487B71 PUSH1 0xE0 SHL PUSH1 0x0 MSTORE PUSH1 0x32 PUSH1 0x4 MSTORE PUSH1 0x24 PUSH1 0x0 REVERT JUMPDEST PUSH1 0x1 PUSH1 0x1 PUSH1 0xA0 SHL SUB DUP5 AND DUP2 MSTORE PUSH1 0xFF DUP4 AND PUSH1 0x20 DUP3 ADD MSTORE PUSH1 0x60 PUSH1 0x40 DUP3 ADD DUP2 SWAP1 MSTORE PUSH1 0x0 SWAP1 PUSH2 0x24B6 SWAP1 DUP4 ADD DUP5 PUSH2 0x20E2 JUMP JUMPDEST DUP1 DUP3 MUL DUP2 ISZERO DUP3 DUP3 DIV DUP5 EQ OR PUSH2 0x660 JUMPI PUSH2 0x660 PUSH2 0x2466 JUMP JUMPDEST PUSH1 0x0 DUP1 DUP4 CALLDATALOAD PUSH1 0x1E NOT DUP5 CALLDATASIZE SUB ADD DUP2 SLT PUSH2 0x2530 JUMPI PUSH1 0x0 DUP1 REVERT JUMPDEST DUP4 ADD DUP1 CALLDATALOAD SWAP2 POP PUSH1 0x1 PUSH1 0x1 PUSH1 0x40 SHL SUB DUP3 GT ISZERO PUSH2 0x254A JUMPI PUSH1 0x0 DUP1 REVERT JUMPDEST PUSH1 0x20 ADD SWAP2 POP CALLDATASIZE DUP2 SWAP1 SUB DUP3 SGT ISZERO PUSH2 0x255F JUMPI PUSH1 0x0 DUP1 REVERT JUMPDEST SWAP3 POP SWAP3 SWAP1 POP JUMP JUMPDEST DUP2 DUP4 DUP3 CALLDATACOPY PUSH1 0x0 SWAP2 ADD SWAP1 DUP2 MSTORE SWAP2 SWAP1 POP JUMP JUMPDEST DUP1 MLOAD PUSH1 0x20 DUP3 ADD MLOAD PUSH1 0x1 PUSH1 0x1 PUSH1 0x60 SHL SUB NOT DUP1 DUP3 AND SWAP3 SWAP2 SWAP1 PUSH1 0x14 DUP4 LT ISZERO PUSH2 0x25A5 JUMPI DUP1 DUP2 DUP5 PUSH1 0x14 SUB PUSH1 0x3 SHL SHL DUP4 AND AND SWAP4 POP JUMPDEST POP POP POP SWAP2 SWAP1 POP JUMP JUMPDEST DUP4 DUP2 MSTORE DUP3 ISZERO ISZERO PUSH1 0x20 DUP3 ADD MSTORE PUSH1 0x60 PUSH1 0x40 DUP3 ADD MSTORE PUSH1 0x0 PUSH2 0x24B6 PUSH1 0x60 DUP4 ADD DUP5 PUSH2 0x20E2 JUMP JUMPDEST PUSH1 0x1 PUSH1 0x1 PUSH1 0xA0 SHL SUB DUP7 DUP2 AND DUP3 MSTORE DUP6 DUP2 AND PUSH1 0x20 DUP4 ADD MSTORE DUP5 AND PUSH1 0x40 DUP3 ADD MSTORE PUSH1 0x60 DUP2 ADD DUP4 SWAP1 MSTORE PUSH1 0xA0 PUSH1 0x80 DUP3 ADD DUP2 SWAP1 MSTORE PUSH1 0x0 SWAP1 PUSH2 0x176B SWAP1 DUP4 ADD DUP5 PUSH2 0x20E2 JUMP JUMPDEST PUSH1 0x1 DUP2 DUP2 SHR SWAP1 DUP3 AND DUP1 PUSH2 0x261D JUMPI PUSH1 0x7F DUP3 AND SWAP2 POP JUMPDEST PUSH1 0x20 DUP3 LT DUP2 SUB PUSH2 0xF3F JUMPI PUSH4 0x4E487B71 PUSH1 0xE0 SHL PUSH1 0x0 MSTORE PUSH1 0x22 PUSH1 0x4 MSTORE PUSH1 0x24 PUSH1 0x0 REVERT JUMPDEST DUP2 DUP2 SUB DUP2 DUP2 GT ISZERO PUSH2 0x660 JUMPI PUSH2 0x660 PUSH2 0x2466 JUMP JUMPDEST DUP1 MLOAD PUSH1 0x20 DUP1 DUP4 ADD MLOAD SWAP2 SWAP1 DUP2 LT ISZERO PUSH2 0xF3F JUMPI PUSH1 0x0 NOT PUSH1 0x20 SWAP2 SWAP1 SWAP2 SUB PUSH1 0x3 SHL SHL AND SWAP2 SWAP1 POP JUMP JUMPDEST DUP3 DUP2 MSTORE PUSH1 0x40 PUSH1 0x20 DUP3 ADD MSTORE PUSH1 0x0 PUSH2 0x16AF PUSH1 0x40 DUP4 ADD DUP5 PUSH2 0x20E2 JUMP JUMPDEST PUSH1 0x0 PUSH1 0x20 DUP3 DUP5 SUB SLT ISZERO PUSH2 0x269F JUMPI PUSH1 0x0 DUP1 REVERT JUMPDEST DUP2 MLOAD PUSH1 0x1 PUSH1 0x1 PUSH1 0x40 SHL SUB DUP2 GT ISZERO PUSH2 0x26B5 JUMPI PUSH1 0x0 DUP1 REVERT JUMPDEST DUP3 ADD PUSH1 0x1F DUP2 ADD DUP5 SGT PUSH2 0x26C6 JUMPI PUSH1 0x0 DUP1 REVERT JUMPDEST DUP1 MLOAD PUSH2 0x26D4 PUSH2 0x1CD3 DUP3 PUSH2 0x1C8D JUMP JUMPDEST DUP2 DUP2 MSTORE DUP6 PUSH1 0x20 DUP4 DUP6 ADD ADD GT ISZERO PUSH2 0x26E9 JUMPI PUSH1 0x0 DUP1 REVERT JUMPDEST PUSH2 0x24B6 DUP3 PUSH1 0x20 DUP4 ADD PUSH1 0x20 DUP7 ADD PUSH2 0x20BE JUMP JUMPDEST PUSH1 0x1F DUP3 GT ISZERO PUSH2 0xE32 JUMPI PUSH1 0x0 DUP2 DUP2 MSTORE PUSH1 0x20 DUP2 KECCAK256 PUSH1 0x1F DUP6 ADD PUSH1 0x5 SHR DUP2 ADD PUSH1 0x20 DUP7 LT ISZERO PUSH2 0x2721 JUMPI POP DUP1 JUMPDEST PUSH1 0x1F DUP6 ADD PUSH1 0x5 SHR DUP3 ADD SWAP2 POP JUMPDEST DUP2 DUP2 LT ISZERO PUSH2 0x722 JUMPI DUP3 DUP2 SSTORE PUSH1 0x1 ADD PUSH2 0x272D JUMP JUMPDEST DUP2 MLOAD PUSH1 0x1 PUSH1 0x1 PUSH1 0x40 SHL SUB DUP2 GT ISZERO PUSH2 0x2759 JUMPI PUSH2 0x2759 PUSH2 0x1C47 JUMP JUMPDEST PUSH2 0x276D DUP2 PUSH2 0x2767 DUP5 SLOAD PUSH2 0x2609 JUMP JUMPDEST DUP5 PUSH2 0x26FA JUMP JUMPDEST PUSH1 0x20 DUP1 PUSH1 0x1F DUP4 GT PUSH1 0x1 DUP2 EQ PUSH2 0x27A2 JUMPI PUSH1 0x0 DUP5 ISZERO PUSH2 0x278A JUMPI POP DUP6 DUP4 ADD MLOAD JUMPDEST PUSH1 0x0 NOT PUSH1 0x3 DUP7 SWAP1 SHL SHR NOT AND PUSH1 0x1 DUP6 SWAP1 SHL OR DUP6 SSTORE PUSH2 0x722 JUMP JUMPDEST PUSH1 0x0 DUP6 DUP2 MSTORE PUSH1 0x20 DUP2 KECCAK256 PUSH1 0x1F NOT DUP7 AND SWAP2 JUMPDEST DUP3 DUP2 LT ISZERO PUSH2 0x27D1 JUMPI DUP9 DUP7 ADD MLOAD DUP3 SSTORE SWAP5 DUP5 ADD SWAP5 PUSH1 0x1 SWAP1 SWAP2 ADD SWAP1 DUP5 ADD PUSH2 0x27B2 JUMP JUMPDEST POP DUP6 DUP3 LT ISZERO PUSH2 0x27EF JUMPI DUP8 DUP6 ADD MLOAD PUSH1 0x0 NOT PUSH1 0x3 DUP9 SWAP1 SHL PUSH1 0xF8 AND SHR NOT AND DUP2 SSTORE JUMPDEST POP POP POP POP POP PUSH1 0x1 SWAP1 DUP2 SHL ADD SWAP1 SSTORE POP JUMP JUMPDEST PUSH4 0x4E487B71 PUSH1 0xE0 SHL PUSH1 0x0 MSTORE PUSH1 0x31 PUSH1 0x4 MSTORE PUSH1 0x24 PUSH1 0x0 REVERT INVALID LOG2 PUSH5 0x6970667358 0x22 SLT KECCAK256 0x4A PC 0xD7 0xCB 0xBF DUP16 SHL 0xC5 0xC5 0xA6 0xE6 0x4D LOG0 ADDRESS 0xC4 PUSH19 0x713123BD096C5C320600EDB139C16D3564736F PUSH13 0x63430008140033000000000000 "},"gasEstimates":{"creation":{"codeDepositCost":"2063000","executionCost":"infinite","totalCost":"infinite"},"external":{"":"infinite","MAX_MINT()":"283","MAX_SUPPLY()":"218","authorizeOperator(address,uint256,bytes)":"infinite","authorizedAmountFor(address,address)":"infinite","balanceOf(address)":"2670","batchCalls(bytes[])":"infinite","decimals()":"2481","decreaseAllowance(address,address,uint256,bytes)":"infinite","getData(bytes32)":"infinite","getDataBatch(bytes32[])":"infinite","getOperatorsOf(address)":"infinite","getPrice()":"infinite","getPrizePool()":"infinite","increaseAllowance(address,uint256,bytes)":"infinite","mint(address,uint256)":"infinite","owner()":"2464","renounceOwnership()":"infinite","revokeOperator(address,address,bool,bytes)":"infinite","setData(bytes32,bytes)":"infinite","setDataBatch(bytes32[],bytes[])":"infinite","supportsInterface(bytes4)":"infinite","totalSupply()":"2327","transfer(address,address,uint256,bool,bytes)":"infinite","transferBatch(address[],address[],uint256[],bool[],bytes[])":"infinite","transferOwnership(address)":"32738"}},"methodIdentifiers":{"MAX_MINT()":"f0292a03","MAX_SUPPLY()":"32cb6b0c","authorizeOperator(address,uint256,bytes)":"b49506fd","authorizedAmountFor(address,address)":"65aeaa95","balanceOf(address)":"70a08231","batchCalls(bytes[])":"6963d438","decimals()":"313ce567","decreaseAllowance(address,address,uint256,bytes)":"78381670","getData(bytes32)":"54f6127f","getDataBatch(bytes32[])":"dedff9c6","getOperatorsOf(address)":"d72fc29a","getPrice()":"98d5fdca","getPrizePool()":"884bf67c","increaseAllowance(address,uint256,bytes)":"2bc1da82","mint(address,uint256)":"40c10f19","owner()":"8da5cb5b","renounceOwnership()":"715018a6","revokeOperator(address,address,bool,bytes)":"30d0dc37","setData(bytes32,bytes)":"7f23690c","setDataBatch(bytes32[],bytes[])":"97902421","supportsInterface(bytes4)":"01ffc9a7","totalSupply()":"18160ddd","transfer(address,address,uint256,bool,bytes)":"760d9bba","transferBatch(address[],address[],uint256[],bool[],bytes[])":"2d7667c9","transferOwnership(address)":"f2fde38b"}},"storageLayout":{"storage":[{"astId":301,"contract":"contracts/tokens/Tickets.sol:Tickets","label":"_owner","offset":0,"slot":"0","type":"t_address"},{"astId":63,"contract":"contracts/tokens/Tickets.sol:Tickets","label":"_store","offset":0,"slot":"1","type":"t_mapping(t_bytes32,t_bytes_storage)"},{"astId":2192,"contract":"contracts/tokens/Tickets.sol:Tickets","label":"_isNonDivisible","offset":0,"slot":"2","type":"t_bool"},{"astId":2194,"contract":"contracts/tokens/Tickets.sol:Tickets","label":"_existingTokens","offset":0,"slot":"3","type":"t_uint256"},{"astId":2198,"contract":"contracts/tokens/Tickets.sol:Tickets","label":"_tokenOwnerBalances","offset":0,"slot":"4","type":"t_mapping(t_address,t_uint256)"},{"astId":2203,"contract":"contracts/tokens/Tickets.sol:Tickets","label":"_operators","offset":0,"slot":"5","type":"t_mapping(t_address,t_struct(AddressSet)3866_storage)"},{"astId":2209,"contract":"contracts/tokens/Tickets.sol:Tickets","label":"_operatorAuthorizedAmount","offset":0,"slot":"6","type":"t_mapping(t_address,t_mapping(t_address,t_uint256))"}],"types":{"t_address":{"encoding":"inplace","label":"address","numberOfBytes":"20"},"t_array(t_bytes32)dyn_storage":{"base":"t_bytes32","encoding":"dynamic_array","label":"bytes32[]","numberOfBytes":"32"},"t_bool":{"encoding":"inplace","label":"bool","numberOfBytes":"1"},"t_bytes32":{"encoding":"inplace","label":"bytes32","numberOfBytes":"32"},"t_bytes_storage":{"encoding":"bytes","label":"bytes","numberOfBytes":"32"},"t_mapping(t_address,t_mapping(t_address,t_uint256))":{"encoding":"mapping","key":"t_address","label":"mapping(address => mapping(address => uint256))","numberOfBytes":"32","value":"t_mapping(t_address,t_uint256)"},"t_mapping(t_address,t_struct(AddressSet)3866_storage)":{"encoding":"mapping","key":"t_address","label":"mapping(address => struct EnumerableSet.AddressSet)","numberOfBytes":"32","value":"t_struct(AddressSet)3866_storage"},"t_mapping(t_address,t_uint256)":{"encoding":"mapping","key":"t_address","label":"mapping(address => uint256)","numberOfBytes":"32","value":"t_uint256"},"t_mapping(t_bytes32,t_bytes_storage)":{"encoding":"mapping","key":"t_bytes32","label":"mapping(bytes32 => bytes)","numberOfBytes":"32","value":"t_bytes_storage"},"t_mapping(t_bytes32,t_uint256)":{"encoding":"mapping","key":"t_bytes32","label":"mapping(bytes32 => uint256)","numberOfBytes":"32","value":"t_uint256"},"t_struct(AddressSet)3866_storage":{"encoding":"inplace","label":"struct EnumerableSet.AddressSet","members":[{"astId":3865,"contract":"contracts/tokens/Tickets.sol:Tickets","label":"_inner","offset":0,"slot":"0","type":"t_struct(Set)3551_storage"}],"numberOfBytes":"64"},"t_struct(Set)3551_storage":{"encoding":"inplace","label":"struct EnumerableSet.Set","members":[{"astId":3546,"contract":"contracts/tokens/Tickets.sol:Tickets","label":"_values","offset":0,"slot":"0","type":"t_array(t_bytes32)dyn_storage"},{"astId":3550,"contract":"contracts/tokens/Tickets.sol:Tickets","label":"_positions","offset":0,"slot":"1","type":"t_mapping(t_bytes32,t_uint256)"}],"numberOfBytes":"64"},"t_uint256":{"encoding":"inplace","label":"uint256","numberOfBytes":"32"}}},"userdoc":{"errors":{"LSP7BatchCallFailed(uint256)":[{"notice":"Batch call failed."}],"LSP7TokenContractCannotHoldValue()":[{"notice":"LSP7 contract cannot receive native tokens."}]},"events":{"DataChanged(bytes32,bytes)":{"notice":"The following data key/value pair has been changed in the ERC725Y storage: Data key: `dataKey`, data value: `dataValue`."}},"kind":"user","methods":{"batchCalls(bytes[])":{"notice":"Executing the following batch of abi-encoded function calls on the contract: `data`."},"decreaseAllowance(address,address,uint256,bytes)":{"notice":"Decrease the allowance of `operator` by -`subtractedAmount`"},"getData(bytes32)":{"notice":"Reading the ERC725Y storage for data key `dataKey` returned the following value: `dataValue`."},"getDataBatch(bytes32[])":{"notice":"Reading the ERC725Y storage for data keys `dataKeys` returned the following values: `dataValues`."},"increaseAllowance(address,uint256,bytes)":{"notice":"Increase the allowance of `operator` by +`addedAmount`"},"setData(bytes32,bytes)":{"notice":"Setting the following data key value pair in the ERC725Y storage. Data key: `dataKey`, data value: `dataValue`."},"setDataBatch(bytes32[],bytes[])":{"notice":"Setting the following data key value pairs in the ERC725Y storage. Data keys: `dataKeys`, data values: `dataValues`."}},"version":1}}}}