{"contracts/EurocupLegends.sol":{"EurocupLegends":{"abi":[{"inputs":[{"components":[{"internalType":"address","name":"creator","type":"address"},{"internalType":"uint256","name":"share","type":"uint256"}],"internalType":"struct IEurocupLegends.Creator[]","name":"_creators","type":"tuple[]"},{"internalType":"address","name":"_owner","type":"address"}],"stateMutability":"nonpayable","type":"constructor"},{"inputs":[],"name":"AlreadyClaimedPrize","type":"error"},{"inputs":[{"internalType":"address","name":"_creators","type":"address"},{"internalType":"uint256","name":"_amount","type":"uint256"}],"name":"FeeTransferFailed","type":"error"},{"inputs":[],"name":"NoPrizeForThisTicket","type":"error"},{"inputs":[],"name":"NoTickets","type":"error"},{"inputs":[],"name":"NoWinnersYet","type":"error"},{"inputs":[{"internalType":"address","name":"owner","type":"address"}],"name":"OwnableInvalidOwner","type":"error"},{"inputs":[{"internalType":"address","name":"account","type":"address"}],"name":"OwnableUnauthorizedAccount","type":"error"},{"inputs":[],"name":"TransferFailed","type":"error"},{"inputs":[],"name":"ZeroAddress","type":"error"},{"anonymous":false,"inputs":[{"indexed":true,"internalType":"address","name":"previousOwner","type":"address"},{"indexed":true,"internalType":"address","name":"newOwner","type":"address"}],"name":"OwnershipTransferred","type":"event"},{"anonymous":false,"inputs":[{"indexed":false,"internalType":"address","name":"owner","type":"address"},{"indexed":false,"internalType":"uint256","name":"prize","type":"uint256"}],"name":"PrizeClaimed","type":"event"},{"anonymous":false,"inputs":[{"indexed":false,"internalType":"address[3]","name":"winners","type":"address[3]"}],"name":"WinnersSet","type":"event"},{"stateMutability":"payable","type":"fallback"},{"inputs":[],"name":"FEE_PERCENTAGE","outputs":[{"internalType":"uint256","name":"","type":"uint256"}],"stateMutability":"view","type":"function"},{"inputs":[],"name":"MAX_WINNERS","outputs":[{"internalType":"uint256","name":"","type":"uint256"}],"stateMutability":"view","type":"function"},{"inputs":[],"name":"SHARE_PRECISION","outputs":[{"internalType":"uint256","name":"","type":"uint256"}],"stateMutability":"view","type":"function"},{"inputs":[{"internalType":"address","name":"_ticket","type":"address"}],"name":"claimPrize","outputs":[],"stateMutability":"nonpayable","type":"function"},{"inputs":[],"name":"getCreators","outputs":[{"components":[{"internalType":"address","name":"creator","type":"address"},{"internalType":"uint256","name":"share","type":"uint256"}],"internalType":"struct IEurocupLegends.Creator[]","name":"","type":"tuple[]"}],"stateMutability":"view","type":"function"},{"inputs":[{"internalType":"address","name":"_user","type":"address"},{"internalType":"address","name":"_ticket","type":"address"}],"name":"getPrize","outputs":[{"internalType":"uint256","name":"","type":"uint256"}],"stateMutability":"view","type":"function"},{"inputs":[{"internalType":"address","name":"_ticket","type":"address"}],"name":"getTicketPrize","outputs":[{"internalType":"uint256","name":"","type":"uint256"}],"stateMutability":"view","type":"function"},{"inputs":[],"name":"getWinners","outputs":[{"internalType":"address[3]","name":"","type":"address[3]"}],"stateMutability":"view","type":"function"},{"inputs":[{"internalType":"address","name":"_user","type":"address"},{"internalType":"address","name":"_ticket","type":"address"}],"name":"isClaimed","outputs":[{"internalType":"bool","name":"","type":"bool"}],"stateMutability":"view","type":"function"},{"inputs":[],"name":"owner","outputs":[{"internalType":"address","name":"","type":"address"}],"stateMutability":"view","type":"function"},{"inputs":[],"name":"renounceOwnership","outputs":[],"stateMutability":"nonpayable","type":"function"},{"inputs":[{"internalType":"address[3]","name":"_winners","type":"address[3]"},{"internalType":"uint256[3]","name":"_share","type":"uint256[3]"}],"name":"setWinners","outputs":[],"stateMutability":"nonpayable","type":"function"},{"inputs":[{"internalType":"address","name":"newOwner","type":"address"}],"name":"transferOwnership","outputs":[],"stateMutability":"nonpayable","type":"function"},{"stateMutability":"payable","type":"receive"}],"devdoc":{"errors":{"OwnableInvalidOwner(address)":[{"details":"The owner is not a valid owner account. (eg. `address(0)`)"}],"OwnableUnauthorizedAccount(address)":[{"details":"The caller account is not authorized to perform an operation."}]},"kind":"dev","methods":{"owner()":{"details":"Returns the address of the current owner."},"renounceOwnership()":{"details":"Leaves the contract without owner. It will not be possible to call `onlyOwner` functions. Can only be called by the current owner. NOTE: Renouncing ownership will leave the contract without an owner, thereby disabling any functionality that is only available to the owner."},"transferOwnership(address)":{"details":"Transfers ownership of the contract to a new account (`newOwner`). Can only be called by the current owner."}},"version":1},"evm":{"bytecode":{"linkReferences":{},"object":"60806040523480156200001157600080fd5b5060405162000efc38038062000efc8339810160408190526200003491620001dc565b806001600160a01b0381166200006457604051631e4fbdf760e01b81526000600482015260240160405180910390fd5b6200006f81620000fb565b5060005b8251811015620000f2576001838281518110620000945762000094620002d1565b602090810291909101810151825460018082018555600094855293839020825160029092020180546001600160a01b0319166001600160a01b0390921691909117815591015191015580620000e981620002e7565b91505062000073565b5050506200030f565b600080546001600160a01b038381166001600160a01b0319831681178455604051919092169283917f8be0079c531659141344cd1fd0a4f28419497f9722a3daafe3b4186f6b6457e09190a35050565b634e487b7160e01b600052604160045260246000fd5b604080519081016001600160401b03811182821017156200018657620001866200014b565b60405290565b604051601f8201601f191681016001600160401b0381118282101715620001b757620001b76200014b565b604052919050565b80516001600160a01b0381168114620001d757600080fd5b919050565b6000806040808486031215620001f157600080fd5b83516001600160401b03808211156200020957600080fd5b818601915086601f8301126200021e57600080fd5b81516020828211156200023557620002356200014b565b62000245818360051b016200018c565b828152818101935060069290921b8401810191898311156200026657600080fd5b938101935b82851015620002b45785858b031215620002855760008081fd5b6200028f62000161565b6200029a86620001bf565b81528583015183820152845293850193928101926200026b565b9650620002c3888201620001bf565b955050505050509250929050565b634e487b7160e01b600052603260045260246000fd5b6000600182016200030857634e487b7160e01b600052601160045260246000fd5b5060010190565b610bdd806200031f6000396000f3fe6080604052600436106100c55760003560e01c80638da5cb5b1161007f578063df15c37e11610059578063df15c37e1461023c578063e5e9b6611461025e578063e6adc1ee1461027e578063f2fde38b146102a0576100d5565b80638da5cb5b146101855780639966db94146101ad578063a4df0758146101e3576100d5565b80620b46f8146100de57806329a62a76146101065780635fc5e0201461011b578063715018a61461013057806376602f2f146101455780637eef250914610165576100d5565b366100d5576100d3346102c0565b005b6100d3346102c0565b3480156100ea57600080fd5b506100f3601981565b6040519081526020015b60405180910390f35b34801561011257600080fd5b506100f3600381565b34801561012757600080fd5b506100f3606481565b34801561013c57600080fd5b506100d36103fa565b34801561015157600080fd5b506100d3610160366004610995565b61040e565b34801561017157600080fd5b506100f36101803660046109e6565b610512565b34801561019157600080fd5b506000546040516001600160a01b0390911681526020016100fd565b3480156101b957600080fd5b506100f36101c8366004610a10565b6001600160a01b031660009081526005602052604090205490565b3480156101ef57600080fd5b5061022c6101fe3660046109e6565b6001600160a01b03918216600090815260066020908152604080832093909416825291909152205460ff1690565b60405190151581526020016100fd565b34801561024857600080fd5b5061025161063b565b6040516100fd9190610a32565b34801561026a57600080fd5b506100d3610279366004610a10565b610680565b34801561028a57600080fd5b50610293610836565b6040516100fd9190610a6c565b3480156102ac57600080fd5b506100d36102bb366004610a10565b6108ab565b600060646102cf601984610ada565b6102d99190610af1565b60015490915060005b818110156103f4576000600182815481106102ff576102ff610b13565b600091825260208083206040805180820190915260029093020180546001600160a01b03168352600101549082018190529092506064906103409087610ada565b61034a9190610af1565b9050600082600001516001600160a01b03168260405160006040518083038185875af1925050503d806000811461039d576040519150601f19603f3d011682016040523d82523d6000602084013e6103a2565b606091505b50509050806103de57825160405163373a7d4360e11b81526001600160a01b039091166004820152602481018390526044015b60405180910390fd5b50505080806103ec90610b29565b9150506102e2565b50505050565b6104026108e9565b61040c6000610916565b565b6104166108e9565b60034760005b60038110156104d457600085826003811061043957610439610b13565b60200201602081019061044c9190610a10565b90506000606486846003811061046457610464610b13565b6020020135856104749190610ada565b61047e9190610af1565b9050816002846003811061049457610494610b13565b0180546001600160a01b0319166001600160a01b0392831617905591909116600090815260056020526040902055806104cc81610b29565b91505061041c565b507f60f4d73182a956a559d177842626b4743585a36652a74d3eb1500e4479ac06ea846040516105049190610b42565b60405180910390a150505050565b6001600160a01b038181166000818152600560205260408082205490516370a0823160e01b815293861660048501529092909183916370a0823190602401602060405180830381865afa15801561056d573d6000803e3d6000fd5b505050506040513d601f19601f820116820180604052508101906105919190610b7b565b90506000846001600160a01b03166318160ddd6040518163ffffffff1660e01b8152600401602060405180830381865afa1580156105d3573d6000803e3d6000fd5b505050506040513d601f19601f820116820180604052508101906105f79190610b7b565b90508160000361061a576040516366f3ef9b60e01b815260040160405180910390fd5b806106258484610ada565b61062f9190610af1565b93505050505b92915050565b610643610966565b6040805160608101918290529060029060039082845b81546001600160a01b03168152600190910190602001808311610659575050505050905090565b6001600160a01b0381166106a75760405163d92e233d60e01b815260040160405180910390fd5b6001600160a01b03811660009081526005602052604081205490036106df5760405163d937573f60e01b815260040160405180910390fd5b3360009081526006602090815260408083206001600160a01b038516845290915290205460ff16156107245760405163048798a960e41b815260040160405180910390fd5b60006107303383610512565b6001600160a01b038316600090815260056020526040902054909150610757908290610b94565b6001600160a01b0383166000818152600560209081526040808320949094553380835260068252848320938352929052828120805460ff19166001179055915183908381818185875af1925050503d80600081146107d1576040519150601f19603f3d011682016040523d82523d6000602084013e6107d6565b606091505b50509050806107f8576040516312171d8360e31b815260040160405180910390fd5b60408051338152602081018490527f95681e512bc0fe659e195e06c283eada494316f3d801213e48e7101af92bf770910160405180910390a1505050565b60606001805480602002602001604051908101604052809291908181526020016000905b828210156108a2576000848152602090819020604080518082019091526002850290910180546001600160a01b0316825260019081015482840152908352909201910161085a565b50505050905090565b6108b36108e9565b6001600160a01b0381166108dd57604051631e4fbdf760e01b8152600060048201526024016103d5565b6108e681610916565b50565b6000546001600160a01b0316331461040c5760405163118cdaa760e01b81523360048201526024016103d5565b600080546001600160a01b038381166001600160a01b0319831681178455604051919092169283917f8be0079c531659141344cd1fd0a4f28419497f9722a3daafe3b4186f6b6457e09190a35050565b60405180606001604052806003906020820280368337509192915050565b806060810183101561063557600080fd5b60008060c083850312156109a857600080fd5b6109b28484610984565b91506109c18460608501610984565b90509250929050565b80356001600160a01b03811681146109e157600080fd5b919050565b600080604083850312156109f957600080fd5b610a02836109ca565b91506109c1602084016109ca565b600060208284031215610a2257600080fd5b610a2b826109ca565b9392505050565b60608101818360005b6003811015610a635781516001600160a01b0316835260209283019290910190600101610a3b565b50505092915050565b602080825282518282018190526000919060409081850190868401855b82811015610ab757815180516001600160a01b03168552860151868501529284019290850190600101610a89565b5091979650505050505050565b634e487b7160e01b600052601160045260246000fd5b808202811582820484141761063557610635610ac4565b600082610b0e57634e487b7160e01b600052601260045260246000fd5b500490565b634e487b7160e01b600052603260045260246000fd5b600060018201610b3b57610b3b610ac4565b5060010190565b60608101818360005b6003811015610a63576001600160a01b03610b65836109ca565b1683526020928301929190910190600101610b4b565b600060208284031215610b8d57600080fd5b5051919050565b8181038181111561063557610635610ac456fea26469706673582212209cb4fa9e666f02d1a59f99a2dc0981ad05c0b0a897a4d0f29990a9e83f8eb94d64736f6c63430008140033","opcodes":"PUSH1 0x80 PUSH1 0x40 MSTORE CALLVALUE DUP1 ISZERO PUSH3 0x11 JUMPI PUSH1 0x0 DUP1 REVERT JUMPDEST POP PUSH1 0x40 MLOAD PUSH3 0xEFC CODESIZE SUB DUP1 PUSH3 0xEFC DUP4 CODECOPY DUP2 ADD PUSH1 0x40 DUP2 SWAP1 MSTORE PUSH3 0x34 SWAP2 PUSH3 0x1DC JUMP JUMPDEST DUP1 PUSH1 0x1 PUSH1 0x1 PUSH1 0xA0 SHL SUB DUP2 AND PUSH3 0x64 JUMPI PUSH1 0x40 MLOAD PUSH4 0x1E4FBDF7 PUSH1 0xE0 SHL DUP2 MSTORE PUSH1 0x0 PUSH1 0x4 DUP3 ADD MSTORE PUSH1 0x24 ADD PUSH1 0x40 MLOAD DUP1 SWAP2 SUB SWAP1 REVERT JUMPDEST PUSH3 0x6F DUP2 PUSH3 0xFB JUMP JUMPDEST POP PUSH1 0x0 JUMPDEST DUP3 MLOAD DUP2 LT ISZERO PUSH3 0xF2 JUMPI PUSH1 0x1 DUP4 DUP3 DUP2 MLOAD DUP2 LT PUSH3 0x94 JUMPI PUSH3 0x94 PUSH3 0x2D1 JUMP JUMPDEST PUSH1 0x20 SWAP1 DUP2 MUL SWAP2 SWAP1 SWAP2 ADD DUP2 ADD MLOAD DUP3 SLOAD PUSH1 0x1 DUP1 DUP3 ADD DUP6 SSTORE PUSH1 0x0 SWAP5 DUP6 MSTORE SWAP4 DUP4 SWAP1 KECCAK256 DUP3 MLOAD PUSH1 0x2 SWAP1 SWAP3 MUL ADD DUP1 SLOAD PUSH1 0x1 PUSH1 0x1 PUSH1 0xA0 SHL SUB NOT AND PUSH1 0x1 PUSH1 0x1 PUSH1 0xA0 SHL SUB SWAP1 SWAP3 AND SWAP2 SWAP1 SWAP2 OR DUP2 SSTORE SWAP2 ADD MLOAD SWAP2 ADD SSTORE DUP1 PUSH3 0xE9 DUP2 PUSH3 0x2E7 JUMP JUMPDEST SWAP2 POP POP PUSH3 0x73 JUMP JUMPDEST POP POP POP PUSH3 0x30F JUMP JUMPDEST PUSH1 0x0 DUP1 SLOAD PUSH1 0x1 PUSH1 0x1 PUSH1 0xA0 SHL SUB DUP4 DUP2 AND PUSH1 0x1 PUSH1 0x1 PUSH1 0xA0 SHL SUB NOT DUP4 AND DUP2 OR DUP5 SSTORE PUSH1 0x40 MLOAD SWAP2 SWAP1 SWAP3 AND SWAP3 DUP4 SWAP2 PUSH32 0x8BE0079C531659141344CD1FD0A4F28419497F9722A3DAAFE3B4186F6B6457E0 SWAP2 SWAP1 LOG3 POP POP JUMP JUMPDEST PUSH4 0x4E487B71 PUSH1 0xE0 SHL PUSH1 0x0 MSTORE PUSH1 0x41 PUSH1 0x4 MSTORE PUSH1 0x24 PUSH1 0x0 REVERT JUMPDEST PUSH1 0x40 DUP1 MLOAD SWAP1 DUP2 ADD PUSH1 0x1 PUSH1 0x1 PUSH1 0x40 SHL SUB DUP2 GT DUP3 DUP3 LT OR ISZERO PUSH3 0x186 JUMPI PUSH3 0x186 PUSH3 0x14B JUMP JUMPDEST PUSH1 0x40 MSTORE SWAP1 JUMP JUMPDEST PUSH1 0x40 MLOAD PUSH1 0x1F DUP3 ADD PUSH1 0x1F NOT AND DUP2 ADD PUSH1 0x1 PUSH1 0x1 PUSH1 0x40 SHL SUB DUP2 GT DUP3 DUP3 LT OR ISZERO PUSH3 0x1B7 JUMPI PUSH3 0x1B7 PUSH3 0x14B JUMP JUMPDEST PUSH1 0x40 MSTORE SWAP2 SWAP1 POP JUMP JUMPDEST DUP1 MLOAD PUSH1 0x1 PUSH1 0x1 PUSH1 0xA0 SHL SUB DUP2 AND DUP2 EQ PUSH3 0x1D7 JUMPI PUSH1 0x0 DUP1 REVERT JUMPDEST SWAP2 SWAP1 POP JUMP JUMPDEST PUSH1 0x0 DUP1 PUSH1 0x40 DUP1 DUP5 DUP7 SUB SLT ISZERO PUSH3 0x1F1 JUMPI PUSH1 0x0 DUP1 REVERT JUMPDEST DUP4 MLOAD PUSH1 0x1 PUSH1 0x1 PUSH1 0x40 SHL SUB DUP1 DUP3 GT ISZERO PUSH3 0x209 JUMPI PUSH1 0x0 DUP1 REVERT JUMPDEST DUP2 DUP7 ADD SWAP2 POP DUP7 PUSH1 0x1F DUP4 ADD SLT PUSH3 0x21E JUMPI PUSH1 0x0 DUP1 REVERT JUMPDEST DUP2 MLOAD PUSH1 0x20 DUP3 DUP3 GT ISZERO PUSH3 0x235 JUMPI PUSH3 0x235 PUSH3 0x14B JUMP JUMPDEST PUSH3 0x245 DUP2 DUP4 PUSH1 0x5 SHL ADD PUSH3 0x18C JUMP JUMPDEST DUP3 DUP2 MSTORE DUP2 DUP2 ADD SWAP4 POP PUSH1 0x6 SWAP3 SWAP1 SWAP3 SHL DUP5 ADD DUP2 ADD SWAP2 DUP10 DUP4 GT ISZERO PUSH3 0x266 JUMPI PUSH1 0x0 DUP1 REVERT JUMPDEST SWAP4 DUP2 ADD SWAP4 JUMPDEST DUP3 DUP6 LT ISZERO PUSH3 0x2B4 JUMPI DUP6 DUP6 DUP12 SUB SLT ISZERO PUSH3 0x285 JUMPI PUSH1 0x0 DUP1 DUP2 REVERT JUMPDEST PUSH3 0x28F PUSH3 0x161 JUMP JUMPDEST PUSH3 0x29A DUP7 PUSH3 0x1BF JUMP JUMPDEST DUP2 MSTORE DUP6 DUP4 ADD MLOAD DUP4 DUP3 ADD MSTORE DUP5 MSTORE SWAP4 DUP6 ADD SWAP4 SWAP3 DUP2 ADD SWAP3 PUSH3 0x26B JUMP JUMPDEST SWAP7 POP PUSH3 0x2C3 DUP9 DUP3 ADD PUSH3 0x1BF JUMP JUMPDEST SWAP6 POP POP POP POP POP POP SWAP3 POP SWAP3 SWAP1 POP JUMP JUMPDEST PUSH4 0x4E487B71 PUSH1 0xE0 SHL PUSH1 0x0 MSTORE PUSH1 0x32 PUSH1 0x4 MSTORE PUSH1 0x24 PUSH1 0x0 REVERT JUMPDEST PUSH1 0x0 PUSH1 0x1 DUP3 ADD PUSH3 0x308 JUMPI PUSH4 0x4E487B71 PUSH1 0xE0 SHL PUSH1 0x0 MSTORE PUSH1 0x11 PUSH1 0x4 MSTORE PUSH1 0x24 PUSH1 0x0 REVERT JUMPDEST POP PUSH1 0x1 ADD SWAP1 JUMP JUMPDEST PUSH2 0xBDD DUP1 PUSH3 0x31F PUSH1 0x0 CODECOPY PUSH1 0x0 RETURN INVALID PUSH1 0x80 PUSH1 0x40 MSTORE PUSH1 0x4 CALLDATASIZE LT PUSH2 0xC5 JUMPI PUSH1 0x0 CALLDATALOAD PUSH1 0xE0 SHR DUP1 PUSH4 0x8DA5CB5B GT PUSH2 0x7F JUMPI DUP1 PUSH4 0xDF15C37E GT PUSH2 0x59 JUMPI DUP1 PUSH4 0xDF15C37E EQ PUSH2 0x23C JUMPI DUP1 PUSH4 0xE5E9B661 EQ PUSH2 0x25E JUMPI DUP1 PUSH4 0xE6ADC1EE EQ PUSH2 0x27E JUMPI DUP1 PUSH4 0xF2FDE38B EQ PUSH2 0x2A0 JUMPI PUSH2 0xD5 JUMP JUMPDEST DUP1 PUSH4 0x8DA5CB5B EQ PUSH2 0x185 JUMPI DUP1 PUSH4 0x9966DB94 EQ PUSH2 0x1AD JUMPI DUP1 PUSH4 0xA4DF0758 EQ PUSH2 0x1E3 JUMPI PUSH2 0xD5 JUMP JUMPDEST DUP1 PUSH3 0xB46F8 EQ PUSH2 0xDE JUMPI DUP1 PUSH4 0x29A62A76 EQ PUSH2 0x106 JUMPI DUP1 PUSH4 0x5FC5E020 EQ PUSH2 0x11B JUMPI DUP1 PUSH4 0x715018A6 EQ PUSH2 0x130 JUMPI DUP1 PUSH4 0x76602F2F EQ PUSH2 0x145 JUMPI DUP1 PUSH4 0x7EEF2509 EQ PUSH2 0x165 JUMPI PUSH2 0xD5 JUMP JUMPDEST CALLDATASIZE PUSH2 0xD5 JUMPI PUSH2 0xD3 CALLVALUE PUSH2 0x2C0 JUMP JUMPDEST STOP JUMPDEST PUSH2 0xD3 CALLVALUE PUSH2 0x2C0 JUMP JUMPDEST CALLVALUE DUP1 ISZERO PUSH2 0xEA JUMPI PUSH1 0x0 DUP1 REVERT JUMPDEST POP PUSH2 0xF3 PUSH1 0x19 DUP2 JUMP JUMPDEST PUSH1 0x40 MLOAD SWAP1 DUP2 MSTORE PUSH1 0x20 ADD JUMPDEST PUSH1 0x40 MLOAD DUP1 SWAP2 SUB SWAP1 RETURN JUMPDEST CALLVALUE DUP1 ISZERO PUSH2 0x112 JUMPI PUSH1 0x0 DUP1 REVERT JUMPDEST POP PUSH2 0xF3 PUSH1 0x3 DUP2 JUMP JUMPDEST CALLVALUE DUP1 ISZERO PUSH2 0x127 JUMPI PUSH1 0x0 DUP1 REVERT JUMPDEST POP PUSH2 0xF3 PUSH1 0x64 DUP2 JUMP JUMPDEST CALLVALUE DUP1 ISZERO PUSH2 0x13C JUMPI PUSH1 0x0 DUP1 REVERT JUMPDEST POP PUSH2 0xD3 PUSH2 0x3FA JUMP JUMPDEST CALLVALUE DUP1 ISZERO PUSH2 0x151 JUMPI PUSH1 0x0 DUP1 REVERT JUMPDEST POP PUSH2 0xD3 PUSH2 0x160 CALLDATASIZE PUSH1 0x4 PUSH2 0x995 JUMP JUMPDEST PUSH2 0x40E JUMP JUMPDEST CALLVALUE DUP1 ISZERO PUSH2 0x171 JUMPI PUSH1 0x0 DUP1 REVERT JUMPDEST POP PUSH2 0xF3 PUSH2 0x180 CALLDATASIZE PUSH1 0x4 PUSH2 0x9E6 JUMP JUMPDEST PUSH2 0x512 JUMP JUMPDEST CALLVALUE DUP1 ISZERO PUSH2 0x191 JUMPI PUSH1 0x0 DUP1 REVERT JUMPDEST POP PUSH1 0x0 SLOAD PUSH1 0x40 MLOAD PUSH1 0x1 PUSH1 0x1 PUSH1 0xA0 SHL SUB SWAP1 SWAP2 AND DUP2 MSTORE PUSH1 0x20 ADD PUSH2 0xFD JUMP JUMPDEST CALLVALUE DUP1 ISZERO PUSH2 0x1B9 JUMPI PUSH1 0x0 DUP1 REVERT JUMPDEST POP PUSH2 0xF3 PUSH2 0x1C8 CALLDATASIZE PUSH1 0x4 PUSH2 0xA10 JUMP JUMPDEST PUSH1 0x1 PUSH1 0x1 PUSH1 0xA0 SHL SUB AND PUSH1 0x0 SWAP1 DUP2 MSTORE PUSH1 0x5 PUSH1 0x20 MSTORE PUSH1 0x40 SWAP1 KECCAK256 SLOAD SWAP1 JUMP JUMPDEST CALLVALUE DUP1 ISZERO PUSH2 0x1EF JUMPI PUSH1 0x0 DUP1 REVERT JUMPDEST POP PUSH2 0x22C PUSH2 0x1FE CALLDATASIZE PUSH1 0x4 PUSH2 0x9E6 JUMP JUMPDEST PUSH1 0x1 PUSH1 0x1 PUSH1 0xA0 SHL SUB SWAP2 DUP3 AND PUSH1 0x0 SWAP1 DUP2 MSTORE PUSH1 0x6 PUSH1 0x20 SWAP1 DUP2 MSTORE PUSH1 0x40 DUP1 DUP4 KECCAK256 SWAP4 SWAP1 SWAP5 AND DUP3 MSTORE SWAP2 SWAP1 SWAP2 MSTORE KECCAK256 SLOAD PUSH1 0xFF AND SWAP1 JUMP JUMPDEST PUSH1 0x40 MLOAD SWAP1 ISZERO ISZERO DUP2 MSTORE PUSH1 0x20 ADD PUSH2 0xFD JUMP JUMPDEST CALLVALUE DUP1 ISZERO PUSH2 0x248 JUMPI PUSH1 0x0 DUP1 REVERT JUMPDEST POP PUSH2 0x251 PUSH2 0x63B JUMP JUMPDEST PUSH1 0x40 MLOAD PUSH2 0xFD SWAP2 SWAP1 PUSH2 0xA32 JUMP JUMPDEST CALLVALUE DUP1 ISZERO PUSH2 0x26A JUMPI PUSH1 0x0 DUP1 REVERT JUMPDEST POP PUSH2 0xD3 PUSH2 0x279 CALLDATASIZE PUSH1 0x4 PUSH2 0xA10 JUMP JUMPDEST PUSH2 0x680 JUMP JUMPDEST CALLVALUE DUP1 ISZERO PUSH2 0x28A JUMPI PUSH1 0x0 DUP1 REVERT JUMPDEST POP PUSH2 0x293 PUSH2 0x836 JUMP JUMPDEST PUSH1 0x40 MLOAD PUSH2 0xFD SWAP2 SWAP1 PUSH2 0xA6C JUMP JUMPDEST CALLVALUE DUP1 ISZERO PUSH2 0x2AC JUMPI PUSH1 0x0 DUP1 REVERT JUMPDEST POP PUSH2 0xD3 PUSH2 0x2BB CALLDATASIZE PUSH1 0x4 PUSH2 0xA10 JUMP JUMPDEST PUSH2 0x8AB JUMP JUMPDEST PUSH1 0x0 PUSH1 0x64 PUSH2 0x2CF PUSH1 0x19 DUP5 PUSH2 0xADA JUMP JUMPDEST PUSH2 0x2D9 SWAP2 SWAP1 PUSH2 0xAF1 JUMP JUMPDEST PUSH1 0x1 SLOAD SWAP1 SWAP2 POP PUSH1 0x0 JUMPDEST DUP2 DUP2 LT ISZERO PUSH2 0x3F4 JUMPI PUSH1 0x0 PUSH1 0x1 DUP3 DUP2 SLOAD DUP2 LT PUSH2 0x2FF JUMPI PUSH2 0x2FF PUSH2 0xB13 JUMP JUMPDEST PUSH1 0x0 SWAP2 DUP3 MSTORE PUSH1 0x20 DUP1 DUP4 KECCAK256 PUSH1 0x40 DUP1 MLOAD DUP1 DUP3 ADD SWAP1 SWAP2 MSTORE PUSH1 0x2 SWAP1 SWAP4 MUL ADD DUP1 SLOAD PUSH1 0x1 PUSH1 0x1 PUSH1 0xA0 SHL SUB AND DUP4 MSTORE PUSH1 0x1 ADD SLOAD SWAP1 DUP3 ADD DUP2 SWAP1 MSTORE SWAP1 SWAP3 POP PUSH1 0x64 SWAP1 PUSH2 0x340 SWAP1 DUP8 PUSH2 0xADA JUMP JUMPDEST PUSH2 0x34A SWAP2 SWAP1 PUSH2 0xAF1 JUMP JUMPDEST SWAP1 POP PUSH1 0x0 DUP3 PUSH1 0x0 ADD MLOAD PUSH1 0x1 PUSH1 0x1 PUSH1 0xA0 SHL SUB AND DUP3 PUSH1 0x40 MLOAD PUSH1 0x0 PUSH1 0x40 MLOAD DUP1 DUP4 SUB DUP2 DUP6 DUP8 GAS CALL SWAP3 POP POP POP RETURNDATASIZE DUP1 PUSH1 0x0 DUP2 EQ PUSH2 0x39D JUMPI PUSH1 0x40 MLOAD SWAP2 POP PUSH1 0x1F NOT PUSH1 0x3F RETURNDATASIZE ADD AND DUP3 ADD PUSH1 0x40 MSTORE RETURNDATASIZE DUP3 MSTORE RETURNDATASIZE PUSH1 0x0 PUSH1 0x20 DUP5 ADD RETURNDATACOPY PUSH2 0x3A2 JUMP JUMPDEST PUSH1 0x60 SWAP2 POP JUMPDEST POP POP SWAP1 POP DUP1 PUSH2 0x3DE JUMPI DUP3 MLOAD PUSH1 0x40 MLOAD PUSH4 0x373A7D43 PUSH1 0xE1 SHL DUP2 MSTORE PUSH1 0x1 PUSH1 0x1 PUSH1 0xA0 SHL SUB SWAP1 SWAP2 AND PUSH1 0x4 DUP3 ADD MSTORE PUSH1 0x24 DUP2 ADD DUP4 SWAP1 MSTORE PUSH1 0x44 ADD JUMPDEST PUSH1 0x40 MLOAD DUP1 SWAP2 SUB SWAP1 REVERT JUMPDEST POP POP POP DUP1 DUP1 PUSH2 0x3EC SWAP1 PUSH2 0xB29 JUMP JUMPDEST SWAP2 POP POP PUSH2 0x2E2 JUMP JUMPDEST POP POP POP POP JUMP JUMPDEST PUSH2 0x402 PUSH2 0x8E9 JUMP JUMPDEST PUSH2 0x40C PUSH1 0x0 PUSH2 0x916 JUMP JUMPDEST JUMP JUMPDEST PUSH2 0x416 PUSH2 0x8E9 JUMP JUMPDEST PUSH1 0x3 SELFBALANCE PUSH1 0x0 JUMPDEST PUSH1 0x3 DUP2 LT ISZERO PUSH2 0x4D4 JUMPI PUSH1 0x0 DUP6 DUP3 PUSH1 0x3 DUP2 LT PUSH2 0x439 JUMPI PUSH2 0x439 PUSH2 0xB13 JUMP JUMPDEST PUSH1 0x20 MUL ADD PUSH1 0x20 DUP2 ADD SWAP1 PUSH2 0x44C SWAP2 SWAP1 PUSH2 0xA10 JUMP JUMPDEST SWAP1 POP PUSH1 0x0 PUSH1 0x64 DUP7 DUP5 PUSH1 0x3 DUP2 LT PUSH2 0x464 JUMPI PUSH2 0x464 PUSH2 0xB13 JUMP JUMPDEST PUSH1 0x20 MUL ADD CALLDATALOAD DUP6 PUSH2 0x474 SWAP2 SWAP1 PUSH2 0xADA JUMP JUMPDEST PUSH2 0x47E SWAP2 SWAP1 PUSH2 0xAF1 JUMP JUMPDEST SWAP1 POP DUP2 PUSH1 0x2 DUP5 PUSH1 0x3 DUP2 LT PUSH2 0x494 JUMPI PUSH2 0x494 PUSH2 0xB13 JUMP JUMPDEST ADD DUP1 SLOAD PUSH1 0x1 PUSH1 0x1 PUSH1 0xA0 SHL SUB NOT AND PUSH1 0x1 PUSH1 0x1 PUSH1 0xA0 SHL SUB SWAP3 DUP4 AND OR SWAP1 SSTORE SWAP2 SWAP1 SWAP2 AND PUSH1 0x0 SWAP1 DUP2 MSTORE PUSH1 0x5 PUSH1 0x20 MSTORE PUSH1 0x40 SWAP1 KECCAK256 SSTORE DUP1 PUSH2 0x4CC DUP2 PUSH2 0xB29 JUMP JUMPDEST SWAP2 POP POP PUSH2 0x41C JUMP JUMPDEST POP PUSH32 0x60F4D73182A956A559D177842626B4743585A36652A74D3EB1500E4479AC06EA DUP5 PUSH1 0x40 MLOAD PUSH2 0x504 SWAP2 SWAP1 PUSH2 0xB42 JUMP JUMPDEST PUSH1 0x40 MLOAD DUP1 SWAP2 SUB SWAP1 LOG1 POP POP POP POP JUMP JUMPDEST PUSH1 0x1 PUSH1 0x1 PUSH1 0xA0 SHL SUB DUP2 DUP2 AND PUSH1 0x0 DUP2 DUP2 MSTORE PUSH1 0x5 PUSH1 0x20 MSTORE PUSH1 0x40 DUP1 DUP3 KECCAK256 SLOAD SWAP1 MLOAD PUSH4 0x70A08231 PUSH1 0xE0 SHL DUP2 MSTORE SWAP4 DUP7 AND PUSH1 0x4 DUP6 ADD MSTORE SWAP1 SWAP3 SWAP1 SWAP2 DUP4 SWAP2 PUSH4 0x70A08231 SWAP1 PUSH1 0x24 ADD PUSH1 0x20 PUSH1 0x40 MLOAD DUP1 DUP4 SUB DUP2 DUP7 GAS STATICCALL ISZERO DUP1 ISZERO PUSH2 0x56D JUMPI RETURNDATASIZE PUSH1 0x0 DUP1 RETURNDATACOPY RETURNDATASIZE PUSH1 0x0 REVERT JUMPDEST POP POP POP POP PUSH1 0x40 MLOAD RETURNDATASIZE PUSH1 0x1F NOT PUSH1 0x1F DUP3 ADD AND DUP3 ADD DUP1 PUSH1 0x40 MSTORE POP DUP2 ADD SWAP1 PUSH2 0x591 SWAP2 SWAP1 PUSH2 0xB7B JUMP JUMPDEST SWAP1 POP PUSH1 0x0 DUP5 PUSH1 0x1 PUSH1 0x1 PUSH1 0xA0 SHL SUB AND PUSH4 0x18160DDD PUSH1 0x40 MLOAD DUP2 PUSH4 0xFFFFFFFF AND PUSH1 0xE0 SHL DUP2 MSTORE PUSH1 0x4 ADD PUSH1 0x20 PUSH1 0x40 MLOAD DUP1 DUP4 SUB DUP2 DUP7 GAS STATICCALL ISZERO DUP1 ISZERO PUSH2 0x5D3 JUMPI RETURNDATASIZE PUSH1 0x0 DUP1 RETURNDATACOPY RETURNDATASIZE PUSH1 0x0 REVERT JUMPDEST POP POP POP POP PUSH1 0x40 MLOAD RETURNDATASIZE PUSH1 0x1F NOT PUSH1 0x1F DUP3 ADD AND DUP3 ADD DUP1 PUSH1 0x40 MSTORE POP DUP2 ADD SWAP1 PUSH2 0x5F7 SWAP2 SWAP1 PUSH2 0xB7B JUMP JUMPDEST SWAP1 POP DUP2 PUSH1 0x0 SUB PUSH2 0x61A JUMPI PUSH1 0x40 MLOAD PUSH4 0x66F3EF9B PUSH1 0xE0 SHL DUP2 MSTORE PUSH1 0x4 ADD PUSH1 0x40 MLOAD DUP1 SWAP2 SUB SWAP1 REVERT JUMPDEST DUP1 PUSH2 0x625 DUP5 DUP5 PUSH2 0xADA JUMP JUMPDEST PUSH2 0x62F SWAP2 SWAP1 PUSH2 0xAF1 JUMP JUMPDEST SWAP4 POP POP POP POP JUMPDEST SWAP3 SWAP2 POP POP JUMP JUMPDEST PUSH2 0x643 PUSH2 0x966 JUMP JUMPDEST PUSH1 0x40 DUP1 MLOAD PUSH1 0x60 DUP2 ADD SWAP2 DUP3 SWAP1 MSTORE SWAP1 PUSH1 0x2 SWAP1 PUSH1 0x3 SWAP1 DUP3 DUP5 JUMPDEST DUP2 SLOAD PUSH1 0x1 PUSH1 0x1 PUSH1 0xA0 SHL SUB AND DUP2 MSTORE PUSH1 0x1 SWAP1 SWAP2 ADD SWAP1 PUSH1 0x20 ADD DUP1 DUP4 GT PUSH2 0x659 JUMPI POP POP POP POP POP SWAP1 POP SWAP1 JUMP JUMPDEST PUSH1 0x1 PUSH1 0x1 PUSH1 0xA0 SHL SUB DUP2 AND PUSH2 0x6A7 JUMPI PUSH1 0x40 MLOAD PUSH4 0xD92E233D PUSH1 0xE0 SHL DUP2 MSTORE PUSH1 0x4 ADD PUSH1 0x40 MLOAD DUP1 SWAP2 SUB SWAP1 REVERT JUMPDEST PUSH1 0x1 PUSH1 0x1 PUSH1 0xA0 SHL SUB DUP2 AND PUSH1 0x0 SWAP1 DUP2 MSTORE PUSH1 0x5 PUSH1 0x20 MSTORE PUSH1 0x40 DUP2 KECCAK256 SLOAD SWAP1 SUB PUSH2 0x6DF JUMPI PUSH1 0x40 MLOAD PUSH4 0xD937573F PUSH1 0xE0 SHL DUP2 MSTORE PUSH1 0x4 ADD PUSH1 0x40 MLOAD DUP1 SWAP2 SUB SWAP1 REVERT JUMPDEST CALLER PUSH1 0x0 SWAP1 DUP2 MSTORE PUSH1 0x6 PUSH1 0x20 SWAP1 DUP2 MSTORE PUSH1 0x40 DUP1 DUP4 KECCAK256 PUSH1 0x1 PUSH1 0x1 PUSH1 0xA0 SHL SUB DUP6 AND DUP5 MSTORE SWAP1 SWAP2 MSTORE SWAP1 KECCAK256 SLOAD PUSH1 0xFF AND ISZERO PUSH2 0x724 JUMPI PUSH1 0x40 MLOAD PUSH4 0x48798A9 PUSH1 0xE4 SHL DUP2 MSTORE PUSH1 0x4 ADD PUSH1 0x40 MLOAD DUP1 SWAP2 SUB SWAP1 REVERT JUMPDEST PUSH1 0x0 PUSH2 0x730 CALLER DUP4 PUSH2 0x512 JUMP JUMPDEST PUSH1 0x1 PUSH1 0x1 PUSH1 0xA0 SHL SUB DUP4 AND PUSH1 0x0 SWAP1 DUP2 MSTORE PUSH1 0x5 PUSH1 0x20 MSTORE PUSH1 0x40 SWAP1 KECCAK256 SLOAD SWAP1 SWAP2 POP PUSH2 0x757 SWAP1 DUP3 SWAP1 PUSH2 0xB94 JUMP JUMPDEST PUSH1 0x1 PUSH1 0x1 PUSH1 0xA0 SHL SUB DUP4 AND PUSH1 0x0 DUP2 DUP2 MSTORE PUSH1 0x5 PUSH1 0x20 SWAP1 DUP2 MSTORE PUSH1 0x40 DUP1 DUP4 KECCAK256 SWAP5 SWAP1 SWAP5 SSTORE CALLER DUP1 DUP4 MSTORE PUSH1 0x6 DUP3 MSTORE DUP5 DUP4 KECCAK256 SWAP4 DUP4 MSTORE SWAP3 SWAP1 MSTORE DUP3 DUP2 KECCAK256 DUP1 SLOAD PUSH1 0xFF NOT AND PUSH1 0x1 OR SWAP1 SSTORE SWAP2 MLOAD DUP4 SWAP1 DUP4 DUP2 DUP2 DUP2 DUP6 DUP8 GAS CALL SWAP3 POP POP POP RETURNDATASIZE DUP1 PUSH1 0x0 DUP2 EQ PUSH2 0x7D1 JUMPI PUSH1 0x40 MLOAD SWAP2 POP PUSH1 0x1F NOT PUSH1 0x3F RETURNDATASIZE ADD AND DUP3 ADD PUSH1 0x40 MSTORE RETURNDATASIZE DUP3 MSTORE RETURNDATASIZE PUSH1 0x0 PUSH1 0x20 DUP5 ADD RETURNDATACOPY PUSH2 0x7D6 JUMP JUMPDEST PUSH1 0x60 SWAP2 POP JUMPDEST POP POP SWAP1 POP DUP1 PUSH2 0x7F8 JUMPI PUSH1 0x40 MLOAD PUSH4 0x12171D83 PUSH1 0xE3 SHL DUP2 MSTORE PUSH1 0x4 ADD PUSH1 0x40 MLOAD DUP1 SWAP2 SUB SWAP1 REVERT JUMPDEST PUSH1 0x40 DUP1 MLOAD CALLER DUP2 MSTORE PUSH1 0x20 DUP2 ADD DUP5 SWAP1 MSTORE PUSH32 0x95681E512BC0FE659E195E06C283EADA494316F3D801213E48E7101AF92BF770 SWAP2 ADD PUSH1 0x40 MLOAD DUP1 SWAP2 SUB SWAP1 LOG1 POP POP POP JUMP JUMPDEST PUSH1 0x60 PUSH1 0x1 DUP1 SLOAD DUP1 PUSH1 0x20 MUL PUSH1 0x20 ADD PUSH1 0x40 MLOAD SWAP1 DUP2 ADD PUSH1 0x40 MSTORE DUP1 SWAP3 SWAP2 SWAP1 DUP2 DUP2 MSTORE PUSH1 0x20 ADD PUSH1 0x0 SWAP1 JUMPDEST DUP3 DUP3 LT ISZERO PUSH2 0x8A2 JUMPI PUSH1 0x0 DUP5 DUP2 MSTORE PUSH1 0x20 SWAP1 DUP2 SWAP1 KECCAK256 PUSH1 0x40 DUP1 MLOAD DUP1 DUP3 ADD SWAP1 SWAP2 MSTORE PUSH1 0x2 DUP6 MUL SWAP1 SWAP2 ADD DUP1 SLOAD PUSH1 0x1 PUSH1 0x1 PUSH1 0xA0 SHL SUB AND DUP3 MSTORE PUSH1 0x1 SWAP1 DUP2 ADD SLOAD DUP3 DUP5 ADD MSTORE SWAP1 DUP4 MSTORE SWAP1 SWAP3 ADD SWAP2 ADD PUSH2 0x85A JUMP JUMPDEST POP POP POP POP SWAP1 POP SWAP1 JUMP JUMPDEST PUSH2 0x8B3 PUSH2 0x8E9 JUMP JUMPDEST PUSH1 0x1 PUSH1 0x1 PUSH1 0xA0 SHL SUB DUP2 AND PUSH2 0x8DD JUMPI PUSH1 0x40 MLOAD PUSH4 0x1E4FBDF7 PUSH1 0xE0 SHL DUP2 MSTORE PUSH1 0x0 PUSH1 0x4 DUP3 ADD MSTORE PUSH1 0x24 ADD PUSH2 0x3D5 JUMP JUMPDEST PUSH2 0x8E6 DUP2 PUSH2 0x916 JUMP JUMPDEST POP JUMP JUMPDEST PUSH1 0x0 SLOAD PUSH1 0x1 PUSH1 0x1 PUSH1 0xA0 SHL SUB AND CALLER EQ PUSH2 0x40C JUMPI PUSH1 0x40 MLOAD PUSH4 0x118CDAA7 PUSH1 0xE0 SHL DUP2 MSTORE CALLER PUSH1 0x4 DUP3 ADD MSTORE PUSH1 0x24 ADD PUSH2 0x3D5 JUMP JUMPDEST PUSH1 0x0 DUP1 SLOAD PUSH1 0x1 PUSH1 0x1 PUSH1 0xA0 SHL SUB DUP4 DUP2 AND PUSH1 0x1 PUSH1 0x1 PUSH1 0xA0 SHL SUB NOT DUP4 AND DUP2 OR DUP5 SSTORE PUSH1 0x40 MLOAD SWAP2 SWAP1 SWAP3 AND SWAP3 DUP4 SWAP2 PUSH32 0x8BE0079C531659141344CD1FD0A4F28419497F9722A3DAAFE3B4186F6B6457E0 SWAP2 SWAP1 LOG3 POP POP JUMP JUMPDEST PUSH1 0x40 MLOAD DUP1 PUSH1 0x60 ADD PUSH1 0x40 MSTORE DUP1 PUSH1 0x3 SWAP1 PUSH1 0x20 DUP3 MUL DUP1 CALLDATASIZE DUP4 CALLDATACOPY POP SWAP2 SWAP3 SWAP2 POP POP JUMP JUMPDEST DUP1 PUSH1 0x60 DUP2 ADD DUP4 LT ISZERO PUSH2 0x635 JUMPI PUSH1 0x0 DUP1 REVERT JUMPDEST PUSH1 0x0 DUP1 PUSH1 0xC0 DUP4 DUP6 SUB SLT ISZERO PUSH2 0x9A8 JUMPI PUSH1 0x0 DUP1 REVERT JUMPDEST PUSH2 0x9B2 DUP5 DUP5 PUSH2 0x984 JUMP JUMPDEST SWAP2 POP PUSH2 0x9C1 DUP5 PUSH1 0x60 DUP6 ADD PUSH2 0x984 JUMP JUMPDEST SWAP1 POP SWAP3 POP SWAP3 SWAP1 POP JUMP JUMPDEST DUP1 CALLDATALOAD PUSH1 0x1 PUSH1 0x1 PUSH1 0xA0 SHL SUB DUP2 AND DUP2 EQ PUSH2 0x9E1 JUMPI PUSH1 0x0 DUP1 REVERT JUMPDEST SWAP2 SWAP1 POP JUMP JUMPDEST PUSH1 0x0 DUP1 PUSH1 0x40 DUP4 DUP6 SUB SLT ISZERO PUSH2 0x9F9 JUMPI PUSH1 0x0 DUP1 REVERT JUMPDEST PUSH2 0xA02 DUP4 PUSH2 0x9CA JUMP JUMPDEST SWAP2 POP PUSH2 0x9C1 PUSH1 0x20 DUP5 ADD PUSH2 0x9CA JUMP JUMPDEST PUSH1 0x0 PUSH1 0x20 DUP3 DUP5 SUB SLT ISZERO PUSH2 0xA22 JUMPI PUSH1 0x0 DUP1 REVERT JUMPDEST PUSH2 0xA2B DUP3 PUSH2 0x9CA JUMP JUMPDEST SWAP4 SWAP3 POP POP POP JUMP JUMPDEST PUSH1 0x60 DUP2 ADD DUP2 DUP4 PUSH1 0x0 JUMPDEST PUSH1 0x3 DUP2 LT ISZERO PUSH2 0xA63 JUMPI DUP2 MLOAD PUSH1 0x1 PUSH1 0x1 PUSH1 0xA0 SHL SUB AND DUP4 MSTORE PUSH1 0x20 SWAP3 DUP4 ADD SWAP3 SWAP1 SWAP2 ADD SWAP1 PUSH1 0x1 ADD PUSH2 0xA3B JUMP JUMPDEST POP POP POP SWAP3 SWAP2 POP POP JUMP JUMPDEST PUSH1 0x20 DUP1 DUP3 MSTORE DUP3 MLOAD DUP3 DUP3 ADD DUP2 SWAP1 MSTORE PUSH1 0x0 SWAP2 SWAP1 PUSH1 0x40 SWAP1 DUP2 DUP6 ADD SWAP1 DUP7 DUP5 ADD DUP6 JUMPDEST DUP3 DUP2 LT ISZERO PUSH2 0xAB7 JUMPI DUP2 MLOAD DUP1 MLOAD PUSH1 0x1 PUSH1 0x1 PUSH1 0xA0 SHL SUB AND DUP6 MSTORE DUP7 ADD MLOAD DUP7 DUP6 ADD MSTORE SWAP3 DUP5 ADD SWAP3 SWAP1 DUP6 ADD SWAP1 PUSH1 0x1 ADD PUSH2 0xA89 JUMP JUMPDEST POP SWAP2 SWAP8 SWAP7 POP POP POP POP POP POP POP JUMP JUMPDEST PUSH4 0x4E487B71 PUSH1 0xE0 SHL PUSH1 0x0 MSTORE PUSH1 0x11 PUSH1 0x4 MSTORE PUSH1 0x24 PUSH1 0x0 REVERT JUMPDEST DUP1 DUP3 MUL DUP2 ISZERO DUP3 DUP3 DIV DUP5 EQ OR PUSH2 0x635 JUMPI PUSH2 0x635 PUSH2 0xAC4 JUMP JUMPDEST PUSH1 0x0 DUP3 PUSH2 0xB0E JUMPI PUSH4 0x4E487B71 PUSH1 0xE0 SHL PUSH1 0x0 MSTORE PUSH1 0x12 PUSH1 0x4 MSTORE PUSH1 0x24 PUSH1 0x0 REVERT JUMPDEST POP DIV SWAP1 JUMP JUMPDEST PUSH4 0x4E487B71 PUSH1 0xE0 SHL PUSH1 0x0 MSTORE PUSH1 0x32 PUSH1 0x4 MSTORE PUSH1 0x24 PUSH1 0x0 REVERT JUMPDEST PUSH1 0x0 PUSH1 0x1 DUP3 ADD PUSH2 0xB3B JUMPI PUSH2 0xB3B PUSH2 0xAC4 JUMP JUMPDEST POP PUSH1 0x1 ADD SWAP1 JUMP JUMPDEST PUSH1 0x60 DUP2 ADD DUP2 DUP4 PUSH1 0x0 JUMPDEST PUSH1 0x3 DUP2 LT ISZERO PUSH2 0xA63 JUMPI PUSH1 0x1 PUSH1 0x1 PUSH1 0xA0 SHL SUB PUSH2 0xB65 DUP4 PUSH2 0x9CA JUMP JUMPDEST AND DUP4 MSTORE PUSH1 0x20 SWAP3 DUP4 ADD SWAP3 SWAP2 SWAP1 SWAP2 ADD SWAP1 PUSH1 0x1 ADD PUSH2 0xB4B JUMP JUMPDEST PUSH1 0x0 PUSH1 0x20 DUP3 DUP5 SUB SLT ISZERO PUSH2 0xB8D JUMPI PUSH1 0x0 DUP1 REVERT JUMPDEST POP MLOAD SWAP2 SWAP1 POP JUMP JUMPDEST DUP2 DUP2 SUB DUP2 DUP2 GT ISZERO PUSH2 0x635 JUMPI PUSH2 0x635 PUSH2 0xAC4 JUMP INVALID LOG2 PUSH5 0x6970667358 0x22 SLT KECCAK256 SWAP13 0xB4 STATICCALL SWAP15 PUSH7 0x6F02D1A59F99A2 0xDC MULMOD DUP2 0xAD SDIV 0xC0 0xB0 0xA8 SWAP8 LOG4 0xD0 CALLCODE SWAP10 SWAP1 0xA9 0xE8 EXTCODEHASH DUP15 0xB9 0x4D PUSH5 0x736F6C6343 STOP ADDMOD EQ STOP CALLER "},"gasEstimates":{"creation":{"codeDepositCost":"607400","executionCost":"infinite","totalCost":"infinite"},"external":{"":"infinite","FEE_PERCENTAGE()":"185","MAX_WINNERS()":"207","SHARE_PRECISION()":"229","claimPrize(address)":"infinite","getCreators()":"infinite","getPrize(address,address)":"infinite","getTicketPrize(address)":"2571","getWinners()":"infinite","isClaimed(address,address)":"infinite","owner()":"2324","renounceOwnership()":"infinite","setWinners(address[3],uint256[3])":"infinite","transferOwnership(address)":"28421"},"internal":{"_handleDeposit(uint256)":"infinite"}},"methodIdentifiers":{"FEE_PERCENTAGE()":"000b46f8","MAX_WINNERS()":"29a62a76","SHARE_PRECISION()":"5fc5e020","claimPrize(address)":"e5e9b661","getCreators()":"e6adc1ee","getPrize(address,address)":"7eef2509","getTicketPrize(address)":"9966db94","getWinners()":"df15c37e","isClaimed(address,address)":"a4df0758","owner()":"8da5cb5b","renounceOwnership()":"715018a6","setWinners(address[3],uint256[3])":"76602f2f","transferOwnership(address)":"f2fde38b"}},"storageLayout":{"storage":[{"astId":234,"contract":"contracts/EurocupLegends.sol:EurocupLegends","label":"_owner","offset":0,"slot":"0","type":"t_address"},{"astId":441,"contract":"contracts/EurocupLegends.sol:EurocupLegends","label":"s_creators","offset":0,"slot":"1","type":"t_array(t_struct(Creator)838_storage)dyn_storage"},{"astId":445,"contract":"contracts/EurocupLegends.sol:EurocupLegends","label":"s_winners","offset":0,"slot":"2","type":"t_array(t_address)3_storage"},{"astId":449,"contract":"contracts/EurocupLegends.sol:EurocupLegends","label":"s_prizes","offset":0,"slot":"5","type":"t_mapping(t_address,t_uint256)"},{"astId":455,"contract":"contracts/EurocupLegends.sol:EurocupLegends","label":"s_isClaimed","offset":0,"slot":"6","type":"t_mapping(t_address,t_mapping(t_address,t_bool))"}],"types":{"t_address":{"encoding":"inplace","label":"address","numberOfBytes":"20"},"t_array(t_address)3_storage":{"base":"t_address","encoding":"inplace","label":"address[3]","numberOfBytes":"96"},"t_array(t_struct(Creator)838_storage)dyn_storage":{"base":"t_struct(Creator)838_storage","encoding":"dynamic_array","label":"struct IEurocupLegends.Creator[]","numberOfBytes":"32"},"t_bool":{"encoding":"inplace","label":"bool","numberOfBytes":"1"},"t_mapping(t_address,t_bool)":{"encoding":"mapping","key":"t_address","label":"mapping(address => bool)","numberOfBytes":"32","value":"t_bool"},"t_mapping(t_address,t_mapping(t_address,t_bool))":{"encoding":"mapping","key":"t_address","label":"mapping(address => mapping(address => bool))","numberOfBytes":"32","value":"t_mapping(t_address,t_bool)"},"t_mapping(t_address,t_uint256)":{"encoding":"mapping","key":"t_address","label":"mapping(address => uint256)","numberOfBytes":"32","value":"t_uint256"},"t_struct(Creator)838_storage":{"encoding":"inplace","label":"struct IEurocupLegends.Creator","members":[{"astId":835,"contract":"contracts/EurocupLegends.sol:EurocupLegends","label":"creator","offset":0,"slot":"0","type":"t_address"},{"astId":837,"contract":"contracts/EurocupLegends.sol:EurocupLegends","label":"share","offset":0,"slot":"1","type":"t_uint256"}],"numberOfBytes":"64"},"t_uint256":{"encoding":"inplace","label":"uint256","numberOfBytes":"32"}}},"userdoc":{"kind":"user","methods":{},"version":1}}}}