{"contracts/EurocupLegends.sol":{"EurocupLegends":{"abi":[{"inputs":[{"components":[{"internalType":"address","name":"creator","type":"address"},{"internalType":"uint256","name":"share","type":"uint256"}],"internalType":"struct IEurocupLegends.Creator[]","name":"_creators","type":"tuple[]"},{"internalType":"address","name":"_owner","type":"address"}],"stateMutability":"nonpayable","type":"constructor"},{"inputs":[],"name":"AlreadyClaimedPrize","type":"error"},{"inputs":[{"internalType":"address","name":"_creators","type":"address"},{"internalType":"uint256","name":"_amount","type":"uint256"}],"name":"FeeTransferFailed","type":"error"},{"inputs":[],"name":"MintClosed","type":"error"},{"inputs":[],"name":"NoPrizeForThisTicket","type":"error"},{"inputs":[],"name":"NoTickets","type":"error"},{"inputs":[],"name":"NoWinnersYet","type":"error"},{"inputs":[{"internalType":"address","name":"owner","type":"address"}],"name":"OwnableInvalidOwner","type":"error"},{"inputs":[{"internalType":"address","name":"account","type":"address"}],"name":"OwnableUnauthorizedAccount","type":"error"},{"inputs":[],"name":"TransferFailed","type":"error"},{"inputs":[],"name":"ZeroAddress","type":"error"},{"anonymous":false,"inputs":[{"indexed":false,"internalType":"bool","name":"isMintOpen","type":"bool"}],"name":"MintStatus","type":"event"},{"anonymous":false,"inputs":[{"indexed":true,"internalType":"address","name":"previousOwner","type":"address"},{"indexed":true,"internalType":"address","name":"newOwner","type":"address"}],"name":"OwnershipTransferred","type":"event"},{"anonymous":false,"inputs":[{"indexed":false,"internalType":"address","name":"owner","type":"address"},{"indexed":false,"internalType":"uint256","name":"prize","type":"uint256"}],"name":"PrizeClaimed","type":"event"},{"anonymous":false,"inputs":[{"indexed":false,"internalType":"address[3]","name":"winners","type":"address[3]"}],"name":"WinnersSet","type":"event"},{"stateMutability":"payable","type":"fallback"},{"inputs":[],"name":"FEE_PERCENTAGE","outputs":[{"internalType":"uint256","name":"","type":"uint256"}],"stateMutability":"view","type":"function"},{"inputs":[],"name":"MAX_WINNERS","outputs":[{"internalType":"uint256","name":"","type":"uint256"}],"stateMutability":"view","type":"function"},{"inputs":[],"name":"SHARE_PRECISION","outputs":[{"internalType":"uint256","name":"","type":"uint256"}],"stateMutability":"view","type":"function"},{"inputs":[{"internalType":"address","name":"_ticket","type":"address"}],"name":"claimPrize","outputs":[],"stateMutability":"nonpayable","type":"function"},{"inputs":[],"name":"getCreators","outputs":[{"components":[{"internalType":"address","name":"creator","type":"address"},{"internalType":"uint256","name":"share","type":"uint256"}],"internalType":"struct IEurocupLegends.Creator[]","name":"","type":"tuple[]"}],"stateMutability":"view","type":"function"},{"inputs":[{"internalType":"address","name":"_user","type":"address"},{"internalType":"address","name":"_ticket","type":"address"}],"name":"getPrize","outputs":[{"internalType":"uint256","name":"","type":"uint256"}],"stateMutability":"view","type":"function"},{"inputs":[{"internalType":"address","name":"_ticket","type":"address"}],"name":"getTicketPrize","outputs":[{"internalType":"uint256","name":"","type":"uint256"}],"stateMutability":"view","type":"function"},{"inputs":[],"name":"getWinners","outputs":[{"internalType":"address[3]","name":"","type":"address[3]"}],"stateMutability":"view","type":"function"},{"inputs":[{"internalType":"address","name":"_user","type":"address"},{"internalType":"address","name":"_ticket","type":"address"}],"name":"isClaimed","outputs":[{"internalType":"bool","name":"","type":"bool"}],"stateMutability":"view","type":"function"},{"inputs":[],"name":"owner","outputs":[{"internalType":"address","name":"","type":"address"}],"stateMutability":"view","type":"function"},{"inputs":[],"name":"renounceOwnership","outputs":[],"stateMutability":"nonpayable","type":"function"},{"inputs":[{"internalType":"bool","name":"_isMintOpen","type":"bool"}],"name":"setMintStatus","outputs":[],"stateMutability":"nonpayable","type":"function"},{"inputs":[{"internalType":"address[3]","name":"_winners","type":"address[3]"},{"internalType":"uint256[3]","name":"_shares","type":"uint256[3]"}],"name":"setWinners","outputs":[],"stateMutability":"nonpayable","type":"function"},{"inputs":[{"internalType":"address","name":"newOwner","type":"address"}],"name":"transferOwnership","outputs":[],"stateMutability":"nonpayable","type":"function"},{"stateMutability":"payable","type":"receive"}],"devdoc":{"errors":{"OwnableInvalidOwner(address)":[{"details":"The owner is not a valid owner account. (eg. `address(0)`)"}],"OwnableUnauthorizedAccount(address)":[{"details":"The caller account is not authorized to perform an operation."}]},"kind":"dev","methods":{"owner()":{"details":"Returns the address of the current owner."},"renounceOwnership()":{"details":"Leaves the contract without owner. It will not be possible to call `onlyOwner` functions. Can only be called by the current owner. NOTE: Renouncing ownership will leave the contract without an owner, thereby disabling any functionality that is only available to the owner."},"transferOwnership(address)":{"details":"Transfers ownership of the contract to a new account (`newOwner`). Can only be called by the current owner."}},"version":1},"evm":{"bytecode":{"linkReferences":{},"object":"60806040526005805460ff191660011790553480156200001e57600080fd5b5060405162000fd338038062000fd38339810160408190526200004191620001e9565b806001600160a01b0381166200007157604051631e4fbdf760e01b81526000600482015260240160405180910390fd5b6200007c8162000108565b5060005b8251811015620000ff576001838281518110620000a157620000a1620002de565b602090810291909101810151825460018082018555600094855293839020825160029092020180546001600160a01b0319166001600160a01b0390921691909117815591015191015580620000f681620002f4565b91505062000080565b5050506200031c565b600080546001600160a01b038381166001600160a01b0319831681178455604051919092169283917f8be0079c531659141344cd1fd0a4f28419497f9722a3daafe3b4186f6b6457e09190a35050565b634e487b7160e01b600052604160045260246000fd5b604080519081016001600160401b038111828210171562000193576200019362000158565b60405290565b604051601f8201601f191681016001600160401b0381118282101715620001c457620001c462000158565b604052919050565b80516001600160a01b0381168114620001e457600080fd5b919050565b6000806040808486031215620001fe57600080fd5b83516001600160401b03808211156200021657600080fd5b818601915086601f8301126200022b57600080fd5b815160208282111562000242576200024262000158565b62000252818360051b0162000199565b828152818101935060069290921b8401810191898311156200027357600080fd5b938101935b82851015620002c15785858b031215620002925760008081fd5b6200029c6200016e565b620002a786620001cc565b815285830151838201528452938501939281019262000278565b9650620002d0888201620001cc565b955050505050509250929050565b634e487b7160e01b600052603260045260246000fd5b6000600182016200031557634e487b7160e01b600052601160045260246000fd5b5060010190565b610ca7806200032c6000396000f3fe6080604052600436106100e05760003560e01c80638da5cb5b1161007f578063df15c37e11610059578063df15c37e14610277578063e5e9b66114610299578063e6adc1ee146102b9578063f2fde38b146102db576100f0565b80638da5cb5b146101c05780639966db94146101e8578063a4df07581461021e576100f0565b80635fc5e020116100bb5780635fc5e02014610156578063715018a61461016b57806376602f2f146101805780637eef2509146101a0576100f0565b80620b46f8146100f95780631f85e3ca1461012157806329a62a7614610141576100f0565b366100f0576100ee346102fb565b005b6100ee346102fb565b34801561010557600080fd5b5061010e601981565b6040519081526020015b60405180910390f35b34801561012d57600080fd5b506100ee61013c366004610a2c565b610458565b34801561014d57600080fd5b5061010e600381565b34801561016257600080fd5b5061010e606481565b34801561017757600080fd5b506100ee6104a7565b34801561018c57600080fd5b506100ee61019b366004610a66565b6104bb565b3480156101ac57600080fd5b5061010e6101bb366004610ab7565b6105ba565b3480156101cc57600080fd5b506000546040516001600160a01b039091168152602001610118565b3480156101f457600080fd5b5061010e610203366004610ae1565b6001600160a01b031660009081526006602052604090205490565b34801561022a57600080fd5b50610267610239366004610ab7565b6001600160a01b03918216600090815260076020908152604080832093909416825291909152205460ff1690565b6040519015158152602001610118565b34801561028357600080fd5b5061028c6106e3565b6040516101189190610afc565b3480156102a557600080fd5b506100ee6102b4366004610ae1565b610728565b3480156102c557600080fd5b506102ce6108de565b6040516101189190610b36565b3480156102e757600080fd5b506100ee6102f6366004610ae1565b610953565b60055460ff1661031e5760405163589ed34b60e01b815260040160405180910390fd5b6000606461032d601984610ba4565b6103379190610bbb565b60015490915060005b818110156104525760006001828154811061035d5761035d610bdd565b600091825260208083206040805180820190915260029093020180546001600160a01b031683526001015490820181905290925060649061039e9087610ba4565b6103a89190610bbb565b9050600082600001516001600160a01b03168260405160006040518083038185875af1925050503d80600081146103fb576040519150601f19603f3d011682016040523d82523d6000602084013e610400565b606091505b505090508061043c57825160405163373a7d4360e11b81526001600160a01b039091166004820152602481018390526044015b60405180910390fd5b505050808061044a90610bf3565b915050610340565b50505050565b610460610991565b6005805460ff19168215159081179091556040519081527faff50328f57c9ced983a9e3c360c67ee11633d860350531f0c11fc435751448c9060200160405180910390a150565b6104af610991565b6104b960006109be565b565b6104c3610991565b60005b600381101561057e5760008382600381106104e3576104e3610bdd565b6020020160208101906104f69190610ae1565b90506000606484846003811061050e5761050e610bdd565b60200201354761051e9190610ba4565b6105289190610bbb565b9050816002846003811061053e5761053e610bdd565b0180546001600160a01b0319166001600160a01b03928316179055919091166000908152600660205260409020558061057681610bf3565b9150506104c6565b507f60f4d73182a956a559d177842626b4743585a36652a74d3eb1500e4479ac06ea826040516105ae9190610c0c565b60405180910390a15050565b6001600160a01b038181166000818152600660205260408082205490516370a0823160e01b815293861660048501529092909183916370a0823190602401602060405180830381865afa158015610615573d6000803e3d6000fd5b505050506040513d601f19601f820116820180604052508101906106399190610c45565b90506000846001600160a01b03166318160ddd6040518163ffffffff1660e01b8152600401602060405180830381865afa15801561067b573d6000803e3d6000fd5b505050506040513d601f19601f8201168201806040525081019061069f9190610c45565b9050816000036106c2576040516366f3ef9b60e01b815260040160405180910390fd5b806106cd8484610ba4565b6106d79190610bbb565b93505050505b92915050565b6106eb610a0e565b6040805160608101918290529060029060039082845b81546001600160a01b03168152600190910190602001808311610701575050505050905090565b6001600160a01b03811661074f5760405163d92e233d60e01b815260040160405180910390fd5b6001600160a01b03811660009081526006602052604081205490036107875760405163d937573f60e01b815260040160405180910390fd5b3360009081526007602090815260408083206001600160a01b038516845290915290205460ff16156107cc5760405163048798a960e41b815260040160405180910390fd5b60006107d833836105ba565b6001600160a01b0383166000908152600660205260409020549091506107ff908290610c5e565b6001600160a01b0383166000818152600660209081526040808320949094553380835260078252848320938352929052828120805460ff19166001179055915183908381818185875af1925050503d8060008114610879576040519150601f19603f3d011682016040523d82523d6000602084013e61087e565b606091505b50509050806108a0576040516312171d8360e31b815260040160405180910390fd5b60408051338152602081018490527f95681e512bc0fe659e195e06c283eada494316f3d801213e48e7101af92bf770910160405180910390a1505050565b60606001805480602002602001604051908101604052809291908181526020016000905b8282101561094a576000848152602090819020604080518082019091526002850290910180546001600160a01b03168252600190810154828401529083529092019101610902565b50505050905090565b61095b610991565b6001600160a01b03811661098557604051631e4fbdf760e01b815260006004820152602401610433565b61098e816109be565b50565b6000546001600160a01b031633146104b95760405163118cdaa760e01b8152336004820152602401610433565b600080546001600160a01b038381166001600160a01b0319831681178455604051919092169283917f8be0079c531659141344cd1fd0a4f28419497f9722a3daafe3b4186f6b6457e09190a35050565b60405180606001604052806003906020820280368337509192915050565b600060208284031215610a3e57600080fd5b81358015158114610a4e57600080fd5b9392505050565b80606081018310156106dd57600080fd5b60008060c08385031215610a7957600080fd5b610a838484610a55565b9150610a928460608501610a55565b90509250929050565b80356001600160a01b0381168114610ab257600080fd5b919050565b60008060408385031215610aca57600080fd5b610ad383610a9b565b9150610a9260208401610a9b565b600060208284031215610af357600080fd5b610a4e82610a9b565b60608101818360005b6003811015610b2d5781516001600160a01b0316835260209283019290910190600101610b05565b50505092915050565b602080825282518282018190526000919060409081850190868401855b82811015610b8157815180516001600160a01b03168552860151868501529284019290850190600101610b53565b5091979650505050505050565b634e487b7160e01b600052601160045260246000fd5b80820281158282048414176106dd576106dd610b8e565b600082610bd857634e487b7160e01b600052601260045260246000fd5b500490565b634e487b7160e01b600052603260045260246000fd5b600060018201610c0557610c05610b8e565b5060010190565b60608101818360005b6003811015610b2d576001600160a01b03610c2f83610a9b565b1683526020928301929190910190600101610c15565b600060208284031215610c5757600080fd5b5051919050565b818103818111156106dd576106dd610b8e56fea2646970667358221220811ebc6cf3b57995ea9095503f3f29ece166794a73a377bfc3291874d4f55ecf64736f6c63430008140033","opcodes":"PUSH1 0x80 PUSH1 0x40 MSTORE PUSH1 0x5 DUP1 SLOAD PUSH1 0xFF NOT AND PUSH1 0x1 OR SWAP1 SSTORE CALLVALUE DUP1 ISZERO PUSH3 0x1E JUMPI PUSH1 0x0 DUP1 REVERT JUMPDEST POP PUSH1 0x40 MLOAD PUSH3 0xFD3 CODESIZE SUB DUP1 PUSH3 0xFD3 DUP4 CODECOPY DUP2 ADD PUSH1 0x40 DUP2 SWAP1 MSTORE PUSH3 0x41 SWAP2 PUSH3 0x1E9 JUMP JUMPDEST DUP1 PUSH1 0x1 PUSH1 0x1 PUSH1 0xA0 SHL SUB DUP2 AND PUSH3 0x71 JUMPI PUSH1 0x40 MLOAD PUSH4 0x1E4FBDF7 PUSH1 0xE0 SHL DUP2 MSTORE PUSH1 0x0 PUSH1 0x4 DUP3 ADD MSTORE PUSH1 0x24 ADD PUSH1 0x40 MLOAD DUP1 SWAP2 SUB SWAP1 REVERT JUMPDEST PUSH3 0x7C DUP2 PUSH3 0x108 JUMP JUMPDEST POP PUSH1 0x0 JUMPDEST DUP3 MLOAD DUP2 LT ISZERO PUSH3 0xFF JUMPI PUSH1 0x1 DUP4 DUP3 DUP2 MLOAD DUP2 LT PUSH3 0xA1 JUMPI PUSH3 0xA1 PUSH3 0x2DE JUMP JUMPDEST PUSH1 0x20 SWAP1 DUP2 MUL SWAP2 SWAP1 SWAP2 ADD DUP2 ADD MLOAD DUP3 SLOAD PUSH1 0x1 DUP1 DUP3 ADD DUP6 SSTORE PUSH1 0x0 SWAP5 DUP6 MSTORE SWAP4 DUP4 SWAP1 KECCAK256 DUP3 MLOAD PUSH1 0x2 SWAP1 SWAP3 MUL ADD DUP1 SLOAD PUSH1 0x1 PUSH1 0x1 PUSH1 0xA0 SHL SUB NOT AND PUSH1 0x1 PUSH1 0x1 PUSH1 0xA0 SHL SUB SWAP1 SWAP3 AND SWAP2 SWAP1 SWAP2 OR DUP2 SSTORE SWAP2 ADD MLOAD SWAP2 ADD SSTORE DUP1 PUSH3 0xF6 DUP2 PUSH3 0x2F4 JUMP JUMPDEST SWAP2 POP POP PUSH3 0x80 JUMP JUMPDEST POP POP POP PUSH3 0x31C JUMP JUMPDEST PUSH1 0x0 DUP1 SLOAD PUSH1 0x1 PUSH1 0x1 PUSH1 0xA0 SHL SUB DUP4 DUP2 AND PUSH1 0x1 PUSH1 0x1 PUSH1 0xA0 SHL SUB NOT DUP4 AND DUP2 OR DUP5 SSTORE PUSH1 0x40 MLOAD SWAP2 SWAP1 SWAP3 AND SWAP3 DUP4 SWAP2 PUSH32 0x8BE0079C531659141344CD1FD0A4F28419497F9722A3DAAFE3B4186F6B6457E0 SWAP2 SWAP1 LOG3 POP POP JUMP JUMPDEST PUSH4 0x4E487B71 PUSH1 0xE0 SHL PUSH1 0x0 MSTORE PUSH1 0x41 PUSH1 0x4 MSTORE PUSH1 0x24 PUSH1 0x0 REVERT JUMPDEST PUSH1 0x40 DUP1 MLOAD SWAP1 DUP2 ADD PUSH1 0x1 PUSH1 0x1 PUSH1 0x40 SHL SUB DUP2 GT DUP3 DUP3 LT OR ISZERO PUSH3 0x193 JUMPI PUSH3 0x193 PUSH3 0x158 JUMP JUMPDEST PUSH1 0x40 MSTORE SWAP1 JUMP JUMPDEST PUSH1 0x40 MLOAD PUSH1 0x1F DUP3 ADD PUSH1 0x1F NOT AND DUP2 ADD PUSH1 0x1 PUSH1 0x1 PUSH1 0x40 SHL SUB DUP2 GT DUP3 DUP3 LT OR ISZERO PUSH3 0x1C4 JUMPI PUSH3 0x1C4 PUSH3 0x158 JUMP JUMPDEST PUSH1 0x40 MSTORE SWAP2 SWAP1 POP JUMP JUMPDEST DUP1 MLOAD PUSH1 0x1 PUSH1 0x1 PUSH1 0xA0 SHL SUB DUP2 AND DUP2 EQ PUSH3 0x1E4 JUMPI PUSH1 0x0 DUP1 REVERT JUMPDEST SWAP2 SWAP1 POP JUMP JUMPDEST PUSH1 0x0 DUP1 PUSH1 0x40 DUP1 DUP5 DUP7 SUB SLT ISZERO PUSH3 0x1FE JUMPI PUSH1 0x0 DUP1 REVERT JUMPDEST DUP4 MLOAD PUSH1 0x1 PUSH1 0x1 PUSH1 0x40 SHL SUB DUP1 DUP3 GT ISZERO PUSH3 0x216 JUMPI PUSH1 0x0 DUP1 REVERT JUMPDEST DUP2 DUP7 ADD SWAP2 POP DUP7 PUSH1 0x1F DUP4 ADD SLT PUSH3 0x22B JUMPI PUSH1 0x0 DUP1 REVERT JUMPDEST DUP2 MLOAD PUSH1 0x20 DUP3 DUP3 GT ISZERO PUSH3 0x242 JUMPI PUSH3 0x242 PUSH3 0x158 JUMP JUMPDEST PUSH3 0x252 DUP2 DUP4 PUSH1 0x5 SHL ADD PUSH3 0x199 JUMP JUMPDEST DUP3 DUP2 MSTORE DUP2 DUP2 ADD SWAP4 POP PUSH1 0x6 SWAP3 SWAP1 SWAP3 SHL DUP5 ADD DUP2 ADD SWAP2 DUP10 DUP4 GT ISZERO PUSH3 0x273 JUMPI PUSH1 0x0 DUP1 REVERT JUMPDEST SWAP4 DUP2 ADD SWAP4 JUMPDEST DUP3 DUP6 LT ISZERO PUSH3 0x2C1 JUMPI DUP6 DUP6 DUP12 SUB SLT ISZERO PUSH3 0x292 JUMPI PUSH1 0x0 DUP1 DUP2 REVERT JUMPDEST PUSH3 0x29C PUSH3 0x16E JUMP JUMPDEST PUSH3 0x2A7 DUP7 PUSH3 0x1CC JUMP JUMPDEST DUP2 MSTORE DUP6 DUP4 ADD MLOAD DUP4 DUP3 ADD MSTORE DUP5 MSTORE SWAP4 DUP6 ADD SWAP4 SWAP3 DUP2 ADD SWAP3 PUSH3 0x278 JUMP JUMPDEST SWAP7 POP PUSH3 0x2D0 DUP9 DUP3 ADD PUSH3 0x1CC JUMP JUMPDEST SWAP6 POP POP POP POP POP POP SWAP3 POP SWAP3 SWAP1 POP JUMP JUMPDEST PUSH4 0x4E487B71 PUSH1 0xE0 SHL PUSH1 0x0 MSTORE PUSH1 0x32 PUSH1 0x4 MSTORE PUSH1 0x24 PUSH1 0x0 REVERT JUMPDEST PUSH1 0x0 PUSH1 0x1 DUP3 ADD PUSH3 0x315 JUMPI PUSH4 0x4E487B71 PUSH1 0xE0 SHL PUSH1 0x0 MSTORE PUSH1 0x11 PUSH1 0x4 MSTORE PUSH1 0x24 PUSH1 0x0 REVERT JUMPDEST POP PUSH1 0x1 ADD SWAP1 JUMP JUMPDEST PUSH2 0xCA7 DUP1 PUSH3 0x32C PUSH1 0x0 CODECOPY PUSH1 0x0 RETURN INVALID PUSH1 0x80 PUSH1 0x40 MSTORE PUSH1 0x4 CALLDATASIZE LT PUSH2 0xE0 JUMPI PUSH1 0x0 CALLDATALOAD PUSH1 0xE0 SHR DUP1 PUSH4 0x8DA5CB5B GT PUSH2 0x7F JUMPI DUP1 PUSH4 0xDF15C37E GT PUSH2 0x59 JUMPI DUP1 PUSH4 0xDF15C37E EQ PUSH2 0x277 JUMPI DUP1 PUSH4 0xE5E9B661 EQ PUSH2 0x299 JUMPI DUP1 PUSH4 0xE6ADC1EE EQ PUSH2 0x2B9 JUMPI DUP1 PUSH4 0xF2FDE38B EQ PUSH2 0x2DB JUMPI PUSH2 0xF0 JUMP JUMPDEST DUP1 PUSH4 0x8DA5CB5B EQ PUSH2 0x1C0 JUMPI DUP1 PUSH4 0x9966DB94 EQ PUSH2 0x1E8 JUMPI DUP1 PUSH4 0xA4DF0758 EQ PUSH2 0x21E JUMPI PUSH2 0xF0 JUMP JUMPDEST DUP1 PUSH4 0x5FC5E020 GT PUSH2 0xBB JUMPI DUP1 PUSH4 0x5FC5E020 EQ PUSH2 0x156 JUMPI DUP1 PUSH4 0x715018A6 EQ PUSH2 0x16B JUMPI DUP1 PUSH4 0x76602F2F EQ PUSH2 0x180 JUMPI DUP1 PUSH4 0x7EEF2509 EQ PUSH2 0x1A0 JUMPI PUSH2 0xF0 JUMP JUMPDEST DUP1 PUSH3 0xB46F8 EQ PUSH2 0xF9 JUMPI DUP1 PUSH4 0x1F85E3CA EQ PUSH2 0x121 JUMPI DUP1 PUSH4 0x29A62A76 EQ PUSH2 0x141 JUMPI PUSH2 0xF0 JUMP JUMPDEST CALLDATASIZE PUSH2 0xF0 JUMPI PUSH2 0xEE CALLVALUE PUSH2 0x2FB JUMP JUMPDEST STOP JUMPDEST PUSH2 0xEE CALLVALUE PUSH2 0x2FB JUMP JUMPDEST CALLVALUE DUP1 ISZERO PUSH2 0x105 JUMPI PUSH1 0x0 DUP1 REVERT JUMPDEST POP PUSH2 0x10E PUSH1 0x19 DUP2 JUMP JUMPDEST PUSH1 0x40 MLOAD SWAP1 DUP2 MSTORE PUSH1 0x20 ADD JUMPDEST PUSH1 0x40 MLOAD DUP1 SWAP2 SUB SWAP1 RETURN JUMPDEST CALLVALUE DUP1 ISZERO PUSH2 0x12D JUMPI PUSH1 0x0 DUP1 REVERT JUMPDEST POP PUSH2 0xEE PUSH2 0x13C CALLDATASIZE PUSH1 0x4 PUSH2 0xA2C JUMP JUMPDEST PUSH2 0x458 JUMP JUMPDEST CALLVALUE DUP1 ISZERO PUSH2 0x14D JUMPI PUSH1 0x0 DUP1 REVERT JUMPDEST POP PUSH2 0x10E PUSH1 0x3 DUP2 JUMP JUMPDEST CALLVALUE DUP1 ISZERO PUSH2 0x162 JUMPI PUSH1 0x0 DUP1 REVERT JUMPDEST POP PUSH2 0x10E PUSH1 0x64 DUP2 JUMP JUMPDEST CALLVALUE DUP1 ISZERO PUSH2 0x177 JUMPI PUSH1 0x0 DUP1 REVERT JUMPDEST POP PUSH2 0xEE PUSH2 0x4A7 JUMP JUMPDEST CALLVALUE DUP1 ISZERO PUSH2 0x18C JUMPI PUSH1 0x0 DUP1 REVERT JUMPDEST POP PUSH2 0xEE PUSH2 0x19B CALLDATASIZE PUSH1 0x4 PUSH2 0xA66 JUMP JUMPDEST PUSH2 0x4BB JUMP JUMPDEST CALLVALUE DUP1 ISZERO PUSH2 0x1AC JUMPI PUSH1 0x0 DUP1 REVERT JUMPDEST POP PUSH2 0x10E PUSH2 0x1BB CALLDATASIZE PUSH1 0x4 PUSH2 0xAB7 JUMP JUMPDEST PUSH2 0x5BA JUMP JUMPDEST CALLVALUE DUP1 ISZERO PUSH2 0x1CC JUMPI PUSH1 0x0 DUP1 REVERT JUMPDEST POP PUSH1 0x0 SLOAD PUSH1 0x40 MLOAD PUSH1 0x1 PUSH1 0x1 PUSH1 0xA0 SHL SUB SWAP1 SWAP2 AND DUP2 MSTORE PUSH1 0x20 ADD PUSH2 0x118 JUMP JUMPDEST CALLVALUE DUP1 ISZERO PUSH2 0x1F4 JUMPI PUSH1 0x0 DUP1 REVERT JUMPDEST POP PUSH2 0x10E PUSH2 0x203 CALLDATASIZE PUSH1 0x4 PUSH2 0xAE1 JUMP JUMPDEST PUSH1 0x1 PUSH1 0x1 PUSH1 0xA0 SHL SUB AND PUSH1 0x0 SWAP1 DUP2 MSTORE PUSH1 0x6 PUSH1 0x20 MSTORE PUSH1 0x40 SWAP1 KECCAK256 SLOAD SWAP1 JUMP JUMPDEST CALLVALUE DUP1 ISZERO PUSH2 0x22A JUMPI PUSH1 0x0 DUP1 REVERT JUMPDEST POP PUSH2 0x267 PUSH2 0x239 CALLDATASIZE PUSH1 0x4 PUSH2 0xAB7 JUMP JUMPDEST PUSH1 0x1 PUSH1 0x1 PUSH1 0xA0 SHL SUB SWAP2 DUP3 AND PUSH1 0x0 SWAP1 DUP2 MSTORE PUSH1 0x7 PUSH1 0x20 SWAP1 DUP2 MSTORE PUSH1 0x40 DUP1 DUP4 KECCAK256 SWAP4 SWAP1 SWAP5 AND DUP3 MSTORE SWAP2 SWAP1 SWAP2 MSTORE KECCAK256 SLOAD PUSH1 0xFF AND SWAP1 JUMP JUMPDEST PUSH1 0x40 MLOAD SWAP1 ISZERO ISZERO DUP2 MSTORE PUSH1 0x20 ADD PUSH2 0x118 JUMP JUMPDEST CALLVALUE DUP1 ISZERO PUSH2 0x283 JUMPI PUSH1 0x0 DUP1 REVERT JUMPDEST POP PUSH2 0x28C PUSH2 0x6E3 JUMP JUMPDEST PUSH1 0x40 MLOAD PUSH2 0x118 SWAP2 SWAP1 PUSH2 0xAFC JUMP JUMPDEST CALLVALUE DUP1 ISZERO PUSH2 0x2A5 JUMPI PUSH1 0x0 DUP1 REVERT JUMPDEST POP PUSH2 0xEE PUSH2 0x2B4 CALLDATASIZE PUSH1 0x4 PUSH2 0xAE1 JUMP JUMPDEST PUSH2 0x728 JUMP JUMPDEST CALLVALUE DUP1 ISZERO PUSH2 0x2C5 JUMPI PUSH1 0x0 DUP1 REVERT JUMPDEST POP PUSH2 0x2CE PUSH2 0x8DE JUMP JUMPDEST PUSH1 0x40 MLOAD PUSH2 0x118 SWAP2 SWAP1 PUSH2 0xB36 JUMP JUMPDEST CALLVALUE DUP1 ISZERO PUSH2 0x2E7 JUMPI PUSH1 0x0 DUP1 REVERT JUMPDEST POP PUSH2 0xEE PUSH2 0x2F6 CALLDATASIZE PUSH1 0x4 PUSH2 0xAE1 JUMP JUMPDEST PUSH2 0x953 JUMP JUMPDEST PUSH1 0x5 SLOAD PUSH1 0xFF AND PUSH2 0x31E JUMPI PUSH1 0x40 MLOAD PUSH4 0x589ED34B PUSH1 0xE0 SHL DUP2 MSTORE PUSH1 0x4 ADD PUSH1 0x40 MLOAD DUP1 SWAP2 SUB SWAP1 REVERT JUMPDEST PUSH1 0x0 PUSH1 0x64 PUSH2 0x32D PUSH1 0x19 DUP5 PUSH2 0xBA4 JUMP JUMPDEST PUSH2 0x337 SWAP2 SWAP1 PUSH2 0xBBB JUMP JUMPDEST PUSH1 0x1 SLOAD SWAP1 SWAP2 POP PUSH1 0x0 JUMPDEST DUP2 DUP2 LT ISZERO PUSH2 0x452 JUMPI PUSH1 0x0 PUSH1 0x1 DUP3 DUP2 SLOAD DUP2 LT PUSH2 0x35D JUMPI PUSH2 0x35D PUSH2 0xBDD JUMP JUMPDEST PUSH1 0x0 SWAP2 DUP3 MSTORE PUSH1 0x20 DUP1 DUP4 KECCAK256 PUSH1 0x40 DUP1 MLOAD DUP1 DUP3 ADD SWAP1 SWAP2 MSTORE PUSH1 0x2 SWAP1 SWAP4 MUL ADD DUP1 SLOAD PUSH1 0x1 PUSH1 0x1 PUSH1 0xA0 SHL SUB AND DUP4 MSTORE PUSH1 0x1 ADD SLOAD SWAP1 DUP3 ADD DUP2 SWAP1 MSTORE SWAP1 SWAP3 POP PUSH1 0x64 SWAP1 PUSH2 0x39E SWAP1 DUP8 PUSH2 0xBA4 JUMP JUMPDEST PUSH2 0x3A8 SWAP2 SWAP1 PUSH2 0xBBB JUMP JUMPDEST SWAP1 POP PUSH1 0x0 DUP3 PUSH1 0x0 ADD MLOAD PUSH1 0x1 PUSH1 0x1 PUSH1 0xA0 SHL SUB AND DUP3 PUSH1 0x40 MLOAD PUSH1 0x0 PUSH1 0x40 MLOAD DUP1 DUP4 SUB DUP2 DUP6 DUP8 GAS CALL SWAP3 POP POP POP RETURNDATASIZE DUP1 PUSH1 0x0 DUP2 EQ PUSH2 0x3FB JUMPI PUSH1 0x40 MLOAD SWAP2 POP PUSH1 0x1F NOT PUSH1 0x3F RETURNDATASIZE ADD AND DUP3 ADD PUSH1 0x40 MSTORE RETURNDATASIZE DUP3 MSTORE RETURNDATASIZE PUSH1 0x0 PUSH1 0x20 DUP5 ADD RETURNDATACOPY PUSH2 0x400 JUMP JUMPDEST PUSH1 0x60 SWAP2 POP JUMPDEST POP POP SWAP1 POP DUP1 PUSH2 0x43C JUMPI DUP3 MLOAD PUSH1 0x40 MLOAD PUSH4 0x373A7D43 PUSH1 0xE1 SHL DUP2 MSTORE PUSH1 0x1 PUSH1 0x1 PUSH1 0xA0 SHL SUB SWAP1 SWAP2 AND PUSH1 0x4 DUP3 ADD MSTORE PUSH1 0x24 DUP2 ADD DUP4 SWAP1 MSTORE PUSH1 0x44 ADD JUMPDEST PUSH1 0x40 MLOAD DUP1 SWAP2 SUB SWAP1 REVERT JUMPDEST POP POP POP DUP1 DUP1 PUSH2 0x44A SWAP1 PUSH2 0xBF3 JUMP JUMPDEST SWAP2 POP POP PUSH2 0x340 JUMP JUMPDEST POP POP POP POP JUMP JUMPDEST PUSH2 0x460 PUSH2 0x991 JUMP JUMPDEST PUSH1 0x5 DUP1 SLOAD PUSH1 0xFF NOT AND DUP3 ISZERO ISZERO SWAP1 DUP2 OR SWAP1 SWAP2 SSTORE PUSH1 0x40 MLOAD SWAP1 DUP2 MSTORE PUSH32 0xAFF50328F57C9CED983A9E3C360C67EE11633D860350531F0C11FC435751448C SWAP1 PUSH1 0x20 ADD PUSH1 0x40 MLOAD DUP1 SWAP2 SUB SWAP1 LOG1 POP JUMP JUMPDEST PUSH2 0x4AF PUSH2 0x991 JUMP JUMPDEST PUSH2 0x4B9 PUSH1 0x0 PUSH2 0x9BE JUMP JUMPDEST JUMP JUMPDEST PUSH2 0x4C3 PUSH2 0x991 JUMP JUMPDEST PUSH1 0x0 JUMPDEST PUSH1 0x3 DUP2 LT ISZERO PUSH2 0x57E JUMPI PUSH1 0x0 DUP4 DUP3 PUSH1 0x3 DUP2 LT PUSH2 0x4E3 JUMPI PUSH2 0x4E3 PUSH2 0xBDD JUMP JUMPDEST PUSH1 0x20 MUL ADD PUSH1 0x20 DUP2 ADD SWAP1 PUSH2 0x4F6 SWAP2 SWAP1 PUSH2 0xAE1 JUMP JUMPDEST SWAP1 POP PUSH1 0x0 PUSH1 0x64 DUP5 DUP5 PUSH1 0x3 DUP2 LT PUSH2 0x50E JUMPI PUSH2 0x50E PUSH2 0xBDD JUMP JUMPDEST PUSH1 0x20 MUL ADD CALLDATALOAD SELFBALANCE PUSH2 0x51E SWAP2 SWAP1 PUSH2 0xBA4 JUMP JUMPDEST PUSH2 0x528 SWAP2 SWAP1 PUSH2 0xBBB JUMP JUMPDEST SWAP1 POP DUP2 PUSH1 0x2 DUP5 PUSH1 0x3 DUP2 LT PUSH2 0x53E JUMPI PUSH2 0x53E PUSH2 0xBDD JUMP JUMPDEST ADD DUP1 SLOAD PUSH1 0x1 PUSH1 0x1 PUSH1 0xA0 SHL SUB NOT AND PUSH1 0x1 PUSH1 0x1 PUSH1 0xA0 SHL SUB SWAP3 DUP4 AND OR SWAP1 SSTORE SWAP2 SWAP1 SWAP2 AND PUSH1 0x0 SWAP1 DUP2 MSTORE PUSH1 0x6 PUSH1 0x20 MSTORE PUSH1 0x40 SWAP1 KECCAK256 SSTORE DUP1 PUSH2 0x576 DUP2 PUSH2 0xBF3 JUMP JUMPDEST SWAP2 POP POP PUSH2 0x4C6 JUMP JUMPDEST POP PUSH32 0x60F4D73182A956A559D177842626B4743585A36652A74D3EB1500E4479AC06EA DUP3 PUSH1 0x40 MLOAD PUSH2 0x5AE SWAP2 SWAP1 PUSH2 0xC0C JUMP JUMPDEST PUSH1 0x40 MLOAD DUP1 SWAP2 SUB SWAP1 LOG1 POP POP JUMP JUMPDEST PUSH1 0x1 PUSH1 0x1 PUSH1 0xA0 SHL SUB DUP2 DUP2 AND PUSH1 0x0 DUP2 DUP2 MSTORE PUSH1 0x6 PUSH1 0x20 MSTORE PUSH1 0x40 DUP1 DUP3 KECCAK256 SLOAD SWAP1 MLOAD PUSH4 0x70A08231 PUSH1 0xE0 SHL DUP2 MSTORE SWAP4 DUP7 AND PUSH1 0x4 DUP6 ADD MSTORE SWAP1 SWAP3 SWAP1 SWAP2 DUP4 SWAP2 PUSH4 0x70A08231 SWAP1 PUSH1 0x24 ADD PUSH1 0x20 PUSH1 0x40 MLOAD DUP1 DUP4 SUB DUP2 DUP7 GAS STATICCALL ISZERO DUP1 ISZERO PUSH2 0x615 JUMPI RETURNDATASIZE PUSH1 0x0 DUP1 RETURNDATACOPY RETURNDATASIZE PUSH1 0x0 REVERT JUMPDEST POP POP POP POP PUSH1 0x40 MLOAD RETURNDATASIZE PUSH1 0x1F NOT PUSH1 0x1F DUP3 ADD AND DUP3 ADD DUP1 PUSH1 0x40 MSTORE POP DUP2 ADD SWAP1 PUSH2 0x639 SWAP2 SWAP1 PUSH2 0xC45 JUMP JUMPDEST SWAP1 POP PUSH1 0x0 DUP5 PUSH1 0x1 PUSH1 0x1 PUSH1 0xA0 SHL SUB AND PUSH4 0x18160DDD PUSH1 0x40 MLOAD DUP2 PUSH4 0xFFFFFFFF AND PUSH1 0xE0 SHL DUP2 MSTORE PUSH1 0x4 ADD PUSH1 0x20 PUSH1 0x40 MLOAD DUP1 DUP4 SUB DUP2 DUP7 GAS STATICCALL ISZERO DUP1 ISZERO PUSH2 0x67B JUMPI RETURNDATASIZE PUSH1 0x0 DUP1 RETURNDATACOPY RETURNDATASIZE PUSH1 0x0 REVERT JUMPDEST POP POP POP POP PUSH1 0x40 MLOAD RETURNDATASIZE PUSH1 0x1F NOT PUSH1 0x1F DUP3 ADD AND DUP3 ADD DUP1 PUSH1 0x40 MSTORE POP DUP2 ADD SWAP1 PUSH2 0x69F SWAP2 SWAP1 PUSH2 0xC45 JUMP JUMPDEST SWAP1 POP DUP2 PUSH1 0x0 SUB PUSH2 0x6C2 JUMPI PUSH1 0x40 MLOAD PUSH4 0x66F3EF9B PUSH1 0xE0 SHL DUP2 MSTORE PUSH1 0x4 ADD PUSH1 0x40 MLOAD DUP1 SWAP2 SUB SWAP1 REVERT JUMPDEST DUP1 PUSH2 0x6CD DUP5 DUP5 PUSH2 0xBA4 JUMP JUMPDEST PUSH2 0x6D7 SWAP2 SWAP1 PUSH2 0xBBB JUMP JUMPDEST SWAP4 POP POP POP POP JUMPDEST SWAP3 SWAP2 POP POP JUMP JUMPDEST PUSH2 0x6EB PUSH2 0xA0E JUMP JUMPDEST PUSH1 0x40 DUP1 MLOAD PUSH1 0x60 DUP2 ADD SWAP2 DUP3 SWAP1 MSTORE SWAP1 PUSH1 0x2 SWAP1 PUSH1 0x3 SWAP1 DUP3 DUP5 JUMPDEST DUP2 SLOAD PUSH1 0x1 PUSH1 0x1 PUSH1 0xA0 SHL SUB AND DUP2 MSTORE PUSH1 0x1 SWAP1 SWAP2 ADD SWAP1 PUSH1 0x20 ADD DUP1 DUP4 GT PUSH2 0x701 JUMPI POP POP POP POP POP SWAP1 POP SWAP1 JUMP JUMPDEST PUSH1 0x1 PUSH1 0x1 PUSH1 0xA0 SHL SUB DUP2 AND PUSH2 0x74F JUMPI PUSH1 0x40 MLOAD PUSH4 0xD92E233D PUSH1 0xE0 SHL DUP2 MSTORE PUSH1 0x4 ADD PUSH1 0x40 MLOAD DUP1 SWAP2 SUB SWAP1 REVERT JUMPDEST PUSH1 0x1 PUSH1 0x1 PUSH1 0xA0 SHL SUB DUP2 AND PUSH1 0x0 SWAP1 DUP2 MSTORE PUSH1 0x6 PUSH1 0x20 MSTORE PUSH1 0x40 DUP2 KECCAK256 SLOAD SWAP1 SUB PUSH2 0x787 JUMPI PUSH1 0x40 MLOAD PUSH4 0xD937573F PUSH1 0xE0 SHL DUP2 MSTORE PUSH1 0x4 ADD PUSH1 0x40 MLOAD DUP1 SWAP2 SUB SWAP1 REVERT JUMPDEST CALLER PUSH1 0x0 SWAP1 DUP2 MSTORE PUSH1 0x7 PUSH1 0x20 SWAP1 DUP2 MSTORE PUSH1 0x40 DUP1 DUP4 KECCAK256 PUSH1 0x1 PUSH1 0x1 PUSH1 0xA0 SHL SUB DUP6 AND DUP5 MSTORE SWAP1 SWAP2 MSTORE SWAP1 KECCAK256 SLOAD PUSH1 0xFF AND ISZERO PUSH2 0x7CC JUMPI PUSH1 0x40 MLOAD PUSH4 0x48798A9 PUSH1 0xE4 SHL DUP2 MSTORE PUSH1 0x4 ADD PUSH1 0x40 MLOAD DUP1 SWAP2 SUB SWAP1 REVERT JUMPDEST PUSH1 0x0 PUSH2 0x7D8 CALLER DUP4 PUSH2 0x5BA JUMP JUMPDEST PUSH1 0x1 PUSH1 0x1 PUSH1 0xA0 SHL SUB DUP4 AND PUSH1 0x0 SWAP1 DUP2 MSTORE PUSH1 0x6 PUSH1 0x20 MSTORE PUSH1 0x40 SWAP1 KECCAK256 SLOAD SWAP1 SWAP2 POP PUSH2 0x7FF SWAP1 DUP3 SWAP1 PUSH2 0xC5E JUMP JUMPDEST PUSH1 0x1 PUSH1 0x1 PUSH1 0xA0 SHL SUB DUP4 AND PUSH1 0x0 DUP2 DUP2 MSTORE PUSH1 0x6 PUSH1 0x20 SWAP1 DUP2 MSTORE PUSH1 0x40 DUP1 DUP4 KECCAK256 SWAP5 SWAP1 SWAP5 SSTORE CALLER DUP1 DUP4 MSTORE PUSH1 0x7 DUP3 MSTORE DUP5 DUP4 KECCAK256 SWAP4 DUP4 MSTORE SWAP3 SWAP1 MSTORE DUP3 DUP2 KECCAK256 DUP1 SLOAD PUSH1 0xFF NOT AND PUSH1 0x1 OR SWAP1 SSTORE SWAP2 MLOAD DUP4 SWAP1 DUP4 DUP2 DUP2 DUP2 DUP6 DUP8 GAS CALL SWAP3 POP POP POP RETURNDATASIZE DUP1 PUSH1 0x0 DUP2 EQ PUSH2 0x879 JUMPI PUSH1 0x40 MLOAD SWAP2 POP PUSH1 0x1F NOT PUSH1 0x3F RETURNDATASIZE ADD AND DUP3 ADD PUSH1 0x40 MSTORE RETURNDATASIZE DUP3 MSTORE RETURNDATASIZE PUSH1 0x0 PUSH1 0x20 DUP5 ADD RETURNDATACOPY PUSH2 0x87E JUMP JUMPDEST PUSH1 0x60 SWAP2 POP JUMPDEST POP POP SWAP1 POP DUP1 PUSH2 0x8A0 JUMPI PUSH1 0x40 MLOAD PUSH4 0x12171D83 PUSH1 0xE3 SHL DUP2 MSTORE PUSH1 0x4 ADD PUSH1 0x40 MLOAD DUP1 SWAP2 SUB SWAP1 REVERT JUMPDEST PUSH1 0x40 DUP1 MLOAD CALLER DUP2 MSTORE PUSH1 0x20 DUP2 ADD DUP5 SWAP1 MSTORE PUSH32 0x95681E512BC0FE659E195E06C283EADA494316F3D801213E48E7101AF92BF770 SWAP2 ADD PUSH1 0x40 MLOAD DUP1 SWAP2 SUB SWAP1 LOG1 POP POP POP JUMP JUMPDEST PUSH1 0x60 PUSH1 0x1 DUP1 SLOAD DUP1 PUSH1 0x20 MUL PUSH1 0x20 ADD PUSH1 0x40 MLOAD SWAP1 DUP2 ADD PUSH1 0x40 MSTORE DUP1 SWAP3 SWAP2 SWAP1 DUP2 DUP2 MSTORE PUSH1 0x20 ADD PUSH1 0x0 SWAP1 JUMPDEST DUP3 DUP3 LT ISZERO PUSH2 0x94A JUMPI PUSH1 0x0 DUP5 DUP2 MSTORE PUSH1 0x20 SWAP1 DUP2 SWAP1 KECCAK256 PUSH1 0x40 DUP1 MLOAD DUP1 DUP3 ADD SWAP1 SWAP2 MSTORE PUSH1 0x2 DUP6 MUL SWAP1 SWAP2 ADD DUP1 SLOAD PUSH1 0x1 PUSH1 0x1 PUSH1 0xA0 SHL SUB AND DUP3 MSTORE PUSH1 0x1 SWAP1 DUP2 ADD SLOAD DUP3 DUP5 ADD MSTORE SWAP1 DUP4 MSTORE SWAP1 SWAP3 ADD SWAP2 ADD PUSH2 0x902 JUMP JUMPDEST POP POP POP POP SWAP1 POP SWAP1 JUMP JUMPDEST PUSH2 0x95B PUSH2 0x991 JUMP JUMPDEST PUSH1 0x1 PUSH1 0x1 PUSH1 0xA0 SHL SUB DUP2 AND PUSH2 0x985 JUMPI PUSH1 0x40 MLOAD PUSH4 0x1E4FBDF7 PUSH1 0xE0 SHL DUP2 MSTORE PUSH1 0x0 PUSH1 0x4 DUP3 ADD MSTORE PUSH1 0x24 ADD PUSH2 0x433 JUMP JUMPDEST PUSH2 0x98E DUP2 PUSH2 0x9BE JUMP JUMPDEST POP JUMP JUMPDEST PUSH1 0x0 SLOAD PUSH1 0x1 PUSH1 0x1 PUSH1 0xA0 SHL SUB AND CALLER EQ PUSH2 0x4B9 JUMPI PUSH1 0x40 MLOAD PUSH4 0x118CDAA7 PUSH1 0xE0 SHL DUP2 MSTORE CALLER PUSH1 0x4 DUP3 ADD MSTORE PUSH1 0x24 ADD PUSH2 0x433 JUMP JUMPDEST PUSH1 0x0 DUP1 SLOAD PUSH1 0x1 PUSH1 0x1 PUSH1 0xA0 SHL SUB DUP4 DUP2 AND PUSH1 0x1 PUSH1 0x1 PUSH1 0xA0 SHL SUB NOT DUP4 AND DUP2 OR DUP5 SSTORE PUSH1 0x40 MLOAD SWAP2 SWAP1 SWAP3 AND SWAP3 DUP4 SWAP2 PUSH32 0x8BE0079C531659141344CD1FD0A4F28419497F9722A3DAAFE3B4186F6B6457E0 SWAP2 SWAP1 LOG3 POP POP JUMP JUMPDEST PUSH1 0x40 MLOAD DUP1 PUSH1 0x60 ADD PUSH1 0x40 MSTORE DUP1 PUSH1 0x3 SWAP1 PUSH1 0x20 DUP3 MUL DUP1 CALLDATASIZE DUP4 CALLDATACOPY POP SWAP2 SWAP3 SWAP2 POP POP JUMP JUMPDEST PUSH1 0x0 PUSH1 0x20 DUP3 DUP5 SUB SLT ISZERO PUSH2 0xA3E JUMPI PUSH1 0x0 DUP1 REVERT JUMPDEST DUP2 CALLDATALOAD DUP1 ISZERO ISZERO DUP2 EQ PUSH2 0xA4E JUMPI PUSH1 0x0 DUP1 REVERT JUMPDEST SWAP4 SWAP3 POP POP POP JUMP JUMPDEST DUP1 PUSH1 0x60 DUP2 ADD DUP4 LT ISZERO PUSH2 0x6DD JUMPI PUSH1 0x0 DUP1 REVERT JUMPDEST PUSH1 0x0 DUP1 PUSH1 0xC0 DUP4 DUP6 SUB SLT ISZERO PUSH2 0xA79 JUMPI PUSH1 0x0 DUP1 REVERT JUMPDEST PUSH2 0xA83 DUP5 DUP5 PUSH2 0xA55 JUMP JUMPDEST SWAP2 POP PUSH2 0xA92 DUP5 PUSH1 0x60 DUP6 ADD PUSH2 0xA55 JUMP JUMPDEST SWAP1 POP SWAP3 POP SWAP3 SWAP1 POP JUMP JUMPDEST DUP1 CALLDATALOAD PUSH1 0x1 PUSH1 0x1 PUSH1 0xA0 SHL SUB DUP2 AND DUP2 EQ PUSH2 0xAB2 JUMPI PUSH1 0x0 DUP1 REVERT JUMPDEST SWAP2 SWAP1 POP JUMP JUMPDEST PUSH1 0x0 DUP1 PUSH1 0x40 DUP4 DUP6 SUB SLT ISZERO PUSH2 0xACA JUMPI PUSH1 0x0 DUP1 REVERT JUMPDEST PUSH2 0xAD3 DUP4 PUSH2 0xA9B JUMP JUMPDEST SWAP2 POP PUSH2 0xA92 PUSH1 0x20 DUP5 ADD PUSH2 0xA9B JUMP JUMPDEST PUSH1 0x0 PUSH1 0x20 DUP3 DUP5 SUB SLT ISZERO PUSH2 0xAF3 JUMPI PUSH1 0x0 DUP1 REVERT JUMPDEST PUSH2 0xA4E DUP3 PUSH2 0xA9B JUMP JUMPDEST PUSH1 0x60 DUP2 ADD DUP2 DUP4 PUSH1 0x0 JUMPDEST PUSH1 0x3 DUP2 LT ISZERO PUSH2 0xB2D JUMPI DUP2 MLOAD PUSH1 0x1 PUSH1 0x1 PUSH1 0xA0 SHL SUB AND DUP4 MSTORE PUSH1 0x20 SWAP3 DUP4 ADD SWAP3 SWAP1 SWAP2 ADD SWAP1 PUSH1 0x1 ADD PUSH2 0xB05 JUMP JUMPDEST POP POP POP SWAP3 SWAP2 POP POP JUMP JUMPDEST PUSH1 0x20 DUP1 DUP3 MSTORE DUP3 MLOAD DUP3 DUP3 ADD DUP2 SWAP1 MSTORE PUSH1 0x0 SWAP2 SWAP1 PUSH1 0x40 SWAP1 DUP2 DUP6 ADD SWAP1 DUP7 DUP5 ADD DUP6 JUMPDEST DUP3 DUP2 LT ISZERO PUSH2 0xB81 JUMPI DUP2 MLOAD DUP1 MLOAD PUSH1 0x1 PUSH1 0x1 PUSH1 0xA0 SHL SUB AND DUP6 MSTORE DUP7 ADD MLOAD DUP7 DUP6 ADD MSTORE SWAP3 DUP5 ADD SWAP3 SWAP1 DUP6 ADD SWAP1 PUSH1 0x1 ADD PUSH2 0xB53 JUMP JUMPDEST POP SWAP2 SWAP8 SWAP7 POP POP POP POP POP POP POP JUMP JUMPDEST PUSH4 0x4E487B71 PUSH1 0xE0 SHL PUSH1 0x0 MSTORE PUSH1 0x11 PUSH1 0x4 MSTORE PUSH1 0x24 PUSH1 0x0 REVERT JUMPDEST DUP1 DUP3 MUL DUP2 ISZERO DUP3 DUP3 DIV DUP5 EQ OR PUSH2 0x6DD JUMPI PUSH2 0x6DD PUSH2 0xB8E JUMP JUMPDEST PUSH1 0x0 DUP3 PUSH2 0xBD8 JUMPI PUSH4 0x4E487B71 PUSH1 0xE0 SHL PUSH1 0x0 MSTORE PUSH1 0x12 PUSH1 0x4 MSTORE PUSH1 0x24 PUSH1 0x0 REVERT JUMPDEST POP DIV SWAP1 JUMP JUMPDEST PUSH4 0x4E487B71 PUSH1 0xE0 SHL PUSH1 0x0 MSTORE PUSH1 0x32 PUSH1 0x4 MSTORE PUSH1 0x24 PUSH1 0x0 REVERT JUMPDEST PUSH1 0x0 PUSH1 0x1 DUP3 ADD PUSH2 0xC05 JUMPI PUSH2 0xC05 PUSH2 0xB8E JUMP JUMPDEST POP PUSH1 0x1 ADD SWAP1 JUMP JUMPDEST PUSH1 0x60 DUP2 ADD DUP2 DUP4 PUSH1 0x0 JUMPDEST PUSH1 0x3 DUP2 LT ISZERO PUSH2 0xB2D JUMPI PUSH1 0x1 PUSH1 0x1 PUSH1 0xA0 SHL SUB PUSH2 0xC2F DUP4 PUSH2 0xA9B JUMP JUMPDEST AND DUP4 MSTORE PUSH1 0x20 SWAP3 DUP4 ADD SWAP3 SWAP2 SWAP1 SWAP2 ADD SWAP1 PUSH1 0x1 ADD PUSH2 0xC15 JUMP JUMPDEST PUSH1 0x0 PUSH1 0x20 DUP3 DUP5 SUB SLT ISZERO PUSH2 0xC57 JUMPI PUSH1 0x0 DUP1 REVERT JUMPDEST POP MLOAD SWAP2 SWAP1 POP JUMP JUMPDEST DUP2 DUP2 SUB DUP2 DUP2 GT ISZERO PUSH2 0x6DD JUMPI PUSH2 0x6DD PUSH2 0xB8E JUMP INVALID LOG2 PUSH5 0x6970667358 0x22 SLT KECCAK256 DUP2 0x1E 0xBC PUSH13 0xF3B57995EA9095503F3F29ECE1 PUSH7 0x794A73A377BFC3 0x29 XOR PUSH21 0xD4F55ECF64736F6C63430008140033000000000000 "},"gasEstimates":{"creation":{"codeDepositCost":"647800","executionCost":"infinite","totalCost":"infinite"},"external":{"":"infinite","FEE_PERCENTAGE()":"208","MAX_WINNERS()":"252","SHARE_PRECISION()":"207","claimPrize(address)":"infinite","getCreators()":"infinite","getPrize(address,address)":"infinite","getTicketPrize(address)":"2571","getWinners()":"infinite","isClaimed(address,address)":"infinite","owner()":"2324","renounceOwnership()":"infinite","setMintStatus(bool)":"27763","setWinners(address[3],uint256[3])":"infinite","transferOwnership(address)":"28421"},"internal":{"_handleDeposit(uint256)":"infinite"}},"methodIdentifiers":{"FEE_PERCENTAGE()":"000b46f8","MAX_WINNERS()":"29a62a76","SHARE_PRECISION()":"5fc5e020","claimPrize(address)":"e5e9b661","getCreators()":"e6adc1ee","getPrize(address,address)":"7eef2509","getTicketPrize(address)":"9966db94","getWinners()":"df15c37e","isClaimed(address,address)":"a4df0758","owner()":"8da5cb5b","renounceOwnership()":"715018a6","setMintStatus(bool)":"1f85e3ca","setWinners(address[3],uint256[3])":"76602f2f","transferOwnership(address)":"f2fde38b"}},"storageLayout":{"storage":[{"astId":3318,"contract":"contracts/EurocupLegends.sol:EurocupLegends","label":"_owner","offset":0,"slot":"0","type":"t_address"},{"astId":4357,"contract":"contracts/EurocupLegends.sol:EurocupLegends","label":"s_creators","offset":0,"slot":"1","type":"t_array(t_struct(Creator)4777_storage)dyn_storage"},{"astId":4361,"contract":"contracts/EurocupLegends.sol:EurocupLegends","label":"s_winners","offset":0,"slot":"2","type":"t_array(t_address)3_storage"},{"astId":4364,"contract":"contracts/EurocupLegends.sol:EurocupLegends","label":"s_isMintOpen","offset":0,"slot":"5","type":"t_bool"},{"astId":4368,"contract":"contracts/EurocupLegends.sol:EurocupLegends","label":"s_prizes","offset":0,"slot":"6","type":"t_mapping(t_address,t_uint256)"},{"astId":4374,"contract":"contracts/EurocupLegends.sol:EurocupLegends","label":"s_isClaimed","offset":0,"slot":"7","type":"t_mapping(t_address,t_mapping(t_address,t_bool))"}],"types":{"t_address":{"encoding":"inplace","label":"address","numberOfBytes":"20"},"t_array(t_address)3_storage":{"base":"t_address","encoding":"inplace","label":"address[3]","numberOfBytes":"96"},"t_array(t_struct(Creator)4777_storage)dyn_storage":{"base":"t_struct(Creator)4777_storage","encoding":"dynamic_array","label":"struct IEurocupLegends.Creator[]","numberOfBytes":"32"},"t_bool":{"encoding":"inplace","label":"bool","numberOfBytes":"1"},"t_mapping(t_address,t_bool)":{"encoding":"mapping","key":"t_address","label":"mapping(address => bool)","numberOfBytes":"32","value":"t_bool"},"t_mapping(t_address,t_mapping(t_address,t_bool))":{"encoding":"mapping","key":"t_address","label":"mapping(address => mapping(address => bool))","numberOfBytes":"32","value":"t_mapping(t_address,t_bool)"},"t_mapping(t_address,t_uint256)":{"encoding":"mapping","key":"t_address","label":"mapping(address => uint256)","numberOfBytes":"32","value":"t_uint256"},"t_struct(Creator)4777_storage":{"encoding":"inplace","label":"struct IEurocupLegends.Creator","members":[{"astId":4774,"contract":"contracts/EurocupLegends.sol:EurocupLegends","label":"creator","offset":0,"slot":"0","type":"t_address"},{"astId":4776,"contract":"contracts/EurocupLegends.sol:EurocupLegends","label":"share","offset":0,"slot":"1","type":"t_uint256"}],"numberOfBytes":"64"},"t_uint256":{"encoding":"inplace","label":"uint256","numberOfBytes":"32"}}},"userdoc":{"kind":"user","methods":{},"version":1}}}}