{"contracts/mocks/UPMock.sol":{"UPMock":{"abi":[{"anonymous":false,"inputs":[{"indexed":true,"internalType":"address","name":"from","type":"address"},{"indexed":true,"internalType":"uint256","name":"value","type":"uint256"},{"indexed":true,"internalType":"bytes32","name":"typeId","type":"bytes32"},{"indexed":false,"internalType":"bytes","name":"receivedData","type":"bytes"},{"indexed":false,"internalType":"bytes","name":"returnedValue","type":"bytes"}],"name":"UniversalReceiver","type":"event"},{"stateMutability":"payable","type":"fallback"},{"inputs":[],"name":"fund","outputs":[],"stateMutability":"payable","type":"function"},{"inputs":[],"name":"getBalance","outputs":[{"internalType":"uint256","name":"","type":"uint256"}],"stateMutability":"view","type":"function"},{"inputs":[{"internalType":"bytes32","name":"","type":"bytes32"},{"internalType":"bytes","name":"","type":"bytes"}],"name":"isValidSignature","outputs":[{"internalType":"bytes4","name":"","type":"bytes4"}],"stateMutability":"pure","type":"function"},{"inputs":[{"internalType":"address","name":"_bpunx","type":"address"},{"internalType":"uint256","name":"_amount","type":"uint256"}],"name":"mint","outputs":[],"stateMutability":"payable","type":"function"},{"inputs":[{"internalType":"bytes4","name":"interfaceId","type":"bytes4"}],"name":"supportsInterface","outputs":[{"internalType":"bool","name":"","type":"bool"}],"stateMutability":"view","type":"function"},{"inputs":[{"internalType":"bytes32","name":"typeId","type":"bytes32"},{"internalType":"bytes","name":"data","type":"bytes"}],"name":"universalReceiver","outputs":[{"internalType":"bytes","name":"returnValue","type":"bytes"}],"stateMutability":"payable","type":"function"},{"stateMutability":"payable","type":"receive"}],"devdoc":{"events":{"UniversalReceiver(address,uint256,bytes32,bytes,bytes)":{"details":"Emitted when the {universalReceiver} function was called with a specific `typeId` and some `receivedData`","params":{"from":"The address of the EOA or smart contract that called the {universalReceiver(...)} function.","receivedData":"Any arbitrary data that was sent to the {universalReceiver(...)} function.","returnedValue":"The value returned by the {universalReceiver(...)} function.","typeId":"A `bytes32` unique identifier (= _\"hook\"_)that describe the type of notification, information or transaction received by the contract. Can be related to a specific standard or a hook.","value":"The amount sent to the {universalReceiver(...)} function."}}},"kind":"dev","methods":{"universalReceiver(bytes32,bytes)":{"details":"Generic function that can be used to notify the contract about specific incoming transactions or events like asset transfers, vault transfers, etc. Allows for custom on-chain and off-chain reactions based on the `typeId` and `data`.","params":{"data":"The arbitrary data received with the call.","typeId":"The hash of a specific standard or a hook."}}},"version":1},"evm":{"bytecode":{"linkReferences":{},"object":"608060405234801561001057600080fd5b506104bb806100206000396000f3fe6080604052600436106100565760003560e01c806301ffc9a71461005f57806312065fe0146100945780631626ba7e146100af57806340c10f19146100f25780636bb56a1414610105578063b60d42881461005d57005b3661005d57005b005b34801561006b57600080fd5b5061007f61007a36600461024c565b610125565b60405190151581526020015b60405180910390f35b3480156100a057600080fd5b5060405147815260200161008b565b3480156100bb57600080fd5b506100d96100ca36600461027d565b630b135d3f60e11b9392505050565b6040516001600160e01b0319909116815260200161008b565b61005d6101003660046102f9565b610177565b610118610113366004610347565b6101d7565b60405161008b9190610448565b60006001600160e01b03198216631aed5a8560e21b148061015657506001600160e01b031982166324871b3d60e01b145b8061017157506301ffc9a760e01b6001600160e01b03198316145b92915050565b60405163140e25ad60e31b8152600481018290526001600160a01b0383169063a0712d689034906024016000604051808303818588803b1580156101ba57600080fd5b505af11580156101ce573d6000803e3d6000fd5b50505050505050565b60608234336001600160a01b03167f9c3ba68eb5742b8e3961aea0afc7371a71bf433c8a67a831803b64c064a178c285604051610214919061045b565b60405180910390a4506040805180820190915260128152717468616e6b7320666f722063616c6c696e6760701b602082015292915050565b60006020828403121561025e57600080fd5b81356001600160e01b03198116811461027657600080fd5b9392505050565b60008060006040848603121561029257600080fd5b83359250602084013567ffffffffffffffff808211156102b157600080fd5b818601915086601f8301126102c557600080fd5b8135818111156102d457600080fd5b8760208285010111156102e657600080fd5b6020830194508093505050509250925092565b6000806040838503121561030c57600080fd5b82356001600160a01b038116811461032357600080fd5b946020939093013593505050565b634e487b7160e01b600052604160045260246000fd5b6000806040838503121561035a57600080fd5b82359150602083013567ffffffffffffffff8082111561037957600080fd5b818501915085601f83011261038d57600080fd5b81358181111561039f5761039f610331565b604051601f8201601f19908116603f011681019083821181831017156103c7576103c7610331565b816040528281528860208487010111156103e057600080fd5b8260208601602083013760006020848301015280955050505050509250929050565b6000815180845260005b818110156104285760208185018101518683018201520161040c565b506000602082860101526020601f19601f83011685010191505092915050565b6020815260006102766020830184610402565b60408152600061046e6040830184610402565b82810360209384015260008152919091019291505056fea2646970667358221220f79b2b9ec9aac963866861d5766e60067eb3534494fd19549d78b404bbf1778c64736f6c63430008140033","opcodes":"PUSH1 0x80 PUSH1 0x40 MSTORE CALLVALUE DUP1 ISZERO PUSH2 0x10 JUMPI PUSH1 0x0 DUP1 REVERT JUMPDEST POP PUSH2 0x4BB DUP1 PUSH2 0x20 PUSH1 0x0 CODECOPY PUSH1 0x0 RETURN INVALID PUSH1 0x80 PUSH1 0x40 MSTORE PUSH1 0x4 CALLDATASIZE LT PUSH2 0x56 JUMPI PUSH1 0x0 CALLDATALOAD PUSH1 0xE0 SHR DUP1 PUSH4 0x1FFC9A7 EQ PUSH2 0x5F JUMPI DUP1 PUSH4 0x12065FE0 EQ PUSH2 0x94 JUMPI DUP1 PUSH4 0x1626BA7E EQ PUSH2 0xAF JUMPI DUP1 PUSH4 0x40C10F19 EQ PUSH2 0xF2 JUMPI DUP1 PUSH4 0x6BB56A14 EQ PUSH2 0x105 JUMPI DUP1 PUSH4 0xB60D4288 EQ PUSH2 0x5D JUMPI STOP JUMPDEST CALLDATASIZE PUSH2 0x5D JUMPI STOP JUMPDEST STOP JUMPDEST CALLVALUE DUP1 ISZERO PUSH2 0x6B JUMPI PUSH1 0x0 DUP1 REVERT JUMPDEST POP PUSH2 0x7F PUSH2 0x7A CALLDATASIZE PUSH1 0x4 PUSH2 0x24C JUMP JUMPDEST PUSH2 0x125 JUMP JUMPDEST PUSH1 0x40 MLOAD SWAP1 ISZERO ISZERO DUP2 MSTORE PUSH1 0x20 ADD JUMPDEST PUSH1 0x40 MLOAD DUP1 SWAP2 SUB SWAP1 RETURN JUMPDEST CALLVALUE DUP1 ISZERO PUSH2 0xA0 JUMPI PUSH1 0x0 DUP1 REVERT JUMPDEST POP PUSH1 0x40 MLOAD SELFBALANCE DUP2 MSTORE PUSH1 0x20 ADD PUSH2 0x8B JUMP JUMPDEST CALLVALUE DUP1 ISZERO PUSH2 0xBB JUMPI PUSH1 0x0 DUP1 REVERT JUMPDEST POP PUSH2 0xD9 PUSH2 0xCA CALLDATASIZE PUSH1 0x4 PUSH2 0x27D JUMP JUMPDEST PUSH4 0xB135D3F PUSH1 0xE1 SHL SWAP4 SWAP3 POP POP POP JUMP JUMPDEST PUSH1 0x40 MLOAD PUSH1 0x1 PUSH1 0x1 PUSH1 0xE0 SHL SUB NOT SWAP1 SWAP2 AND DUP2 MSTORE PUSH1 0x20 ADD PUSH2 0x8B JUMP JUMPDEST PUSH2 0x5D PUSH2 0x100 CALLDATASIZE PUSH1 0x4 PUSH2 0x2F9 JUMP JUMPDEST PUSH2 0x177 JUMP JUMPDEST PUSH2 0x118 PUSH2 0x113 CALLDATASIZE PUSH1 0x4 PUSH2 0x347 JUMP JUMPDEST PUSH2 0x1D7 JUMP JUMPDEST PUSH1 0x40 MLOAD PUSH2 0x8B SWAP2 SWAP1 PUSH2 0x448 JUMP JUMPDEST PUSH1 0x0 PUSH1 0x1 PUSH1 0x1 PUSH1 0xE0 SHL SUB NOT DUP3 AND PUSH4 0x1AED5A85 PUSH1 0xE2 SHL EQ DUP1 PUSH2 0x156 JUMPI POP PUSH1 0x1 PUSH1 0x1 PUSH1 0xE0 SHL SUB NOT DUP3 AND PUSH4 0x24871B3D PUSH1 0xE0 SHL EQ JUMPDEST DUP1 PUSH2 0x171 JUMPI POP PUSH4 0x1FFC9A7 PUSH1 0xE0 SHL PUSH1 0x1 PUSH1 0x1 PUSH1 0xE0 SHL SUB NOT DUP4 AND EQ JUMPDEST SWAP3 SWAP2 POP POP JUMP JUMPDEST PUSH1 0x40 MLOAD PUSH4 0x140E25AD PUSH1 0xE3 SHL DUP2 MSTORE PUSH1 0x4 DUP2 ADD DUP3 SWAP1 MSTORE PUSH1 0x1 PUSH1 0x1 PUSH1 0xA0 SHL SUB DUP4 AND SWAP1 PUSH4 0xA0712D68 SWAP1 CALLVALUE SWAP1 PUSH1 0x24 ADD PUSH1 0x0 PUSH1 0x40 MLOAD DUP1 DUP4 SUB DUP2 DUP6 DUP9 DUP1 EXTCODESIZE ISZERO DUP1 ISZERO PUSH2 0x1BA JUMPI PUSH1 0x0 DUP1 REVERT JUMPDEST POP GAS CALL ISZERO DUP1 ISZERO PUSH2 0x1CE JUMPI RETURNDATASIZE PUSH1 0x0 DUP1 RETURNDATACOPY RETURNDATASIZE PUSH1 0x0 REVERT JUMPDEST POP POP POP POP POP POP POP JUMP JUMPDEST PUSH1 0x60 DUP3 CALLVALUE CALLER PUSH1 0x1 PUSH1 0x1 PUSH1 0xA0 SHL SUB AND PUSH32 0x9C3BA68EB5742B8E3961AEA0AFC7371A71BF433C8A67A831803B64C064A178C2 DUP6 PUSH1 0x40 MLOAD PUSH2 0x214 SWAP2 SWAP1 PUSH2 0x45B JUMP JUMPDEST PUSH1 0x40 MLOAD DUP1 SWAP2 SUB SWAP1 LOG4 POP PUSH1 0x40 DUP1 MLOAD DUP1 DUP3 ADD SWAP1 SWAP2 MSTORE PUSH1 0x12 DUP2 MSTORE PUSH18 0x7468616E6B7320666F722063616C6C696E67 PUSH1 0x70 SHL PUSH1 0x20 DUP3 ADD MSTORE SWAP3 SWAP2 POP POP JUMP JUMPDEST PUSH1 0x0 PUSH1 0x20 DUP3 DUP5 SUB SLT ISZERO PUSH2 0x25E JUMPI PUSH1 0x0 DUP1 REVERT JUMPDEST DUP2 CALLDATALOAD PUSH1 0x1 PUSH1 0x1 PUSH1 0xE0 SHL SUB NOT DUP2 AND DUP2 EQ PUSH2 0x276 JUMPI PUSH1 0x0 DUP1 REVERT JUMPDEST SWAP4 SWAP3 POP POP POP JUMP JUMPDEST PUSH1 0x0 DUP1 PUSH1 0x0 PUSH1 0x40 DUP5 DUP7 SUB SLT ISZERO PUSH2 0x292 JUMPI PUSH1 0x0 DUP1 REVERT JUMPDEST DUP4 CALLDATALOAD SWAP3 POP PUSH1 0x20 DUP5 ADD CALLDATALOAD PUSH8 0xFFFFFFFFFFFFFFFF DUP1 DUP3 GT ISZERO PUSH2 0x2B1 JUMPI PUSH1 0x0 DUP1 REVERT JUMPDEST DUP2 DUP7 ADD SWAP2 POP DUP7 PUSH1 0x1F DUP4 ADD SLT PUSH2 0x2C5 JUMPI PUSH1 0x0 DUP1 REVERT JUMPDEST DUP2 CALLDATALOAD DUP2 DUP2 GT ISZERO PUSH2 0x2D4 JUMPI PUSH1 0x0 DUP1 REVERT JUMPDEST DUP8 PUSH1 0x20 DUP3 DUP6 ADD ADD GT ISZERO PUSH2 0x2E6 JUMPI PUSH1 0x0 DUP1 REVERT JUMPDEST PUSH1 0x20 DUP4 ADD SWAP5 POP DUP1 SWAP4 POP POP POP POP SWAP3 POP SWAP3 POP SWAP3 JUMP JUMPDEST PUSH1 0x0 DUP1 PUSH1 0x40 DUP4 DUP6 SUB SLT ISZERO PUSH2 0x30C JUMPI PUSH1 0x0 DUP1 REVERT JUMPDEST DUP3 CALLDATALOAD PUSH1 0x1 PUSH1 0x1 PUSH1 0xA0 SHL SUB DUP2 AND DUP2 EQ PUSH2 0x323 JUMPI PUSH1 0x0 DUP1 REVERT JUMPDEST SWAP5 PUSH1 0x20 SWAP4 SWAP1 SWAP4 ADD CALLDATALOAD SWAP4 POP POP POP JUMP JUMPDEST PUSH4 0x4E487B71 PUSH1 0xE0 SHL PUSH1 0x0 MSTORE PUSH1 0x41 PUSH1 0x4 MSTORE PUSH1 0x24 PUSH1 0x0 REVERT JUMPDEST PUSH1 0x0 DUP1 PUSH1 0x40 DUP4 DUP6 SUB SLT ISZERO PUSH2 0x35A JUMPI PUSH1 0x0 DUP1 REVERT JUMPDEST DUP3 CALLDATALOAD SWAP2 POP PUSH1 0x20 DUP4 ADD CALLDATALOAD PUSH8 0xFFFFFFFFFFFFFFFF DUP1 DUP3 GT ISZERO PUSH2 0x379 JUMPI PUSH1 0x0 DUP1 REVERT JUMPDEST DUP2 DUP6 ADD SWAP2 POP DUP6 PUSH1 0x1F DUP4 ADD SLT PUSH2 0x38D JUMPI PUSH1 0x0 DUP1 REVERT JUMPDEST DUP2 CALLDATALOAD DUP2 DUP2 GT ISZERO PUSH2 0x39F JUMPI PUSH2 0x39F PUSH2 0x331 JUMP JUMPDEST PUSH1 0x40 MLOAD PUSH1 0x1F DUP3 ADD PUSH1 0x1F NOT SWAP1 DUP2 AND PUSH1 0x3F ADD AND DUP2 ADD SWAP1 DUP4 DUP3 GT DUP2 DUP4 LT OR ISZERO PUSH2 0x3C7 JUMPI PUSH2 0x3C7 PUSH2 0x331 JUMP JUMPDEST DUP2 PUSH1 0x40 MSTORE DUP3 DUP2 MSTORE DUP9 PUSH1 0x20 DUP5 DUP8 ADD ADD GT ISZERO PUSH2 0x3E0 JUMPI PUSH1 0x0 DUP1 REVERT JUMPDEST DUP3 PUSH1 0x20 DUP7 ADD PUSH1 0x20 DUP4 ADD CALLDATACOPY PUSH1 0x0 PUSH1 0x20 DUP5 DUP4 ADD ADD MSTORE DUP1 SWAP6 POP POP POP POP POP POP SWAP3 POP SWAP3 SWAP1 POP JUMP JUMPDEST PUSH1 0x0 DUP2 MLOAD DUP1 DUP5 MSTORE PUSH1 0x0 JUMPDEST DUP2 DUP2 LT ISZERO PUSH2 0x428 JUMPI PUSH1 0x20 DUP2 DUP6 ADD DUP2 ADD MLOAD DUP7 DUP4 ADD DUP3 ADD MSTORE ADD PUSH2 0x40C JUMP JUMPDEST POP PUSH1 0x0 PUSH1 0x20 DUP3 DUP7 ADD ADD MSTORE PUSH1 0x20 PUSH1 0x1F NOT PUSH1 0x1F DUP4 ADD AND DUP6 ADD ADD SWAP2 POP POP SWAP3 SWAP2 POP POP JUMP JUMPDEST PUSH1 0x20 DUP2 MSTORE PUSH1 0x0 PUSH2 0x276 PUSH1 0x20 DUP4 ADD DUP5 PUSH2 0x402 JUMP JUMPDEST PUSH1 0x40 DUP2 MSTORE PUSH1 0x0 PUSH2 0x46E PUSH1 0x40 DUP4 ADD DUP5 PUSH2 0x402 JUMP JUMPDEST DUP3 DUP2 SUB PUSH1 0x20 SWAP4 DUP5 ADD MSTORE PUSH1 0x0 DUP2 MSTORE SWAP2 SWAP1 SWAP2 ADD SWAP3 SWAP2 POP POP JUMP INVALID LOG2 PUSH5 0x6970667358 0x22 SLT KECCAK256 0xF7 SWAP12 0x2B SWAP15 0xC9 0xAA 0xC9 PUSH4 0x866861D5 PUSH23 0x6E60067EB3534494FD19549D78B404BBF1778C64736F6C PUSH4 0x43000814 STOP CALLER "},"gasEstimates":{"creation":{"codeDepositCost":"242200","executionCost":"281","totalCost":"242481"},"external":{"":"183","fund()":"184","getBalance()":"179","isValidSignature(bytes32,bytes)":"532","mint(address,uint256)":"infinite","supportsInterface(bytes4)":"459","universalReceiver(bytes32,bytes)":"infinite"}},"methodIdentifiers":{"fund()":"b60d4288","getBalance()":"12065fe0","isValidSignature(bytes32,bytes)":"1626ba7e","mint(address,uint256)":"40c10f19","supportsInterface(bytes4)":"01ffc9a7","universalReceiver(bytes32,bytes)":"6bb56a14"}},"storageLayout":{"storage":[],"types":null},"userdoc":{"events":{"UniversalReceiver(address,uint256,bytes32,bytes,bytes)":{"notice":"Address `from` called the `universalReceiver(...)` function while sending `value` LYX. Notification type (typeId): `typeId` - Data received: `receivedData`."}},"kind":"user","methods":{"isValidSignature(bytes32,bytes)":{"notice":"Verifies that the signer is the owner of the signing contract."},"supportsInterface(bytes4)":{"notice":"override the supportsInterface function from ERC165"},"universalReceiver(bytes32,bytes)":{"notice":"Reacted on received notification with `typeId` & `data`."}},"version":1}}}}