{"contracts/mocks/UPMock.sol":{"UPMock":{"abi":[{"anonymous":false,"inputs":[{"indexed":true,"internalType":"address","name":"from","type":"address"},{"indexed":true,"internalType":"uint256","name":"value","type":"uint256"},{"indexed":true,"internalType":"bytes32","name":"typeId","type":"bytes32"},{"indexed":false,"internalType":"bytes","name":"receivedData","type":"bytes"},{"indexed":false,"internalType":"bytes","name":"returnedValue","type":"bytes"}],"name":"UniversalReceiver","type":"event"},{"stateMutability":"payable","type":"fallback"},{"inputs":[],"name":"fund","outputs":[],"stateMutability":"payable","type":"function"},{"inputs":[],"name":"getBalance","outputs":[{"internalType":"uint256","name":"","type":"uint256"}],"stateMutability":"view","type":"function"},{"inputs":[{"internalType":"bytes32","name":"","type":"bytes32"},{"internalType":"bytes","name":"","type":"bytes"}],"name":"isValidSignature","outputs":[{"internalType":"bytes4","name":"","type":"bytes4"}],"stateMutability":"pure","type":"function"},{"inputs":[{"internalType":"bytes4","name":"interfaceId","type":"bytes4"}],"name":"supportsInterface","outputs":[{"internalType":"bool","name":"","type":"bool"}],"stateMutability":"view","type":"function"},{"inputs":[{"internalType":"address","name":"shirts","type":"address"},{"internalType":"address","name":"from","type":"address"},{"internalType":"address","name":"to","type":"address"},{"internalType":"bytes32","name":"tokenId","type":"bytes32"},{"internalType":"bool","name":"force","type":"bool"},{"internalType":"bytes","name":"data","type":"bytes"}],"name":"transfer","outputs":[],"stateMutability":"nonpayable","type":"function"},{"inputs":[{"internalType":"bytes32","name":"typeId","type":"bytes32"},{"internalType":"bytes","name":"data","type":"bytes"}],"name":"universalReceiver","outputs":[{"internalType":"bytes","name":"returnValue","type":"bytes"}],"stateMutability":"payable","type":"function"},{"stateMutability":"payable","type":"receive"}],"devdoc":{"events":{"UniversalReceiver(address,uint256,bytes32,bytes,bytes)":{"details":"Emitted when the {universalReceiver} function was called with a specific `typeId` and some `receivedData`","params":{"from":"The address of the EOA or smart contract that called the {universalReceiver(...)} function.","receivedData":"Any arbitrary data that was sent to the {universalReceiver(...)} function.","returnedValue":"The value returned by the {universalReceiver(...)} function.","typeId":"A `bytes32` unique identifier (= _\"hook\"_)that describe the type of notification, information or transaction received by the contract. Can be related to a specific standard or a hook.","value":"The amount sent to the {universalReceiver(...)} function."}}},"kind":"dev","methods":{"universalReceiver(bytes32,bytes)":{"details":"Generic function that can be used to notify the contract about specific incoming transactions or events like asset transfers, vault transfers, etc. Allows for custom on-chain and off-chain reactions based on the `typeId` and `data`.","params":{"data":"The arbitrary data received with the call.","typeId":"The hash of a specific standard or a hook."}}},"version":1},"evm":{"bytecode":{"linkReferences":{},"object":"608060405234801561001057600080fd5b506105a8806100206000396000f3fe6080604052600436106100565760003560e01c806301ffc9a71461005f57806312065fe0146100945780631626ba7e146100af5780636bb56a14146100f2578063876e93fe14610112578063b60d42881461005d57005b3661005d57005b005b34801561006b57600080fd5b5061007f61007a366004610267565b610132565b60405190151581526020015b60405180910390f35b3480156100a057600080fd5b5060405147815260200161008b565b3480156100bb57600080fd5b506100d96100ca366004610298565b630b135d3f60e11b9392505050565b6040516001600160e01b0319909116815260200161008b565b6101056101003660046103b7565b610184565b60405161008b9190610444565b34801561011e57600080fd5b5061005d61012d366004610473565b6101f9565b60006001600160e01b03198216631aed5a8560e21b148061016357506001600160e01b031982166324871b3d60e01b145b8061017e57506301ffc9a760e01b6001600160e01b03198316145b92915050565b60608234336001600160a01b03167f9c3ba68eb5742b8e3961aea0afc7371a71bf433c8a67a831803b64c064a178c2856040516101c19190610502565b60405180910390a4506040805180820190915260128152717468616e6b7320666f722063616c6c696e6760701b602082015292915050565b60405163288db4a960e11b81526001600160a01b0387169063511b69529061022d908890889088908890889060040161052c565b600060405180830381600087803b15801561024757600080fd5b505af115801561025b573d6000803e3d6000fd5b50505050505050505050565b60006020828403121561027957600080fd5b81356001600160e01b03198116811461029157600080fd5b9392505050565b6000806000604084860312156102ad57600080fd5b83359250602084013567ffffffffffffffff808211156102cc57600080fd5b818601915086601f8301126102e057600080fd5b8135818111156102ef57600080fd5b87602082850101111561030157600080fd5b6020830194508093505050509250925092565b634e487b7160e01b600052604160045260246000fd5b600082601f83011261033b57600080fd5b813567ffffffffffffffff8082111561035657610356610314565b604051601f8301601f19908116603f0116810190828211818310171561037e5761037e610314565b8160405283815286602085880101111561039757600080fd5b836020870160208301376000602085830101528094505050505092915050565b600080604083850312156103ca57600080fd5b82359150602083013567ffffffffffffffff8111156103e857600080fd5b6103f48582860161032a565b9150509250929050565b6000815180845260005b8181101561042457602081850181015186830182015201610408565b506000602082860101526020601f19601f83011685010191505092915050565b60208152600061029160208301846103fe565b80356001600160a01b038116811461046e57600080fd5b919050565b60008060008060008060c0878903121561048c57600080fd5b61049587610457565b95506104a360208801610457565b94506104b160408801610457565b935060608701359250608087013580151581146104cd57600080fd5b915060a087013567ffffffffffffffff8111156104e957600080fd5b6104f589828a0161032a565b9150509295509295509295565b60408152600061051560408301846103fe565b828103602093840152600081529190910192915050565b6001600160a01b0386811682528516602082015260408101849052821515606082015260a060808201819052600090610567908301846103fe565b97965050505050505056fea2646970667358221220e15eeaadee6d8f52262118cba70aea5892b939de7f4493effd8e9223da481c1c64736f6c63430008140033","opcodes":"PUSH1 0x80 PUSH1 0x40 MSTORE CALLVALUE DUP1 ISZERO PUSH2 0x10 JUMPI PUSH1 0x0 DUP1 REVERT JUMPDEST POP PUSH2 0x5A8 DUP1 PUSH2 0x20 PUSH1 0x0 CODECOPY PUSH1 0x0 RETURN INVALID PUSH1 0x80 PUSH1 0x40 MSTORE PUSH1 0x4 CALLDATASIZE LT PUSH2 0x56 JUMPI PUSH1 0x0 CALLDATALOAD PUSH1 0xE0 SHR DUP1 PUSH4 0x1FFC9A7 EQ PUSH2 0x5F JUMPI DUP1 PUSH4 0x12065FE0 EQ PUSH2 0x94 JUMPI DUP1 PUSH4 0x1626BA7E EQ PUSH2 0xAF JUMPI DUP1 PUSH4 0x6BB56A14 EQ PUSH2 0xF2 JUMPI DUP1 PUSH4 0x876E93FE EQ PUSH2 0x112 JUMPI DUP1 PUSH4 0xB60D4288 EQ PUSH2 0x5D JUMPI STOP JUMPDEST CALLDATASIZE PUSH2 0x5D JUMPI STOP JUMPDEST STOP JUMPDEST CALLVALUE DUP1 ISZERO PUSH2 0x6B JUMPI PUSH1 0x0 DUP1 REVERT JUMPDEST POP PUSH2 0x7F PUSH2 0x7A CALLDATASIZE PUSH1 0x4 PUSH2 0x267 JUMP JUMPDEST PUSH2 0x132 JUMP JUMPDEST PUSH1 0x40 MLOAD SWAP1 ISZERO ISZERO DUP2 MSTORE PUSH1 0x20 ADD JUMPDEST PUSH1 0x40 MLOAD DUP1 SWAP2 SUB SWAP1 RETURN JUMPDEST CALLVALUE DUP1 ISZERO PUSH2 0xA0 JUMPI PUSH1 0x0 DUP1 REVERT JUMPDEST POP PUSH1 0x40 MLOAD SELFBALANCE DUP2 MSTORE PUSH1 0x20 ADD PUSH2 0x8B JUMP JUMPDEST CALLVALUE DUP1 ISZERO PUSH2 0xBB JUMPI PUSH1 0x0 DUP1 REVERT JUMPDEST POP PUSH2 0xD9 PUSH2 0xCA CALLDATASIZE PUSH1 0x4 PUSH2 0x298 JUMP JUMPDEST PUSH4 0xB135D3F PUSH1 0xE1 SHL SWAP4 SWAP3 POP POP POP JUMP JUMPDEST PUSH1 0x40 MLOAD PUSH1 0x1 PUSH1 0x1 PUSH1 0xE0 SHL SUB NOT SWAP1 SWAP2 AND DUP2 MSTORE PUSH1 0x20 ADD PUSH2 0x8B JUMP JUMPDEST PUSH2 0x105 PUSH2 0x100 CALLDATASIZE PUSH1 0x4 PUSH2 0x3B7 JUMP JUMPDEST PUSH2 0x184 JUMP JUMPDEST PUSH1 0x40 MLOAD PUSH2 0x8B SWAP2 SWAP1 PUSH2 0x444 JUMP JUMPDEST CALLVALUE DUP1 ISZERO PUSH2 0x11E JUMPI PUSH1 0x0 DUP1 REVERT JUMPDEST POP PUSH2 0x5D PUSH2 0x12D CALLDATASIZE PUSH1 0x4 PUSH2 0x473 JUMP JUMPDEST PUSH2 0x1F9 JUMP JUMPDEST PUSH1 0x0 PUSH1 0x1 PUSH1 0x1 PUSH1 0xE0 SHL SUB NOT DUP3 AND PUSH4 0x1AED5A85 PUSH1 0xE2 SHL EQ DUP1 PUSH2 0x163 JUMPI POP PUSH1 0x1 PUSH1 0x1 PUSH1 0xE0 SHL SUB NOT DUP3 AND PUSH4 0x24871B3D PUSH1 0xE0 SHL EQ JUMPDEST DUP1 PUSH2 0x17E JUMPI POP PUSH4 0x1FFC9A7 PUSH1 0xE0 SHL PUSH1 0x1 PUSH1 0x1 PUSH1 0xE0 SHL SUB NOT DUP4 AND EQ JUMPDEST SWAP3 SWAP2 POP POP JUMP JUMPDEST PUSH1 0x60 DUP3 CALLVALUE CALLER PUSH1 0x1 PUSH1 0x1 PUSH1 0xA0 SHL SUB AND PUSH32 0x9C3BA68EB5742B8E3961AEA0AFC7371A71BF433C8A67A831803B64C064A178C2 DUP6 PUSH1 0x40 MLOAD PUSH2 0x1C1 SWAP2 SWAP1 PUSH2 0x502 JUMP JUMPDEST PUSH1 0x40 MLOAD DUP1 SWAP2 SUB SWAP1 LOG4 POP PUSH1 0x40 DUP1 MLOAD DUP1 DUP3 ADD SWAP1 SWAP2 MSTORE PUSH1 0x12 DUP2 MSTORE PUSH18 0x7468616E6B7320666F722063616C6C696E67 PUSH1 0x70 SHL PUSH1 0x20 DUP3 ADD MSTORE SWAP3 SWAP2 POP POP JUMP JUMPDEST PUSH1 0x40 MLOAD PUSH4 0x288DB4A9 PUSH1 0xE1 SHL DUP2 MSTORE PUSH1 0x1 PUSH1 0x1 PUSH1 0xA0 SHL SUB DUP8 AND SWAP1 PUSH4 0x511B6952 SWAP1 PUSH2 0x22D SWAP1 DUP9 SWAP1 DUP9 SWAP1 DUP9 SWAP1 DUP9 SWAP1 DUP9 SWAP1 PUSH1 0x4 ADD PUSH2 0x52C JUMP JUMPDEST PUSH1 0x0 PUSH1 0x40 MLOAD DUP1 DUP4 SUB DUP2 PUSH1 0x0 DUP8 DUP1 EXTCODESIZE ISZERO DUP1 ISZERO PUSH2 0x247 JUMPI PUSH1 0x0 DUP1 REVERT JUMPDEST POP GAS CALL ISZERO DUP1 ISZERO PUSH2 0x25B JUMPI RETURNDATASIZE PUSH1 0x0 DUP1 RETURNDATACOPY RETURNDATASIZE PUSH1 0x0 REVERT JUMPDEST POP POP POP POP POP POP POP POP POP POP JUMP JUMPDEST PUSH1 0x0 PUSH1 0x20 DUP3 DUP5 SUB SLT ISZERO PUSH2 0x279 JUMPI PUSH1 0x0 DUP1 REVERT JUMPDEST DUP2 CALLDATALOAD PUSH1 0x1 PUSH1 0x1 PUSH1 0xE0 SHL SUB NOT DUP2 AND DUP2 EQ PUSH2 0x291 JUMPI PUSH1 0x0 DUP1 REVERT JUMPDEST SWAP4 SWAP3 POP POP POP JUMP JUMPDEST PUSH1 0x0 DUP1 PUSH1 0x0 PUSH1 0x40 DUP5 DUP7 SUB SLT ISZERO PUSH2 0x2AD JUMPI PUSH1 0x0 DUP1 REVERT JUMPDEST DUP4 CALLDATALOAD SWAP3 POP PUSH1 0x20 DUP5 ADD CALLDATALOAD PUSH8 0xFFFFFFFFFFFFFFFF DUP1 DUP3 GT ISZERO PUSH2 0x2CC JUMPI PUSH1 0x0 DUP1 REVERT JUMPDEST DUP2 DUP7 ADD SWAP2 POP DUP7 PUSH1 0x1F DUP4 ADD SLT PUSH2 0x2E0 JUMPI PUSH1 0x0 DUP1 REVERT JUMPDEST DUP2 CALLDATALOAD DUP2 DUP2 GT ISZERO PUSH2 0x2EF JUMPI PUSH1 0x0 DUP1 REVERT JUMPDEST DUP8 PUSH1 0x20 DUP3 DUP6 ADD ADD GT ISZERO PUSH2 0x301 JUMPI PUSH1 0x0 DUP1 REVERT JUMPDEST PUSH1 0x20 DUP4 ADD SWAP5 POP DUP1 SWAP4 POP POP POP POP SWAP3 POP SWAP3 POP SWAP3 JUMP JUMPDEST PUSH4 0x4E487B71 PUSH1 0xE0 SHL PUSH1 0x0 MSTORE PUSH1 0x41 PUSH1 0x4 MSTORE PUSH1 0x24 PUSH1 0x0 REVERT JUMPDEST PUSH1 0x0 DUP3 PUSH1 0x1F DUP4 ADD SLT PUSH2 0x33B JUMPI PUSH1 0x0 DUP1 REVERT JUMPDEST DUP2 CALLDATALOAD PUSH8 0xFFFFFFFFFFFFFFFF DUP1 DUP3 GT ISZERO PUSH2 0x356 JUMPI PUSH2 0x356 PUSH2 0x314 JUMP JUMPDEST PUSH1 0x40 MLOAD PUSH1 0x1F DUP4 ADD PUSH1 0x1F NOT SWAP1 DUP2 AND PUSH1 0x3F ADD AND DUP2 ADD SWAP1 DUP3 DUP3 GT DUP2 DUP4 LT OR ISZERO PUSH2 0x37E JUMPI PUSH2 0x37E PUSH2 0x314 JUMP JUMPDEST DUP2 PUSH1 0x40 MSTORE DUP4 DUP2 MSTORE DUP7 PUSH1 0x20 DUP6 DUP9 ADD ADD GT ISZERO PUSH2 0x397 JUMPI PUSH1 0x0 DUP1 REVERT JUMPDEST DUP4 PUSH1 0x20 DUP8 ADD PUSH1 0x20 DUP4 ADD CALLDATACOPY PUSH1 0x0 PUSH1 0x20 DUP6 DUP4 ADD ADD MSTORE DUP1 SWAP5 POP POP POP POP POP SWAP3 SWAP2 POP POP JUMP JUMPDEST PUSH1 0x0 DUP1 PUSH1 0x40 DUP4 DUP6 SUB SLT ISZERO PUSH2 0x3CA JUMPI PUSH1 0x0 DUP1 REVERT JUMPDEST DUP3 CALLDATALOAD SWAP2 POP PUSH1 0x20 DUP4 ADD CALLDATALOAD PUSH8 0xFFFFFFFFFFFFFFFF DUP2 GT ISZERO PUSH2 0x3E8 JUMPI PUSH1 0x0 DUP1 REVERT JUMPDEST PUSH2 0x3F4 DUP6 DUP3 DUP7 ADD PUSH2 0x32A JUMP JUMPDEST SWAP2 POP POP SWAP3 POP SWAP3 SWAP1 POP JUMP JUMPDEST PUSH1 0x0 DUP2 MLOAD DUP1 DUP5 MSTORE PUSH1 0x0 JUMPDEST DUP2 DUP2 LT ISZERO PUSH2 0x424 JUMPI PUSH1 0x20 DUP2 DUP6 ADD DUP2 ADD MLOAD DUP7 DUP4 ADD DUP3 ADD MSTORE ADD PUSH2 0x408 JUMP JUMPDEST POP PUSH1 0x0 PUSH1 0x20 DUP3 DUP7 ADD ADD MSTORE PUSH1 0x20 PUSH1 0x1F NOT PUSH1 0x1F DUP4 ADD AND DUP6 ADD ADD SWAP2 POP POP SWAP3 SWAP2 POP POP JUMP JUMPDEST PUSH1 0x20 DUP2 MSTORE PUSH1 0x0 PUSH2 0x291 PUSH1 0x20 DUP4 ADD DUP5 PUSH2 0x3FE JUMP JUMPDEST DUP1 CALLDATALOAD PUSH1 0x1 PUSH1 0x1 PUSH1 0xA0 SHL SUB DUP2 AND DUP2 EQ PUSH2 0x46E JUMPI PUSH1 0x0 DUP1 REVERT JUMPDEST SWAP2 SWAP1 POP JUMP JUMPDEST PUSH1 0x0 DUP1 PUSH1 0x0 DUP1 PUSH1 0x0 DUP1 PUSH1 0xC0 DUP8 DUP10 SUB SLT ISZERO PUSH2 0x48C JUMPI PUSH1 0x0 DUP1 REVERT JUMPDEST PUSH2 0x495 DUP8 PUSH2 0x457 JUMP JUMPDEST SWAP6 POP PUSH2 0x4A3 PUSH1 0x20 DUP9 ADD PUSH2 0x457 JUMP JUMPDEST SWAP5 POP PUSH2 0x4B1 PUSH1 0x40 DUP9 ADD PUSH2 0x457 JUMP JUMPDEST SWAP4 POP PUSH1 0x60 DUP8 ADD CALLDATALOAD SWAP3 POP PUSH1 0x80 DUP8 ADD CALLDATALOAD DUP1 ISZERO ISZERO DUP2 EQ PUSH2 0x4CD JUMPI PUSH1 0x0 DUP1 REVERT JUMPDEST SWAP2 POP PUSH1 0xA0 DUP8 ADD CALLDATALOAD PUSH8 0xFFFFFFFFFFFFFFFF DUP2 GT ISZERO PUSH2 0x4E9 JUMPI PUSH1 0x0 DUP1 REVERT JUMPDEST PUSH2 0x4F5 DUP10 DUP3 DUP11 ADD PUSH2 0x32A JUMP JUMPDEST SWAP2 POP POP SWAP3 SWAP6 POP SWAP3 SWAP6 POP SWAP3 SWAP6 JUMP JUMPDEST PUSH1 0x40 DUP2 MSTORE PUSH1 0x0 PUSH2 0x515 PUSH1 0x40 DUP4 ADD DUP5 PUSH2 0x3FE JUMP JUMPDEST DUP3 DUP2 SUB PUSH1 0x20 SWAP4 DUP5 ADD MSTORE PUSH1 0x0 DUP2 MSTORE SWAP2 SWAP1 SWAP2 ADD SWAP3 SWAP2 POP POP JUMP JUMPDEST PUSH1 0x1 PUSH1 0x1 PUSH1 0xA0 SHL SUB DUP7 DUP2 AND DUP3 MSTORE DUP6 AND PUSH1 0x20 DUP3 ADD MSTORE PUSH1 0x40 DUP2 ADD DUP5 SWAP1 MSTORE DUP3 ISZERO ISZERO PUSH1 0x60 DUP3 ADD MSTORE PUSH1 0xA0 PUSH1 0x80 DUP3 ADD DUP2 SWAP1 MSTORE PUSH1 0x0 SWAP1 PUSH2 0x567 SWAP1 DUP4 ADD DUP5 PUSH2 0x3FE JUMP JUMPDEST SWAP8 SWAP7 POP POP POP POP POP POP POP JUMP INVALID LOG2 PUSH5 0x6970667358 0x22 SLT KECCAK256 0xE1 0x5E 0xEA 0xAD 0xEE PUSH14 0x8F52262118CBA70AEA5892B939DE PUSH32 0x4493EFFD8E9223DA481C1C64736F6C6343000814003300000000000000000000 "},"gasEstimates":{"creation":{"codeDepositCost":"289600","executionCost":"331","totalCost":"289931"},"external":{"":"183","fund()":"184","getBalance()":"179","isValidSignature(bytes32,bytes)":"532","supportsInterface(bytes4)":"459","transfer(address,address,address,bytes32,bool,bytes)":"infinite","universalReceiver(bytes32,bytes)":"infinite"}},"methodIdentifiers":{"fund()":"b60d4288","getBalance()":"12065fe0","isValidSignature(bytes32,bytes)":"1626ba7e","supportsInterface(bytes4)":"01ffc9a7","transfer(address,address,address,bytes32,bool,bytes)":"876e93fe","universalReceiver(bytes32,bytes)":"6bb56a14"}},"storageLayout":{"storage":[],"types":null},"userdoc":{"events":{"UniversalReceiver(address,uint256,bytes32,bytes,bytes)":{"notice":"Address `from` called the `universalReceiver(...)` function while sending `value` LYX. Notification type (typeId): `typeId` - Data received: `receivedData`."}},"kind":"user","methods":{"isValidSignature(bytes32,bytes)":{"notice":"Verifies that the signer is the owner of the signing contract."},"supportsInterface(bytes4)":{"notice":"override the supportsInterface function from ERC165"},"universalReceiver(bytes32,bytes)":{"notice":"Reacted on received notification with `typeId` & `data`."}},"version":1}}}}