{"contracts/EurocupLegends.sol":{"EurocupLegends":{"abi":[{"inputs":[{"components":[{"internalType":"address","name":"creator","type":"address"},{"internalType":"uint256","name":"share","type":"uint256"}],"internalType":"struct IEurocupLegends.Creator[]","name":"_creators","type":"tuple[]"},{"internalType":"address","name":"_owner","type":"address"}],"stateMutability":"nonpayable","type":"constructor"},{"inputs":[],"name":"AlreadyClaimedPrize","type":"error"},{"inputs":[{"internalType":"address","name":"_creators","type":"address"},{"internalType":"uint256","name":"_amount","type":"uint256"}],"name":"FeeTransferFailed","type":"error"},{"inputs":[],"name":"MintClosed","type":"error"},{"inputs":[],"name":"NoPrizeForThisCountry","type":"error"},{"inputs":[],"name":"NoShirts","type":"error"},{"inputs":[],"name":"NoWinnersYet","type":"error"},{"inputs":[{"internalType":"address","name":"owner","type":"address"}],"name":"OwnableInvalidOwner","type":"error"},{"inputs":[{"internalType":"address","name":"account","type":"address"}],"name":"OwnableUnauthorizedAccount","type":"error"},{"inputs":[],"name":"ReentrancyGuardReentrantCall","type":"error"},{"inputs":[],"name":"TransferFailed","type":"error"},{"inputs":[],"name":"ZeroAddress","type":"error"},{"anonymous":false,"inputs":[{"indexed":false,"internalType":"bool","name":"isMintOpen","type":"bool"}],"name":"MintStatus","type":"event"},{"anonymous":false,"inputs":[{"indexed":true,"internalType":"address","name":"previousOwner","type":"address"},{"indexed":true,"internalType":"address","name":"newOwner","type":"address"}],"name":"OwnershipTransferred","type":"event"},{"anonymous":false,"inputs":[{"indexed":false,"internalType":"address","name":"owner","type":"address"},{"indexed":false,"internalType":"uint256","name":"prize","type":"uint256"}],"name":"PrizeClaimed","type":"event"},{"anonymous":false,"inputs":[{"indexed":false,"internalType":"address[3]","name":"winners","type":"address[3]"}],"name":"WinnersSet","type":"event"},{"stateMutability":"payable","type":"fallback"},{"inputs":[],"name":"FEE_PERCENTAGE","outputs":[{"internalType":"uint256","name":"","type":"uint256"}],"stateMutability":"view","type":"function"},{"inputs":[],"name":"MAX_WINNERS","outputs":[{"internalType":"uint256","name":"","type":"uint256"}],"stateMutability":"view","type":"function"},{"inputs":[],"name":"SHARE_PRECISION","outputs":[{"internalType":"uint256","name":"","type":"uint256"}],"stateMutability":"view","type":"function"},{"inputs":[{"internalType":"address","name":"_recipient","type":"address"},{"internalType":"address","name":"_country","type":"address"}],"name":"claimPrize","outputs":[],"stateMutability":"nonpayable","type":"function"},{"inputs":[{"internalType":"address","name":"_country","type":"address"}],"name":"getCountryPrize","outputs":[{"internalType":"uint256","name":"","type":"uint256"}],"stateMutability":"view","type":"function"},{"inputs":[],"name":"getCreators","outputs":[{"components":[{"internalType":"address","name":"creator","type":"address"},{"internalType":"uint256","name":"share","type":"uint256"}],"internalType":"struct IEurocupLegends.Creator[]","name":"","type":"tuple[]"}],"stateMutability":"view","type":"function"},{"inputs":[{"internalType":"address","name":"_user","type":"address"},{"internalType":"address","name":"_country","type":"address"}],"name":"getPrize","outputs":[{"internalType":"uint256","name":"","type":"uint256"}],"stateMutability":"view","type":"function"},{"inputs":[],"name":"getWinners","outputs":[{"internalType":"address[3]","name":"","type":"address[3]"}],"stateMutability":"view","type":"function"},{"inputs":[{"internalType":"address","name":"_country","type":"address"},{"internalType":"bytes32","name":"_tokenId","type":"bytes32"}],"name":"isClaimed","outputs":[{"internalType":"bool","name":"","type":"bool"}],"stateMutability":"view","type":"function"},{"inputs":[],"name":"isMintOpen","outputs":[{"internalType":"bool","name":"","type":"bool"}],"stateMutability":"view","type":"function"},{"inputs":[],"name":"owner","outputs":[{"internalType":"address","name":"","type":"address"}],"stateMutability":"view","type":"function"},{"inputs":[],"name":"renounceOwnership","outputs":[],"stateMutability":"nonpayable","type":"function"},{"inputs":[{"internalType":"bool","name":"_isMintOpen","type":"bool"}],"name":"setMintStatus","outputs":[],"stateMutability":"nonpayable","type":"function"},{"inputs":[{"internalType":"address[3]","name":"_winners","type":"address[3]"},{"internalType":"uint256[3]","name":"_shares","type":"uint256[3]"}],"name":"setWinners","outputs":[],"stateMutability":"nonpayable","type":"function"},{"inputs":[{"internalType":"address","name":"newOwner","type":"address"}],"name":"transferOwnership","outputs":[],"stateMutability":"nonpayable","type":"function"},{"stateMutability":"payable","type":"receive"}],"devdoc":{"errors":{"OwnableInvalidOwner(address)":[{"details":"The owner is not a valid owner account. (eg. `address(0)`)"}],"OwnableUnauthorizedAccount(address)":[{"details":"The caller account is not authorized to perform an operation."}],"ReentrancyGuardReentrantCall()":[{"details":"Unauthorized reentrant call."}]},"kind":"dev","methods":{"owner()":{"details":"Returns the address of the current owner."},"renounceOwnership()":{"details":"Leaves the contract without owner. It will not be possible to call `onlyOwner` functions. Can only be called by the current owner. NOTE: Renouncing ownership will leave the contract without an owner, thereby disabling any functionality that is only available to the owner."},"transferOwnership(address)":{"details":"Transfers ownership of the contract to a new account (`newOwner`). Can only be called by the current owner."}},"version":1},"evm":{"bytecode":{"linkReferences":{},"object":"60806040526006805460ff191660011790553480156200001e57600080fd5b50604051620013c3380380620013c38339810160408190526200004191620001ed565b806001600160a01b0381166200007157604051631e4fbdf760e01b81526000600482015260240160405180910390fd5b6200007c816200010c565b506001805560005b825181101562000103576002838281518110620000a557620000a5620002e2565b602090810291909101810151825460018082018555600094855293839020825160029092020180546001600160a01b0319166001600160a01b0390921691909117815591015191015580620000fa81620002f8565b91505062000084565b50505062000320565b600080546001600160a01b038381166001600160a01b0319831681178455604051919092169283917f8be0079c531659141344cd1fd0a4f28419497f9722a3daafe3b4186f6b6457e09190a35050565b634e487b7160e01b600052604160045260246000fd5b604080519081016001600160401b03811182821017156200019757620001976200015c565b60405290565b604051601f8201601f191681016001600160401b0381118282101715620001c857620001c86200015c565b604052919050565b80516001600160a01b0381168114620001e857600080fd5b919050565b60008060408084860312156200020257600080fd5b83516001600160401b03808211156200021a57600080fd5b818601915086601f8301126200022f57600080fd5b81516020828211156200024657620002466200015c565b62000256818360051b016200019d565b828152818101935060069290921b8401810191898311156200027757600080fd5b938101935b82851015620002c55785858b031215620002965760008081fd5b620002a062000172565b620002ab86620001d0565b81528583015183820152845293850193928101926200027c565b9650620002d4888201620001d0565b955050505050509250929050565b634e487b7160e01b600052603260045260246000fd5b6000600182016200031957634e487b7160e01b600052601160045260246000fd5b5060010190565b61109380620003306000396000f3fe6080604052600436106100eb5760003560e01c8063715018a61161008a578063df15c37e11610059578063df15c37e14610257578063e6adc1ee14610279578063f2fde38b1461029b578063f82f83ff146102bb576100fb565b8063715018a6146101da57806376602f2f146101ef5780637eef25091461020f5780638da5cb5b1461022f576100fb565b806329a62a76116100c657806329a62a76146101705780635d55307d146101855780635fc5e020146101a557806367457e4c146101ba576100fb565b80620b46f814610104578063199080161461012c5780631f85e3ca14610150576100fb565b366100fb576100f9346102f1565b005b6100f9346102f1565b34801561011057600080fd5b50610119601981565b6040519081526020015b60405180910390f35b34801561013857600080fd5b5060065460ff165b6040519015158152602001610123565b34801561015c57600080fd5b506100f961016b366004610d13565b61044e565b34801561017c57600080fd5b50610119600381565b34801561019157600080fd5b506100f96101a0366004610d58565b61049d565b3480156101b157600080fd5b50610119606481565b3480156101c657600080fd5b506101406101d5366004610d8b565b610827565b3480156101e657600080fd5b506100f9610855565b3480156101fb57600080fd5b506100f961020a366004610dc6565b610869565b34801561021b57600080fd5b5061011961022a366004610d58565b61097e565b34801561023b57600080fd5b506000546040516001600160a01b039091168152602001610123565b34801561026357600080fd5b5061026c610b57565b6040516101239190610df2565b34801561028557600080fd5b5061028e610b9b565b6040516101239190610e2c565b3480156102a757600080fd5b506100f96102b6366004610e84565b610c10565b3480156102c757600080fd5b506101196102d6366004610e84565b6001600160a01b031660009081526007602052604090205490565b60065460ff166103145760405163589ed34b60e01b815260040160405180910390fd5b60006064610323601984610eb5565b61032d9190610ecc565b60025490915060005b818110156104485760006002828154811061035357610353610eee565b600091825260208083206040805180820190915260029093020180546001600160a01b03168352600101549082018190529092506064906103949087610eb5565b61039e9190610ecc565b9050600082600001516001600160a01b03168260405160006040518083038185875af1925050503d80600081146103f1576040519150601f19603f3d011682016040523d82523d6000602084013e6103f6565b606091505b505090508061043257825160405163373a7d4360e11b81526001600160a01b039091166004820152602481018390526044015b60405180910390fd5b505050808061044090610f04565b915050610336565b50505050565b610456610c4e565b6006805460ff19168215159081179091556040519081527faff50328f57c9ced983a9e3c360c67ee11633d860350531f0c11fc435751448c9060200160405180910390a150565b6104a5610c7b565b6001600160a01b0381166104cc5760405163d92e233d60e01b815260040160405180910390fd5b6001600160a01b0381166000908152600760205260408120549081900361050657604051630215e7c960e21b815260040160405180910390fd5b6040516351d930f960e11b81526001600160a01b0384811660048301526000919084169063a3b261f290602401600060405180830381865afa158015610550573d6000803e3d6000fd5b505050506040513d6000823e601f3d908101601f191682016040526105789190810190610f33565b805190915060008190036105a2576040516001625bffd160e01b0319815260040160405180910390fd5b6000805b8281101561067d576001600160a01b038616600090815260086020526040812085519091908690849081106105dd576105dd610eee565b60209081029190910181015182528101919091526040016000205460ff1661066b576001600160a01b038616600090815260086020526040812085516001929087908590811061062f5761062f610eee565b6020026020010151815260200190815260200160002060006101000a81548160ff021916908315150217905550818061066790610f04565b9250505b8061067581610f04565b9150506105a6565b508060000361069f5760405163048798a960e41b815260040160405180910390fd5b6000600954866001600160a01b03166318160ddd6040518163ffffffff1660e01b8152600401602060405180830381865afa1580156106e2573d6000803e3d6000fd5b505050506040513d601f19601f820116820180604052508101906107069190610fe5565b6107109190610ffe565b905060008161071f8785610eb5565b6107299190610ecc565b90506107358187610ffe565b6001600160a01b03881660009081526007602052604090205560095461075c908490611011565b6009556040516000906001600160a01b038a169083908381818185875af1925050503d80600081146107aa576040519150601f19603f3d011682016040523d82523d6000602084013e6107af565b606091505b50509050806107d1576040516312171d8360e31b815260040160405180910390fd5b604080516001600160a01b038b168152602081018490527f95681e512bc0fe659e195e06c283eada494316f3d801213e48e7101af92bf770910160405180910390a15050505050505061082360018055565b5050565b6001600160a01b038216600090815260086020908152604080832084845290915290205460ff165b92915050565b61085d610c4e565b6108676000610ca5565b565b610871610c4e565b60065460ff1615610887576006805460ff191690555b60005b60038110156109425760008382600381106108a7576108a7610eee565b6020020160208101906108ba9190610e84565b9050600060648484600381106108d2576108d2610eee565b6020020135476108e29190610eb5565b6108ec9190610ecc565b9050816003846003811061090257610902610eee565b0180546001600160a01b0319166001600160a01b03928316179055919091166000908152600760205260409020558061093a81610f04565b91505061088a565b507f60f4d73182a956a559d177842626b4743585a36652a74d3eb1500e4479ac06ea826040516109729190611024565b60405180910390a15050565b60008060076000846001600160a01b03166001600160a01b031681526020019081526020016000205490506000600954846001600160a01b03166318160ddd6040518163ffffffff1660e01b8152600401602060405180830381865afa1580156109ec573d6000803e3d6000fd5b505050506040513d601f19601f82011682018060405250810190610a109190610fe5565b610a1a9190610ffe565b6040516351d930f960e11b81526001600160a01b03878116600483015291925060009186169063a3b261f290602401600060405180830381865afa158015610a66573d6000803e3d6000fd5b505050506040513d6000823e601f3d908101601f19168201604052610a8e9190810190610f33565b80519091506000819003610ab8576040516001625bffd160e01b0319815260040160405180910390fd5b6000805b82811015610b35576001600160a01b03881660009081526008602052604081208551909190869084908110610af357610af3610eee565b60209081029190910181015182528101919091526040016000205460ff16610b235781610b1f81610f04565b9250505b80610b2d81610f04565b915050610abc565b5083610b418683610eb5565b610b4b9190610ecc565b98975050505050505050565b610b5f610cf5565b60408051606081019182905290600390819081845b81546001600160a01b03168152600190910190602001808311610b74575050505050905090565b60606002805480602002602001604051908101604052809291908181526020016000905b82821015610c07576000848152602090819020604080518082019091526002850290910180546001600160a01b03168252600190810154828401529083529092019101610bbf565b50505050905090565b610c18610c4e565b6001600160a01b038116610c4257604051631e4fbdf760e01b815260006004820152602401610429565b610c4b81610ca5565b50565b6000546001600160a01b031633146108675760405163118cdaa760e01b8152336004820152602401610429565b600260015403610c9e57604051633ee5aeb560e01b815260040160405180910390fd5b6002600155565b600080546001600160a01b038381166001600160a01b0319831681178455604051919092169283917f8be0079c531659141344cd1fd0a4f28419497f9722a3daafe3b4186f6b6457e09190a35050565b60405180606001604052806003906020820280368337509192915050565b600060208284031215610d2557600080fd5b81358015158114610d3557600080fd5b9392505050565b80356001600160a01b0381168114610d5357600080fd5b919050565b60008060408385031215610d6b57600080fd5b610d7483610d3c565b9150610d8260208401610d3c565b90509250929050565b60008060408385031215610d9e57600080fd5b610da783610d3c565b946020939093013593505050565b806060810183101561084f57600080fd5b60008060c08385031215610dd957600080fd5b610de38484610db5565b9150610d828460608501610db5565b60608101818360005b6003811015610e235781516001600160a01b0316835260209283019290910190600101610dfb565b50505092915050565b602080825282518282018190526000919060409081850190868401855b82811015610e7757815180516001600160a01b03168552860151868501529284019290850190600101610e49565b5091979650505050505050565b600060208284031215610e9657600080fd5b610d3582610d3c565b634e487b7160e01b600052601160045260246000fd5b808202811582820484141761084f5761084f610e9f565b600082610ee957634e487b7160e01b600052601260045260246000fd5b500490565b634e487b7160e01b600052603260045260246000fd5b600060018201610f1657610f16610e9f565b5060010190565b634e487b7160e01b600052604160045260246000fd5b60006020808385031215610f4657600080fd5b825167ffffffffffffffff80821115610f5e57600080fd5b818501915085601f830112610f7257600080fd5b815181811115610f8457610f84610f1d565b8060051b604051601f19603f83011681018181108582111715610fa957610fa9610f1d565b604052918252848201925083810185019188831115610fc757600080fd5b938501935b82851015610b4b57845184529385019392850192610fcc565b600060208284031215610ff757600080fd5b5051919050565b8181038181111561084f5761084f610e9f565b8082018082111561084f5761084f610e9f565b60608101818360005b6003811015610e23576001600160a01b0361104783610d3c565b168352602092830192919091019060010161102d56fea2646970667358221220c2b106864b518f1b1bc9ba845b6a44111938935727b3c547849684bf8af9e4e064736f6c63430008140033","opcodes":"PUSH1 0x80 PUSH1 0x40 MSTORE PUSH1 0x6 DUP1 SLOAD PUSH1 0xFF NOT AND PUSH1 0x1 OR SWAP1 SSTORE CALLVALUE DUP1 ISZERO PUSH3 0x1E JUMPI PUSH1 0x0 DUP1 REVERT JUMPDEST POP PUSH1 0x40 MLOAD PUSH3 0x13C3 CODESIZE SUB DUP1 PUSH3 0x13C3 DUP4 CODECOPY DUP2 ADD PUSH1 0x40 DUP2 SWAP1 MSTORE PUSH3 0x41 SWAP2 PUSH3 0x1ED JUMP JUMPDEST DUP1 PUSH1 0x1 PUSH1 0x1 PUSH1 0xA0 SHL SUB DUP2 AND PUSH3 0x71 JUMPI PUSH1 0x40 MLOAD PUSH4 0x1E4FBDF7 PUSH1 0xE0 SHL DUP2 MSTORE PUSH1 0x0 PUSH1 0x4 DUP3 ADD MSTORE PUSH1 0x24 ADD PUSH1 0x40 MLOAD DUP1 SWAP2 SUB SWAP1 REVERT JUMPDEST PUSH3 0x7C DUP2 PUSH3 0x10C JUMP JUMPDEST POP PUSH1 0x1 DUP1 SSTORE PUSH1 0x0 JUMPDEST DUP3 MLOAD DUP2 LT ISZERO PUSH3 0x103 JUMPI PUSH1 0x2 DUP4 DUP3 DUP2 MLOAD DUP2 LT PUSH3 0xA5 JUMPI PUSH3 0xA5 PUSH3 0x2E2 JUMP JUMPDEST PUSH1 0x20 SWAP1 DUP2 MUL SWAP2 SWAP1 SWAP2 ADD DUP2 ADD MLOAD DUP3 SLOAD PUSH1 0x1 DUP1 DUP3 ADD DUP6 SSTORE PUSH1 0x0 SWAP5 DUP6 MSTORE SWAP4 DUP4 SWAP1 KECCAK256 DUP3 MLOAD PUSH1 0x2 SWAP1 SWAP3 MUL ADD DUP1 SLOAD PUSH1 0x1 PUSH1 0x1 PUSH1 0xA0 SHL SUB NOT AND PUSH1 0x1 PUSH1 0x1 PUSH1 0xA0 SHL SUB SWAP1 SWAP3 AND SWAP2 SWAP1 SWAP2 OR DUP2 SSTORE SWAP2 ADD MLOAD SWAP2 ADD SSTORE DUP1 PUSH3 0xFA DUP2 PUSH3 0x2F8 JUMP JUMPDEST SWAP2 POP POP PUSH3 0x84 JUMP JUMPDEST POP POP POP PUSH3 0x320 JUMP JUMPDEST PUSH1 0x0 DUP1 SLOAD PUSH1 0x1 PUSH1 0x1 PUSH1 0xA0 SHL SUB DUP4 DUP2 AND PUSH1 0x1 PUSH1 0x1 PUSH1 0xA0 SHL SUB NOT DUP4 AND DUP2 OR DUP5 SSTORE PUSH1 0x40 MLOAD SWAP2 SWAP1 SWAP3 AND SWAP3 DUP4 SWAP2 PUSH32 0x8BE0079C531659141344CD1FD0A4F28419497F9722A3DAAFE3B4186F6B6457E0 SWAP2 SWAP1 LOG3 POP POP JUMP JUMPDEST PUSH4 0x4E487B71 PUSH1 0xE0 SHL PUSH1 0x0 MSTORE PUSH1 0x41 PUSH1 0x4 MSTORE PUSH1 0x24 PUSH1 0x0 REVERT JUMPDEST PUSH1 0x40 DUP1 MLOAD SWAP1 DUP2 ADD PUSH1 0x1 PUSH1 0x1 PUSH1 0x40 SHL SUB DUP2 GT DUP3 DUP3 LT OR ISZERO PUSH3 0x197 JUMPI PUSH3 0x197 PUSH3 0x15C JUMP JUMPDEST PUSH1 0x40 MSTORE SWAP1 JUMP JUMPDEST PUSH1 0x40 MLOAD PUSH1 0x1F DUP3 ADD PUSH1 0x1F NOT AND DUP2 ADD PUSH1 0x1 PUSH1 0x1 PUSH1 0x40 SHL SUB DUP2 GT DUP3 DUP3 LT OR ISZERO PUSH3 0x1C8 JUMPI PUSH3 0x1C8 PUSH3 0x15C JUMP JUMPDEST PUSH1 0x40 MSTORE SWAP2 SWAP1 POP JUMP JUMPDEST DUP1 MLOAD PUSH1 0x1 PUSH1 0x1 PUSH1 0xA0 SHL SUB DUP2 AND DUP2 EQ PUSH3 0x1E8 JUMPI PUSH1 0x0 DUP1 REVERT JUMPDEST SWAP2 SWAP1 POP JUMP JUMPDEST PUSH1 0x0 DUP1 PUSH1 0x40 DUP1 DUP5 DUP7 SUB SLT ISZERO PUSH3 0x202 JUMPI PUSH1 0x0 DUP1 REVERT JUMPDEST DUP4 MLOAD PUSH1 0x1 PUSH1 0x1 PUSH1 0x40 SHL SUB DUP1 DUP3 GT ISZERO PUSH3 0x21A JUMPI PUSH1 0x0 DUP1 REVERT JUMPDEST DUP2 DUP7 ADD SWAP2 POP DUP7 PUSH1 0x1F DUP4 ADD SLT PUSH3 0x22F JUMPI PUSH1 0x0 DUP1 REVERT JUMPDEST DUP2 MLOAD PUSH1 0x20 DUP3 DUP3 GT ISZERO PUSH3 0x246 JUMPI PUSH3 0x246 PUSH3 0x15C JUMP JUMPDEST PUSH3 0x256 DUP2 DUP4 PUSH1 0x5 SHL ADD PUSH3 0x19D JUMP JUMPDEST DUP3 DUP2 MSTORE DUP2 DUP2 ADD SWAP4 POP PUSH1 0x6 SWAP3 SWAP1 SWAP3 SHL DUP5 ADD DUP2 ADD SWAP2 DUP10 DUP4 GT ISZERO PUSH3 0x277 JUMPI PUSH1 0x0 DUP1 REVERT JUMPDEST SWAP4 DUP2 ADD SWAP4 JUMPDEST DUP3 DUP6 LT ISZERO PUSH3 0x2C5 JUMPI DUP6 DUP6 DUP12 SUB SLT ISZERO PUSH3 0x296 JUMPI PUSH1 0x0 DUP1 DUP2 REVERT JUMPDEST PUSH3 0x2A0 PUSH3 0x172 JUMP JUMPDEST PUSH3 0x2AB DUP7 PUSH3 0x1D0 JUMP JUMPDEST DUP2 MSTORE DUP6 DUP4 ADD MLOAD DUP4 DUP3 ADD MSTORE DUP5 MSTORE SWAP4 DUP6 ADD SWAP4 SWAP3 DUP2 ADD SWAP3 PUSH3 0x27C JUMP JUMPDEST SWAP7 POP PUSH3 0x2D4 DUP9 DUP3 ADD PUSH3 0x1D0 JUMP JUMPDEST SWAP6 POP POP POP POP POP POP SWAP3 POP SWAP3 SWAP1 POP JUMP JUMPDEST PUSH4 0x4E487B71 PUSH1 0xE0 SHL PUSH1 0x0 MSTORE PUSH1 0x32 PUSH1 0x4 MSTORE PUSH1 0x24 PUSH1 0x0 REVERT JUMPDEST PUSH1 0x0 PUSH1 0x1 DUP3 ADD PUSH3 0x319 JUMPI PUSH4 0x4E487B71 PUSH1 0xE0 SHL PUSH1 0x0 MSTORE PUSH1 0x11 PUSH1 0x4 MSTORE PUSH1 0x24 PUSH1 0x0 REVERT JUMPDEST POP PUSH1 0x1 ADD SWAP1 JUMP JUMPDEST PUSH2 0x1093 DUP1 PUSH3 0x330 PUSH1 0x0 CODECOPY PUSH1 0x0 RETURN INVALID PUSH1 0x80 PUSH1 0x40 MSTORE PUSH1 0x4 CALLDATASIZE LT PUSH2 0xEB JUMPI PUSH1 0x0 CALLDATALOAD PUSH1 0xE0 SHR DUP1 PUSH4 0x715018A6 GT PUSH2 0x8A JUMPI DUP1 PUSH4 0xDF15C37E GT PUSH2 0x59 JUMPI DUP1 PUSH4 0xDF15C37E EQ PUSH2 0x257 JUMPI DUP1 PUSH4 0xE6ADC1EE EQ PUSH2 0x279 JUMPI DUP1 PUSH4 0xF2FDE38B EQ PUSH2 0x29B JUMPI DUP1 PUSH4 0xF82F83FF EQ PUSH2 0x2BB JUMPI PUSH2 0xFB JUMP JUMPDEST DUP1 PUSH4 0x715018A6 EQ PUSH2 0x1DA JUMPI DUP1 PUSH4 0x76602F2F EQ PUSH2 0x1EF JUMPI DUP1 PUSH4 0x7EEF2509 EQ PUSH2 0x20F JUMPI DUP1 PUSH4 0x8DA5CB5B EQ PUSH2 0x22F JUMPI PUSH2 0xFB JUMP JUMPDEST DUP1 PUSH4 0x29A62A76 GT PUSH2 0xC6 JUMPI DUP1 PUSH4 0x29A62A76 EQ PUSH2 0x170 JUMPI DUP1 PUSH4 0x5D55307D EQ PUSH2 0x185 JUMPI DUP1 PUSH4 0x5FC5E020 EQ PUSH2 0x1A5 JUMPI DUP1 PUSH4 0x67457E4C EQ PUSH2 0x1BA JUMPI PUSH2 0xFB JUMP JUMPDEST DUP1 PUSH3 0xB46F8 EQ PUSH2 0x104 JUMPI DUP1 PUSH4 0x19908016 EQ PUSH2 0x12C JUMPI DUP1 PUSH4 0x1F85E3CA EQ PUSH2 0x150 JUMPI PUSH2 0xFB JUMP JUMPDEST CALLDATASIZE PUSH2 0xFB JUMPI PUSH2 0xF9 CALLVALUE PUSH2 0x2F1 JUMP JUMPDEST STOP JUMPDEST PUSH2 0xF9 CALLVALUE PUSH2 0x2F1 JUMP JUMPDEST CALLVALUE DUP1 ISZERO PUSH2 0x110 JUMPI PUSH1 0x0 DUP1 REVERT JUMPDEST POP PUSH2 0x119 PUSH1 0x19 DUP2 JUMP JUMPDEST PUSH1 0x40 MLOAD SWAP1 DUP2 MSTORE PUSH1 0x20 ADD JUMPDEST PUSH1 0x40 MLOAD DUP1 SWAP2 SUB SWAP1 RETURN JUMPDEST CALLVALUE DUP1 ISZERO PUSH2 0x138 JUMPI PUSH1 0x0 DUP1 REVERT JUMPDEST POP PUSH1 0x6 SLOAD PUSH1 0xFF AND JUMPDEST PUSH1 0x40 MLOAD SWAP1 ISZERO ISZERO DUP2 MSTORE PUSH1 0x20 ADD PUSH2 0x123 JUMP JUMPDEST CALLVALUE DUP1 ISZERO PUSH2 0x15C JUMPI PUSH1 0x0 DUP1 REVERT JUMPDEST POP PUSH2 0xF9 PUSH2 0x16B CALLDATASIZE PUSH1 0x4 PUSH2 0xD13 JUMP JUMPDEST PUSH2 0x44E JUMP JUMPDEST CALLVALUE DUP1 ISZERO PUSH2 0x17C JUMPI PUSH1 0x0 DUP1 REVERT JUMPDEST POP PUSH2 0x119 PUSH1 0x3 DUP2 JUMP JUMPDEST CALLVALUE DUP1 ISZERO PUSH2 0x191 JUMPI PUSH1 0x0 DUP1 REVERT JUMPDEST POP PUSH2 0xF9 PUSH2 0x1A0 CALLDATASIZE PUSH1 0x4 PUSH2 0xD58 JUMP JUMPDEST PUSH2 0x49D JUMP JUMPDEST CALLVALUE DUP1 ISZERO PUSH2 0x1B1 JUMPI PUSH1 0x0 DUP1 REVERT JUMPDEST POP PUSH2 0x119 PUSH1 0x64 DUP2 JUMP JUMPDEST CALLVALUE DUP1 ISZERO PUSH2 0x1C6 JUMPI PUSH1 0x0 DUP1 REVERT JUMPDEST POP PUSH2 0x140 PUSH2 0x1D5 CALLDATASIZE PUSH1 0x4 PUSH2 0xD8B JUMP JUMPDEST PUSH2 0x827 JUMP JUMPDEST CALLVALUE DUP1 ISZERO PUSH2 0x1E6 JUMPI PUSH1 0x0 DUP1 REVERT JUMPDEST POP PUSH2 0xF9 PUSH2 0x855 JUMP JUMPDEST CALLVALUE DUP1 ISZERO PUSH2 0x1FB JUMPI PUSH1 0x0 DUP1 REVERT JUMPDEST POP PUSH2 0xF9 PUSH2 0x20A CALLDATASIZE PUSH1 0x4 PUSH2 0xDC6 JUMP JUMPDEST PUSH2 0x869 JUMP JUMPDEST CALLVALUE DUP1 ISZERO PUSH2 0x21B JUMPI PUSH1 0x0 DUP1 REVERT JUMPDEST POP PUSH2 0x119 PUSH2 0x22A CALLDATASIZE PUSH1 0x4 PUSH2 0xD58 JUMP JUMPDEST PUSH2 0x97E JUMP JUMPDEST CALLVALUE DUP1 ISZERO PUSH2 0x23B JUMPI PUSH1 0x0 DUP1 REVERT JUMPDEST POP PUSH1 0x0 SLOAD PUSH1 0x40 MLOAD PUSH1 0x1 PUSH1 0x1 PUSH1 0xA0 SHL SUB SWAP1 SWAP2 AND DUP2 MSTORE PUSH1 0x20 ADD PUSH2 0x123 JUMP JUMPDEST CALLVALUE DUP1 ISZERO PUSH2 0x263 JUMPI PUSH1 0x0 DUP1 REVERT JUMPDEST POP PUSH2 0x26C PUSH2 0xB57 JUMP JUMPDEST PUSH1 0x40 MLOAD PUSH2 0x123 SWAP2 SWAP1 PUSH2 0xDF2 JUMP JUMPDEST CALLVALUE DUP1 ISZERO PUSH2 0x285 JUMPI PUSH1 0x0 DUP1 REVERT JUMPDEST POP PUSH2 0x28E PUSH2 0xB9B JUMP JUMPDEST PUSH1 0x40 MLOAD PUSH2 0x123 SWAP2 SWAP1 PUSH2 0xE2C JUMP JUMPDEST CALLVALUE DUP1 ISZERO PUSH2 0x2A7 JUMPI PUSH1 0x0 DUP1 REVERT JUMPDEST POP PUSH2 0xF9 PUSH2 0x2B6 CALLDATASIZE PUSH1 0x4 PUSH2 0xE84 JUMP JUMPDEST PUSH2 0xC10 JUMP JUMPDEST CALLVALUE DUP1 ISZERO PUSH2 0x2C7 JUMPI PUSH1 0x0 DUP1 REVERT JUMPDEST POP PUSH2 0x119 PUSH2 0x2D6 CALLDATASIZE PUSH1 0x4 PUSH2 0xE84 JUMP JUMPDEST PUSH1 0x1 PUSH1 0x1 PUSH1 0xA0 SHL SUB AND PUSH1 0x0 SWAP1 DUP2 MSTORE PUSH1 0x7 PUSH1 0x20 MSTORE PUSH1 0x40 SWAP1 KECCAK256 SLOAD SWAP1 JUMP JUMPDEST PUSH1 0x6 SLOAD PUSH1 0xFF AND PUSH2 0x314 JUMPI PUSH1 0x40 MLOAD PUSH4 0x589ED34B PUSH1 0xE0 SHL DUP2 MSTORE PUSH1 0x4 ADD PUSH1 0x40 MLOAD DUP1 SWAP2 SUB SWAP1 REVERT JUMPDEST PUSH1 0x0 PUSH1 0x64 PUSH2 0x323 PUSH1 0x19 DUP5 PUSH2 0xEB5 JUMP JUMPDEST PUSH2 0x32D SWAP2 SWAP1 PUSH2 0xECC JUMP JUMPDEST PUSH1 0x2 SLOAD SWAP1 SWAP2 POP PUSH1 0x0 JUMPDEST DUP2 DUP2 LT ISZERO PUSH2 0x448 JUMPI PUSH1 0x0 PUSH1 0x2 DUP3 DUP2 SLOAD DUP2 LT PUSH2 0x353 JUMPI PUSH2 0x353 PUSH2 0xEEE JUMP JUMPDEST PUSH1 0x0 SWAP2 DUP3 MSTORE PUSH1 0x20 DUP1 DUP4 KECCAK256 PUSH1 0x40 DUP1 MLOAD DUP1 DUP3 ADD SWAP1 SWAP2 MSTORE PUSH1 0x2 SWAP1 SWAP4 MUL ADD DUP1 SLOAD PUSH1 0x1 PUSH1 0x1 PUSH1 0xA0 SHL SUB AND DUP4 MSTORE PUSH1 0x1 ADD SLOAD SWAP1 DUP3 ADD DUP2 SWAP1 MSTORE SWAP1 SWAP3 POP PUSH1 0x64 SWAP1 PUSH2 0x394 SWAP1 DUP8 PUSH2 0xEB5 JUMP JUMPDEST PUSH2 0x39E SWAP2 SWAP1 PUSH2 0xECC JUMP JUMPDEST SWAP1 POP PUSH1 0x0 DUP3 PUSH1 0x0 ADD MLOAD PUSH1 0x1 PUSH1 0x1 PUSH1 0xA0 SHL SUB AND DUP3 PUSH1 0x40 MLOAD PUSH1 0x0 PUSH1 0x40 MLOAD DUP1 DUP4 SUB DUP2 DUP6 DUP8 GAS CALL SWAP3 POP POP POP RETURNDATASIZE DUP1 PUSH1 0x0 DUP2 EQ PUSH2 0x3F1 JUMPI PUSH1 0x40 MLOAD SWAP2 POP PUSH1 0x1F NOT PUSH1 0x3F RETURNDATASIZE ADD AND DUP3 ADD PUSH1 0x40 MSTORE RETURNDATASIZE DUP3 MSTORE RETURNDATASIZE PUSH1 0x0 PUSH1 0x20 DUP5 ADD RETURNDATACOPY PUSH2 0x3F6 JUMP JUMPDEST PUSH1 0x60 SWAP2 POP JUMPDEST POP POP SWAP1 POP DUP1 PUSH2 0x432 JUMPI DUP3 MLOAD PUSH1 0x40 MLOAD PUSH4 0x373A7D43 PUSH1 0xE1 SHL DUP2 MSTORE PUSH1 0x1 PUSH1 0x1 PUSH1 0xA0 SHL SUB SWAP1 SWAP2 AND PUSH1 0x4 DUP3 ADD MSTORE PUSH1 0x24 DUP2 ADD DUP4 SWAP1 MSTORE PUSH1 0x44 ADD JUMPDEST PUSH1 0x40 MLOAD DUP1 SWAP2 SUB SWAP1 REVERT JUMPDEST POP POP POP DUP1 DUP1 PUSH2 0x440 SWAP1 PUSH2 0xF04 JUMP JUMPDEST SWAP2 POP POP PUSH2 0x336 JUMP JUMPDEST POP POP POP POP JUMP JUMPDEST PUSH2 0x456 PUSH2 0xC4E JUMP JUMPDEST PUSH1 0x6 DUP1 SLOAD PUSH1 0xFF NOT AND DUP3 ISZERO ISZERO SWAP1 DUP2 OR SWAP1 SWAP2 SSTORE PUSH1 0x40 MLOAD SWAP1 DUP2 MSTORE PUSH32 0xAFF50328F57C9CED983A9E3C360C67EE11633D860350531F0C11FC435751448C SWAP1 PUSH1 0x20 ADD PUSH1 0x40 MLOAD DUP1 SWAP2 SUB SWAP1 LOG1 POP JUMP JUMPDEST PUSH2 0x4A5 PUSH2 0xC7B JUMP JUMPDEST PUSH1 0x1 PUSH1 0x1 PUSH1 0xA0 SHL SUB DUP2 AND PUSH2 0x4CC JUMPI PUSH1 0x40 MLOAD PUSH4 0xD92E233D PUSH1 0xE0 SHL DUP2 MSTORE PUSH1 0x4 ADD PUSH1 0x40 MLOAD DUP1 SWAP2 SUB SWAP1 REVERT JUMPDEST PUSH1 0x1 PUSH1 0x1 PUSH1 0xA0 SHL SUB DUP2 AND PUSH1 0x0 SWAP1 DUP2 MSTORE PUSH1 0x7 PUSH1 0x20 MSTORE PUSH1 0x40 DUP2 KECCAK256 SLOAD SWAP1 DUP2 SWAP1 SUB PUSH2 0x506 JUMPI PUSH1 0x40 MLOAD PUSH4 0x215E7C9 PUSH1 0xE2 SHL DUP2 MSTORE PUSH1 0x4 ADD PUSH1 0x40 MLOAD DUP1 SWAP2 SUB SWAP1 REVERT JUMPDEST PUSH1 0x40 MLOAD PUSH4 0x51D930F9 PUSH1 0xE1 SHL DUP2 MSTORE PUSH1 0x1 PUSH1 0x1 PUSH1 0xA0 SHL SUB DUP5 DUP2 AND PUSH1 0x4 DUP4 ADD MSTORE PUSH1 0x0 SWAP2 SWAP1 DUP5 AND SWAP1 PUSH4 0xA3B261F2 SWAP1 PUSH1 0x24 ADD PUSH1 0x0 PUSH1 0x40 MLOAD DUP1 DUP4 SUB DUP2 DUP7 GAS STATICCALL ISZERO DUP1 ISZERO PUSH2 0x550 JUMPI RETURNDATASIZE PUSH1 0x0 DUP1 RETURNDATACOPY RETURNDATASIZE PUSH1 0x0 REVERT JUMPDEST POP POP POP POP PUSH1 0x40 MLOAD RETURNDATASIZE PUSH1 0x0 DUP3 RETURNDATACOPY PUSH1 0x1F RETURNDATASIZE SWAP1 DUP2 ADD PUSH1 0x1F NOT AND DUP3 ADD PUSH1 0x40 MSTORE PUSH2 0x578 SWAP2 SWAP1 DUP2 ADD SWAP1 PUSH2 0xF33 JUMP JUMPDEST DUP1 MLOAD SWAP1 SWAP2 POP PUSH1 0x0 DUP2 SWAP1 SUB PUSH2 0x5A2 JUMPI PUSH1 0x40 MLOAD PUSH1 0x1 PUSH3 0x5BFFD1 PUSH1 0xE0 SHL SUB NOT DUP2 MSTORE PUSH1 0x4 ADD PUSH1 0x40 MLOAD DUP1 SWAP2 SUB SWAP1 REVERT JUMPDEST PUSH1 0x0 DUP1 JUMPDEST DUP3 DUP2 LT ISZERO PUSH2 0x67D JUMPI PUSH1 0x1 PUSH1 0x1 PUSH1 0xA0 SHL SUB DUP7 AND PUSH1 0x0 SWAP1 DUP2 MSTORE PUSH1 0x8 PUSH1 0x20 MSTORE PUSH1 0x40 DUP2 KECCAK256 DUP6 MLOAD SWAP1 SWAP2 SWAP1 DUP7 SWAP1 DUP5 SWAP1 DUP2 LT PUSH2 0x5DD JUMPI PUSH2 0x5DD PUSH2 0xEEE JUMP JUMPDEST PUSH1 0x20 SWAP1 DUP2 MUL SWAP2 SWAP1 SWAP2 ADD DUP2 ADD MLOAD DUP3 MSTORE DUP2 ADD SWAP2 SWAP1 SWAP2 MSTORE PUSH1 0x40 ADD PUSH1 0x0 KECCAK256 SLOAD PUSH1 0xFF AND PUSH2 0x66B JUMPI PUSH1 0x1 PUSH1 0x1 PUSH1 0xA0 SHL SUB DUP7 AND PUSH1 0x0 SWAP1 DUP2 MSTORE PUSH1 0x8 PUSH1 0x20 MSTORE PUSH1 0x40 DUP2 KECCAK256 DUP6 MLOAD PUSH1 0x1 SWAP3 SWAP1 DUP8 SWAP1 DUP6 SWAP1 DUP2 LT PUSH2 0x62F JUMPI PUSH2 0x62F PUSH2 0xEEE JUMP JUMPDEST PUSH1 0x20 MUL PUSH1 0x20 ADD ADD MLOAD DUP2 MSTORE PUSH1 0x20 ADD SWAP1 DUP2 MSTORE PUSH1 0x20 ADD PUSH1 0x0 KECCAK256 PUSH1 0x0 PUSH2 0x100 EXP DUP2 SLOAD DUP2 PUSH1 0xFF MUL NOT AND SWAP1 DUP4 ISZERO ISZERO MUL OR SWAP1 SSTORE POP DUP2 DUP1 PUSH2 0x667 SWAP1 PUSH2 0xF04 JUMP JUMPDEST SWAP3 POP POP JUMPDEST DUP1 PUSH2 0x675 DUP2 PUSH2 0xF04 JUMP JUMPDEST SWAP2 POP POP PUSH2 0x5A6 JUMP JUMPDEST POP DUP1 PUSH1 0x0 SUB PUSH2 0x69F JUMPI PUSH1 0x40 MLOAD PUSH4 0x48798A9 PUSH1 0xE4 SHL DUP2 MSTORE PUSH1 0x4 ADD PUSH1 0x40 MLOAD DUP1 SWAP2 SUB SWAP1 REVERT JUMPDEST PUSH1 0x0 PUSH1 0x9 SLOAD DUP7 PUSH1 0x1 PUSH1 0x1 PUSH1 0xA0 SHL SUB AND PUSH4 0x18160DDD PUSH1 0x40 MLOAD DUP2 PUSH4 0xFFFFFFFF AND PUSH1 0xE0 SHL DUP2 MSTORE PUSH1 0x4 ADD PUSH1 0x20 PUSH1 0x40 MLOAD DUP1 DUP4 SUB DUP2 DUP7 GAS STATICCALL ISZERO DUP1 ISZERO PUSH2 0x6E2 JUMPI RETURNDATASIZE PUSH1 0x0 DUP1 RETURNDATACOPY RETURNDATASIZE PUSH1 0x0 REVERT JUMPDEST POP POP POP POP PUSH1 0x40 MLOAD RETURNDATASIZE PUSH1 0x1F NOT PUSH1 0x1F DUP3 ADD AND DUP3 ADD DUP1 PUSH1 0x40 MSTORE POP DUP2 ADD SWAP1 PUSH2 0x706 SWAP2 SWAP1 PUSH2 0xFE5 JUMP JUMPDEST PUSH2 0x710 SWAP2 SWAP1 PUSH2 0xFFE JUMP JUMPDEST SWAP1 POP PUSH1 0x0 DUP2 PUSH2 0x71F DUP8 DUP6 PUSH2 0xEB5 JUMP JUMPDEST PUSH2 0x729 SWAP2 SWAP1 PUSH2 0xECC JUMP JUMPDEST SWAP1 POP PUSH2 0x735 DUP2 DUP8 PUSH2 0xFFE JUMP JUMPDEST PUSH1 0x1 PUSH1 0x1 PUSH1 0xA0 SHL SUB DUP9 AND PUSH1 0x0 SWAP1 DUP2 MSTORE PUSH1 0x7 PUSH1 0x20 MSTORE PUSH1 0x40 SWAP1 KECCAK256 SSTORE PUSH1 0x9 SLOAD PUSH2 0x75C SWAP1 DUP5 SWAP1 PUSH2 0x1011 JUMP JUMPDEST PUSH1 0x9 SSTORE PUSH1 0x40 MLOAD PUSH1 0x0 SWAP1 PUSH1 0x1 PUSH1 0x1 PUSH1 0xA0 SHL SUB DUP11 AND SWAP1 DUP4 SWAP1 DUP4 DUP2 DUP2 DUP2 DUP6 DUP8 GAS CALL SWAP3 POP POP POP RETURNDATASIZE DUP1 PUSH1 0x0 DUP2 EQ PUSH2 0x7AA JUMPI PUSH1 0x40 MLOAD SWAP2 POP PUSH1 0x1F NOT PUSH1 0x3F RETURNDATASIZE ADD AND DUP3 ADD PUSH1 0x40 MSTORE RETURNDATASIZE DUP3 MSTORE RETURNDATASIZE PUSH1 0x0 PUSH1 0x20 DUP5 ADD RETURNDATACOPY PUSH2 0x7AF JUMP JUMPDEST PUSH1 0x60 SWAP2 POP JUMPDEST POP POP SWAP1 POP DUP1 PUSH2 0x7D1 JUMPI PUSH1 0x40 MLOAD PUSH4 0x12171D83 PUSH1 0xE3 SHL DUP2 MSTORE PUSH1 0x4 ADD PUSH1 0x40 MLOAD DUP1 SWAP2 SUB SWAP1 REVERT JUMPDEST PUSH1 0x40 DUP1 MLOAD PUSH1 0x1 PUSH1 0x1 PUSH1 0xA0 SHL SUB DUP12 AND DUP2 MSTORE PUSH1 0x20 DUP2 ADD DUP5 SWAP1 MSTORE PUSH32 0x95681E512BC0FE659E195E06C283EADA494316F3D801213E48E7101AF92BF770 SWAP2 ADD PUSH1 0x40 MLOAD DUP1 SWAP2 SUB SWAP1 LOG1 POP POP POP POP POP POP POP PUSH2 0x823 PUSH1 0x1 DUP1 SSTORE JUMP JUMPDEST POP POP JUMP JUMPDEST PUSH1 0x1 PUSH1 0x1 PUSH1 0xA0 SHL SUB DUP3 AND PUSH1 0x0 SWAP1 DUP2 MSTORE PUSH1 0x8 PUSH1 0x20 SWAP1 DUP2 MSTORE PUSH1 0x40 DUP1 DUP4 KECCAK256 DUP5 DUP5 MSTORE SWAP1 SWAP2 MSTORE SWAP1 KECCAK256 SLOAD PUSH1 0xFF AND JUMPDEST SWAP3 SWAP2 POP POP JUMP JUMPDEST PUSH2 0x85D PUSH2 0xC4E JUMP JUMPDEST PUSH2 0x867 PUSH1 0x0 PUSH2 0xCA5 JUMP JUMPDEST JUMP JUMPDEST PUSH2 0x871 PUSH2 0xC4E JUMP JUMPDEST PUSH1 0x6 SLOAD PUSH1 0xFF AND ISZERO PUSH2 0x887 JUMPI PUSH1 0x6 DUP1 SLOAD PUSH1 0xFF NOT AND SWAP1 SSTORE JUMPDEST PUSH1 0x0 JUMPDEST PUSH1 0x3 DUP2 LT ISZERO PUSH2 0x942 JUMPI PUSH1 0x0 DUP4 DUP3 PUSH1 0x3 DUP2 LT PUSH2 0x8A7 JUMPI PUSH2 0x8A7 PUSH2 0xEEE JUMP JUMPDEST PUSH1 0x20 MUL ADD PUSH1 0x20 DUP2 ADD SWAP1 PUSH2 0x8BA SWAP2 SWAP1 PUSH2 0xE84 JUMP JUMPDEST SWAP1 POP PUSH1 0x0 PUSH1 0x64 DUP5 DUP5 PUSH1 0x3 DUP2 LT PUSH2 0x8D2 JUMPI PUSH2 0x8D2 PUSH2 0xEEE JUMP JUMPDEST PUSH1 0x20 MUL ADD CALLDATALOAD SELFBALANCE PUSH2 0x8E2 SWAP2 SWAP1 PUSH2 0xEB5 JUMP JUMPDEST PUSH2 0x8EC SWAP2 SWAP1 PUSH2 0xECC JUMP JUMPDEST SWAP1 POP DUP2 PUSH1 0x3 DUP5 PUSH1 0x3 DUP2 LT PUSH2 0x902 JUMPI PUSH2 0x902 PUSH2 0xEEE JUMP JUMPDEST ADD DUP1 SLOAD PUSH1 0x1 PUSH1 0x1 PUSH1 0xA0 SHL SUB NOT AND PUSH1 0x1 PUSH1 0x1 PUSH1 0xA0 SHL SUB SWAP3 DUP4 AND OR SWAP1 SSTORE SWAP2 SWAP1 SWAP2 AND PUSH1 0x0 SWAP1 DUP2 MSTORE PUSH1 0x7 PUSH1 0x20 MSTORE PUSH1 0x40 SWAP1 KECCAK256 SSTORE DUP1 PUSH2 0x93A DUP2 PUSH2 0xF04 JUMP JUMPDEST SWAP2 POP POP PUSH2 0x88A JUMP JUMPDEST POP PUSH32 0x60F4D73182A956A559D177842626B4743585A36652A74D3EB1500E4479AC06EA DUP3 PUSH1 0x40 MLOAD PUSH2 0x972 SWAP2 SWAP1 PUSH2 0x1024 JUMP JUMPDEST PUSH1 0x40 MLOAD DUP1 SWAP2 SUB SWAP1 LOG1 POP POP JUMP JUMPDEST PUSH1 0x0 DUP1 PUSH1 0x7 PUSH1 0x0 DUP5 PUSH1 0x1 PUSH1 0x1 PUSH1 0xA0 SHL SUB AND PUSH1 0x1 PUSH1 0x1 PUSH1 0xA0 SHL SUB AND DUP2 MSTORE PUSH1 0x20 ADD SWAP1 DUP2 MSTORE PUSH1 0x20 ADD PUSH1 0x0 KECCAK256 SLOAD SWAP1 POP PUSH1 0x0 PUSH1 0x9 SLOAD DUP5 PUSH1 0x1 PUSH1 0x1 PUSH1 0xA0 SHL SUB AND PUSH4 0x18160DDD PUSH1 0x40 MLOAD DUP2 PUSH4 0xFFFFFFFF AND PUSH1 0xE0 SHL DUP2 MSTORE PUSH1 0x4 ADD PUSH1 0x20 PUSH1 0x40 MLOAD DUP1 DUP4 SUB DUP2 DUP7 GAS STATICCALL ISZERO DUP1 ISZERO PUSH2 0x9EC JUMPI RETURNDATASIZE PUSH1 0x0 DUP1 RETURNDATACOPY RETURNDATASIZE PUSH1 0x0 REVERT JUMPDEST POP POP POP POP PUSH1 0x40 MLOAD RETURNDATASIZE PUSH1 0x1F NOT PUSH1 0x1F DUP3 ADD AND DUP3 ADD DUP1 PUSH1 0x40 MSTORE POP DUP2 ADD SWAP1 PUSH2 0xA10 SWAP2 SWAP1 PUSH2 0xFE5 JUMP JUMPDEST PUSH2 0xA1A SWAP2 SWAP1 PUSH2 0xFFE JUMP JUMPDEST PUSH1 0x40 MLOAD PUSH4 0x51D930F9 PUSH1 0xE1 SHL DUP2 MSTORE PUSH1 0x1 PUSH1 0x1 PUSH1 0xA0 SHL SUB DUP8 DUP2 AND PUSH1 0x4 DUP4 ADD MSTORE SWAP2 SWAP3 POP PUSH1 0x0 SWAP2 DUP7 AND SWAP1 PUSH4 0xA3B261F2 SWAP1 PUSH1 0x24 ADD PUSH1 0x0 PUSH1 0x40 MLOAD DUP1 DUP4 SUB DUP2 DUP7 GAS STATICCALL ISZERO DUP1 ISZERO PUSH2 0xA66 JUMPI RETURNDATASIZE PUSH1 0x0 DUP1 RETURNDATACOPY RETURNDATASIZE PUSH1 0x0 REVERT JUMPDEST POP POP POP POP PUSH1 0x40 MLOAD RETURNDATASIZE PUSH1 0x0 DUP3 RETURNDATACOPY PUSH1 0x1F RETURNDATASIZE SWAP1 DUP2 ADD PUSH1 0x1F NOT AND DUP3 ADD PUSH1 0x40 MSTORE PUSH2 0xA8E SWAP2 SWAP1 DUP2 ADD SWAP1 PUSH2 0xF33 JUMP JUMPDEST DUP1 MLOAD SWAP1 SWAP2 POP PUSH1 0x0 DUP2 SWAP1 SUB PUSH2 0xAB8 JUMPI PUSH1 0x40 MLOAD PUSH1 0x1 PUSH3 0x5BFFD1 PUSH1 0xE0 SHL SUB NOT DUP2 MSTORE PUSH1 0x4 ADD PUSH1 0x40 MLOAD DUP1 SWAP2 SUB SWAP1 REVERT JUMPDEST PUSH1 0x0 DUP1 JUMPDEST DUP3 DUP2 LT ISZERO PUSH2 0xB35 JUMPI PUSH1 0x1 PUSH1 0x1 PUSH1 0xA0 SHL SUB DUP9 AND PUSH1 0x0 SWAP1 DUP2 MSTORE PUSH1 0x8 PUSH1 0x20 MSTORE PUSH1 0x40 DUP2 KECCAK256 DUP6 MLOAD SWAP1 SWAP2 SWAP1 DUP7 SWAP1 DUP5 SWAP1 DUP2 LT PUSH2 0xAF3 JUMPI PUSH2 0xAF3 PUSH2 0xEEE JUMP JUMPDEST PUSH1 0x20 SWAP1 DUP2 MUL SWAP2 SWAP1 SWAP2 ADD DUP2 ADD MLOAD DUP3 MSTORE DUP2 ADD SWAP2 SWAP1 SWAP2 MSTORE PUSH1 0x40 ADD PUSH1 0x0 KECCAK256 SLOAD PUSH1 0xFF AND PUSH2 0xB23 JUMPI DUP2 PUSH2 0xB1F DUP2 PUSH2 0xF04 JUMP JUMPDEST SWAP3 POP POP JUMPDEST DUP1 PUSH2 0xB2D DUP2 PUSH2 0xF04 JUMP JUMPDEST SWAP2 POP POP PUSH2 0xABC JUMP JUMPDEST POP DUP4 PUSH2 0xB41 DUP7 DUP4 PUSH2 0xEB5 JUMP JUMPDEST PUSH2 0xB4B SWAP2 SWAP1 PUSH2 0xECC JUMP JUMPDEST SWAP9 SWAP8 POP POP POP POP POP POP POP POP JUMP JUMPDEST PUSH2 0xB5F PUSH2 0xCF5 JUMP JUMPDEST PUSH1 0x40 DUP1 MLOAD PUSH1 0x60 DUP2 ADD SWAP2 DUP3 SWAP1 MSTORE SWAP1 PUSH1 0x3 SWAP1 DUP2 SWAP1 DUP2 DUP5 JUMPDEST DUP2 SLOAD PUSH1 0x1 PUSH1 0x1 PUSH1 0xA0 SHL SUB AND DUP2 MSTORE PUSH1 0x1 SWAP1 SWAP2 ADD SWAP1 PUSH1 0x20 ADD DUP1 DUP4 GT PUSH2 0xB74 JUMPI POP POP POP POP POP SWAP1 POP SWAP1 JUMP JUMPDEST PUSH1 0x60 PUSH1 0x2 DUP1 SLOAD DUP1 PUSH1 0x20 MUL PUSH1 0x20 ADD PUSH1 0x40 MLOAD SWAP1 DUP2 ADD PUSH1 0x40 MSTORE DUP1 SWAP3 SWAP2 SWAP1 DUP2 DUP2 MSTORE PUSH1 0x20 ADD PUSH1 0x0 SWAP1 JUMPDEST DUP3 DUP3 LT ISZERO PUSH2 0xC07 JUMPI PUSH1 0x0 DUP5 DUP2 MSTORE PUSH1 0x20 SWAP1 DUP2 SWAP1 KECCAK256 PUSH1 0x40 DUP1 MLOAD DUP1 DUP3 ADD SWAP1 SWAP2 MSTORE PUSH1 0x2 DUP6 MUL SWAP1 SWAP2 ADD DUP1 SLOAD PUSH1 0x1 PUSH1 0x1 PUSH1 0xA0 SHL SUB AND DUP3 MSTORE PUSH1 0x1 SWAP1 DUP2 ADD SLOAD DUP3 DUP5 ADD MSTORE SWAP1 DUP4 MSTORE SWAP1 SWAP3 ADD SWAP2 ADD PUSH2 0xBBF JUMP JUMPDEST POP POP POP POP SWAP1 POP SWAP1 JUMP JUMPDEST PUSH2 0xC18 PUSH2 0xC4E JUMP JUMPDEST PUSH1 0x1 PUSH1 0x1 PUSH1 0xA0 SHL SUB DUP2 AND PUSH2 0xC42 JUMPI PUSH1 0x40 MLOAD PUSH4 0x1E4FBDF7 PUSH1 0xE0 SHL DUP2 MSTORE PUSH1 0x0 PUSH1 0x4 DUP3 ADD MSTORE PUSH1 0x24 ADD PUSH2 0x429 JUMP JUMPDEST PUSH2 0xC4B DUP2 PUSH2 0xCA5 JUMP JUMPDEST POP JUMP JUMPDEST PUSH1 0x0 SLOAD PUSH1 0x1 PUSH1 0x1 PUSH1 0xA0 SHL SUB AND CALLER EQ PUSH2 0x867 JUMPI PUSH1 0x40 MLOAD PUSH4 0x118CDAA7 PUSH1 0xE0 SHL DUP2 MSTORE CALLER PUSH1 0x4 DUP3 ADD MSTORE PUSH1 0x24 ADD PUSH2 0x429 JUMP JUMPDEST PUSH1 0x2 PUSH1 0x1 SLOAD SUB PUSH2 0xC9E JUMPI PUSH1 0x40 MLOAD PUSH4 0x3EE5AEB5 PUSH1 0xE0 SHL DUP2 MSTORE PUSH1 0x4 ADD PUSH1 0x40 MLOAD DUP1 SWAP2 SUB SWAP1 REVERT JUMPDEST PUSH1 0x2 PUSH1 0x1 SSTORE JUMP JUMPDEST PUSH1 0x0 DUP1 SLOAD PUSH1 0x1 PUSH1 0x1 PUSH1 0xA0 SHL SUB DUP4 DUP2 AND PUSH1 0x1 PUSH1 0x1 PUSH1 0xA0 SHL SUB NOT DUP4 AND DUP2 OR DUP5 SSTORE PUSH1 0x40 MLOAD SWAP2 SWAP1 SWAP3 AND SWAP3 DUP4 SWAP2 PUSH32 0x8BE0079C531659141344CD1FD0A4F28419497F9722A3DAAFE3B4186F6B6457E0 SWAP2 SWAP1 LOG3 POP POP JUMP JUMPDEST PUSH1 0x40 MLOAD DUP1 PUSH1 0x60 ADD PUSH1 0x40 MSTORE DUP1 PUSH1 0x3 SWAP1 PUSH1 0x20 DUP3 MUL DUP1 CALLDATASIZE DUP4 CALLDATACOPY POP SWAP2 SWAP3 SWAP2 POP POP JUMP JUMPDEST PUSH1 0x0 PUSH1 0x20 DUP3 DUP5 SUB SLT ISZERO PUSH2 0xD25 JUMPI PUSH1 0x0 DUP1 REVERT JUMPDEST DUP2 CALLDATALOAD DUP1 ISZERO ISZERO DUP2 EQ PUSH2 0xD35 JUMPI PUSH1 0x0 DUP1 REVERT JUMPDEST SWAP4 SWAP3 POP POP POP JUMP JUMPDEST DUP1 CALLDATALOAD PUSH1 0x1 PUSH1 0x1 PUSH1 0xA0 SHL SUB DUP2 AND DUP2 EQ PUSH2 0xD53 JUMPI PUSH1 0x0 DUP1 REVERT JUMPDEST SWAP2 SWAP1 POP JUMP JUMPDEST PUSH1 0x0 DUP1 PUSH1 0x40 DUP4 DUP6 SUB SLT ISZERO PUSH2 0xD6B JUMPI PUSH1 0x0 DUP1 REVERT JUMPDEST PUSH2 0xD74 DUP4 PUSH2 0xD3C JUMP JUMPDEST SWAP2 POP PUSH2 0xD82 PUSH1 0x20 DUP5 ADD PUSH2 0xD3C JUMP JUMPDEST SWAP1 POP SWAP3 POP SWAP3 SWAP1 POP JUMP JUMPDEST PUSH1 0x0 DUP1 PUSH1 0x40 DUP4 DUP6 SUB SLT ISZERO PUSH2 0xD9E JUMPI PUSH1 0x0 DUP1 REVERT JUMPDEST PUSH2 0xDA7 DUP4 PUSH2 0xD3C JUMP JUMPDEST SWAP5 PUSH1 0x20 SWAP4 SWAP1 SWAP4 ADD CALLDATALOAD SWAP4 POP POP POP JUMP JUMPDEST DUP1 PUSH1 0x60 DUP2 ADD DUP4 LT ISZERO PUSH2 0x84F JUMPI PUSH1 0x0 DUP1 REVERT JUMPDEST PUSH1 0x0 DUP1 PUSH1 0xC0 DUP4 DUP6 SUB SLT ISZERO PUSH2 0xDD9 JUMPI PUSH1 0x0 DUP1 REVERT JUMPDEST PUSH2 0xDE3 DUP5 DUP5 PUSH2 0xDB5 JUMP JUMPDEST SWAP2 POP PUSH2 0xD82 DUP5 PUSH1 0x60 DUP6 ADD PUSH2 0xDB5 JUMP JUMPDEST PUSH1 0x60 DUP2 ADD DUP2 DUP4 PUSH1 0x0 JUMPDEST PUSH1 0x3 DUP2 LT ISZERO PUSH2 0xE23 JUMPI DUP2 MLOAD PUSH1 0x1 PUSH1 0x1 PUSH1 0xA0 SHL SUB AND DUP4 MSTORE PUSH1 0x20 SWAP3 DUP4 ADD SWAP3 SWAP1 SWAP2 ADD SWAP1 PUSH1 0x1 ADD PUSH2 0xDFB JUMP JUMPDEST POP POP POP SWAP3 SWAP2 POP POP JUMP JUMPDEST PUSH1 0x20 DUP1 DUP3 MSTORE DUP3 MLOAD DUP3 DUP3 ADD DUP2 SWAP1 MSTORE PUSH1 0x0 SWAP2 SWAP1 PUSH1 0x40 SWAP1 DUP2 DUP6 ADD SWAP1 DUP7 DUP5 ADD DUP6 JUMPDEST DUP3 DUP2 LT ISZERO PUSH2 0xE77 JUMPI DUP2 MLOAD DUP1 MLOAD PUSH1 0x1 PUSH1 0x1 PUSH1 0xA0 SHL SUB AND DUP6 MSTORE DUP7 ADD MLOAD DUP7 DUP6 ADD MSTORE SWAP3 DUP5 ADD SWAP3 SWAP1 DUP6 ADD SWAP1 PUSH1 0x1 ADD PUSH2 0xE49 JUMP JUMPDEST POP SWAP2 SWAP8 SWAP7 POP POP POP POP POP POP POP JUMP JUMPDEST PUSH1 0x0 PUSH1 0x20 DUP3 DUP5 SUB SLT ISZERO PUSH2 0xE96 JUMPI PUSH1 0x0 DUP1 REVERT JUMPDEST PUSH2 0xD35 DUP3 PUSH2 0xD3C JUMP JUMPDEST PUSH4 0x4E487B71 PUSH1 0xE0 SHL PUSH1 0x0 MSTORE PUSH1 0x11 PUSH1 0x4 MSTORE PUSH1 0x24 PUSH1 0x0 REVERT JUMPDEST DUP1 DUP3 MUL DUP2 ISZERO DUP3 DUP3 DIV DUP5 EQ OR PUSH2 0x84F JUMPI PUSH2 0x84F PUSH2 0xE9F JUMP JUMPDEST PUSH1 0x0 DUP3 PUSH2 0xEE9 JUMPI PUSH4 0x4E487B71 PUSH1 0xE0 SHL PUSH1 0x0 MSTORE PUSH1 0x12 PUSH1 0x4 MSTORE PUSH1 0x24 PUSH1 0x0 REVERT JUMPDEST POP DIV SWAP1 JUMP JUMPDEST PUSH4 0x4E487B71 PUSH1 0xE0 SHL PUSH1 0x0 MSTORE PUSH1 0x32 PUSH1 0x4 MSTORE PUSH1 0x24 PUSH1 0x0 REVERT JUMPDEST PUSH1 0x0 PUSH1 0x1 DUP3 ADD PUSH2 0xF16 JUMPI PUSH2 0xF16 PUSH2 0xE9F JUMP JUMPDEST POP PUSH1 0x1 ADD SWAP1 JUMP JUMPDEST PUSH4 0x4E487B71 PUSH1 0xE0 SHL PUSH1 0x0 MSTORE PUSH1 0x41 PUSH1 0x4 MSTORE PUSH1 0x24 PUSH1 0x0 REVERT JUMPDEST PUSH1 0x0 PUSH1 0x20 DUP1 DUP4 DUP6 SUB SLT ISZERO PUSH2 0xF46 JUMPI PUSH1 0x0 DUP1 REVERT JUMPDEST DUP3 MLOAD PUSH8 0xFFFFFFFFFFFFFFFF DUP1 DUP3 GT ISZERO PUSH2 0xF5E JUMPI PUSH1 0x0 DUP1 REVERT JUMPDEST DUP2 DUP6 ADD SWAP2 POP DUP6 PUSH1 0x1F DUP4 ADD SLT PUSH2 0xF72 JUMPI PUSH1 0x0 DUP1 REVERT JUMPDEST DUP2 MLOAD DUP2 DUP2 GT ISZERO PUSH2 0xF84 JUMPI PUSH2 0xF84 PUSH2 0xF1D JUMP JUMPDEST DUP1 PUSH1 0x5 SHL PUSH1 0x40 MLOAD PUSH1 0x1F NOT PUSH1 0x3F DUP4 ADD AND DUP2 ADD DUP2 DUP2 LT DUP6 DUP3 GT OR ISZERO PUSH2 0xFA9 JUMPI PUSH2 0xFA9 PUSH2 0xF1D JUMP JUMPDEST PUSH1 0x40 MSTORE SWAP2 DUP3 MSTORE DUP5 DUP3 ADD SWAP3 POP DUP4 DUP2 ADD DUP6 ADD SWAP2 DUP9 DUP4 GT ISZERO PUSH2 0xFC7 JUMPI PUSH1 0x0 DUP1 REVERT JUMPDEST SWAP4 DUP6 ADD SWAP4 JUMPDEST DUP3 DUP6 LT ISZERO PUSH2 0xB4B JUMPI DUP5 MLOAD DUP5 MSTORE SWAP4 DUP6 ADD SWAP4 SWAP3 DUP6 ADD SWAP3 PUSH2 0xFCC JUMP JUMPDEST PUSH1 0x0 PUSH1 0x20 DUP3 DUP5 SUB SLT ISZERO PUSH2 0xFF7 JUMPI PUSH1 0x0 DUP1 REVERT JUMPDEST POP MLOAD SWAP2 SWAP1 POP JUMP JUMPDEST DUP2 DUP2 SUB DUP2 DUP2 GT ISZERO PUSH2 0x84F JUMPI PUSH2 0x84F PUSH2 0xE9F JUMP JUMPDEST DUP1 DUP3 ADD DUP1 DUP3 GT ISZERO PUSH2 0x84F JUMPI PUSH2 0x84F PUSH2 0xE9F JUMP JUMPDEST PUSH1 0x60 DUP2 ADD DUP2 DUP4 PUSH1 0x0 JUMPDEST PUSH1 0x3 DUP2 LT ISZERO PUSH2 0xE23 JUMPI PUSH1 0x1 PUSH1 0x1 PUSH1 0xA0 SHL SUB PUSH2 0x1047 DUP4 PUSH2 0xD3C JUMP JUMPDEST AND DUP4 MSTORE PUSH1 0x20 SWAP3 DUP4 ADD SWAP3 SWAP2 SWAP1 SWAP2 ADD SWAP1 PUSH1 0x1 ADD PUSH2 0x102D JUMP INVALID LOG2 PUSH5 0x6970667358 0x22 SLT KECCAK256 0xC2 0xB1 MOD DUP7 0x4B MLOAD DUP16 SHL SHL 0xC9 0xBA DUP5 JUMPDEST PUSH11 0x44111938935727B3C54784 SWAP7 DUP5 0xBF DUP11 0xF9 0xE4 0xE0 PUSH5 0x736F6C6343 STOP ADDMOD EQ STOP CALLER "},"gasEstimates":{"creation":{"codeDepositCost":"848600","executionCost":"infinite","totalCost":"infinite"},"external":{"":"infinite","FEE_PERCENTAGE()":"208","MAX_WINNERS()":"207","SHARE_PRECISION()":"251","claimPrize(address,address)":"infinite","getCountryPrize(address)":"2614","getCreators()":"infinite","getPrize(address,address)":"infinite","getWinners()":"infinite","isClaimed(address,bytes32)":"2754","isMintOpen()":"2339","owner()":"2390","renounceOwnership()":"infinite","setMintStatus(bool)":"27785","setWinners(address[3],uint256[3])":"infinite","transferOwnership(address)":"28399"},"internal":{"_handleDeposit(uint256)":"infinite"}},"methodIdentifiers":{"FEE_PERCENTAGE()":"000b46f8","MAX_WINNERS()":"29a62a76","SHARE_PRECISION()":"5fc5e020","claimPrize(address,address)":"5d55307d","getCountryPrize(address)":"f82f83ff","getCreators()":"e6adc1ee","getPrize(address,address)":"7eef2509","getWinners()":"df15c37e","isClaimed(address,bytes32)":"67457e4c","isMintOpen()":"19908016","owner()":"8da5cb5b","renounceOwnership()":"715018a6","setMintStatus(bool)":"1f85e3ca","setWinners(address[3],uint256[3])":"76602f2f","transferOwnership(address)":"f2fde38b"}},"storageLayout":{"storage":[{"astId":283,"contract":"contracts/EurocupLegends.sol:EurocupLegends","label":"_owner","offset":0,"slot":"0","type":"t_address"},{"astId":463,"contract":"contracts/EurocupLegends.sol:EurocupLegends","label":"_status","offset":0,"slot":"1","type":"t_uint256"},{"astId":563,"contract":"contracts/EurocupLegends.sol:EurocupLegends","label":"s_creators","offset":0,"slot":"2","type":"t_array(t_struct(Creator)1107_storage)dyn_storage"},{"astId":567,"contract":"contracts/EurocupLegends.sol:EurocupLegends","label":"s_winners","offset":0,"slot":"3","type":"t_array(t_address)3_storage"},{"astId":570,"contract":"contracts/EurocupLegends.sol:EurocupLegends","label":"s_isMintOpen","offset":0,"slot":"6","type":"t_bool"},{"astId":574,"contract":"contracts/EurocupLegends.sol:EurocupLegends","label":"s_prizes","offset":0,"slot":"7","type":"t_mapping(t_address,t_uint256)"},{"astId":580,"contract":"contracts/EurocupLegends.sol:EurocupLegends","label":"s_isClaimed","offset":0,"slot":"8","type":"t_mapping(t_address,t_mapping(t_bytes32,t_bool))"},{"astId":582,"contract":"contracts/EurocupLegends.sol:EurocupLegends","label":"s_totalClaimed","offset":0,"slot":"9","type":"t_uint256"}],"types":{"t_address":{"encoding":"inplace","label":"address","numberOfBytes":"20"},"t_array(t_address)3_storage":{"base":"t_address","encoding":"inplace","label":"address[3]","numberOfBytes":"96"},"t_array(t_struct(Creator)1107_storage)dyn_storage":{"base":"t_struct(Creator)1107_storage","encoding":"dynamic_array","label":"struct IEurocupLegends.Creator[]","numberOfBytes":"32"},"t_bool":{"encoding":"inplace","label":"bool","numberOfBytes":"1"},"t_bytes32":{"encoding":"inplace","label":"bytes32","numberOfBytes":"32"},"t_mapping(t_address,t_mapping(t_bytes32,t_bool))":{"encoding":"mapping","key":"t_address","label":"mapping(address => mapping(bytes32 => bool))","numberOfBytes":"32","value":"t_mapping(t_bytes32,t_bool)"},"t_mapping(t_address,t_uint256)":{"encoding":"mapping","key":"t_address","label":"mapping(address => uint256)","numberOfBytes":"32","value":"t_uint256"},"t_mapping(t_bytes32,t_bool)":{"encoding":"mapping","key":"t_bytes32","label":"mapping(bytes32 => bool)","numberOfBytes":"32","value":"t_bool"},"t_struct(Creator)1107_storage":{"encoding":"inplace","label":"struct IEurocupLegends.Creator","members":[{"astId":1104,"contract":"contracts/EurocupLegends.sol:EurocupLegends","label":"creator","offset":0,"slot":"0","type":"t_address"},{"astId":1106,"contract":"contracts/EurocupLegends.sol:EurocupLegends","label":"share","offset":0,"slot":"1","type":"t_uint256"}],"numberOfBytes":"64"},"t_uint256":{"encoding":"inplace","label":"uint256","numberOfBytes":"32"}}},"userdoc":{"kind":"user","methods":{},"version":1}}}}